{
  "_format": "hh-sol-artifact-1",
  "contractName": "L2Registry",
  "sourceName": "contracts/durin/L2Registry.sol",
  "abi": [
    {
      "inputs": [],
      "stateMutability": "nonpayable",
      "type": "constructor"
    },
    {
      "inputs": [
        {
          "internalType": "address",
          "name": "sender",
          "type": "address"
        },
        {
          "internalType": "uint256",
          "name": "tokenId",
          "type": "uint256"
        },
        {
          "internalType": "address",
          "name": "owner",
          "type": "address"
        }
      ],
      "name": "ERC721IncorrectOwner",
      "type": "error"
    },
    {
      "inputs": [
        {
          "internalType": "address",
          "name": "operator",
          "type": "address"
        },
        {
          "internalType": "uint256",
          "name": "tokenId",
          "type": "uint256"
        }
      ],
      "name": "ERC721InsufficientApproval",
      "type": "error"
    },
    {
      "inputs": [
        {
          "internalType": "address",
          "name": "approver",
          "type": "address"
        }
      ],
      "name": "ERC721InvalidApprover",
      "type": "error"
    },
    {
      "inputs": [
        {
          "internalType": "address",
          "name": "operator",
          "type": "address"
        }
      ],
      "name": "ERC721InvalidOperator",
      "type": "error"
    },
    {
      "inputs": [
        {
          "internalType": "address",
          "name": "owner",
          "type": "address"
        }
      ],
      "name": "ERC721InvalidOwner",
      "type": "error"
    },
    {
      "inputs": [
        {
          "internalType": "address",
          "name": "receiver",
          "type": "address"
        }
      ],
      "name": "ERC721InvalidReceiver",
      "type": "error"
    },
    {
      "inputs": [
        {
          "internalType": "address",
          "name": "sender",
          "type": "address"
        }
      ],
      "name": "ERC721InvalidSender",
      "type": "error"
    },
    {
      "inputs": [
        {
          "internalType": "uint256",
          "name": "tokenId",
          "type": "uint256"
        }
      ],
      "name": "ERC721NonexistentToken",
      "type": "error"
    },
    {
      "inputs": [],
      "name": "InvalidInitialization",
      "type": "error"
    },
    {
      "inputs": [],
      "name": "InvalidName",
      "type": "error"
    },
    {
      "inputs": [
        {
          "internalType": "string",
          "name": "label",
          "type": "string"
        }
      ],
      "name": "LabelTooLong",
      "type": "error"
    },
    {
      "inputs": [],
      "name": "LabelTooShort",
      "type": "error"
    },
    {
      "inputs": [
        {
          "internalType": "string",
          "name": "label",
          "type": "string"
        },
        {
          "internalType": "bytes32",
          "name": "parentNode",
          "type": "bytes32"
        }
      ],
      "name": "NotAvailable",
      "type": "error"
    },
    {
      "inputs": [],
      "name": "NotInitializing",
      "type": "error"
    },
    {
      "inputs": [],
      "name": "SignatureExpired",
      "type": "error"
    },
    {
      "inputs": [
        {
          "internalType": "bytes32",
          "name": "node",
          "type": "bytes32"
        }
      ],
      "name": "Unauthorized",
      "type": "error"
    },
    {
      "anonymous": false,
      "inputs": [
        {
          "indexed": true,
          "internalType": "bytes32",
          "name": "node",
          "type": "bytes32"
        },
        {
          "indexed": true,
          "internalType": "uint256",
          "name": "contentType",
          "type": "uint256"
        }
      ],
      "name": "ABIChanged",
      "type": "event"
    },
    {
      "anonymous": false,
      "inputs": [
        {
          "indexed": true,
          "internalType": "bytes32",
          "name": "node",
          "type": "bytes32"
        },
        {
          "indexed": false,
          "internalType": "address",
          "name": "a",
          "type": "address"
        }
      ],
      "name": "AddrChanged",
      "type": "event"
    },
    {
      "anonymous": false,
      "inputs": [
        {
          "indexed": true,
          "internalType": "bytes32",
          "name": "node",
          "type": "bytes32"
        },
        {
          "indexed": false,
          "internalType": "uint256",
          "name": "coinType",
          "type": "uint256"
        },
        {
          "indexed": false,
          "internalType": "bytes",
          "name": "newAddress",
          "type": "bytes"
        }
      ],
      "name": "AddressChanged",
      "type": "event"
    },
    {
      "anonymous": false,
      "inputs": [
        {
          "indexed": true,
          "internalType": "address",
          "name": "owner",
          "type": "address"
        },
        {
          "indexed": true,
          "internalType": "address",
          "name": "approved",
          "type": "address"
        },
        {
          "indexed": true,
          "internalType": "uint256",
          "name": "tokenId",
          "type": "uint256"
        }
      ],
      "name": "Approval",
      "type": "event"
    },
    {
      "anonymous": false,
      "inputs": [
        {
          "indexed": true,
          "internalType": "address",
          "name": "owner",
          "type": "address"
        },
        {
          "indexed": true,
          "internalType": "address",
          "name": "operator",
          "type": "address"
        },
        {
          "indexed": false,
          "internalType": "bool",
          "name": "approved",
          "type": "bool"
        }
      ],
      "name": "ApprovalForAll",
      "type": "event"
    },
    {
      "anonymous": false,
      "inputs": [
        {
          "indexed": false,
          "internalType": "string",
          "name": "baseURI",
          "type": "string"
        }
      ],
      "name": "BaseURIUpdated",
      "type": "event"
    },
    {
      "anonymous": false,
      "inputs": [
        {
          "indexed": true,
          "internalType": "bytes32",
          "name": "node",
          "type": "bytes32"
        },
        {
          "indexed": false,
          "internalType": "bytes",
          "name": "hash",
          "type": "bytes"
        }
      ],
      "name": "ContenthashChanged",
      "type": "event"
    },
    {
      "anonymous": false,
      "inputs": [
        {
          "indexed": false,
          "internalType": "uint64",
          "name": "version",
          "type": "uint64"
        }
      ],
      "name": "Initialized",
      "type": "event"
    },
    {
      "anonymous": false,
      "inputs": [
        {
          "indexed": true,
          "internalType": "bytes32",
          "name": "parentNode",
          "type": "bytes32"
        },
        {
          "indexed": true,
          "internalType": "bytes32",
          "name": "labelhash",
          "type": "bytes32"
        },
        {
          "indexed": false,
          "internalType": "address",
          "name": "owner",
          "type": "address"
        }
      ],
      "name": "NewOwner",
      "type": "event"
    },
    {
      "anonymous": false,
      "inputs": [
        {
          "indexed": false,
          "internalType": "address",
          "name": "registrar",
          "type": "address"
        }
      ],
      "name": "RegistrarAdded",
      "type": "event"
    },
    {
      "anonymous": false,
      "inputs": [
        {
          "indexed": false,
          "internalType": "address",
          "name": "registrar",
          "type": "address"
        }
      ],
      "name": "RegistrarRemoved",
      "type": "event"
    },
    {
      "anonymous": false,
      "inputs": [
        {
          "indexed": true,
          "internalType": "bytes32",
          "name": "node",
          "type": "bytes32"
        },
        {
          "indexed": false,
          "internalType": "bytes",
          "name": "name",
          "type": "bytes"
        },
        {
          "indexed": false,
          "internalType": "address",
          "name": "owner",
          "type": "address"
        }
      ],
      "name": "SubnodeCreated",
      "type": "event"
    },
    {
      "anonymous": false,
      "inputs": [
        {
          "indexed": true,
          "internalType": "bytes32",
          "name": "node",
          "type": "bytes32"
        },
        {
          "indexed": true,
          "internalType": "string",
          "name": "indexedKey",
          "type": "string"
        },
        {
          "indexed": false,
          "internalType": "string",
          "name": "key",
          "type": "string"
        },
        {
          "indexed": false,
          "internalType": "string",
          "name": "value",
          "type": "string"
        }
      ],
      "name": "TextChanged",
      "type": "event"
    },
    {
      "anonymous": false,
      "inputs": [
        {
          "indexed": true,
          "internalType": "address",
          "name": "from",
          "type": "address"
        },
        {
          "indexed": true,
          "internalType": "address",
          "name": "to",
          "type": "address"
        },
        {
          "indexed": true,
          "internalType": "uint256",
          "name": "tokenId",
          "type": "uint256"
        }
      ],
      "name": "Transfer",
      "type": "event"
    },
    {
      "anonymous": false,
      "inputs": [
        {
          "indexed": true,
          "internalType": "bytes32",
          "name": "node",
          "type": "bytes32"
        },
        {
          "indexed": false,
          "internalType": "uint64",
          "name": "newVersion",
          "type": "uint64"
        }
      ],
      "name": "VersionChanged",
      "type": "event"
    },
    {
      "inputs": [
        {
          "internalType": "bytes32",
          "name": "node",
          "type": "bytes32"
        },
        {
          "internalType": "uint256",
          "name": "contentTypes",
          "type": "uint256"
        }
      ],
      "name": "ABI",
      "outputs": [
        {
          "internalType": "uint256",
          "name": "",
          "type": "uint256"
        },
        {
          "internalType": "bytes",
          "name": "",
          "type": "bytes"
        }
      ],
      "stateMutability": "view",
      "type": "function"
    },
    {
      "inputs": [
        {
          "internalType": "address",
          "name": "registrar",
          "type": "address"
        }
      ],
      "name": "addRegistrar",
      "outputs": [],
      "stateMutability": "nonpayable",
      "type": "function"
    },
    {
      "inputs": [
        {
          "internalType": "bytes32",
          "name": "node",
          "type": "bytes32"
        }
      ],
      "name": "addr",
      "outputs": [
        {
          "internalType": "address payable",
          "name": "",
          "type": "address"
        }
      ],
      "stateMutability": "view",
      "type": "function"
    },
    {
      "inputs": [
        {
          "internalType": "bytes32",
          "name": "node",
          "type": "bytes32"
        },
        {
          "internalType": "uint256",
          "name": "coinType",
          "type": "uint256"
        }
      ],
      "name": "addr",
      "outputs": [
        {
          "internalType": "bytes",
          "name": "",
          "type": "bytes"
        }
      ],
      "stateMutability": "view",
      "type": "function"
    },
    {
      "inputs": [
        {
          "internalType": "address",
          "name": "to",
          "type": "address"
        },
        {
          "internalType": "uint256",
          "name": "tokenId",
          "type": "uint256"
        }
      ],
      "name": "approve",
      "outputs": [],
      "stateMutability": "nonpayable",
      "type": "function"
    },
    {
      "inputs": [
        {
          "internalType": "address",
          "name": "owner",
          "type": "address"
        }
      ],
      "name": "balanceOf",
      "outputs": [
        {
          "internalType": "uint256",
          "name": "",
          "type": "uint256"
        }
      ],
      "stateMutability": "view",
      "type": "function"
    },
    {
      "inputs": [],
      "name": "baseNode",
      "outputs": [
        {
          "internalType": "bytes32",
          "name": "",
          "type": "bytes32"
        }
      ],
      "stateMutability": "view",
      "type": "function"
    },
    {
      "inputs": [
        {
          "internalType": "bytes32",
          "name": "node",
          "type": "bytes32"
        }
      ],
      "name": "clearRecords",
      "outputs": [],
      "stateMutability": "nonpayable",
      "type": "function"
    },
    {
      "inputs": [
        {
          "internalType": "bytes32",
          "name": "node",
          "type": "bytes32"
        }
      ],
      "name": "contenthash",
      "outputs": [
        {
          "internalType": "bytes",
          "name": "",
          "type": "bytes"
        }
      ],
      "stateMutability": "view",
      "type": "function"
    },
    {
      "inputs": [
        {
          "internalType": "bytes32",
          "name": "node",
          "type": "bytes32"
        },
        {
          "internalType": "string",
          "name": "label",
          "type": "string"
        },
        {
          "internalType": "address",
          "name": "_owner",
          "type": "address"
        },
        {
          "internalType": "bytes[]",
          "name": "data",
          "type": "bytes[]"
        }
      ],
      "name": "createSubnode",
      "outputs": [
        {
          "internalType": "bytes32",
          "name": "",
          "type": "bytes32"
        }
      ],
      "stateMutability": "nonpayable",
      "type": "function"
    },
    {
      "inputs": [
        {
          "internalType": "bytes",
          "name": "_name",
          "type": "bytes"
        }
      ],
      "name": "decodeName",
      "outputs": [
        {
          "internalType": "string",
          "name": "",
          "type": "string"
        }
      ],
      "stateMutability": "pure",
      "type": "function"
    },
    {
      "inputs": [
        {
          "internalType": "uint256",
          "name": "tokenId",
          "type": "uint256"
        }
      ],
      "name": "getApproved",
      "outputs": [
        {
          "internalType": "address",
          "name": "",
          "type": "address"
        }
      ],
      "stateMutability": "view",
      "type": "function"
    },
    {
      "inputs": [
        {
          "internalType": "string",
          "name": "tokenName",
          "type": "string"
        },
        {
          "internalType": "string",
          "name": "tokenSymbol",
          "type": "string"
        },
        {
          "internalType": "string",
          "name": "baseURI",
          "type": "string"
        },
        {
          "internalType": "address",
          "name": "admin",
          "type": "address"
        }
      ],
      "name": "initialize",
      "outputs": [],
      "stateMutability": "nonpayable",
      "type": "function"
    },
    {
      "inputs": [
        {
          "internalType": "address",
          "name": "owner",
          "type": "address"
        },
        {
          "internalType": "address",
          "name": "operator",
          "type": "address"
        }
      ],
      "name": "isApprovedForAll",
      "outputs": [
        {
          "internalType": "bool",
          "name": "",
          "type": "bool"
        }
      ],
      "stateMutability": "view",
      "type": "function"
    },
    {
      "inputs": [
        {
          "internalType": "bytes32",
          "name": "parentNode",
          "type": "bytes32"
        },
        {
          "internalType": "string",
          "name": "label",
          "type": "string"
        }
      ],
      "name": "makeNode",
      "outputs": [
        {
          "internalType": "bytes32",
          "name": "",
          "type": "bytes32"
        }
      ],
      "stateMutability": "pure",
      "type": "function"
    },
    {
      "inputs": [
        {
          "internalType": "bytes[]",
          "name": "data",
          "type": "bytes[]"
        }
      ],
      "name": "multicall",
      "outputs": [
        {
          "internalType": "bytes[]",
          "name": "results",
          "type": "bytes[]"
        }
      ],
      "stateMutability": "nonpayable",
      "type": "function"
    },
    {
      "inputs": [
        {
          "internalType": "bytes32",
          "name": "nodehash",
          "type": "bytes32"
        },
        {
          "internalType": "bytes[]",
          "name": "data",
          "type": "bytes[]"
        }
      ],
      "name": "multicallWithNodeCheck",
      "outputs": [
        {
          "internalType": "bytes[]",
          "name": "results",
          "type": "bytes[]"
        }
      ],
      "stateMutability": "nonpayable",
      "type": "function"
    },
    {
      "inputs": [],
      "name": "name",
      "outputs": [
        {
          "internalType": "string",
          "name": "",
          "type": "string"
        }
      ],
      "stateMutability": "view",
      "type": "function"
    },
    {
      "inputs": [
        {
          "internalType": "string",
          "name": "_name",
          "type": "string"
        }
      ],
      "name": "namehash",
      "outputs": [
        {
          "internalType": "bytes32",
          "name": "",
          "type": "bytes32"
        }
      ],
      "stateMutability": "pure",
      "type": "function"
    },
    {
      "inputs": [
        {
          "internalType": "bytes32",
          "name": "node",
          "type": "bytes32"
        }
      ],
      "name": "names",
      "outputs": [
        {
          "internalType": "bytes",
          "name": "name",
          "type": "bytes"
        }
      ],
      "stateMutability": "view",
      "type": "function"
    },
    {
      "inputs": [
        {
          "internalType": "bytes32",
          "name": "node",
          "type": "bytes32"
        }
      ],
      "name": "owner",
      "outputs": [
        {
          "internalType": "address",
          "name": "",
          "type": "address"
        }
      ],
      "stateMutability": "view",
      "type": "function"
    },
    {
      "inputs": [],
      "name": "owner",
      "outputs": [
        {
          "internalType": "address",
          "name": "",
          "type": "address"
        }
      ],
      "stateMutability": "view",
      "type": "function"
    },
    {
      "inputs": [
        {
          "internalType": "uint256",
          "name": "tokenId",
          "type": "uint256"
        }
      ],
      "name": "ownerOf",
      "outputs": [
        {
          "internalType": "address",
          "name": "",
          "type": "address"
        }
      ],
      "stateMutability": "view",
      "type": "function"
    },
    {
      "inputs": [
        {
          "internalType": "bytes32",
          "name": "",
          "type": "bytes32"
        }
      ],
      "name": "recordVersions",
      "outputs": [
        {
          "internalType": "uint64",
          "name": "",
          "type": "uint64"
        }
      ],
      "stateMutability": "view",
      "type": "function"
    },
    {
      "inputs": [
        {
          "internalType": "address",
          "name": "registrar",
          "type": "address"
        }
      ],
      "name": "registrars",
      "outputs": [
        {
          "internalType": "bool",
          "name": "approved",
          "type": "bool"
        }
      ],
      "stateMutability": "view",
      "type": "function"
    },
    {
      "inputs": [
        {
          "internalType": "address",
          "name": "registrar",
          "type": "address"
        }
      ],
      "name": "removeRegistrar",
      "outputs": [],
      "stateMutability": "nonpayable",
      "type": "function"
    },
    {
      "inputs": [
        {
          "internalType": "bytes",
          "name": "",
          "type": "bytes"
        },
        {
          "internalType": "bytes",
          "name": "data",
          "type": "bytes"
        }
      ],
      "name": "resolve",
      "outputs": [
        {
          "internalType": "bytes",
          "name": "",
          "type": "bytes"
        }
      ],
      "stateMutability": "view",
      "type": "function"
    },
    {
      "inputs": [
        {
          "internalType": "address",
          "name": "from",
          "type": "address"
        },
        {
          "internalType": "address",
          "name": "to",
          "type": "address"
        },
        {
          "internalType": "uint256",
          "name": "tokenId",
          "type": "uint256"
        }
      ],
      "name": "safeTransferFrom",
      "outputs": [],
      "stateMutability": "nonpayable",
      "type": "function"
    },
    {
      "inputs": [
        {
          "internalType": "address",
          "name": "from",
          "type": "address"
        },
        {
          "internalType": "address",
          "name": "to",
          "type": "address"
        },
        {
          "internalType": "uint256",
          "name": "tokenId",
          "type": "uint256"
        },
        {
          "internalType": "bytes",
          "name": "data",
          "type": "bytes"
        }
      ],
      "name": "safeTransferFrom",
      "outputs": [],
      "stateMutability": "nonpayable",
      "type": "function"
    },
    {
      "inputs": [
        {
          "internalType": "bytes32",
          "name": "node",
          "type": "bytes32"
        },
        {
          "internalType": "uint256",
          "name": "contentType",
          "type": "uint256"
        },
        {
          "internalType": "bytes",
          "name": "data",
          "type": "bytes"
        }
      ],
      "name": "setABI",
      "outputs": [],
      "stateMutability": "nonpayable",
      "type": "function"
    },
    {
      "inputs": [
        {
          "internalType": "bytes32",
          "name": "node",
          "type": "bytes32"
        },
        {
          "internalType": "uint256",
          "name": "contentType",
          "type": "uint256"
        },
        {
          "internalType": "bytes",
          "name": "data",
          "type": "bytes"
        },
        {
          "internalType": "uint256",
          "name": "expiration",
          "type": "uint256"
        },
        {
          "internalType": "address",
          "name": "signer",
          "type": "address"
        },
        {
          "internalType": "bytes",
          "name": "signature",
          "type": "bytes"
        }
      ],
      "name": "setABIWithSignature",
      "outputs": [],
      "stateMutability": "nonpayable",
      "type": "function"
    },
    {
      "inputs": [
        {
          "internalType": "bytes32",
          "name": "node",
          "type": "bytes32"
        },
        {
          "internalType": "uint256",
          "name": "coinType",
          "type": "uint256"
        },
        {
          "internalType": "bytes",
          "name": "a",
          "type": "bytes"
        }
      ],
      "name": "setAddr",
      "outputs": [],
      "stateMutability": "nonpayable",
      "type": "function"
    },
    {
      "inputs": [
        {
          "internalType": "bytes32",
          "name": "node",
          "type": "bytes32"
        },
        {
          "internalType": "address",
          "name": "a",
          "type": "address"
        }
      ],
      "name": "setAddr",
      "outputs": [],
      "stateMutability": "nonpayable",
      "type": "function"
    },
    {
      "inputs": [
        {
          "internalType": "bytes32",
          "name": "node",
          "type": "bytes32"
        },
        {
          "internalType": "uint256",
          "name": "coinType",
          "type": "uint256"
        },
        {
          "internalType": "bytes",
          "name": "a",
          "type": "bytes"
        },
        {
          "internalType": "uint256",
          "name": "expiration",
          "type": "uint256"
        },
        {
          "internalType": "address",
          "name": "signer",
          "type": "address"
        },
        {
          "internalType": "bytes",
          "name": "signature",
          "type": "bytes"
        }
      ],
      "name": "setAddrWithSignature",
      "outputs": [],
      "stateMutability": "nonpayable",
      "type": "function"
    },
    {
      "inputs": [
        {
          "internalType": "address",
          "name": "operator",
          "type": "address"
        },
        {
          "internalType": "bool",
          "name": "approved",
          "type": "bool"
        }
      ],
      "name": "setApprovalForAll",
      "outputs": [],
      "stateMutability": "nonpayable",
      "type": "function"
    },
    {
      "inputs": [
        {
          "internalType": "string",
          "name": "baseURI",
          "type": "string"
        }
      ],
      "name": "setBaseURI",
      "outputs": [],
      "stateMutability": "nonpayable",
      "type": "function"
    },
    {
      "inputs": [
        {
          "internalType": "bytes32",
          "name": "node",
          "type": "bytes32"
        },
        {
          "internalType": "bytes",
          "name": "hash",
          "type": "bytes"
        }
      ],
      "name": "setContenthash",
      "outputs": [],
      "stateMutability": "nonpayable",
      "type": "function"
    },
    {
      "inputs": [
        {
          "internalType": "bytes32",
          "name": "node",
          "type": "bytes32"
        },
        {
          "internalType": "bytes",
          "name": "hash",
          "type": "bytes"
        },
        {
          "internalType": "uint256",
          "name": "expiration",
          "type": "uint256"
        },
        {
          "internalType": "address",
          "name": "signer",
          "type": "address"
        },
        {
          "internalType": "bytes",
          "name": "signature",
          "type": "bytes"
        }
      ],
      "name": "setContenthashWithSignature",
      "outputs": [],
      "stateMutability": "nonpayable",
      "type": "function"
    },
    {
      "inputs": [
        {
          "internalType": "bytes32",
          "name": "node",
          "type": "bytes32"
        },
        {
          "internalType": "string",
          "name": "key",
          "type": "string"
        },
        {
          "internalType": "string",
          "name": "value",
          "type": "string"
        }
      ],
      "name": "setText",
      "outputs": [],
      "stateMutability": "nonpayable",
      "type": "function"
    },
    {
      "inputs": [
        {
          "internalType": "bytes32",
          "name": "node",
          "type": "bytes32"
        },
        {
          "internalType": "string",
          "name": "key",
          "type": "string"
        },
        {
          "internalType": "string",
          "name": "value",
          "type": "string"
        },
        {
          "internalType": "uint256",
          "name": "expiration",
          "type": "uint256"
        },
        {
          "internalType": "address",
          "name": "signer",
          "type": "address"
        },
        {
          "internalType": "bytes",
          "name": "signature",
          "type": "bytes"
        }
      ],
      "name": "setTextWithSignature",
      "outputs": [],
      "stateMutability": "nonpayable",
      "type": "function"
    },
    {
      "inputs": [
        {
          "internalType": "bytes4",
          "name": "interfaceId",
          "type": "bytes4"
        }
      ],
      "name": "supportsInterface",
      "outputs": [
        {
          "internalType": "bool",
          "name": "",
          "type": "bool"
        }
      ],
      "stateMutability": "view",
      "type": "function"
    },
    {
      "inputs": [],
      "name": "symbol",
      "outputs": [
        {
          "internalType": "string",
          "name": "",
          "type": "string"
        }
      ],
      "stateMutability": "view",
      "type": "function"
    },
    {
      "inputs": [
        {
          "internalType": "bytes32",
          "name": "node",
          "type": "bytes32"
        },
        {
          "internalType": "string",
          "name": "key",
          "type": "string"
        }
      ],
      "name": "text",
      "outputs": [
        {
          "internalType": "string",
          "name": "",
          "type": "string"
        }
      ],
      "stateMutability": "view",
      "type": "function"
    },
    {
      "inputs": [
        {
          "internalType": "uint256",
          "name": "tokenId",
          "type": "uint256"
        }
      ],
      "name": "tokenURI",
      "outputs": [
        {
          "internalType": "string",
          "name": "",
          "type": "string"
        }
      ],
      "stateMutability": "view",
      "type": "function"
    },
    {
      "inputs": [],
      "name": "totalSupply",
      "outputs": [
        {
          "internalType": "uint256",
          "name": "",
          "type": "uint256"
        }
      ],
      "stateMutability": "view",
      "type": "function"
    },
    {
      "inputs": [
        {
          "internalType": "address",
          "name": "from",
          "type": "address"
        },
        {
          "internalType": "address",
          "name": "to",
          "type": "address"
        },
        {
          "internalType": "uint256",
          "name": "tokenId",
          "type": "uint256"
        }
      ],
      "name": "transferFrom",
      "outputs": [],
      "stateMutability": "nonpayable",
      "type": "function"
    }
  ],
  "bytecode": "0x60a060405273164af34faf9879394370c7f09064127c043a35e960805234801561002857600080fd5b50604080516020808201835260008083528351918201909352828152909161005083826101bf565b50600161005d82826101bf565b5061006991505061006e565b61027d565b7ff0c57e16840df040f15088dc2f81fe391c3923bec73e23a9662efc9c229c6a00805468010000000000000000900460ff16156100be5760405163f92ee8a960e01b815260040160405180910390fd5b80546001600160401b039081161461011d5780546001600160401b0319166001600160401b0390811782556040519081527fc7f505b2f371ae2175ee4913f4499e1f2633a7b5936321eed1cdaeb6115181d29060200160405180910390a15b50565b634e487b7160e01b600052604160045260246000fd5b600181811c9082168061014a57607f821691505b60208210810361016a57634e487b7160e01b600052602260045260246000fd5b50919050565b601f8211156101ba57806000526020600020601f840160051c810160208510156101975750805b601f840160051c820191505b818110156101b757600081556001016101a3565b50505b505050565b81516001600160401b038111156101d8576101d8610120565b6101ec816101e68454610136565b84610170565b6020601f82116001811461022057600083156102085750848201515b600019600385901b1c1916600184901b1784556101b7565b600084815260208120601f198516915b828110156102505787850151825560209485019460019092019101610230565b508482101561026e5786840151600019600387901b60f8161c191681555b50505050600190811b01905550565b60805161426a6102ad6000396000818161107c01528181611200015281816113e10152611dce015261426a6000f3fe608060405234801561001057600080fd5b506004361061028a5760003560e01c8063743a095b1161015c578063b88d4fde116100ce578063d700ff3311610087578063d700ff33146105d1578063ddf7fcb014610612578063e32954eb1461061b578063e985e9c51461062e578063f1cb7e0614610641578063f32911071461065457600080fd5b8063b88d4fde1461055f578063ba904eed14610572578063bc1c58d114610585578063c87b56dd14610598578063cb0b159b146105ab578063d5fa2b00146105be57600080fd5b80639061b923116101205780639061b923146104eb57806395d89b41146104fe578063a22cb46514610506578063ac9650d814610519578063af92a69314610539578063b0c3ade41461054c57600080fd5b8063743a095b1461048757806389aeca761461049a5780638b95dd71146104bd5780638bf9baba146104d05780638da5cb5b146104e357600080fd5b8063304e6ade116102005780635c6d8da1116101b95780635c6d8da114610415578063623195b0146104285780636352211e1461043b578063669306801461044e5780636b0a29701461046157806370a082311461047457600080fd5b8063304e6ade146103a35780633603d758146103b65780633b3b57de146103c957806342842e0e146103dc57806355f804b3146103ef57806359d1d43c1461040257600080fd5b80630987996211610252578063098799621461031f57806310f13a8c1461034057806318160ddd1461035357806320c38e2b1461035c5780632203ab561461036f57806323b872dd1461039057600080fd5b806301ffc9a71461028f57806302571be3146102b757806306fdde03146102e2578063081812fc146102f7578063095ea7b31461030a575b600080fd5b6102a261029d3660046131a2565b610667565b60405190151581526020015b60405180910390f35b6102ca6102c53660046131bf565b610678565b6040516001600160a01b0390911681526020016102ae565b6102ea610695565b6040516102ae9190613228565b6102ca6103053660046131bf565b610727565b61031d610318366004613250565b610750565b005b61033261032d3660046132bd565b61075f565b6040519081526020016102ae565b61031d61034e3660046132fe565b6107aa565b610332600c5481565b6102ea61036a3660046131bf565b610878565b61038261037d36600461337b565b610912565b6040516102ae92919061339d565b61031d61039e3660046133b6565b610a4b565b61031d6103b13660046133f7565b610adb565b61031d6103c43660046131bf565b610b66565b6102ca6103d73660046131bf565b610c09565b61031d6103ea3660046133b6565b610c3b565b61031d6103fd3660046132bd565b610c5b565b6102ea6104103660046133f7565b610c9b565b61031d610423366004613442565b610d7c565b61031d6104363660046134f9565b610f22565b6102ca6104493660046131bf565b610fc0565b61031d61045c3660046135f5565b610fcb565b61031d61046f366004613688565b611196565b610332610482366004613725565b61132f565b61031d610495366004613688565b611377565b6102a26104a8366004613725565b60116020526000908152604090205460ff1681565b61031d6104cb366004613742565b611498565b6103326104de3660046137d5565b611579565b6102ca6117eb565b6102ea6104f9366004613852565b6117fd565b6102ea611876565b61031d6105143660046138c7565b611885565b61052c610527366004613900565b611890565b6040516102ae9190613935565b61031d610547366004613725565b61189e565b61033261055a3660046133f7565b61192f565b61031d61056d36600461399a565b611979565b61031d610580366004613725565b611991565b6102ea6105933660046131bf565b611a18565b6102ea6105a63660046131bf565b611ad8565b6102ea6105b93660046132bd565b611bf5565b61031d6105cc366004613a05565b611c36565b6105fa6105df3660046131bf565b6006602052600090815260409020546001600160401b031681565b6040516001600160401b0390911681526020016102ae565b610332600b5481565b61052c610629366004613a2a565b611c58565b6102a261063c366004613a68565b611c6d565b6102ea61064f36600461337b565b611c9b565b61031d610662366004613a96565b611d64565b600061067282611f23565b92915050565b6000818152600260205260408120546001600160a01b0316610672565b6060600d80546106a490613af6565b80601f01602080910402602001604051908101604052809291908181526020018280546106d090613af6565b801561071d5780601f106106f25761010080835404028352916020019161071d565b820191906000526020600020905b81548152906001019060200180831161070057829003601f168201915b5050505050905090565b600061073282611f2e565b506000828152600460205260409020546001600160a01b0316610672565b61075b828233611f67565b5050565b6000806107a184848080601f016020809104026020016040519081016040528093929190818152602001838380828437600092019190915250611f7492505050565b95945050505050565b846107b481612168565b6107bd57600080fd5b6000868152600660209081526040808320546001600160401b03168352600a8252808320898452909152908190209051849184916107fe9089908990613b30565b90815260200160405180910390209182610819929190613b87565b50848460405161082a929190613b30565b6040518091039020867f448bc014f1536726cf8d54ff3d6481ed3cbc683c2591ca204274009afa09b1a1878787876040516108689493929190613c6f565b60405180910390a3505050505050565b6010602052600090815260409020805461089190613af6565b80601f01602080910402602001604051908101604052809291908181526020018280546108bd90613af6565b801561090a5780601f106108df5761010080835404028352916020019161090a565b820191906000526020600020905b8154815290600101906020018083116108ed57829003601f168201915b505050505081565b6000828152600660209081526040808320546001600160401b0316835260078252808320858452909152812060609060015b848111610a2b578085161580159061097457506000818152602083905260408120805461097090613af6565b9050115b15610a23578082600083815260200190815260200160002080805461099890613af6565b80601f01602080910402602001604051908101604052809291908181526020018280546109c490613af6565b8015610a115780601f106109e657610100808354040283529160200191610a11565b820191906000526020600020905b8154815290600101906020018083116109f457829003601f168201915b50505050509050935093505050610a44565b60011b610944565b5060006040518060200160405280600081525092509250505b9250929050565b6001600160a01b038216610a7a57604051633250574960e11b8152600060048201526024015b60405180910390fd5b6000610a87838333612174565b9050836001600160a01b0316816001600160a01b031614610ad5576040516364283d7b60e01b81526001600160a01b0380861660048301526024820184905282166044820152606401610a71565b50505050565b82610ae581612168565b610aee57600080fd5b6000848152600660209081526040808320546001600160401b03168352600982528083208784529091529020610b25838583613b87565b50837fe379c1624ed7e714cc0937528a32359d69d5281337765313dba4e081b72d75788484604051610b58929190613ca1565b60405180910390a250505050565b80610b7081612168565b610b7957600080fd5b600082815260066020526040812080546001600160401b031691610b9c83613ccb565b82546101009290920a6001600160401b038181021990931691831602179091556000848152600660209081526040918290205491519190921681528492507fc6621ccb8f3f5a04bb6502154b2caf6adf5983fe76dfef1cfc9c42e3579db444910160405180910390a25050565b600080610c1783603c611c9b565b90508051600003610c2b5750600092915050565b610c348161226d565b9392505050565b610c5683838360405180602001604052806000815250611979565b505050565b33610c646117eb565b6001600160a01b031614610c9157600b54604051637336246d60e11b8152600401610a7191815260200190565b61075b828261228c565b6000838152600660209081526040808320546001600160401b03168352600a825280832086845290915290819020905160609190610cdc9085908590613b30565b90815260200160405180910390208054610cf590613af6565b80601f0160208091040260200160405190810160405280929190818152602001828054610d2190613af6565b8015610d6e5780601f10610d4357610100808354040283529160200191610d6e565b820191906000526020600020905b815481529060010190602001808311610d5157829003601f168201915b505050505090509392505050565b6000610d866122d7565b805490915060ff600160401b82041615906001600160401b0316600081158015610dad5750825b90506000826001600160401b03166001148015610dc95750303b155b905081158015610dd7575080155b15610df55760405163f92ee8a960e01b815260040160405180910390fd5b845467ffffffffffffffff191660011785558315610e1f57845460ff60401b1916600160401b1785555b600080610e618e8e8080601f016020809104026020016040519081016040528093929190818152602001838380828437600092019190915250611f7492505050565b915091508d8d600d9182610e76929190613b87565b50600e610e848c8e83613b87565b50610e8f8a8a61228c565b600b8190556000818152601060205260409020610eac8382613cf6565b50610eb78882612300565b600c8054906000610ec783613db4565b919050555050508315610f1457845460ff60401b19168555604051600181527fc7f505b2f371ae2175ee4913f4499e1f2633a7b5936321eed1cdaeb6115181d29060200160405180910390a15b505050505050505050505050565b83610f2c81612168565b610f3557600080fd5b83610f41600182613dcd565b1615610f4c57600080fd5b6000858152600660209081526040808320546001600160401b031683526007825280832088845282528083208784529091529020610f8b838583613b87565b50604051849086907faa121bbeef5f32f5961a2a28966e769023910fc9479059ee3495d4c1a696efe390600090a35050505050565b600061067282611f2e565b8380421115610fed57604051630819bdcd60e01b815260040160405180910390fd5b6000611052308989896040516020016110099493929190613de0565b604051602081830303815290604052805190602001207f19457468657265756d205369676e6564204d6573736167653a0a3332000000006000908152601c91909152603c902090565b905061105e858961231a565b15806110fc575060405163131de3db60e31b81526001600160a01b037f000000000000000000000000000000000000000000000000000000000000000016906398ef1ed8906110b7908890859089908990600401613e21565b6020604051808303816000875af11580156110d6573d6000803e3d6000fd5b505050506040513d601f19601f820116820180604052508101906110fa9190613e53565b155b1561111d57604051637336246d60e11b815260048101899052602401610a71565b6000888152600660209081526040808320546001600160401b03168352600982528083208b845290915290206111538882613cf6565b50877fe379c1624ed7e714cc0937528a32359d69d5281337765313dba4e081b72d7578886040516111849190613228565b60405180910390a25050505050505050565b83804211156111b857604051630819bdcd60e01b815260040160405180910390fd5b60006111d6308a8a8a8a604051602001611009959493929190613e70565b90506111e2858a61231a565b1580611280575060405163131de3db60e31b81526001600160a01b037f000000000000000000000000000000000000000000000000000000000000000016906398ef1ed89061123b908890859089908990600401613e21565b6020604051808303816000875af115801561125a573d6000803e3d6000fd5b505050506040513d601f19601f8201168201806040525081019061127e9190613e53565b155b156112a157604051637336246d60e11b8152600481018a9052602401610a71565b876112ad600182613dcd565b16156112b857600080fd5b6000898152600660209081526040808320546001600160401b03168352600782528083208c845282528083208b845290915290206112f68882613cf6565b5060405188908a907faa121bbeef5f32f5961a2a28966e769023910fc9479059ee3495d4c1a696efe390600090a3505050505050505050565b60006001600160a01b03821661135b576040516322718ad960e21b815260006004820152602401610a71565b506001600160a01b031660009081526003602052604090205490565b838042111561139957604051630819bdcd60e01b815260040160405180910390fd5b60006113b7308a8a8a8a604051602001611009959493929190613e70565b90506113c3858a61231a565b1580611461575060405163131de3db60e31b81526001600160a01b037f000000000000000000000000000000000000000000000000000000000000000016906398ef1ed89061141c908890859089908990600401613e21565b6020604051808303816000875af115801561143b573d6000803e3d6000fd5b505050506040513d601f19601f8201168201806040525081019061145f9190613e53565b155b1561148257604051637336246d60e11b8152600481018a9052602401610a71565b61148d898989611498565b505050505050505050565b826114a281612168565b6114ab57600080fd5b837f65412581168e88a1e60c6459d7f44ae83ad0832e670826c05a4e2476b57af75284846040516114dd92919061339d565b60405180910390a2603c830361153457837f52d7d861f09ab3d26239d492e8968629f95e9e318cf0b73bfddc441522a15fd26115188461226d565b6040516001600160a01b03909116815260200160405180910390a25b6000848152600660209081526040808320546001600160401b0316835260088252808320878452825280832086845290915290206115728382613cf6565b5050505050565b6000863361158682610678565b6001600160a01b0316141580156115ad57503360009081526011602052604090205460ff16155b156115ce57604051637336246d60e11b815260048101829052602401610a71565b60006115db89898961192f565b9050600088886040516115ef929190613b30565b6040518091039020905060006116e48a8a8080601f016020809104026020016040519081016040528093929190818152602001838380828437600081840152601f19601f82011690508083019250505050505050601060008e8152602001908152602001600020805461166190613af6565b80601f016020809104026020016040519081016040528092919081815260200182805461168d90613af6565b80156116da5780601f106116af576101008083540402835291602001916116da565b820191906000526020600020905b8154815290600101906020018083116116bd57829003601f168201915b50505050506124cf565b905060006116f184610678565b6001600160a01b03161461171e5789898c6040516309abc19160e41b8152600401610a7193929190613eb8565b6117288884612300565b611733838888612546565b50600083815260106020526040902061174c8282613cf6565b50600c805490600061175d83613db4565b90915550506040516001600160a01b038916815282908c907fce0457fe73731f824cc272376169235128c118b49d344817417c6d108d155e829060200160405180910390a3827f54dcb73b69bb8751ea76a9869fb42238e1a04b363c9c1d076a03799c5c8da6f7828a6040516117d4929190613edc565b60405180910390a250909998505050505050505050565b60006117f8600b54610678565b905090565b6060600080306001600160a01b03168460405161181a9190613f06565b600060405180830381855afa9150503d8060008114611855576040519150601f19603f3d011682016040523d82523d6000602084013e61185a565b606091505b5091509150811561186e5791506106729050565b805160208201fd5b6060600e80546106a490613af6565b61075b33838361270a565b6060610c3460008484612546565b336118a76117eb565b6001600160a01b0316146118d457600b54604051637336246d60e11b8152600401610a7191815260200190565b6001600160a01b038116600081815260116020908152604091829020805460ff1916600117905590519182527f5c38ce8ff8864a9d2a5ff5aec72a88770e38d181dea59173fde1247cdaa1aea391015b60405180910390a150565b6000808383604051611942929190613b30565b6040805191829003822060208084019890985282820152805180830382018152606090920190528051950194909420949350505050565b611984848484610a4b565b610ad533858585856127a9565b3361199a6117eb565b6001600160a01b0316146119c757600b54604051637336246d60e11b8152600401610a7191815260200190565b6001600160a01b038116600081815260116020908152604091829020805460ff1916905590519182527f81cb97a294b3ff5f91ef4048b3173c7f8f6943d9750add2071199061165e5f579101611924565b6000818152600660209081526040808320546001600160401b03168352600982528083208484529091529020805460609190611a5390613af6565b80601f0160208091040260200160405190810160405280929190818152602001828054611a7f90613af6565b8015611acc5780601f10611aa157610100808354040283529160200191611acc565b820191906000526020600020905b815481529060010190602001808311611aaf57829003601f168201915b50505050509050919050565b6060600f8054611ae790613af6565b9050600003611bec57611af982611f2e565b5060008281526010602052604081208054611b9b9190611b1890613af6565b80601f0160208091040260200160405190810160405280929190818152602001828054611b4490613af6565b8015611b915780601f10611b6657610100808354040283529160200191611b91565b820191906000526020600020905b815481529060010190602001808311611b7457829003601f168201915b50505050506128d3565b604051602001611bab9190613f22565b6040516020818303038152906040529050611bc581612a47565b604051602001611bd59190613f61565b604051602081830303815290604052915050919050565b61067282612a6d565b6060610c3483838080601f0160208091040260200160405190810160405280939291908181526020018383808284376000920191909152506128d392505050565b81611c4081612168565b611c4957600080fd5b610c5683603c6104cb85612abe565b6060611c65848484612546565b949350505050565b6001600160a01b03918216600090815260056020908152604080832093909416825291909152205460ff1690565b6000828152600660209081526040808320546001600160401b031683526008825280832085845282528083208484529091529020805460609190611cde90613af6565b80601f0160208091040260200160405190810160405280929190818152602001828054611d0a90613af6565b8015611d575780601f10611d2c57610100808354040283529160200191611d57565b820191906000526020600020905b815481529060010190602001808311611d3a57829003601f168201915b5050505050905092915050565b8380421115611d8657604051630819bdcd60e01b815260040160405180910390fd5b6000611da4308a8a8a8a604051602001611009959493929190613fa6565b9050611db0858a61231a565b1580611e4e575060405163131de3db60e31b81526001600160a01b037f000000000000000000000000000000000000000000000000000000000000000016906398ef1ed890611e09908890859089908990600401613e21565b6020604051808303816000875af1158015611e28573d6000803e3d6000fd5b505050506040513d601f19601f82011682018060405250810190611e4c9190613e53565b155b15611e6f57604051637336246d60e11b8152600481018a9052602401610a71565b6000898152600660209081526040808320546001600160401b03168352600a82528083208c8452909152908190209051889190611ead908b90613f06565b90815260200160405180910390209081611ec79190613cf6565b5087604051611ed69190613f06565b6040518091039020897f448bc014f1536726cf8d54ff3d6481ed3cbc683c2591ca204274009afa09b1a18a8a604051611f10929190613ffe565b60405180910390a3505050505050505050565b600061067282612aee565b6000818152600260205260408120546001600160a01b03168061067257604051637e27328960e01b815260048101849052602401610a71565b610c568383836001612b13565b805160609060009081908490611f8b816002614023565b6001600160401b03811115611fa257611fa261354b565b6040519080825280601f01601f191660200182016040528015611fcc576020820181803683370190505b5094506000935080840361201157600060f81b85600081518110611ff257611ff2614036565b60200101906001600160f81b031916908160001a905350505050915091565b60001981015b82818151811061202957612029614036565b01602001516001600160f81b031916601760f91b036120b7578360f81b86826001018151811061205b5761205b614036565b60200101906001600160f81b031916908160001a90535084612084846001840160ff8816612c19565b60408051602081019390935282015260600160405160208183030381529060405280519060200120945060009350612107565b6001840193508281815181106120cf576120cf614036565b602001015160f81c60f81b8682600101815181106120ef576120ef614036565b60200101906001600160f81b031916908160001a9053505b80156121165760001901612017565b508361212783600060ff8716612c19565b6040805160208101939093528201526060016040516020818303038152906040528051906020012093508260f81b85600081518110611ff257611ff2614036565b6000610672338361231a565b6000828152600260205260408120546001600160a01b03908116908316156121a1576121a1818486612c3d565b6001600160a01b038116156121df576121be600085600080612b13565b6001600160a01b038116600090815260036020526040902080546000190190555b6001600160a01b0385161561220e576001600160a01b0385166000908152600360205260409020805460010190555b60008481526002602052604080822080546001600160a01b0319166001600160a01b0389811691821790925591518793918516917fddf252ad1be2c89b69c2b068fc378daa952ba7f163c4a11628f55a4df523b3ef91a4949350505050565b6000815160141461227d57600080fd5b5060200151600160601b900490565b600f612299828483613b87565b507f6741b2fc379fad678116fe3d4d4b9a1a184ab53ba36b86ad0fa66340b1ab41ad82826040516122cb929190613ca1565b60405180910390a15050565b6000807ff0c57e16840df040f15088dc2f81fe391c3923bec73e23a9662efc9c229c6a00610672565b61075b828260405180602001604052806000815250612ca1565b600080306040516344d7653b60e11b81526001600160a01b038681166004830152919250908216906389aeca7690602401602060405180830381865afa158015612368573d6000803e3d6000fd5b505050506040513d601f19601f8201168201806040525081019061238c9190613e53565b1561239b576001915050610672565b6040516331a9108f60e11b81526004810184905283906000906001600160a01b03841690636352211e90602401602060405180830381865afa1580156123e5573d6000803e3d6000fd5b505050506040513d601f19601f82011682018060405250810190612409919061404c565b9050856001600160a01b0316816001600160a01b0316141580156124a2575060405163020604bf60e21b8152600481018390526001600160a01b03808816919085169063081812fc90602401602060405180830381865afa158015612472573d6000803e3d6000fd5b505050506040513d601f19601f82011682018060405250810190612496919061404c565b6001600160a01b031614155b156124c357604051637336246d60e11b815260048101869052602401610a71565b50600195945050505050565b60606001835110156124f457604051631406d65b60e11b815260040160405180910390fd5b60ff83511115612519578260405163e3ba295f60e01b8152600401610a719190613228565b8251838360405160200161252f93929190614069565b604051602081830303815290604052905092915050565b6060816001600160401b038111156125605761256061354b565b60405190808252806020026020018201604052801561259357816020015b606081526020019060019003908161257e5790505b50905060005b828110156127025784156126555760008484838181106125bb576125bb614036565b90506020028101906125cd91906140ae565b6125dc916024916004916140f4565b6125e59161411e565b90508581146126535760405162461bcd60e51b815260206004820152603460248201527f6d756c746963616c6c3a20416c6c207265636f726473206d7573742068617665604482015273040c240dac2e8c6d0d2dcce40dcc2dacad0c2e6d60631b6064820152608401610a71565b505b6000803086868581811061266b5761266b614036565b905060200281019061267d91906140ae565b60405161268b929190613b30565b600060405180830381855af49150503d80600081146126c6576040519150601f19603f3d011682016040523d82523d6000602084013e6126cb565b606091505b5091509150816126da57600080fd5b808484815181106126ed576126ed614036565b60209081029190910101525050600101612599565b509392505050565b6001600160a01b03821661273c57604051630b61174360e31b81526001600160a01b0383166004820152602401610a71565b6001600160a01b03838116600081815260056020908152604080832094871680845294825291829020805460ff191686151590811790915591519182527f17307eab39ab6107e8899845ad3d59bd9653f200f220920489ca2b5937696c31910160405180910390a3505050565b6001600160a01b0383163b1561157257604051630a85bd0160e11b81526001600160a01b0384169063150b7a02906127eb90889088908790879060040161413c565b6020604051808303816000875af1925050508015612826575060408051601f3d908101601f191682019092526128239181019061416f565b60015b61288f573d808015612854576040519150601f19603f3d011682016040523d82523d6000602084013e612859565b606091505b50805160000361288757604051633250574960e11b81526001600160a01b0385166004820152602401610a71565b805181602001fd5b6001600160e01b03198116630a85bd0160e11b146128cb57604051633250574960e11b81526001600160a01b0385166004820152602401610a71565b505050505050565b80516060906001811480156129075750826000815181106128f6576128f6614036565b01602001516001600160f81b031916155b15612922575050604080516020810190915260008152919050565b60038110156129445760405163430f13b360e01b815260040160405180910390fd5b60011901806001600160401b038111156129605761296061354b565b6040519080825280601f01601f19166020018201604052801561298a576020820181803683370190505b5091506020830183830360001901815b805160f881901c60008190036129b1575050612a18565b8281018587018111156129d75760405163430f13b360e01b815260040160405180910390fd5b6001600160f81b0392909216601760f91b1784840181905291602084015b818111612a0a578051868201526020016129f5565b50600101925061299a915050565b8360010183820314612a3d5760405163430f13b360e01b815260040160405180910390fd5b5050508152919050565b6060610672826040518060600160405280604081526020016141f5604091396001612cb9565b6060612a7882611f2e565b506000612a83612e38565b90506000815111612aa35760405180602001604052806000815250610c34565b80612aad84612e47565b604051602001611bd592919061418c565b604080516014808252818301909252606091602082018180368337505050600160601b9290920260208301525090565b60006001600160e01b03198216631674750f60e21b1480610672575061067282612ed9565b8080612b2757506001600160a01b03821615155b15612be9576000612b3784611f2e565b90506001600160a01b03831615801590612b635750826001600160a01b0316816001600160a01b031614155b8015612b765750612b748184611c6d565b155b15612b9f5760405163a9fbf51f60e01b81526001600160a01b0384166004820152602401610a71565b8115612be75783856001600160a01b0316826001600160a01b03167f8c5be1e5ebec7d5bd14f71427d1e84f3dd0314c0f7b2291e5b200ac8c7c3b92560405160405180910390a45b505b5050600090815260046020526040902080546001600160a01b0319166001600160a01b0392909216919091179055565b8251600090612c288385614023565b1115612c3357600080fd5b5091016020012090565b612c48838383612efe565b610c56576001600160a01b038316612c7657604051637e27328960e01b815260048101829052602401610a71565b60405163177e802f60e01b81526001600160a01b038316600482015260248101829052604401610a71565b612cab8383612f61565b610c563360008585856127a9565b60608351600003612cd95750604080516020810190915260008152610c34565b600082612d0a57600385516004612cf091906141bb565b612cfb906002614023565b612d0591906141d2565b612d2f565b600385516002612d1a9190614023565b612d2491906141d2565b612d2f9060046141bb565b90506000816001600160401b03811115612d4b57612d4b61354b565b6040519080825280601f01601f191660200182016040528015612d75576020820181803683370190505b50905060018501602082018788518901602081018051600082525b82841015612deb576003840193508351603f8160121c168701518653600186019550603f81600c1c168701518653600186019550603f8160061c168701518653600186019550603f8116870151865350600185019450612d90565b905250508515612e2c57600388510660018114612e0f5760028114612e2257612e2a565b603d6001830353603d6002830353612e2a565b603d60018303535b505b50909695505050505050565b6060600f80546106a490613af6565b60606000612e5483612fc6565b60010190506000816001600160401b03811115612e7357612e7361354b565b6040519080825280601f01601f191660200182016040528015612e9d576020820181803683370190505b5090508181016020015b600019016f181899199a1a9b1b9c1cb0b131b232b360811b600a86061a8153600a8504945084612ea757509392505050565b60006001600160e01b0319821663bc1c58d160e01b148061067257506106728261309e565b60006001600160a01b03831615801590611c655750826001600160a01b0316846001600160a01b03161480612f385750612f388484611c6d565b80611c655750506000908152600460205260409020546001600160a01b03908116911614919050565b6001600160a01b038216612f8b57604051633250574960e11b815260006004820152602401610a71565b6000612f9983836000612174565b90506001600160a01b03811615610c56576040516339e3563760e11b815260006004820152602401610a71565b60008072184f03e93ff9f4daa797ed6e38ed64bf6a1f0160401b83106130055772184f03e93ff9f4daa797ed6e38ed64bf6a1f0160401b830492506040015b6d04ee2d6d415b85acef81000000008310613031576d04ee2d6d415b85acef8100000000830492506020015b662386f26fc10000831061304f57662386f26fc10000830492506010015b6305f5e1008310613067576305f5e100830492506008015b612710831061307b57612710830492506004015b6064831061308d576064830492506002015b600a83106106725760010192915050565b60006001600160e01b03198216631d9dabef60e11b14806130cf57506001600160e01b031982166378e5bf0360e11b145b8061067257506106728260006001600160e01b03198216631101d5ab60e11b148061067257506106728260006001600160e01b0319821663d700ff3360e01b148061067257506106728260006001600160e01b03198216634fbf043360e01b148061067257506106728260006001600160e01b031982166380ac58cd60e01b148061316a57506001600160e01b03198216635b5e139f60e01b145b8061067257506301ffc9a760e01b6001600160e01b0319831614610672565b6001600160e01b03198116811461319f57600080fd5b50565b6000602082840312156131b457600080fd5b8135610c3481613189565b6000602082840312156131d157600080fd5b5035919050565b60005b838110156131f35781810151838201526020016131db565b50506000910152565b600081518084526132148160208601602086016131d8565b601f01601f19169290920160200192915050565b602081526000610c3460208301846131fc565b6001600160a01b038116811461319f57600080fd5b6000806040838503121561326357600080fd5b823561326e8161323b565b946020939093013593505050565b60008083601f84011261328e57600080fd5b5081356001600160401b038111156132a557600080fd5b602083019150836020828501011115610a4457600080fd5b600080602083850312156132d057600080fd5b82356001600160401b038111156132e657600080fd5b6132f28582860161327c565b90969095509350505050565b60008060008060006060868803121561331657600080fd5b8535945060208601356001600160401b0381111561333357600080fd5b61333f8882890161327c565b90955093505060408601356001600160401b0381111561335e57600080fd5b61336a8882890161327c565b969995985093965092949392505050565b6000806040838503121561338e57600080fd5b50508035926020909101359150565b828152604060208201526000611c6560408301846131fc565b6000806000606084860312156133cb57600080fd5b83356133d68161323b565b925060208401356133e68161323b565b929592945050506040919091013590565b60008060006040848603121561340c57600080fd5b8335925060208401356001600160401b0381111561342957600080fd5b6134358682870161327c565b9497909650939450505050565b60008060008060008060006080888a03121561345d57600080fd5b87356001600160401b0381111561347357600080fd5b61347f8a828b0161327c565b90985096505060208801356001600160401b0381111561349e57600080fd5b6134aa8a828b0161327c565b90965094505060408801356001600160401b038111156134c957600080fd5b6134d58a828b0161327c565b90945092505060608801356134e98161323b565b8091505092959891949750929550565b6000806000806060858703121561350f57600080fd5b843593506020850135925060408501356001600160401b0381111561353357600080fd5b61353f8782880161327c565b95989497509550505050565b634e487b7160e01b600052604160045260246000fd5b600082601f83011261357257600080fd5b8135602083016000806001600160401b038411156135925761359261354b565b50604051601f19601f85018116603f011681018181106001600160401b03821117156135c0576135c061354b565b6040528381529050808284018710156135d857600080fd5b838360208301376000602085830101528094505050505092915050565b60008060008060008060a0878903121561360e57600080fd5b8635955060208701356001600160401b0381111561362b57600080fd5b61363789828a01613561565b95505060408701359350606087013561364f8161323b565b925060808701356001600160401b0381111561366a57600080fd5b61367689828a0161327c565b979a9699509497509295939492505050565b600080600080600080600060c0888a0312156136a357600080fd5b873596506020880135955060408801356001600160401b038111156136c757600080fd5b6136d38a828b01613561565b9550506060880135935060808801356136eb8161323b565b925060a08801356001600160401b0381111561370657600080fd5b6137128a828b0161327c565b989b979a50959850939692959293505050565b60006020828403121561373757600080fd5b8135610c348161323b565b60008060006060848603121561375757600080fd5b833592506020840135915060408401356001600160401b0381111561377b57600080fd5b61378786828701613561565b9150509250925092565b60008083601f8401126137a357600080fd5b5081356001600160401b038111156137ba57600080fd5b6020830191508360208260051b8501011115610a4457600080fd5b600080600080600080608087890312156137ee57600080fd5b8635955060208701356001600160401b0381111561380b57600080fd5b61381789828a0161327c565b909650945050604087013561382b8161323b565b925060608701356001600160401b0381111561384657600080fd5b61367689828a01613791565b6000806040838503121561386557600080fd5b82356001600160401b0381111561387b57600080fd5b61388785828601613561565b92505060208301356001600160401b038111156138a357600080fd5b6138af85828601613561565b9150509250929050565b801515811461319f57600080fd5b600080604083850312156138da57600080fd5b82356138e58161323b565b915060208301356138f5816138b9565b809150509250929050565b6000806020838503121561391357600080fd5b82356001600160401b0381111561392957600080fd5b6132f285828601613791565b6000602082016020835280845180835260408501915060408160051b86010192506020860160005b8281101561398e57603f198786030184526139798583516131fc565b9450602093840193919091019060010161395d565b50929695505050505050565b600080600080608085870312156139b057600080fd5b84356139bb8161323b565b935060208501356139cb8161323b565b92506040850135915060608501356001600160401b038111156139ed57600080fd5b6139f987828801613561565b91505092959194509250565b60008060408385031215613a1857600080fd5b8235915060208301356138f58161323b565b600080600060408486031215613a3f57600080fd5b8335925060208401356001600160401b03811115613a5c57600080fd5b61343586828701613791565b60008060408385031215613a7b57600080fd5b8235613a868161323b565b915060208301356138f58161323b565b600080600080600080600060c0888a031215613ab157600080fd5b8735965060208801356001600160401b03811115613ace57600080fd5b613ada8a828b01613561565b96505060408801356001600160401b038111156136c757600080fd5b600181811c90821680613b0a57607f821691505b602082108103613b2a57634e487b7160e01b600052602260045260246000fd5b50919050565b8183823760009101908152919050565b601f821115610c5657806000526020600020601f840160051c81016020851015613b675750805b601f840160051c820191505b818110156115725760008155600101613b73565b6001600160401b03831115613b9e57613b9e61354b565b613bb283613bac8354613af6565b83613b40565b6000601f841160018114613be65760008515613bce5750838201355b600019600387901b1c1916600186901b178355611572565b600083815260209020601f19861690835b82811015613c175786850135825560209485019460019092019101613bf7565b5086821015613c345760001960f88860031b161c19848701351681555b505060018560011b0183555050505050565b81835281816020850137506000828201602090810191909152601f909101601f19169091010190565b604081526000613c83604083018688613c46565b8281036020840152613c96818587613c46565b979650505050505050565b602081526000611c65602083018486613c46565b634e487b7160e01b600052601160045260246000fd5b60006001600160401b0382166001600160401b038103613ced57613ced613cb5565b60010192915050565b81516001600160401b03811115613d0f57613d0f61354b565b613d2381613d1d8454613af6565b84613b40565b6020601f821160018114613d575760008315613d3f5750848201515b600019600385901b1c1916600184901b178455611572565b600084815260208120601f198516915b82811015613d875787850151825560209485019460019092019101613d67565b5084821015613da55786840151600019600387901b60f8161c191681555b50505050600190811b01905550565b600060018201613dc657613dc6613cb5565b5060010190565b8181038181111561067257610672613cb5565b6001600160601b03198560601b16815283601482015260008351613e0b8160348501602088016131d8565b6034920191820192909252605401949350505050565b60018060a01b0385168152836020820152606060408201526000613e49606083018486613c46565b9695505050505050565b600060208284031215613e6557600080fd5b8151610c34816138b9565b6001600160601b03198660601b16815284601482015283603482015260008351613ea18160548501602088016131d8565b605492019182019290925260740195945050505050565b604081526000613ecc604083018587613c46565b9050826020830152949350505050565b604081526000613eef60408301856131fc565b905060018060a01b03831660208301529392505050565b60008251613f188184602087016131d8565b9190910192915050565b693d913730b6b2911d101160b11b81528151600090613f4881600a8501602087016131d8565b61227d60f01b600a939091019283015250600c01919050565b7f646174613a6170706c69636174696f6e2f6a736f6e3b6261736536342c000000815260008251613f9981601d8501602087016131d8565b91909101601d0192915050565b6001600160601b03198660601b16815284601482015260008451613fd18160348501602089016131d8565b845190830190613fe88160348401602089016131d8565b0160348101939093525050605401949350505050565b60408152600061401160408301856131fc565b82810360208401526107a181856131fc565b8082018082111561067257610672613cb5565b634e487b7160e01b600052603260045260246000fd5b60006020828403121561405e57600080fd5b8151610c348161323b565b60ff60f81b8460f81b1681526000835161408a8160018501602088016131d8565b8351908301906140a18160018401602088016131d8565b0160010195945050505050565b6000808335601e198436030181126140c557600080fd5b8301803591506001600160401b038211156140df57600080fd5b602001915036819003821315610a4457600080fd5b6000808585111561410457600080fd5b8386111561411157600080fd5b5050820193919092039150565b8035602083101561067257600019602084900360031b1b1692915050565b6001600160a01b0385811682528416602082015260408101839052608060608201819052600090613e49908301846131fc565b60006020828403121561418157600080fd5b8151610c3481613189565b6000835161419e8184602088016131d8565b8351908301906141b28183602088016131d8565b01949350505050565b808202811582820484141761067257610672613cb5565b6000826141ef57634e487b7160e01b600052601260045260246000fd5b50049056fe4142434445464748494a4b4c4d4e4f505152535455565758595a6162636465666768696a6b6c6d6e6f707172737475767778797a303132333435363738392b2fa2646970667358221220568ee336b65140b04e5a94d32521d72a77b47624ff9c908332e074d0d5c67fbf64736f6c634300081c0033",
  "linkReferences": {},
  "deployedLinkReferences": {}
}