{
  "_format": "hh-sol-artifact-1",
  "contractName": "L2Registry",
  "sourceName": "contracts/durin/L2Registry.sol",
  "abi": [
    {
      "inputs": [],
      "stateMutability": "nonpayable",
      "type": "constructor"
    },
    {
      "inputs": [
        {
          "internalType": "address",
          "name": "sender",
          "type": "address"
        },
        {
          "internalType": "uint256",
          "name": "tokenId",
          "type": "uint256"
        },
        {
          "internalType": "address",
          "name": "owner",
          "type": "address"
        }
      ],
      "name": "ERC721IncorrectOwner",
      "type": "error"
    },
    {
      "inputs": [
        {
          "internalType": "address",
          "name": "operator",
          "type": "address"
        },
        {
          "internalType": "uint256",
          "name": "tokenId",
          "type": "uint256"
        }
      ],
      "name": "ERC721InsufficientApproval",
      "type": "error"
    },
    {
      "inputs": [
        {
          "internalType": "address",
          "name": "approver",
          "type": "address"
        }
      ],
      "name": "ERC721InvalidApprover",
      "type": "error"
    },
    {
      "inputs": [
        {
          "internalType": "address",
          "name": "operator",
          "type": "address"
        }
      ],
      "name": "ERC721InvalidOperator",
      "type": "error"
    },
    {
      "inputs": [
        {
          "internalType": "address",
          "name": "owner",
          "type": "address"
        }
      ],
      "name": "ERC721InvalidOwner",
      "type": "error"
    },
    {
      "inputs": [
        {
          "internalType": "address",
          "name": "receiver",
          "type": "address"
        }
      ],
      "name": "ERC721InvalidReceiver",
      "type": "error"
    },
    {
      "inputs": [
        {
          "internalType": "address",
          "name": "sender",
          "type": "address"
        }
      ],
      "name": "ERC721InvalidSender",
      "type": "error"
    },
    {
      "inputs": [
        {
          "internalType": "uint256",
          "name": "tokenId",
          "type": "uint256"
        }
      ],
      "name": "ERC721NonexistentToken",
      "type": "error"
    },
    {
      "inputs": [],
      "name": "InvalidInitialization",
      "type": "error"
    },
    {
      "inputs": [],
      "name": "InvalidName",
      "type": "error"
    },
    {
      "inputs": [
        {
          "internalType": "string",
          "name": "label",
          "type": "string"
        }
      ],
      "name": "LabelTooLong",
      "type": "error"
    },
    {
      "inputs": [],
      "name": "LabelTooShort",
      "type": "error"
    },
    {
      "inputs": [
        {
          "internalType": "string",
          "name": "label",
          "type": "string"
        },
        {
          "internalType": "bytes32",
          "name": "parentNode",
          "type": "bytes32"
        }
      ],
      "name": "NotAvailable",
      "type": "error"
    },
    {
      "inputs": [],
      "name": "NotInitializing",
      "type": "error"
    },
    {
      "inputs": [],
      "name": "SignatureExpired",
      "type": "error"
    },
    {
      "inputs": [
        {
          "internalType": "bytes32",
          "name": "node",
          "type": "bytes32"
        }
      ],
      "name": "Unauthorized",
      "type": "error"
    },
    {
      "anonymous": false,
      "inputs": [
        {
          "indexed": true,
          "internalType": "bytes32",
          "name": "node",
          "type": "bytes32"
        },
        {
          "indexed": true,
          "internalType": "uint256",
          "name": "contentType",
          "type": "uint256"
        }
      ],
      "name": "ABIChanged",
      "type": "event"
    },
    {
      "anonymous": false,
      "inputs": [
        {
          "indexed": true,
          "internalType": "bytes32",
          "name": "node",
          "type": "bytes32"
        },
        {
          "indexed": false,
          "internalType": "address",
          "name": "a",
          "type": "address"
        }
      ],
      "name": "AddrChanged",
      "type": "event"
    },
    {
      "anonymous": false,
      "inputs": [
        {
          "indexed": true,
          "internalType": "bytes32",
          "name": "node",
          "type": "bytes32"
        },
        {
          "indexed": false,
          "internalType": "uint256",
          "name": "coinType",
          "type": "uint256"
        },
        {
          "indexed": false,
          "internalType": "bytes",
          "name": "newAddress",
          "type": "bytes"
        }
      ],
      "name": "AddressChanged",
      "type": "event"
    },
    {
      "anonymous": false,
      "inputs": [
        {
          "indexed": true,
          "internalType": "address",
          "name": "owner",
          "type": "address"
        },
        {
          "indexed": true,
          "internalType": "address",
          "name": "approved",
          "type": "address"
        },
        {
          "indexed": true,
          "internalType": "uint256",
          "name": "tokenId",
          "type": "uint256"
        }
      ],
      "name": "Approval",
      "type": "event"
    },
    {
      "anonymous": false,
      "inputs": [
        {
          "indexed": true,
          "internalType": "address",
          "name": "owner",
          "type": "address"
        },
        {
          "indexed": true,
          "internalType": "address",
          "name": "operator",
          "type": "address"
        },
        {
          "indexed": false,
          "internalType": "bool",
          "name": "approved",
          "type": "bool"
        }
      ],
      "name": "ApprovalForAll",
      "type": "event"
    },
    {
      "anonymous": false,
      "inputs": [
        {
          "indexed": false,
          "internalType": "string",
          "name": "baseURI",
          "type": "string"
        }
      ],
      "name": "BaseURIUpdated",
      "type": "event"
    },
    {
      "anonymous": false,
      "inputs": [
        {
          "indexed": true,
          "internalType": "bytes32",
          "name": "node",
          "type": "bytes32"
        },
        {
          "indexed": false,
          "internalType": "bytes",
          "name": "hash",
          "type": "bytes"
        }
      ],
      "name": "ContenthashChanged",
      "type": "event"
    },
    {
      "anonymous": false,
      "inputs": [
        {
          "indexed": false,
          "internalType": "uint64",
          "name": "version",
          "type": "uint64"
        }
      ],
      "name": "Initialized",
      "type": "event"
    },
    {
      "anonymous": false,
      "inputs": [
        {
          "indexed": true,
          "internalType": "bytes32",
          "name": "parentNode",
          "type": "bytes32"
        },
        {
          "indexed": true,
          "internalType": "bytes32",
          "name": "labelhash",
          "type": "bytes32"
        },
        {
          "indexed": false,
          "internalType": "address",
          "name": "owner",
          "type": "address"
        }
      ],
      "name": "NewOwner",
      "type": "event"
    },
    {
      "anonymous": false,
      "inputs": [
        {
          "indexed": false,
          "internalType": "address",
          "name": "registrar",
          "type": "address"
        }
      ],
      "name": "RegistrarAdded",
      "type": "event"
    },
    {
      "anonymous": false,
      "inputs": [
        {
          "indexed": false,
          "internalType": "address",
          "name": "registrar",
          "type": "address"
        }
      ],
      "name": "RegistrarRemoved",
      "type": "event"
    },
    {
      "anonymous": false,
      "inputs": [
        {
          "indexed": true,
          "internalType": "bytes32",
          "name": "node",
          "type": "bytes32"
        },
        {
          "indexed": false,
          "internalType": "bytes",
          "name": "name",
          "type": "bytes"
        },
        {
          "indexed": false,
          "internalType": "address",
          "name": "owner",
          "type": "address"
        }
      ],
      "name": "SubnodeCreated",
      "type": "event"
    },
    {
      "anonymous": false,
      "inputs": [
        {
          "indexed": true,
          "internalType": "bytes32",
          "name": "node",
          "type": "bytes32"
        },
        {
          "indexed": true,
          "internalType": "string",
          "name": "indexedKey",
          "type": "string"
        },
        {
          "indexed": false,
          "internalType": "string",
          "name": "key",
          "type": "string"
        },
        {
          "indexed": false,
          "internalType": "string",
          "name": "value",
          "type": "string"
        }
      ],
      "name": "TextChanged",
      "type": "event"
    },
    {
      "anonymous": false,
      "inputs": [
        {
          "indexed": true,
          "internalType": "address",
          "name": "from",
          "type": "address"
        },
        {
          "indexed": true,
          "internalType": "address",
          "name": "to",
          "type": "address"
        },
        {
          "indexed": true,
          "internalType": "uint256",
          "name": "tokenId",
          "type": "uint256"
        }
      ],
      "name": "Transfer",
      "type": "event"
    },
    {
      "anonymous": false,
      "inputs": [
        {
          "indexed": true,
          "internalType": "bytes32",
          "name": "node",
          "type": "bytes32"
        },
        {
          "indexed": false,
          "internalType": "uint64",
          "name": "newVersion",
          "type": "uint64"
        }
      ],
      "name": "VersionChanged",
      "type": "event"
    },
    {
      "inputs": [
        {
          "internalType": "bytes32",
          "name": "node",
          "type": "bytes32"
        },
        {
          "internalType": "uint256",
          "name": "contentTypes",
          "type": "uint256"
        }
      ],
      "name": "ABI",
      "outputs": [
        {
          "internalType": "uint256",
          "name": "",
          "type": "uint256"
        },
        {
          "internalType": "bytes",
          "name": "",
          "type": "bytes"
        }
      ],
      "stateMutability": "view",
      "type": "function"
    },
    {
      "inputs": [
        {
          "internalType": "address",
          "name": "registrar",
          "type": "address"
        }
      ],
      "name": "addRegistrar",
      "outputs": [],
      "stateMutability": "nonpayable",
      "type": "function"
    },
    {
      "inputs": [
        {
          "internalType": "bytes32",
          "name": "node",
          "type": "bytes32"
        }
      ],
      "name": "addr",
      "outputs": [
        {
          "internalType": "address payable",
          "name": "",
          "type": "address"
        }
      ],
      "stateMutability": "view",
      "type": "function"
    },
    {
      "inputs": [
        {
          "internalType": "bytes32",
          "name": "node",
          "type": "bytes32"
        },
        {
          "internalType": "uint256",
          "name": "coinType",
          "type": "uint256"
        }
      ],
      "name": "addr",
      "outputs": [
        {
          "internalType": "bytes",
          "name": "",
          "type": "bytes"
        }
      ],
      "stateMutability": "view",
      "type": "function"
    },
    {
      "inputs": [
        {
          "internalType": "address",
          "name": "to",
          "type": "address"
        },
        {
          "internalType": "uint256",
          "name": "tokenId",
          "type": "uint256"
        }
      ],
      "name": "approve",
      "outputs": [],
      "stateMutability": "nonpayable",
      "type": "function"
    },
    {
      "inputs": [
        {
          "internalType": "address",
          "name": "owner",
          "type": "address"
        }
      ],
      "name": "balanceOf",
      "outputs": [
        {
          "internalType": "uint256",
          "name": "",
          "type": "uint256"
        }
      ],
      "stateMutability": "view",
      "type": "function"
    },
    {
      "inputs": [],
      "name": "baseNode",
      "outputs": [
        {
          "internalType": "bytes32",
          "name": "",
          "type": "bytes32"
        }
      ],
      "stateMutability": "view",
      "type": "function"
    },
    {
      "inputs": [
        {
          "internalType": "bytes32",
          "name": "node",
          "type": "bytes32"
        }
      ],
      "name": "clearRecords",
      "outputs": [],
      "stateMutability": "nonpayable",
      "type": "function"
    },
    {
      "inputs": [
        {
          "internalType": "bytes32",
          "name": "node",
          "type": "bytes32"
        }
      ],
      "name": "contenthash",
      "outputs": [
        {
          "internalType": "bytes",
          "name": "",
          "type": "bytes"
        }
      ],
      "stateMutability": "view",
      "type": "function"
    },
    {
      "inputs": [
        {
          "internalType": "bytes32",
          "name": "node",
          "type": "bytes32"
        },
        {
          "internalType": "string",
          "name": "label",
          "type": "string"
        },
        {
          "internalType": "address",
          "name": "_owner",
          "type": "address"
        },
        {
          "internalType": "bytes[]",
          "name": "data",
          "type": "bytes[]"
        }
      ],
      "name": "createSubnode",
      "outputs": [
        {
          "internalType": "bytes32",
          "name": "",
          "type": "bytes32"
        }
      ],
      "stateMutability": "nonpayable",
      "type": "function"
    },
    {
      "inputs": [
        {
          "internalType": "bytes",
          "name": "_name",
          "type": "bytes"
        }
      ],
      "name": "decodeName",
      "outputs": [
        {
          "internalType": "string",
          "name": "",
          "type": "string"
        }
      ],
      "stateMutability": "pure",
      "type": "function"
    },
    {
      "inputs": [
        {
          "internalType": "uint256",
          "name": "tokenId",
          "type": "uint256"
        }
      ],
      "name": "getApproved",
      "outputs": [
        {
          "internalType": "address",
          "name": "",
          "type": "address"
        }
      ],
      "stateMutability": "view",
      "type": "function"
    },
    {
      "inputs": [
        {
          "internalType": "string",
          "name": "tokenName",
          "type": "string"
        },
        {
          "internalType": "string",
          "name": "tokenSymbol",
          "type": "string"
        },
        {
          "internalType": "string",
          "name": "baseURI",
          "type": "string"
        },
        {
          "internalType": "address",
          "name": "admin",
          "type": "address"
        }
      ],
      "name": "initialize",
      "outputs": [],
      "stateMutability": "nonpayable",
      "type": "function"
    },
    {
      "inputs": [
        {
          "internalType": "address",
          "name": "owner",
          "type": "address"
        },
        {
          "internalType": "address",
          "name": "operator",
          "type": "address"
        }
      ],
      "name": "isApprovedForAll",
      "outputs": [
        {
          "internalType": "bool",
          "name": "",
          "type": "bool"
        }
      ],
      "stateMutability": "view",
      "type": "function"
    },
    {
      "inputs": [
        {
          "internalType": "bytes32",
          "name": "parentNode",
          "type": "bytes32"
        },
        {
          "internalType": "string",
          "name": "label",
          "type": "string"
        }
      ],
      "name": "makeNode",
      "outputs": [
        {
          "internalType": "bytes32",
          "name": "",
          "type": "bytes32"
        }
      ],
      "stateMutability": "pure",
      "type": "function"
    },
    {
      "inputs": [
        {
          "internalType": "bytes[]",
          "name": "data",
          "type": "bytes[]"
        }
      ],
      "name": "multicall",
      "outputs": [
        {
          "internalType": "bytes[]",
          "name": "results",
          "type": "bytes[]"
        }
      ],
      "stateMutability": "nonpayable",
      "type": "function"
    },
    {
      "inputs": [
        {
          "internalType": "bytes32",
          "name": "nodehash",
          "type": "bytes32"
        },
        {
          "internalType": "bytes[]",
          "name": "data",
          "type": "bytes[]"
        }
      ],
      "name": "multicallWithNodeCheck",
      "outputs": [
        {
          "internalType": "bytes[]",
          "name": "results",
          "type": "bytes[]"
        }
      ],
      "stateMutability": "nonpayable",
      "type": "function"
    },
    {
      "inputs": [],
      "name": "name",
      "outputs": [
        {
          "internalType": "string",
          "name": "",
          "type": "string"
        }
      ],
      "stateMutability": "view",
      "type": "function"
    },
    {
      "inputs": [
        {
          "internalType": "string",
          "name": "_name",
          "type": "string"
        }
      ],
      "name": "namehash",
      "outputs": [
        {
          "internalType": "bytes32",
          "name": "",
          "type": "bytes32"
        }
      ],
      "stateMutability": "pure",
      "type": "function"
    },
    {
      "inputs": [
        {
          "internalType": "bytes32",
          "name": "node",
          "type": "bytes32"
        }
      ],
      "name": "names",
      "outputs": [
        {
          "internalType": "bytes",
          "name": "name",
          "type": "bytes"
        }
      ],
      "stateMutability": "view",
      "type": "function"
    },
    {
      "inputs": [
        {
          "internalType": "bytes32",
          "name": "node",
          "type": "bytes32"
        }
      ],
      "name": "owner",
      "outputs": [
        {
          "internalType": "address",
          "name": "",
          "type": "address"
        }
      ],
      "stateMutability": "view",
      "type": "function"
    },
    {
      "inputs": [],
      "name": "owner",
      "outputs": [
        {
          "internalType": "address",
          "name": "",
          "type": "address"
        }
      ],
      "stateMutability": "view",
      "type": "function"
    },
    {
      "inputs": [
        {
          "internalType": "uint256",
          "name": "tokenId",
          "type": "uint256"
        }
      ],
      "name": "ownerOf",
      "outputs": [
        {
          "internalType": "address",
          "name": "",
          "type": "address"
        }
      ],
      "stateMutability": "view",
      "type": "function"
    },
    {
      "inputs": [
        {
          "internalType": "bytes32",
          "name": "",
          "type": "bytes32"
        }
      ],
      "name": "recordVersions",
      "outputs": [
        {
          "internalType": "uint64",
          "name": "",
          "type": "uint64"
        }
      ],
      "stateMutability": "view",
      "type": "function"
    },
    {
      "inputs": [
        {
          "internalType": "address",
          "name": "registrar",
          "type": "address"
        }
      ],
      "name": "registrars",
      "outputs": [
        {
          "internalType": "bool",
          "name": "approved",
          "type": "bool"
        }
      ],
      "stateMutability": "view",
      "type": "function"
    },
    {
      "inputs": [
        {
          "internalType": "address",
          "name": "registrar",
          "type": "address"
        }
      ],
      "name": "removeRegistrar",
      "outputs": [],
      "stateMutability": "nonpayable",
      "type": "function"
    },
    {
      "inputs": [
        {
          "internalType": "bytes",
          "name": "",
          "type": "bytes"
        },
        {
          "internalType": "bytes",
          "name": "data",
          "type": "bytes"
        }
      ],
      "name": "resolve",
      "outputs": [
        {
          "internalType": "bytes",
          "name": "",
          "type": "bytes"
        }
      ],
      "stateMutability": "view",
      "type": "function"
    },
    {
      "inputs": [
        {
          "internalType": "address",
          "name": "from",
          "type": "address"
        },
        {
          "internalType": "address",
          "name": "to",
          "type": "address"
        },
        {
          "internalType": "uint256",
          "name": "tokenId",
          "type": "uint256"
        }
      ],
      "name": "safeTransferFrom",
      "outputs": [],
      "stateMutability": "nonpayable",
      "type": "function"
    },
    {
      "inputs": [
        {
          "internalType": "address",
          "name": "from",
          "type": "address"
        },
        {
          "internalType": "address",
          "name": "to",
          "type": "address"
        },
        {
          "internalType": "uint256",
          "name": "tokenId",
          "type": "uint256"
        },
        {
          "internalType": "bytes",
          "name": "data",
          "type": "bytes"
        }
      ],
      "name": "safeTransferFrom",
      "outputs": [],
      "stateMutability": "nonpayable",
      "type": "function"
    },
    {
      "inputs": [
        {
          "internalType": "bytes32",
          "name": "node",
          "type": "bytes32"
        },
        {
          "internalType": "uint256",
          "name": "contentType",
          "type": "uint256"
        },
        {
          "internalType": "bytes",
          "name": "data",
          "type": "bytes"
        }
      ],
      "name": "setABI",
      "outputs": [],
      "stateMutability": "nonpayable",
      "type": "function"
    },
    {
      "inputs": [
        {
          "internalType": "bytes32",
          "name": "node",
          "type": "bytes32"
        },
        {
          "internalType": "uint256",
          "name": "contentType",
          "type": "uint256"
        },
        {
          "internalType": "bytes",
          "name": "data",
          "type": "bytes"
        },
        {
          "internalType": "uint256",
          "name": "expiration",
          "type": "uint256"
        },
        {
          "internalType": "address",
          "name": "signer",
          "type": "address"
        },
        {
          "internalType": "bytes",
          "name": "signature",
          "type": "bytes"
        }
      ],
      "name": "setABIWithSignature",
      "outputs": [],
      "stateMutability": "nonpayable",
      "type": "function"
    },
    {
      "inputs": [
        {
          "internalType": "bytes32",
          "name": "node",
          "type": "bytes32"
        },
        {
          "internalType": "uint256",
          "name": "coinType",
          "type": "uint256"
        },
        {
          "internalType": "bytes",
          "name": "a",
          "type": "bytes"
        }
      ],
      "name": "setAddr",
      "outputs": [],
      "stateMutability": "nonpayable",
      "type": "function"
    },
    {
      "inputs": [
        {
          "internalType": "bytes32",
          "name": "node",
          "type": "bytes32"
        },
        {
          "internalType": "address",
          "name": "a",
          "type": "address"
        }
      ],
      "name": "setAddr",
      "outputs": [],
      "stateMutability": "nonpayable",
      "type": "function"
    },
    {
      "inputs": [
        {
          "internalType": "bytes32",
          "name": "node",
          "type": "bytes32"
        },
        {
          "internalType": "uint256",
          "name": "coinType",
          "type": "uint256"
        },
        {
          "internalType": "bytes",
          "name": "a",
          "type": "bytes"
        },
        {
          "internalType": "uint256",
          "name": "expiration",
          "type": "uint256"
        },
        {
          "internalType": "address",
          "name": "signer",
          "type": "address"
        },
        {
          "internalType": "bytes",
          "name": "signature",
          "type": "bytes"
        }
      ],
      "name": "setAddrWithSignature",
      "outputs": [],
      "stateMutability": "nonpayable",
      "type": "function"
    },
    {
      "inputs": [
        {
          "internalType": "address",
          "name": "operator",
          "type": "address"
        },
        {
          "internalType": "bool",
          "name": "approved",
          "type": "bool"
        }
      ],
      "name": "setApprovalForAll",
      "outputs": [],
      "stateMutability": "nonpayable",
      "type": "function"
    },
    {
      "inputs": [
        {
          "internalType": "string",
          "name": "baseURI",
          "type": "string"
        }
      ],
      "name": "setBaseURI",
      "outputs": [],
      "stateMutability": "nonpayable",
      "type": "function"
    },
    {
      "inputs": [
        {
          "internalType": "bytes32",
          "name": "node",
          "type": "bytes32"
        },
        {
          "internalType": "bytes",
          "name": "hash",
          "type": "bytes"
        }
      ],
      "name": "setContenthash",
      "outputs": [],
      "stateMutability": "nonpayable",
      "type": "function"
    },
    {
      "inputs": [
        {
          "internalType": "bytes32",
          "name": "node",
          "type": "bytes32"
        },
        {
          "internalType": "bytes",
          "name": "hash",
          "type": "bytes"
        },
        {
          "internalType": "uint256",
          "name": "expiration",
          "type": "uint256"
        },
        {
          "internalType": "address",
          "name": "signer",
          "type": "address"
        },
        {
          "internalType": "bytes",
          "name": "signature",
          "type": "bytes"
        }
      ],
      "name": "setContenthashWithSignature",
      "outputs": [],
      "stateMutability": "nonpayable",
      "type": "function"
    },
    {
      "inputs": [
        {
          "internalType": "bytes32",
          "name": "node",
          "type": "bytes32"
        },
        {
          "internalType": "string",
          "name": "key",
          "type": "string"
        },
        {
          "internalType": "string",
          "name": "value",
          "type": "string"
        }
      ],
      "name": "setText",
      "outputs": [],
      "stateMutability": "nonpayable",
      "type": "function"
    },
    {
      "inputs": [
        {
          "internalType": "bytes32",
          "name": "node",
          "type": "bytes32"
        },
        {
          "internalType": "string",
          "name": "key",
          "type": "string"
        },
        {
          "internalType": "string",
          "name": "value",
          "type": "string"
        },
        {
          "internalType": "uint256",
          "name": "expiration",
          "type": "uint256"
        },
        {
          "internalType": "address",
          "name": "signer",
          "type": "address"
        },
        {
          "internalType": "bytes",
          "name": "signature",
          "type": "bytes"
        }
      ],
      "name": "setTextWithSignature",
      "outputs": [],
      "stateMutability": "nonpayable",
      "type": "function"
    },
    {
      "inputs": [
        {
          "internalType": "bytes4",
          "name": "interfaceId",
          "type": "bytes4"
        }
      ],
      "name": "supportsInterface",
      "outputs": [
        {
          "internalType": "bool",
          "name": "",
          "type": "bool"
        }
      ],
      "stateMutability": "view",
      "type": "function"
    },
    {
      "inputs": [],
      "name": "symbol",
      "outputs": [
        {
          "internalType": "string",
          "name": "",
          "type": "string"
        }
      ],
      "stateMutability": "view",
      "type": "function"
    },
    {
      "inputs": [
        {
          "internalType": "bytes32",
          "name": "node",
          "type": "bytes32"
        },
        {
          "internalType": "string",
          "name": "key",
          "type": "string"
        }
      ],
      "name": "text",
      "outputs": [
        {
          "internalType": "string",
          "name": "",
          "type": "string"
        }
      ],
      "stateMutability": "view",
      "type": "function"
    },
    {
      "inputs": [
        {
          "internalType": "uint256",
          "name": "tokenId",
          "type": "uint256"
        }
      ],
      "name": "tokenURI",
      "outputs": [
        {
          "internalType": "string",
          "name": "",
          "type": "string"
        }
      ],
      "stateMutability": "view",
      "type": "function"
    },
    {
      "inputs": [],
      "name": "totalSupply",
      "outputs": [
        {
          "internalType": "uint256",
          "name": "",
          "type": "uint256"
        }
      ],
      "stateMutability": "view",
      "type": "function"
    },
    {
      "inputs": [
        {
          "internalType": "address",
          "name": "from",
          "type": "address"
        },
        {
          "internalType": "address",
          "name": "to",
          "type": "address"
        },
        {
          "internalType": "uint256",
          "name": "tokenId",
          "type": "uint256"
        }
      ],
      "name": "transferFrom",
      "outputs": [],
      "stateMutability": "nonpayable",
      "type": "function"
    }
  ],
  "bytecode": "0x60a060405273164af34faf9879394370c7f09064127c043a35e973ffffffffffffffffffffffffffffffffffffffff1660809073ffffffffffffffffffffffffffffffffffffffff1681525034801561005757600080fd5b50604051806020016040528060008152506040518060200160405280600081525081600090816100879190610446565b5080600190816100979190610446565b5050506100a86100ad60201b60201c565b610556565b60006100bd6101b160201b60201c565b90508060000160089054906101000a900460ff1615610108576040517ff92ee8a900000000000000000000000000000000000000000000000000000000815260040160405180910390fd5b67ffffffffffffffff80168160000160009054906101000a900467ffffffffffffffff1667ffffffffffffffff16146101ae5767ffffffffffffffff8160000160006101000a81548167ffffffffffffffff021916908367ffffffffffffffff1602179055507fc7f505b2f371ae2175ee4913f4499e1f2633a7b5936321eed1cdaeb6115181d267ffffffffffffffff6040516101a5919061053b565b60405180910390a15b50565b6000806101c26101cb60201b60201c565b90508091505090565b60007ff0c57e16840df040f15088dc2f81fe391c3923bec73e23a9662efc9c229c6a0060001b905090565b600081519050919050565b7f4e487b7100000000000000000000000000000000000000000000000000000000600052604160045260246000fd5b7f4e487b7100000000000000000000000000000000000000000000000000000000600052602260045260246000fd5b6000600282049050600182168061027757607f821691505b60208210810361028a57610289610230565b5b50919050565b60008190508160005260206000209050919050565b60006020601f8301049050919050565b600082821b905092915050565b6000600883026102f27fffffffffffffffffffffffffffffffffffffffffffffffffffffffffffffffff826102b5565b6102fc86836102b5565b95508019841693508086168417925050509392505050565b6000819050919050565b6000819050919050565b600061034361033e61033984610314565b61031e565b610314565b9050919050565b6000819050919050565b61035d83610328565b6103716103698261034a565b8484546102c2565b825550505050565b600090565b610386610379565b610391818484610354565b505050565b5b818110156103b5576103aa60008261037e565b600181019050610397565b5050565b601f8211156103fa576103cb81610290565b6103d4846102a5565b810160208510156103e3578190505b6103f76103ef856102a5565b830182610396565b50505b505050565b600082821c905092915050565b600061041d600019846008026103ff565b1980831691505092915050565b6000610436838361040c565b9150826002028217905092915050565b61044f826101f6565b67ffffffffffffffff81111561046857610467610201565b5b610472825461025f565b61047d8282856103b9565b600060209050601f8311600181146104b0576000841561049e578287015190505b6104a8858261042a565b865550610510565b601f1984166104be86610290565b60005b828110156104e6578489015182556001820191506020850194506020810190506104c1565b8683101561050357848901516104ff601f89168261040c565b8355505b6001600288020188555050505b505050505050565b600067ffffffffffffffff82169050919050565b61053581610518565b82525050565b6000602082019050610550600083018461052c565b92915050565b608051616fb8610586600039600081816116270152818161184301528181611b3c015261299c0152616fb86000f3fe608060405234801561001057600080fd5b506004361061028a5760003560e01c8063743a095b1161015c578063b88d4fde116100ce578063d700ff3311610087578063d700ff3314610860578063ddf7fcb014610890578063e32954eb146108ae578063e985e9c5146108de578063f1cb7e061461090e578063f32911071461093e5761028a565b8063b88d4fde1461077c578063ba904eed14610798578063bc1c58d1146107b4578063c87b56dd146107e4578063cb0b159b14610814578063d5fa2b00146108445761028a565b80639061b923116101205780639061b9231461069657806395d89b41146106c6578063a22cb465146106e4578063ac9650d814610700578063af92a69314610730578063b0c3ade41461074c5761028a565b8063743a095b146105e057806389aeca76146105fc5780638b95dd711461062c5780638bf9baba146106485780638da5cb5b146106785761028a565b8063304e6ade116102005780635c6d8da1116101b95780635c6d8da114610510578063623195b01461052c5780636352211e1461054857806366930680146105785780636b0a29701461059457806370a08231146105b05761028a565b8063304e6ade146104405780633603d7581461045c5780633b3b57de1461047857806342842e0e146104a857806355f804b3146104c457806359d1d43c146104e05761028a565b80630987996211610252578063098799621461035957806310f13a8c1461038957806318160ddd146103a557806320c38e2b146103c35780632203ab56146103f357806323b872dd146104245761028a565b806301ffc9a71461028f57806302571be3146102bf57806306fdde03146102ef578063081812fc1461030d578063095ea7b31461033d575b600080fd5b6102a960048036038101906102a49190614ba8565b61095a565b6040516102b69190614bf0565b60405180910390f35b6102d960048036038101906102d49190614c41565b61096c565b6040516102e69190614caf565b60405180910390f35b6102f7610981565b6040516103049190614d5a565b60405180910390f35b61032760048036038101906103229190614db2565b610a13565b6040516103349190614caf565b60405180910390f35b61035760048036038101906103529190614e0b565b610a2f565b005b610373600480360381019061036e9190614eb0565b610a45565b6040516103809190614f0c565b60405180910390f35b6103a3600480360381019061039e9190614f27565b610aa2565b005b6103ad610ba0565b6040516103ba9190614fcb565b60405180910390f35b6103dd60048036038101906103d89190614c41565b610ba6565b6040516103ea919061503b565b60405180910390f35b61040d6004803603810190610408919061505d565b610c46565b60405161041b92919061509d565b60405180910390f35b61043e600480360381019061043991906150cd565b610dc7565b005b61045a60048036038101906104559190615176565b610ec9565b005b61047660048036038101906104719190614c41565b610f8b565b005b610492600480360381019061048d9190614c41565b61105f565b60405161049f91906151f7565b60405180910390f35b6104c260048036038101906104bd91906150cd565b611094565b005b6104de60048036038101906104d99190614eb0565b6110b4565b005b6104fa60048036038101906104f59190615212565b61113b565b6040516105079190614d5a565b60405180910390f35b61052a60048036038101906105259190615272565b61124c565b005b6105466004803603810190610541919061533b565b6114ab565b005b610562600480360381019061055d9190614db2565b61158e565b60405161056f9190614caf565b60405180910390f35b610592600480360381019061058d91906154df565b6115a0565b005b6105ae60048036038101906105a99190615595565b6117ba565b005b6105ca60048036038101906105c59190615660565b6119f9565b6040516105d79190614fcb565b60405180910390f35b6105fa60048036038101906105f59190615595565b611ab3565b005b61061660048036038101906106119190615660565b611c36565b6040516106239190614bf0565b60405180910390f35b6106466004803603810190610641919061568d565b611c56565b005b610662600480360381019061065d9190615752565b611d70565b60405161066f9190614f0c565b60405180910390f35b6106806120ae565b60405161068d9190614caf565b60405180910390f35b6106b060048036038101906106ab91906157f9565b6120c0565b6040516106bd919061503b565b60405180910390f35b6106ce61214d565b6040516106db9190614d5a565b60405180910390f35b6106fe60048036038101906106f9919061589d565b6121df565b005b61071a600480360381019061071591906158dd565b6121f5565b6040516107279190615a36565b60405180910390f35b61074a60048036038101906107459190615660565b61220d565b005b61076660048036038101906107619190615212565b612318565b6040516107739190614f0c565b60405180910390f35b61079660048036038101906107919190615a58565b612368565b005b6107b260048036038101906107ad9190615660565b61238d565b005b6107ce60048036038101906107c99190614c41565b612498565b6040516107db919061503b565b60405180910390f35b6107fe60048036038101906107f99190614db2565b612589565b60405161080b9190614d5a565b60405180910390f35b61082e60048036038101906108299190615adb565b6126b6565b60405161083b9190614d5a565b60405180910390f35b61085e60048036038101906108599190615b28565b61270d565b005b61087a60048036038101906108759190614c41565b612739565b6040516108879190615b8b565b60405180910390f35b610898612760565b6040516108a59190614f0c565b60405180910390f35b6108c860048036038101906108c39190615ba6565b612766565b6040516108d59190615a36565b60405180910390f35b6108f860048036038101906108f39190615c06565b61277c565b6040516109059190614bf0565b60405180910390f35b6109286004803603810190610923919061505d565b612810565b604051610935919061503b565b60405180910390f35b61095860048036038101906109539190615ce7565b612913565b005b600061096582612b64565b9050919050565b600061097a8260001c612b76565b9050919050565b6060600d805461099090615dfd565b80601f01602080910402602001604051908101604052809291908181526020018280546109bc90615dfd565b8015610a095780601f106109de57610100808354040283529160200191610a09565b820191906000526020600020905b8154815290600101906020018083116109ec57829003601f168201915b5050505050905090565b6000610a1e82612bb3565b50610a2882612c3b565b9050919050565b610a418282610a3c612c78565b612c80565b5050565b600080610a9584848080601f016020809104026020016040519081016040528093929190818152602001838380828437600081840152601f19601f82011690508083019250505050505050612c92565b9150508091505092915050565b84610aac81612f82565b610ab557600080fd5b8282600a6000600660008b815260200190815260200160002060009054906101000a900467ffffffffffffffff1667ffffffffffffffff1667ffffffffffffffff16815260200190815260200160002060008981526020019081526020016000208787604051610b26929190615e5e565b90815260200160405180910390209182610b4192919061602e565b508484604051610b52929190615e5e565b6040518091039020867f448bc014f1536726cf8d54ff3d6481ed3cbc683c2591ca204274009afa09b1a187878787604051610b90949392919061612b565b60405180910390a3505050505050565b600c5481565b60106020528060005260406000206000915090508054610bc590615dfd565b80601f0160208091040260200160405190810160405280929190818152602001828054610bf190615dfd565b8015610c3e5780601f10610c1357610100808354040283529160200191610c3e565b820191906000526020600020905b815481529060010190602001808311610c2157829003601f168201915b505050505081565b600060606000600760006006600088815260200190815260200160002060009054906101000a900467ffffffffffffffff1667ffffffffffffffff1667ffffffffffffffff168152602001908152602001600020600086815260200190815260200160002090506000600190505b848111610da757600085821614158015610cec575060008260008381526020019081526020016000208054610ce890615dfd565b9050115b15610d9b5780826000838152602001908152602001600020808054610d1090615dfd565b80601f0160208091040260200160405190810160405280929190818152602001828054610d3c90615dfd565b8015610d895780601f10610d5e57610100808354040283529160200191610d89565b820191906000526020600020905b815481529060010190602001808311610d6c57829003601f168201915b50505050509050935093505050610dc0565b600181901b9050610cb4565b5060006040518060200160405280600081525092509250505b9250929050565b600073ffffffffffffffffffffffffffffffffffffffff168273ffffffffffffffffffffffffffffffffffffffff1603610e395760006040517f64a0ae92000000000000000000000000000000000000000000000000000000008152600401610e309190614caf565b60405180910390fd5b6000610e4d8383610e48612c78565b612f95565b90508373ffffffffffffffffffffffffffffffffffffffff168173ffffffffffffffffffffffffffffffffffffffff1614610ec3578382826040517f64283d7b000000000000000000000000000000000000000000000000000000008152600401610eba93929190616166565b60405180910390fd5b50505050565b82610ed381612f82565b610edc57600080fd5b8282600960006006600089815260200190815260200160002060009054906101000a900467ffffffffffffffff1667ffffffffffffffff1667ffffffffffffffff16815260200190815260200160002060008781526020019081526020016000209182610f4a929190616203565b50837fe379c1624ed7e714cc0937528a32359d69d5281337765313dba4e081b72d75788484604051610f7d929190616300565b60405180910390a250505050565b80610f9581612f82565b610f9e57600080fd5b60066000838152602001908152602001600020600081819054906101000a900467ffffffffffffffff1680929190610fd590616353565b91906101000a81548167ffffffffffffffff021916908367ffffffffffffffff16021790555050817fc6621ccb8f3f5a04bb6502154b2caf6adf5983fe76dfef1cfc9c42e3579db4446006600085815260200190815260200160002060009054906101000a900467ffffffffffffffff166040516110539190615b8b565b60405180910390a25050565b60008061106d83603c612810565b9050600081510361108257600091505061108f565b61108b816131af565b9150505b919050565b6110af83838360405180602001604052806000815250612368565b505050565b3373ffffffffffffffffffffffffffffffffffffffff166110d36120ae565b73ffffffffffffffffffffffffffffffffffffffff161461112d57600b546040517fe66c48da0000000000000000000000000000000000000000000000000000000081526004016111249190614f0c565b60405180910390fd5b61113782826131d2565b5050565b6060600a60006006600087815260200190815260200160002060009054906101000a900467ffffffffffffffff1667ffffffffffffffff1667ffffffffffffffff168152602001908152602001600020600085815260200190815260200160002083836040516111ac929190615e5e565b908152602001604051809103902080546111c590615dfd565b80601f01602080910402602001604051908101604052809291908181526020018280546111f190615dfd565b801561123e5780601f106112135761010080835404028352916020019161123e565b820191906000526020600020905b81548152906001019060200180831161122157829003601f168201915b505050505090509392505050565b6000611256613221565b905060008160000160089054906101000a900460ff1615905060008260000160009054906101000a900467ffffffffffffffff1690506000808267ffffffffffffffff161480156112a45750825b9050600060018367ffffffffffffffff161480156112d9575060003073ffffffffffffffffffffffffffffffffffffffff163b145b9050811580156112e7575080155b1561131e576040517ff92ee8a900000000000000000000000000000000000000000000000000000000815260040160405180910390fd5b60018560000160006101000a81548167ffffffffffffffff021916908367ffffffffffffffff160217905550831561136e5760018560000160086101000a81548160ff0219169083151502179055505b6000806113be8e8e8080601f016020809104026020016040519081016040528093929190818152602001838380828437600081840152601f19601f82011690508083019250505050505050612c92565b915091508d8d600d91826113d392919061602e565b508b8b600e91826113e592919061602e565b506113f08a8a6131d2565b80600b819055508160106000600b54815260200190815260200160002090816114199190616383565b50611427888260001c613235565b600c600081548092919061143a90616455565b91905055505050831561149d5760008560000160086101000a81548160ff0219169083151502179055507fc7f505b2f371ae2175ee4913f4499e1f2633a7b5936321eed1cdaeb6115181d2600160405161149491906164d8565b60405180910390a15b505050505050505050505050565b836114b581612f82565b6114be57600080fd5b6000846001866114ce91906164f3565b16146114d957600080fd5b828260076000600660008a815260200190815260200160002060009054906101000a900467ffffffffffffffff1667ffffffffffffffff1667ffffffffffffffff168152602001908152602001600020600088815260200190815260200160002060008781526020019081526020016000209182611558929190616203565b5083857faa121bbeef5f32f5961a2a28966e769023910fc9479059ee3495d4c1a696efe360405160405180910390a35050505050565b600061159982612bb3565b9050919050565b83804211156115db576040517f0819bdcd00000000000000000000000000000000000000000000000000000000815260040160405180910390fd5b6000611612308989896040516020016115f794939291906165ed565b60405160208183030381529060405280519060200120613253565b905061161e8589613289565b15806116c957507f000000000000000000000000000000000000000000000000000000000000000073ffffffffffffffffffffffffffffffffffffffff166398ef1ed8868387876040518563ffffffff1660e01b81526004016116849493929190616637565b6020604051808303816000875af11580156116a3573d6000803e3d6000fd5b505050506040513d601f19601f820116820180604052508101906116c7919061668c565b155b1561170b57876040517fe66c48da0000000000000000000000000000000000000000000000000000000081526004016117029190614f0c565b60405180910390fd5b8660096000600660008c815260200190815260200160002060009054906101000a900467ffffffffffffffff1667ffffffffffffffff1667ffffffffffffffff16815260200190815260200160002060008a815260200190815260200160002090816117779190616383565b50877fe379c1624ed7e714cc0937528a32359d69d5281337765313dba4e081b72d7578886040516117a8919061503b565b60405180910390a25050505050505050565b83804211156117f5576040517f0819bdcd00000000000000000000000000000000000000000000000000000000815260040160405180910390fd5b600061182e308a8a8a8a6040516020016118139594939291906166b9565b60405160208183030381529060405280519060200120613253565b905061183a858a613289565b15806118e557507f000000000000000000000000000000000000000000000000000000000000000073ffffffffffffffffffffffffffffffffffffffff166398ef1ed8868387876040518563ffffffff1660e01b81526004016118a09493929190616637565b6020604051808303816000875af11580156118bf573d6000803e3d6000fd5b505050506040513d601f19601f820116820180604052508101906118e3919061668c565b155b1561192757886040517fe66c48da00000000000000000000000000000000000000000000000000000000815260040161191e9190614f0c565b60405180910390fd5b60008860018a61193791906164f3565b161461194257600080fd5b8660076000600660008d815260200190815260200160002060009054906101000a900467ffffffffffffffff1667ffffffffffffffff1667ffffffffffffffff16815260200190815260200160002060008b815260200190815260200160002060008a815260200190815260200160002090816119bf9190616383565b5087897faa121bbeef5f32f5961a2a28966e769023910fc9479059ee3495d4c1a696efe360405160405180910390a3505050505050505050565b60008073ffffffffffffffffffffffffffffffffffffffff168273ffffffffffffffffffffffffffffffffffffffff1603611a6c5760006040517f89c62b64000000000000000000000000000000000000000000000000000000008152600401611a639190614caf565b60405180910390fd5b600360008373ffffffffffffffffffffffffffffffffffffffff1673ffffffffffffffffffffffffffffffffffffffff168152602001908152602001600020549050919050565b8380421115611aee576040517f0819bdcd00000000000000000000000000000000000000000000000000000000815260040160405180910390fd5b6000611b27308a8a8a8a604051602001611b0c9594939291906166b9565b60405160208183030381529060405280519060200120613253565b9050611b33858a613289565b1580611bde57507f000000000000000000000000000000000000000000000000000000000000000073ffffffffffffffffffffffffffffffffffffffff166398ef1ed8868387876040518563ffffffff1660e01b8152600401611b999493929190616637565b6020604051808303816000875af1158015611bb8573d6000803e3d6000fd5b505050506040513d601f19601f82011682018060405250810190611bdc919061668c565b155b15611c2057886040517fe66c48da000000000000000000000000000000000000000000000000000000008152600401611c179190614f0c565b60405180910390fd5b611c2b898989611c56565b505050505050505050565b60116020528060005260406000206000915054906101000a900460ff1681565b82611c6081612f82565b611c6957600080fd5b837f65412581168e88a1e60c6459d7f44ae83ad0832e670826c05a4e2476b57af7528484604051611c9b92919061509d565b60405180910390a2603c8303611cec57837f52d7d861f09ab3d26239d492e8968629f95e9e318cf0b73bfddc441522a15fd2611cd6846131af565b604051611ce39190616769565b60405180910390a25b81600860006006600088815260200190815260200160002060009054906101000a900467ffffffffffffffff1667ffffffffffffffff1667ffffffffffffffff168152602001908152602001600020600086815260200190815260200160002060008581526020019081526020016000209081611d699190616383565b5050505050565b6000863373ffffffffffffffffffffffffffffffffffffffff16611d938261096c565b73ffffffffffffffffffffffffffffffffffffffff1614158015611e015750601160003373ffffffffffffffffffffffffffffffffffffffff1673ffffffffffffffffffffffffffffffffffffffff16815260200190815260200160002060009054906101000a900460ff16155b15611e4357806040517fe66c48da000000000000000000000000000000000000000000000000000000008152600401611e3a9190614f0c565b60405180910390fd5b6000611e50898989612318565b905060008888604051611e649291906167a9565b604051809103902090506000611f598a8a8080601f016020809104026020016040519081016040528093929190818152602001838380828437600081840152601f19601f82011690508083019250505050505050601060008e81526020019081526020016000208054611ed690615dfd565b80601f0160208091040260200160405190810160405280929190818152602001828054611f0290615dfd565b8015611f4f5780601f10611f2457610100808354040283529160200191611f4f565b820191906000526020600020905b815481529060010190602001808311611f3257829003601f168201915b50505050506134d6565b9050600073ffffffffffffffffffffffffffffffffffffffff16611f7c8461096c565b73ffffffffffffffffffffffffffffffffffffffff1614611fd85789898c6040517f9abc1910000000000000000000000000000000000000000000000000000000008152600401611fcf939291906167c2565b60405180910390fd5b611fe5888460001c613235565b611ff0838888613588565b50806010600085815260200190815260200160002090816120119190616383565b50600c600081548092919061202590616455565b9190505550818b7fce0457fe73731f824cc272376169235128c118b49d344817417c6d108d155e828a60405161205b9190614caf565b60405180910390a3827f54dcb73b69bb8751ea76a9869fb42238e1a04b363c9c1d076a03799c5c8da6f7828a6040516120959291906167f4565b60405180910390a2829450505050509695505050505050565b60006120bb600b5461096c565b905090565b60606000803073ffffffffffffffffffffffffffffffffffffffff16846040516120ea9190616824565b600060405180830381855afa9150503d8060008114612125576040519150601f19603f3d011682016040523d82523d6000602084013e61212a565b606091505b5091509150811561213f578092505050612147565b805160208201fd5b92915050565b6060600e805461215c90615dfd565b80601f016020809104026020016040519081016040528092919081815260200182805461218890615dfd565b80156121d55780601f106121aa576101008083540402835291602001916121d5565b820191906000526020600020905b8154815290600101906020018083116121b857829003601f168201915b5050505050905090565b6121f16121ea612c78565b8383613751565b5050565b60606122056000801b8484613588565b905092915050565b3373ffffffffffffffffffffffffffffffffffffffff1661222c6120ae565b73ffffffffffffffffffffffffffffffffffffffff161461228657600b546040517fe66c48da00000000000000000000000000000000000000000000000000000000815260040161227d9190614f0c565b60405180910390fd5b6001601160008373ffffffffffffffffffffffffffffffffffffffff1673ffffffffffffffffffffffffffffffffffffffff16815260200190815260200160002060006101000a81548160ff0219169083151502179055507f5c38ce8ff8864a9d2a5ff5aec72a88770e38d181dea59173fde1247cdaa1aea38160405161230d9190614caf565b60405180910390a150565b600080838360405161232b9291906167a9565b60405180910390209050848160405160200161234892919061683b565b604051602081830303815290604052805190602001209150509392505050565b612373848484610dc7565b61238761237e612c78565b858585856138c0565b50505050565b3373ffffffffffffffffffffffffffffffffffffffff166123ac6120ae565b73ffffffffffffffffffffffffffffffffffffffff161461240657600b546040517fe66c48da0000000000000000000000000000000000000000000000000000000081526004016123fd9190614f0c565b60405180910390fd5b6000601160008373ffffffffffffffffffffffffffffffffffffffff1673ffffffffffffffffffffffffffffffffffffffff16815260200190815260200160002060006101000a81548160ff0219169083151502179055507f81cb97a294b3ff5f91ef4048b3173c7f8f6943d9750add2071199061165e5f578160405161248d9190614caf565b60405180910390a150565b6060600960006006600085815260200190815260200160002060009054906101000a900467ffffffffffffffff1667ffffffffffffffff1667ffffffffffffffff1681526020019081526020016000206000838152602001908152602001600020805461250490615dfd565b80601f016020809104026020016040519081016040528092919081815260200182805461253090615dfd565b801561257d5780601f106125525761010080835404028352916020019161257d565b820191906000526020600020905b81548152906001019060200180831161256057829003601f168201915b50505050509050919050565b60606000600f805461259a90615dfd565b9050036126a5576125aa82612bb3565b506000612654601060008560001b815260200190815260200160002080546125d190615dfd565b80601f01602080910402602001604051908101604052809291908181526020018280546125fd90615dfd565b801561264a5780601f1061261f5761010080835404028352916020019161264a565b820191906000526020600020905b81548152906001019060200180831161262d57829003601f168201915b5050505050613a71565b60405160200161266491906168e4565b604051602081830303815290604052905061267e81613ca5565b60405160200161268e919061693f565b6040516020818303038152906040529150506126b1565b6126ae82613cd2565b90505b919050565b606061270583838080601f016020809104026020016040519081016040528093929190818152602001838380828437600081840152601f19601f82011690508083019250505050505050613a71565b905092915050565b8161271781612f82565b61272057600080fd5b61273483603c61272f85613d3b565b611c56565b505050565b60066020528060005260406000206000915054906101000a900467ffffffffffffffff1681565b600b5481565b6060612773848484613588565b90509392505050565b6000600560008473ffffffffffffffffffffffffffffffffffffffff1673ffffffffffffffffffffffffffffffffffffffff16815260200190815260200160002060008373ffffffffffffffffffffffffffffffffffffffff1673ffffffffffffffffffffffffffffffffffffffff16815260200190815260200160002060009054906101000a900460ff16905092915050565b6060600860006006600086815260200190815260200160002060009054906101000a900467ffffffffffffffff1667ffffffffffffffff1667ffffffffffffffff16815260200190815260200160002060008481526020019081526020016000206000838152602001908152602001600020805461288d90615dfd565b80601f01602080910402602001604051908101604052809291908181526020018280546128b990615dfd565b80156129065780601f106128db57610100808354040283529160200191612906565b820191906000526020600020905b8154815290600101906020018083116128e957829003601f168201915b5050505050905092915050565b838042111561294e576040517f0819bdcd00000000000000000000000000000000000000000000000000000000815260040160405180910390fd5b6000612987308a8a8a8a60405160200161296c959493929190616965565b60405160208183030381529060405280519060200120613253565b9050612993858a613289565b1580612a3e57507f000000000000000000000000000000000000000000000000000000000000000073ffffffffffffffffffffffffffffffffffffffff166398ef1ed8868387876040518563ffffffff1660e01b81526004016129f99493929190616637565b6020604051808303816000875af1158015612a18573d6000803e3d6000fd5b505050506040513d601f19601f82011682018060405250810190612a3c919061668c565b155b15612a8057886040517fe66c48da000000000000000000000000000000000000000000000000000000008152600401612a779190614f0c565b60405180910390fd5b86600a6000600660008d815260200190815260200160002060009054906101000a900467ffffffffffffffff1667ffffffffffffffff1667ffffffffffffffff16815260200190815260200160002060008b815260200190815260200160002089604051612aee91906169bc565b90815260200160405180910390209081612b0891906169d3565b5087604051612b1791906169bc565b6040518091039020897f448bc014f1536726cf8d54ff3d6481ed3cbc683c2591ca204274009afa09b1a18a8a604051612b51929190616aa5565b60405180910390a3505050505050505050565b6000612b6f82613d9f565b9050919050565b60006002600083815260200190815260200160002060009054906101000a900473ffffffffffffffffffffffffffffffffffffffff169050919050565b600080612bbf83612b76565b9050600073ffffffffffffffffffffffffffffffffffffffff168173ffffffffffffffffffffffffffffffffffffffff1603612c3257826040517f7e273289000000000000000000000000000000000000000000000000000000008152600401612c299190614fcb565b60405180910390fd5b80915050919050565b60006004600083815260200190815260200160002060009054906101000a900473ffffffffffffffffffffffffffffffffffffffff169050919050565b600033905090565b612c8d8383836001613e19565b505050565b6060600080600090506000849050600081519050600281612cb39190616adc565b67ffffffffffffffff811115612ccc57612ccb6153b4565b5b6040519080825280601f01601f191660200182016040528015612cfe5781602001600182028036833780820191505090505b5094506000801b935060008103612d5f57600060f81b85600081518110612d2857612d27616b10565b5b60200101907effffffffffffffffffffffffffffffffffffffffffffffffffffffffffffff1916908160001a905350505050612f7d565b60006001820390505b60008110612eee577f2e00000000000000000000000000000000000000000000000000000000000000838281518110612da457612da3616b10565b5b602001015160f81c60f81b7effffffffffffffffffffffffffffffffffffffffffffffffffffffffffffff191603612e6d578360f81b866001830181518110612df057612def616b10565b5b60200101907effffffffffffffffffffffffffffffffffffffffffffffffffffffffffffff1916908160001a90535084612e3b600183018660ff1686613fde9092919063ffffffff16565b604051602001612e4c92919061683b565b60405160208183030381529060405280519060200120945060009350612ed7565b600184019350828181518110612e8657612e85616b10565b5b602001015160f81c60f81b866001830181518110612ea757612ea6616b10565b5b60200101907effffffffffffffffffffffffffffffffffffffffffffffffffffffffffffff1916908160001a9053505b6000810315612eee57808060019003915050612d68565b5083612f0960008560ff1685613fde9092919063ffffffff16565b604051602001612f1a92919061683b565b6040516020818303038152906040528051906020012093508260f81b85600081518110612f4a57612f49616b10565b5b60200101907effffffffffffffffffffffffffffffffffffffffffffffffffffffffffffff1916908160001a9053505050505b915091565b6000612f8e3383613289565b9050919050565b600080612fa184612b76565b9050600073ffffffffffffffffffffffffffffffffffffffff168373ffffffffffffffffffffffffffffffffffffffff1614612fe357612fe281848661400a565b5b600073ffffffffffffffffffffffffffffffffffffffff168173ffffffffffffffffffffffffffffffffffffffff161461307457613025600085600080613e19565b6001600360008373ffffffffffffffffffffffffffffffffffffffff1673ffffffffffffffffffffffffffffffffffffffff168152602001908152602001600020600082825403925050819055505b600073ffffffffffffffffffffffffffffffffffffffff168573ffffffffffffffffffffffffffffffffffffffff16146130f7576001600360008773ffffffffffffffffffffffffffffffffffffffff1673ffffffffffffffffffffffffffffffffffffffff168152602001908152602001600020600082825401925050819055505b846002600086815260200190815260200160002060006101000a81548173ffffffffffffffffffffffffffffffffffffffff021916908373ffffffffffffffffffffffffffffffffffffffff160217905550838573ffffffffffffffffffffffffffffffffffffffff168273ffffffffffffffffffffffffffffffffffffffff167fddf252ad1be2c89b69c2b068fc378daa952ba7f163c4a11628f55a4df523b3ef60405160405180910390a4809150509392505050565b600060148251146131bf57600080fd5b600c6101000a6020830151049050919050565b8181600f91826131e392919061602e565b507f6741b2fc379fad678116fe3d4d4b9a1a184ab53ba36b86ad0fa66340b1ab41ad8282604051613215929190616b3f565b60405180910390a15050565b60008061322c6140ce565b90508091505090565b61324f8282604051806020016040528060008152506140f9565b5050565b60007f19457468657265756d205369676e6564204d6573736167653a0a33320000000060005281601c52603c6000209050919050565b60008061329461411d565b90508073ffffffffffffffffffffffffffffffffffffffff166389aeca76856040518263ffffffff1660e01b81526004016132cf9190614caf565b602060405180830381865afa1580156132ec573d6000803e3d6000fd5b505050506040513d601f19601f82011682018060405250810190613310919061668c565b1561331f5760019150506134d0565b60008360001c905060008273ffffffffffffffffffffffffffffffffffffffff16636352211e836040518263ffffffff1660e01b81526004016133629190614fcb565b602060405180830381865afa15801561337f573d6000803e3d6000fd5b505050506040513d601f19601f820116820180604052508101906133a39190616b78565b90508573ffffffffffffffffffffffffffffffffffffffff168173ffffffffffffffffffffffffffffffffffffffff161415801561348657508573ffffffffffffffffffffffffffffffffffffffff168373ffffffffffffffffffffffffffffffffffffffff1663081812fc846040518263ffffffff1660e01b815260040161342c9190614fcb565b602060405180830381865afa158015613449573d6000803e3d6000fd5b505050506040513d601f19601f8201168201806040525081019061346d9190616b78565b73ffffffffffffffffffffffffffffffffffffffff1614155b156134c857846040517fe66c48da0000000000000000000000000000000000000000000000000000000081526004016134bf9190614f0c565b60405180910390fd5b600193505050505b92915050565b6060600183511015613514576040517f280dacb600000000000000000000000000000000000000000000000000000000815260040160405180910390fd5b60ff8351111561355b57826040517fe3ba295f0000000000000000000000000000000000000000000000000000000081526004016135529190614d5a565b60405180910390fd5b8251838360405160200161357193929190616be8565b604051602081830303815290604052905092915050565b60608282905067ffffffffffffffff8111156135a7576135a66153b4565b5b6040519080825280602002602001820160405280156135da57816020015b60608152602001906001900390816135c55790505b50905060005b83839050811015613749576000801b851461367f57600084848381811061360a57613609616b10565b5b905060200281019061361c9190616c2c565b60049060249261362e93929190616c99565b906136399190616cd4565b905085811461367d576040517f08c379a000000000000000000000000000000000000000000000000000000000815260040161367490616da5565b60405180910390fd5b505b6000803073ffffffffffffffffffffffffffffffffffffffff168686858181106136ac576136ab616b10565b5b90506020028101906136be9190616c2c565b6040516136cc9291906167a9565b600060405180830381855af49150503d8060008114613707576040519150601f19603f3d011682016040523d82523d6000602084013e61370c565b606091505b50915091508161371b57600080fd5b8084848151811061372f5761372e616b10565b5b6020026020010181905250505080806001019150506135e0565b509392505050565b600073ffffffffffffffffffffffffffffffffffffffff168273ffffffffffffffffffffffffffffffffffffffff16036137c257816040517f5b08ba180000000000000000000000000000000000000000000000000000000081526004016137b99190614caf565b60405180910390fd5b80600560008573ffffffffffffffffffffffffffffffffffffffff1673ffffffffffffffffffffffffffffffffffffffff16815260200190815260200160002060008473ffffffffffffffffffffffffffffffffffffffff1673ffffffffffffffffffffffffffffffffffffffff16815260200190815260200160002060006101000a81548160ff0219169083151502179055508173ffffffffffffffffffffffffffffffffffffffff168373ffffffffffffffffffffffffffffffffffffffff167f17307eab39ab6107e8899845ad3d59bd9653f200f220920489ca2b5937696c31836040516138b39190614bf0565b60405180910390a3505050565b60008373ffffffffffffffffffffffffffffffffffffffff163b1115613a6a578273ffffffffffffffffffffffffffffffffffffffff1663150b7a02868685856040518563ffffffff1660e01b815260040161391f9493929190616dc5565b6020604051808303816000875af192505050801561395b57506040513d601f19601f820116820180604052508101906139589190616e26565b60015b6139df573d806000811461398b576040519150601f19603f3d011682016040523d82523d6000602084013e613990565b606091505b5060008151036139d757836040517f64a0ae920000000000000000000000000000000000000000000000000000000081526004016139ce9190614caf565b60405180910390fd5b805181602001fd5b63150b7a0260e01b7bffffffffffffffffffffffffffffffffffffffffffffffffffffffff1916817bffffffffffffffffffffffffffffffffffffffffffffffffffffffff191614613a6857836040517f64a0ae92000000000000000000000000000000000000000000000000000000008152600401613a5f9190614caf565b60405180910390fd5b505b5050505050565b6060600082519050600181148015613acc5750600060f81b83600081518110613a9d57613a9c616b10565b5b602001015160f81c60f81b7effffffffffffffffffffffffffffffffffffffffffffffffffffffffffffff1916145b15613ae95760405180602001604052806000815250915050613ca0565b6003811015613b24576040517f430f13b300000000000000000000000000000000000000000000000000000000815260040160405180910390fd5b6002810390508067ffffffffffffffff811115613b4457613b436153b4565b5b6040519080825280601f01601f191660200182016040528015613b765781602001600182028036833780820191505090505b50915060006020840190506000846001850303905060008290505b600115613c5a57600081519050600060f882901c905060008103613bb6575050613c5a565b60008184019050868601811115613bf9576040517f430f13b300000000000000000000000000000000000000000000000000000000815260040160405180910390fd5b60088084901b901c7f2e00000000000000000000000000000000000000000000000000000000000000179250828585015260006020850190505b818111613c4b57805186820152602081019050613c33565b50806001019350505050613b91565b6001840183820314613c98576040517f430f13b300000000000000000000000000000000000000000000000000000000815260040160405180910390fd5b838552505050505b919050565b6060613ccb82604051806060016040528060408152602001616f43604091396001614125565b9050919050565b6060613cdd82612bb3565b506000613ce86142b9565b90506000815111613d085760405180602001604052806000815250613d33565b80613d128461434b565b604051602001613d23929190616e53565b6040516020818303038152906040525b915050919050565b6060601467ffffffffffffffff811115613d5857613d576153b4565b5b6040519080825280601f01601f191660200182016040528015613d8a5781602001600182028036833780820191505090505b509050600c6101000a82026020820152919050565b60007f59d1d43c000000000000000000000000000000000000000000000000000000007bffffffffffffffffffffffffffffffffffffffffffffffffffffffff1916827bffffffffffffffffffffffffffffffffffffffffffffffffffffffff19161480613e125750613e1182614419565b5b9050919050565b8080613e525750600073ffffffffffffffffffffffffffffffffffffffff168273ffffffffffffffffffffffffffffffffffffffff1614155b15613f86576000613e6284612bb3565b9050600073ffffffffffffffffffffffffffffffffffffffff168373ffffffffffffffffffffffffffffffffffffffff1614158015613ecd57508273ffffffffffffffffffffffffffffffffffffffff168173ffffffffffffffffffffffffffffffffffffffff1614155b8015613ee05750613ede818461277c565b155b15613f2257826040517fa9fbf51f000000000000000000000000000000000000000000000000000000008152600401613f199190614caf565b60405180910390fd5b8115613f8457838573ffffffffffffffffffffffffffffffffffffffff168273ffffffffffffffffffffffffffffffffffffffff167f8c5be1e5ebec7d5bd14f71427d1e84f3dd0314c0f7b2291e5b200ac8c7c3b92560405160405180910390a45b505b836004600085815260200190815260200160002060006101000a81548173ffffffffffffffffffffffffffffffffffffffff021916908373ffffffffffffffffffffffffffffffffffffffff16021790555050505050565b600083518284613fee9190616adc565b1115613ff957600080fd5b818360208601012090509392505050565b614015838383614493565b6140c957600073ffffffffffffffffffffffffffffffffffffffff168373ffffffffffffffffffffffffffffffffffffffff160361408a57806040517f7e2732890000000000000000000000000000000000000000000000000000000081526004016140819190614fcb565b60405180910390fd5b81816040517f177e802f0000000000000000000000000000000000000000000000000000000081526004016140c0929190616e77565b60405180910390fd5b505050565b60007ff0c57e16840df040f15088dc2f81fe391c3923bec73e23a9662efc9c229c6a0060001b905090565b6141038383614554565b61411861410e612c78565b60008585856138c0565b505050565b600030905090565b60606000845103614147576040518060200160405280600081525090506142b2565b6000826141795760036002865160046141609190616ea0565b61416a9190616adc565b6141749190616f11565b6141a0565b6003600286516141899190616adc565b6141939190616f11565b600461419f9190616ea0565b5b905060008167ffffffffffffffff8111156141be576141bd6153b4565b5b6040519080825280601f01601f1916602001820160405280156141f05781602001600182028036833780820191505090505b50905060018501602082018788518901602081018051600082525b82841015614266576003840193508351603f8160121c168701518653600186019550603f81600c1c168701518653600186019550603f8160061c168701518653600186019550603f811687015186536001860195505061420b565b80825289156142a65760038c510660018114614289576002811461429c576142a4565b603d6001870353603d60028703536142a4565b603d60018703535b505b50505050505080925050505b9392505050565b6060600f80546142c890615dfd565b80601f01602080910402602001604051908101604052809291908181526020018280546142f490615dfd565b80156143415780601f1061431657610100808354040283529160200191614341565b820191906000526020600020905b81548152906001019060200180831161432457829003601f168201915b5050505050905090565b60606000600161435a8461464d565b01905060008167ffffffffffffffff811115614379576143786153b4565b5b6040519080825280601f01601f1916602001820160405280156143ab5781602001600182028036833780820191505090505b509050600082602001820190505b60011561440e578080600190039150507f3031323334353637383961626364656600000000000000000000000000000000600a86061a8153600a858161440257614401616ee2565b5b049450600085036143b9575b819350505050919050565b60007fbc1c58d1000000000000000000000000000000000000000000000000000000007bffffffffffffffffffffffffffffffffffffffffffffffffffffffff1916827bffffffffffffffffffffffffffffffffffffffffffffffffffffffff1916148061448c575061448b826147a0565b5b9050919050565b60008073ffffffffffffffffffffffffffffffffffffffff168373ffffffffffffffffffffffffffffffffffffffff161415801561454b57508273ffffffffffffffffffffffffffffffffffffffff168473ffffffffffffffffffffffffffffffffffffffff16148061450c575061450b848461277c565b5b8061454a57508273ffffffffffffffffffffffffffffffffffffffff1661453283612c3b565b73ffffffffffffffffffffffffffffffffffffffff16145b5b90509392505050565b600073ffffffffffffffffffffffffffffffffffffffff168273ffffffffffffffffffffffffffffffffffffffff16036145c65760006040517f64a0ae920000000000000000000000000000000000000000000000000000000081526004016145bd9190614caf565b60405180910390fd5b60006145d483836000612f95565b9050600073ffffffffffffffffffffffffffffffffffffffff168173ffffffffffffffffffffffffffffffffffffffff16146146485760006040517f73c6ac6e00000000000000000000000000000000000000000000000000000000815260040161463f9190614caf565b60405180910390fd5b505050565b600080600090507a184f03e93ff9f4daa797ed6e38ed64bf6a1f01000000000000000083106146ab577a184f03e93ff9f4daa797ed6e38ed64bf6a1f01000000000000000083816146a1576146a0616ee2565b5b0492506040810190505b6d04ee2d6d415b85acef810000000083106146e8576d04ee2d6d415b85acef810000000083816146de576146dd616ee2565b5b0492506020810190505b662386f26fc10000831061471757662386f26fc10000838161470d5761470c616ee2565b5b0492506010810190505b6305f5e1008310614740576305f5e100838161473657614735616ee2565b5b0492506008810190505b612710831061476557612710838161475b5761475a616ee2565b5b0492506004810190505b60648310614788576064838161477e5761477d616ee2565b5b0492506002810190505b600a8310614797576001810190505b80915050919050565b60007f3b3b57de000000000000000000000000000000000000000000000000000000007bffffffffffffffffffffffffffffffffffffffffffffffffffffffff1916827bffffffffffffffffffffffffffffffffffffffffffffffffffffffff1916148061486b57507ff1cb7e06000000000000000000000000000000000000000000000000000000007bffffffffffffffffffffffffffffffffffffffffffffffffffffffff1916827bffffffffffffffffffffffffffffffffffffffffffffffffffffffff1916145b8061487b575061487a82614882565b5b9050919050565b60007f2203ab56000000000000000000000000000000000000000000000000000000007bffffffffffffffffffffffffffffffffffffffffffffffffffffffff1916827bffffffffffffffffffffffffffffffffffffffffffffffffffffffff191614806148f557506148f4826148fc565b5b9050919050565b60007fd700ff33000000000000000000000000000000000000000000000000000000007bffffffffffffffffffffffffffffffffffffffffffffffffffffffff1916827bffffffffffffffffffffffffffffffffffffffffffffffffffffffff1916148061496f575061496e82614976565b5b9050919050565b60007f4fbf0433000000000000000000000000000000000000000000000000000000007bffffffffffffffffffffffffffffffffffffffffffffffffffffffff1916827bffffffffffffffffffffffffffffffffffffffffffffffffffffffff191614806149e957506149e8826149f0565b5b9050919050565b60007f80ac58cd000000000000000000000000000000000000000000000000000000007bffffffffffffffffffffffffffffffffffffffffffffffffffffffff1916827bffffffffffffffffffffffffffffffffffffffffffffffffffffffff19161480614abb57507f5b5e139f000000000000000000000000000000000000000000000000000000007bffffffffffffffffffffffffffffffffffffffffffffffffffffffff1916827bffffffffffffffffffffffffffffffffffffffffffffffffffffffff1916145b80614acb5750614aca82614ad2565b5b9050919050565b60007f01ffc9a7000000000000000000000000000000000000000000000000000000007bffffffffffffffffffffffffffffffffffffffffffffffffffffffff1916827bffffffffffffffffffffffffffffffffffffffffffffffffffffffff1916149050919050565b6000604051905090565b600080fd5b600080fd5b60007fffffffff0000000000000000000000000000000000000000000000000000000082169050919050565b614b8581614b50565b8114614b9057600080fd5b50565b600081359050614ba281614b7c565b92915050565b600060208284031215614bbe57614bbd614b46565b5b6000614bcc84828501614b93565b91505092915050565b60008115159050919050565b614bea81614bd5565b82525050565b6000602082019050614c056000830184614be1565b92915050565b6000819050919050565b614c1e81614c0b565b8114614c2957600080fd5b50565b600081359050614c3b81614c15565b92915050565b600060208284031215614c5757614c56614b46565b5b6000614c6584828501614c2c565b91505092915050565b600073ffffffffffffffffffffffffffffffffffffffff82169050919050565b6000614c9982614c6e565b9050919050565b614ca981614c8e565b82525050565b6000602082019050614cc46000830184614ca0565b92915050565b600081519050919050565b600082825260208201905092915050565b60005b83811015614d04578082015181840152602081019050614ce9565b60008484015250505050565b6000601f19601f8301169050919050565b6000614d2c82614cca565b614d368185614cd5565b9350614d46818560208601614ce6565b614d4f81614d10565b840191505092915050565b60006020820190508181036000830152614d748184614d21565b905092915050565b6000819050919050565b614d8f81614d7c565b8114614d9a57600080fd5b50565b600081359050614dac81614d86565b92915050565b600060208284031215614dc857614dc7614b46565b5b6000614dd684828501614d9d565b91505092915050565b614de881614c8e565b8114614df357600080fd5b50565b600081359050614e0581614ddf565b92915050565b60008060408385031215614e2257614e21614b46565b5b6000614e3085828601614df6565b9250506020614e4185828601614d9d565b9150509250929050565b600080fd5b600080fd5b600080fd5b60008083601f840112614e7057614e6f614e4b565b5b8235905067ffffffffffffffff811115614e8d57614e8c614e50565b5b602083019150836001820283011115614ea957614ea8614e55565b5b9250929050565b60008060208385031215614ec757614ec6614b46565b5b600083013567ffffffffffffffff811115614ee557614ee4614b4b565b5b614ef185828601614e5a565b92509250509250929050565b614f0681614c0b565b82525050565b6000602082019050614f216000830184614efd565b92915050565b600080600080600060608688031215614f4357614f42614b46565b5b6000614f5188828901614c2c565b955050602086013567ffffffffffffffff811115614f7257614f71614b4b565b5b614f7e88828901614e5a565b9450945050604086013567ffffffffffffffff811115614fa157614fa0614b4b565b5b614fad88828901614e5a565b92509250509295509295909350565b614fc581614d7c565b82525050565b6000602082019050614fe06000830184614fbc565b92915050565b600081519050919050565b600082825260208201905092915050565b600061500d82614fe6565b6150178185614ff1565b9350615027818560208601614ce6565b61503081614d10565b840191505092915050565b600060208201905081810360008301526150558184615002565b905092915050565b6000806040838503121561507457615073614b46565b5b600061508285828601614c2c565b925050602061509385828601614d9d565b9150509250929050565b60006040820190506150b26000830185614fbc565b81810360208301526150c48184615002565b90509392505050565b6000806000606084860312156150e6576150e5614b46565b5b60006150f486828701614df6565b935050602061510586828701614df6565b925050604061511686828701614d9d565b9150509250925092565b60008083601f84011261513657615135614e4b565b5b8235905067ffffffffffffffff81111561515357615152614e50565b5b60208301915083600182028301111561516f5761516e614e55565b5b9250929050565b60008060006040848603121561518f5761518e614b46565b5b600061519d86828701614c2c565b935050602084013567ffffffffffffffff8111156151be576151bd614b4b565b5b6151ca86828701615120565b92509250509250925092565b60006151e182614c6e565b9050919050565b6151f1816151d6565b82525050565b600060208201905061520c60008301846151e8565b92915050565b60008060006040848603121561522b5761522a614b46565b5b600061523986828701614c2c565b935050602084013567ffffffffffffffff81111561525a57615259614b4b565b5b61526686828701614e5a565b92509250509250925092565b60008060008060008060006080888a03121561529157615290614b46565b5b600088013567ffffffffffffffff8111156152af576152ae614b4b565b5b6152bb8a828b01614e5a565b9750975050602088013567ffffffffffffffff8111156152de576152dd614b4b565b5b6152ea8a828b01614e5a565b9550955050604088013567ffffffffffffffff81111561530d5761530c614b4b565b5b6153198a828b01614e5a565b9350935050606061532c8a828b01614df6565b91505092959891949750929550565b6000806000806060858703121561535557615354614b46565b5b600061536387828801614c2c565b945050602061537487828801614d9d565b935050604085013567ffffffffffffffff81111561539557615394614b4b565b5b6153a187828801615120565b925092505092959194509250565b600080fd5b7f4e487b7100000000000000000000000000000000000000000000000000000000600052604160045260246000fd5b6153ec82614d10565b810181811067ffffffffffffffff8211171561540b5761540a6153b4565b5b80604052505050565b600061541e614b3c565b905061542a82826153e3565b919050565b600067ffffffffffffffff82111561544a576154496153b4565b5b61545382614d10565b9050602081019050919050565b82818337600083830152505050565b600061548261547d8461542f565b615414565b90508281526020810184848401111561549e5761549d6153af565b5b6154a9848285615460565b509392505050565b600082601f8301126154c6576154c5614e4b565b5b81356154d684826020860161546f565b91505092915050565b60008060008060008060a087890312156154fc576154fb614b46565b5b600061550a89828a01614c2c565b965050602087013567ffffffffffffffff81111561552b5761552a614b4b565b5b61553789828a016154b1565b955050604061554889828a01614d9d565b945050606061555989828a01614df6565b935050608087013567ffffffffffffffff81111561557a57615579614b4b565b5b61558689828a01615120565b92509250509295509295509295565b600080600080600080600060c0888a0312156155b4576155b3614b46565b5b60006155c28a828b01614c2c565b97505060206155d38a828b01614d9d565b965050604088013567ffffffffffffffff8111156155f4576155f3614b4b565b5b6156008a828b016154b1565b95505060606156118a828b01614d9d565b94505060806156228a828b01614df6565b93505060a088013567ffffffffffffffff81111561564357615642614b4b565b5b61564f8a828b01615120565b925092505092959891949750929550565b60006020828403121561567657615675614b46565b5b600061568484828501614df6565b91505092915050565b6000806000606084860312156156a6576156a5614b46565b5b60006156b486828701614c2c565b93505060206156c586828701614d9d565b925050604084013567ffffffffffffffff8111156156e6576156e5614b4b565b5b6156f2868287016154b1565b9150509250925092565b60008083601f84011261571257615711614e4b565b5b8235905067ffffffffffffffff81111561572f5761572e614e50565b5b60208301915083602082028301111561574b5761574a614e55565b5b9250929050565b6000806000806000806080878903121561576f5761576e614b46565b5b600061577d89828a01614c2c565b965050602087013567ffffffffffffffff81111561579e5761579d614b4b565b5b6157aa89828a01614e5a565b955095505060406157bd89828a01614df6565b935050606087013567ffffffffffffffff8111156157de576157dd614b4b565b5b6157ea89828a016156fc565b92509250509295509295509295565b600080604083850312156158105761580f614b46565b5b600083013567ffffffffffffffff81111561582e5761582d614b4b565b5b61583a858286016154b1565b925050602083013567ffffffffffffffff81111561585b5761585a614b4b565b5b615867858286016154b1565b9150509250929050565b61587a81614bd5565b811461588557600080fd5b50565b60008135905061589781615871565b92915050565b600080604083850312156158b4576158b3614b46565b5b60006158c285828601614df6565b92505060206158d385828601615888565b9150509250929050565b600080602083850312156158f4576158f3614b46565b5b600083013567ffffffffffffffff81111561591257615911614b4b565b5b61591e858286016156fc565b92509250509250929050565b600081519050919050565b600082825260208201905092915050565b6000819050602082019050919050565b600082825260208201905092915050565b600061597282614fe6565b61597c8185615956565b935061598c818560208601614ce6565b61599581614d10565b840191505092915050565b60006159ac8383615967565b905092915050565b6000602082019050919050565b60006159cc8261592a565b6159d68185615935565b9350836020820285016159e885615946565b8060005b85811015615a245784840389528151615a0585826159a0565b9450615a10836159b4565b925060208a019950506001810190506159ec565b50829750879550505050505092915050565b60006020820190508181036000830152615a5081846159c1565b905092915050565b60008060008060808587031215615a7257615a71614b46565b5b6000615a8087828801614df6565b9450506020615a9187828801614df6565b9350506040615aa287828801614d9d565b925050606085013567ffffffffffffffff811115615ac357615ac2614b4b565b5b615acf878288016154b1565b91505092959194509250565b60008060208385031215615af257615af1614b46565b5b600083013567ffffffffffffffff811115615b1057615b0f614b4b565b5b615b1c85828601615120565b92509250509250929050565b60008060408385031215615b3f57615b3e614b46565b5b6000615b4d85828601614c2c565b9250506020615b5e85828601614df6565b9150509250929050565b600067ffffffffffffffff82169050919050565b615b8581615b68565b82525050565b6000602082019050615ba06000830184615b7c565b92915050565b600080600060408486031215615bbf57615bbe614b46565b5b6000615bcd86828701614c2c565b935050602084013567ffffffffffffffff811115615bee57615bed614b4b565b5b615bfa868287016156fc565b92509250509250925092565b60008060408385031215615c1d57615c1c614b46565b5b6000615c2b85828601614df6565b9250506020615c3c85828601614df6565b9150509250929050565b600067ffffffffffffffff821115615c6157615c606153b4565b5b615c6a82614d10565b9050602081019050919050565b6000615c8a615c8584615c46565b615414565b905082815260208101848484011115615ca657615ca56153af565b5b615cb1848285615460565b509392505050565b600082601f830112615cce57615ccd614e4b565b5b8135615cde848260208601615c77565b91505092915050565b600080600080600080600060c0888a031215615d0657615d05614b46565b5b6000615d148a828b01614c2c565b975050602088013567ffffffffffffffff811115615d3557615d34614b4b565b5b615d418a828b01615cb9565b965050604088013567ffffffffffffffff811115615d6257615d61614b4b565b5b615d6e8a828b01615cb9565b9550506060615d7f8a828b01614d9d565b9450506080615d908a828b01614df6565b93505060a088013567ffffffffffffffff811115615db157615db0614b4b565b5b615dbd8a828b01615120565b925092505092959891949750929550565b7f4e487b7100000000000000000000000000000000000000000000000000000000600052602260045260246000fd5b60006002820490506001821680615e1557607f821691505b602082108103615e2857615e27615dce565b5b50919050565b600081905092915050565b6000615e458385615e2e565b9350615e52838584615460565b82840190509392505050565b6000615e6b828486615e39565b91508190509392505050565b600082905092915050565b60008190508160005260206000209050919050565b60006020601f8301049050919050565b600082821b905092915050565b600060088302615ee47fffffffffffffffffffffffffffffffffffffffffffffffffffffffffffffffff82615ea7565b615eee8683615ea7565b95508019841693508086168417925050509392505050565b6000819050919050565b6000615f2b615f26615f2184614d7c565b615f06565b614d7c565b9050919050565b6000819050919050565b615f4583615f10565b615f59615f5182615f32565b848454615eb4565b825550505050565b600090565b615f6e615f61565b615f79818484615f3c565b505050565b5b81811015615f9d57615f92600082615f66565b600181019050615f7f565b5050565b601f821115615fe257615fb381615e82565b615fbc84615e97565b81016020851015615fcb578190505b615fdf615fd785615e97565b830182615f7e565b50505b505050565b600082821c905092915050565b600061600560001984600802615fe7565b1980831691505092915050565b600061601e8383615ff4565b9150826002028217905092915050565b6160388383615e77565b67ffffffffffffffff811115616051576160506153b4565b5b61605b8254615dfd565b616066828285615fa1565b6000601f8311600181146160955760008415616083578287013590505b61608d8582616012565b8655506160f5565b601f1984166160a386615e82565b60005b828110156160cb578489013582556001820191506020850194506020810190506160a6565b868310156160e857848901356160e4601f891682615ff4565b8355505b6001600288020188555050505b50505050505050565b600061610a8385614cd5565b9350616117838584615460565b61612083614d10565b840190509392505050565b600060408201905081810360008301526161468186886160fe565b9050818103602083015261615b8184866160fe565b905095945050505050565b600060608201905061617b6000830186614ca0565b6161886020830185614fbc565b6161956040830184614ca0565b949350505050565b600082905092915050565b60008190508160005260206000209050919050565b601f8211156161fe576161cf816161a8565b6161d884615e97565b810160208510156161e7578190505b6161fb6161f385615e97565b830182615f7e565b50505b505050565b61620d838361619d565b67ffffffffffffffff811115616226576162256153b4565b5b6162308254615dfd565b61623b8282856161bd565b6000601f83116001811461626a5760008415616258578287013590505b6162628582616012565b8655506162ca565b601f198416616278866161a8565b60005b828110156162a05784890135825560018201915060208501945060208101905061627b565b868310156162bd57848901356162b9601f891682615ff4565b8355505b6001600288020188555050505b50505050505050565b60006162df8385614ff1565b93506162ec838584615460565b6162f583614d10565b840190509392505050565b6000602082019050818103600083015261631b8184866162d3565b90509392505050565b7f4e487b7100000000000000000000000000000000000000000000000000000000600052601160045260246000fd5b600061635e82615b68565b915067ffffffffffffffff820361637857616377616324565b5b600182019050919050565b61638c82614fe6565b67ffffffffffffffff8111156163a5576163a46153b4565b5b6163af8254615dfd565b6163ba8282856161bd565b600060209050601f8311600181146163ed57600084156163db578287015190505b6163e58582616012565b86555061644d565b601f1984166163fb866161a8565b60005b82811015616423578489015182556001820191506020850194506020810190506163fe565b86831015616440578489015161643c601f891682615ff4565b8355505b6001600288020188555050505b505050505050565b600061646082614d7c565b91507fffffffffffffffffffffffffffffffffffffffffffffffffffffffffffffffff820361649257616491616324565b5b600182019050919050565b6000819050919050565b60006164c26164bd6164b88461649d565b615f06565b615b68565b9050919050565b6164d2816164a7565b82525050565b60006020820190506164ed60008301846164c9565b92915050565b60006164fe82614d7c565b915061650983614d7c565b925082820390508181111561652157616520616324565b5b92915050565b60008160601b9050919050565b600061653f82616527565b9050919050565b600061655182616534565b9050919050565b61656961656482614c8e565b616546565b82525050565b6000819050919050565b61658a61658582614c0b565b61656f565b82525050565b600081905092915050565b60006165a682614fe6565b6165b08185616590565b93506165c0818560208601614ce6565b80840191505092915050565b6000819050919050565b6165e76165e282614d7c565b6165cc565b82525050565b60006165f98287616558565b6014820191506166098286616579565b602082019150616619828561659b565b915061662582846165d6565b60208201915081905095945050505050565b600060608201905061664c6000830187614ca0565b6166596020830186614efd565b818103604083015261666c8184866162d3565b905095945050505050565b60008151905061668681615871565b92915050565b6000602082840312156166a2576166a1614b46565b5b60006166b084828501616677565b91505092915050565b60006166c58288616558565b6014820191506166d58287616579565b6020820191506166e582866165d6565b6020820191506166f5828561659b565b915061670182846165d6565b6020820191508190509695505050505050565b600061672f61672a61672584614c6e565b615f06565b614c6e565b9050919050565b600061674182616714565b9050919050565b600061675382616736565b9050919050565b61676381616748565b82525050565b600060208201905061677e600083018461675a565b92915050565b60006167908385616590565b935061679d838584615460565b82840190509392505050565b60006167b6828486616784565b91508190509392505050565b600060408201905081810360008301526167dd8185876160fe565b90506167ec6020830184614efd565b949350505050565b6000604082019050818103600083015261680e8185615002565b905061681d6020830184614ca0565b9392505050565b6000616830828461659b565b915081905092915050565b60006168478285616579565b6020820191506168578284616579565b6020820191508190509392505050565b7f7b226e616d65223a202200000000000000000000000000000000000000000000815250565b600061689882614cca565b6168a28185615e2e565b93506168b2818560208601614ce6565b80840191505092915050565b7f227d000000000000000000000000000000000000000000000000000000000000815250565b60006168ef82616867565b600a820191506168ff828461688d565b915061690a826168be565b60028201915081905092915050565b7f646174613a6170706c69636174696f6e2f6a736f6e3b6261736536342c000000815250565b600061694a82616919565b601d8201915061695a828461688d565b915081905092915050565b60006169718288616558565b6014820191506169818287616579565b602082019150616991828661688d565b915061699d828561688d565b91506169a982846165d6565b6020820191508190509695505050505050565b60006169c8828461688d565b915081905092915050565b6169dc82614cca565b67ffffffffffffffff8111156169f5576169f46153b4565b5b6169ff8254615dfd565b616a0a828285615fa1565b600060209050601f831160018114616a3d5760008415616a2b578287015190505b616a358582616012565b865550616a9d565b601f198416616a4b86615e82565b60005b82811015616a7357848901518255600182019150602085019450602081019050616a4e565b86831015616a905784890151616a8c601f891682615ff4565b8355505b6001600288020188555050505b505050505050565b60006040820190508181036000830152616abf8185614d21565b90508181036020830152616ad38184614d21565b90509392505050565b6000616ae782614d7c565b9150616af283614d7c565b9250828201905080821115616b0a57616b09616324565b5b92915050565b7f4e487b7100000000000000000000000000000000000000000000000000000000600052603260045260246000fd5b60006020820190508181036000830152616b5a8184866160fe565b90509392505050565b600081519050616b7281614ddf565b92915050565b600060208284031215616b8e57616b8d614b46565b5b6000616b9c84828501616b63565b91505092915050565b600060ff82169050919050565b60008160f81b9050919050565b6000616bca82616bb2565b9050919050565b616be2616bdd82616ba5565b616bbf565b82525050565b6000616bf48286616bd1565b600182019150616c04828561688d565b9150616c10828461659b565b9150819050949350505050565b600080fd5b600080fd5b600080fd5b60008083356001602003843603038112616c4957616c48616c1d565b5b80840192508235915067ffffffffffffffff821115616c6b57616c6a616c22565b5b602083019250600182023603831315616c8757616c86616c27565b5b509250929050565b600080fd5b600080fd5b60008085851115616cad57616cac616c8f565b5b83861115616cbe57616cbd616c94565b5b6001850283019150848603905094509492505050565b6000616ce0838361619d565b82616ceb8135614c0b565b92506020821015616d2b57616d267fffffffffffffffffffffffffffffffffffffffffffffffffffffffffffffffff83602003600802615ea7565b831692505b505092915050565b7f6d756c746963616c6c3a20416c6c207265636f726473206d757374206861766560008201527f2061206d61746368696e67206e616d6568617368000000000000000000000000602082015250565b6000616d8f603483614cd5565b9150616d9a82616d33565b604082019050919050565b60006020820190508181036000830152616dbe81616d82565b9050919050565b6000608082019050616dda6000830187614ca0565b616de76020830186614ca0565b616df46040830185614fbc565b8181036060830152616e068184615002565b905095945050505050565b600081519050616e2081614b7c565b92915050565b600060208284031215616e3c57616e3b614b46565b5b6000616e4a84828501616e11565b91505092915050565b6000616e5f828561688d565b9150616e6b828461688d565b91508190509392505050565b6000604082019050616e8c6000830185614ca0565b616e996020830184614fbc565b9392505050565b6000616eab82614d7c565b9150616eb683614d7c565b9250828202616ec481614d7c565b91508282048414831517616edb57616eda616324565b5b5092915050565b7f4e487b7100000000000000000000000000000000000000000000000000000000600052601260045260246000fd5b6000616f1c82614d7c565b9150616f2783614d7c565b925082616f3757616f36616ee2565b5b82820490509291505056fe4142434445464748494a4b4c4d4e4f505152535455565758595a6162636465666768696a6b6c6d6e6f707172737475767778797a303132333435363738392b2fa2646970667358221220758182f7beadc0a98ed3624dad2674ca64ed31dbdb76b60ac5a201b8dbc2e9d764736f6c634300081c0033",
  "linkReferences": {},
  "deployedLinkReferences": {}
}