{
  "_format": "hh-sol-artifact-1",
  "contractName": "L2Registrar",
  "sourceName": "contracts/durin/L2Registrar.sol",
  "abi": [
    {
      "inputs": [
        {
          "internalType": "address",
          "name": "_registry",
          "type": "address"
        }
      ],
      "stateMutability": "nonpayable",
      "type": "constructor"
    },
    {
      "inputs": [],
      "name": "NotOwner",
      "type": "error"
    },
    {
      "anonymous": false,
      "inputs": [
        {
          "indexed": true,
          "internalType": "string",
          "name": "label",
          "type": "string"
        },
        {
          "indexed": true,
          "internalType": "address",
          "name": "owner",
          "type": "address"
        }
      ],
      "name": "NameRegistered",
      "type": "event"
    },
    {
      "anonymous": false,
      "inputs": [
        {
          "indexed": true,
          "internalType": "address",
          "name": "previousOwner",
          "type": "address"
        },
        {
          "indexed": true,
          "internalType": "address",
          "name": "newOwner",
          "type": "address"
        }
      ],
      "name": "OwnershipTransferred",
      "type": "event"
    },
    {
      "inputs": [
        {
          "internalType": "string",
          "name": "label",
          "type": "string"
        }
      ],
      "name": "available",
      "outputs": [
        {
          "internalType": "bool",
          "name": "",
          "type": "bool"
        }
      ],
      "stateMutability": "view",
      "type": "function"
    },
    {
      "inputs": [],
      "name": "chainId",
      "outputs": [
        {
          "internalType": "uint256",
          "name": "",
          "type": "uint256"
        }
      ],
      "stateMutability": "view",
      "type": "function"
    },
    {
      "inputs": [],
      "name": "coinType",
      "outputs": [
        {
          "internalType": "uint256",
          "name": "",
          "type": "uint256"
        }
      ],
      "stateMutability": "view",
      "type": "function"
    },
    {
      "inputs": [],
      "name": "owner",
      "outputs": [
        {
          "internalType": "address",
          "name": "",
          "type": "address"
        }
      ],
      "stateMutability": "view",
      "type": "function"
    },
    {
      "inputs": [
        {
          "internalType": "string",
          "name": "label",
          "type": "string"
        },
        {
          "internalType": "address",
          "name": "nameOwner",
          "type": "address"
        }
      ],
      "name": "register",
      "outputs": [],
      "stateMutability": "nonpayable",
      "type": "function"
    },
    {
      "inputs": [],
      "name": "registry",
      "outputs": [
        {
          "internalType": "contract IL2Registry",
          "name": "",
          "type": "address"
        }
      ],
      "stateMutability": "view",
      "type": "function"
    },
    {
      "inputs": [
        {
          "internalType": "address",
          "name": "newOwner",
          "type": "address"
        }
      ],
      "name": "transferOwnership",
      "outputs": [],
      "stateMutability": "nonpayable",
      "type": "function"
    }
  ],
  "bytecode": "0x60c060405234801561001057600080fd5b50604051610cbe380380610cbe83398101604081905261002f9161008e565b600080546001600160a01b0319163390811782556040519091907f8be0079c531659141344cd1fd0a4f28419497f9722a3daafe3b4186f6b6457e0908290a346600181905563800000001760a0526001600160a01b03166080526100be565b6000602082840312156100a057600080fd5b81516001600160a01b03811681146100b757600080fd5b9392505050565b60805160a051610ba561011960003960008181609c015261021001526000818160d6015281816101d901528181610281015281816102f101528181610320015281816104ae01528181610660015261068f0152610ba56000f3fe608060405234801561001057600080fd5b506004361061007d5760003560e01c80638da5cb5b1161005b5780638da5cb5b146101105780639a8a059214610123578063aeb8ce9b1461012c578063f2fde38b1461014f57600080fd5b80631e59c529146100825780631fe93ea8146100975780637b103999146100d1575b600080fd5b6100956100903660046108db565b610162565b005b6100be7f000000000000000000000000000000000000000000000000000000000000000081565b6040519081526020015b60405180910390f35b6100f87f000000000000000000000000000000000000000000000000000000000000000081565b6040516001600160a01b0390911681526020016100c8565b6000546100f8906001600160a01b031681565b6100be60015481565b61013f61013a366004610932565b610486565b60405190151581526020016100c8565b61009561015d366004610974565b610587565b6000546001600160a01b0316331461018d576040516330cd747160e01b815260040160405180910390fd5b6000610199848461065c565b60408051606085901b6bffffffffffffffffffffffff19166020820152815160148183030181526034820192839052638b95dd7160e01b909252919250907f00000000000000000000000000000000000000000000000000000000000000006001600160a01b031690638b95dd719061023a9085907f00000000000000000000000000000000000000000000000000000000000000009086906038016109d7565b600060405180830381600087803b15801561025457600080fd5b505af1158015610268573d6000803e3d6000fd5b5050604051638b95dd7160e01b81526001600160a01b037f0000000000000000000000000000000000000000000000000000000000000000169250638b95dd7191506102bd908590603c9086906004016109d7565b600060405180830381600087803b1580156102d757600080fd5b505af11580156102eb573d6000803e3d6000fd5b505050507f00000000000000000000000000000000000000000000000000000000000000006001600160a01b0316638bf9baba7f00000000000000000000000000000000000000000000000000000000000000006001600160a01b031663ddf7fcb06040518163ffffffff1660e01b8152600401602060405180830381865afa15801561037c573d6000803e3d6000fd5b505050506040513d601f19601f820116820180604052508101906103a091906109ff565b604080516000808252602082019092528991899189916103d0565b60608152602001906001900390816103bb5790505b506040518663ffffffff1660e01b81526004016103f1959493929190610a41565b6020604051808303816000875af1158015610410573d6000803e3d6000fd5b505050506040513d601f19601f8201168201806040525081019061043491906109ff565b50826001600160a01b0316858560405161044f929190610ad0565b604051908190038120907f1c6eac0e720ec22bb0653aec9c19985633a4fb07971cf973096c2f8e3c37c17f90600090a35050505050565b600080610493848461065c565b6040516331a9108f60e11b81526004810182905290915081907f00000000000000000000000000000000000000000000000000000000000000006001600160a01b031690636352211e90602401602060405180830381865afa925050508015610519575060408051601f3d908101601f1916820190925261051691810190610ae0565b60015b61057957600361055e86868080601f01602080910402602001604051908101604052809392919081815260200183838082843760009201919091525061077792505050565b1061056e57600192505050610581565b600092505050610581565b506000925050505b92915050565b6000546001600160a01b031633146105b2576040516330cd747160e01b815260040160405180910390fd5b6001600160a01b03811661060c5760405162461bcd60e51b815260206004820181905260248201527f4e6577206f776e65722063616e6e6f74206265207a65726f2061646472657373604482015260640160405180910390fd5b600080546001600160a01b038381166001600160a01b0319831681178455604051919092169283917f8be0079c531659141344cd1fd0a4f28419497f9722a3daafe3b4186f6b6457e09190a35050565b60007f00000000000000000000000000000000000000000000000000000000000000006001600160a01b031663b0c3ade47f00000000000000000000000000000000000000000000000000000000000000006001600160a01b031663ddf7fcb06040518163ffffffff1660e01b8152600401602060405180830381865afa1580156106eb573d6000803e3d6000fd5b505050506040513d601f19601f8201168201806040525081019061070f91906109ff565b85856040518463ffffffff1660e01b815260040161072f93929190610afd565b602060405180830381865afa15801561074c573d6000803e3d6000fd5b505050506040513d601f19601f8201168201806040525081019061077091906109ff565b9392505050565b8051600090819081905b8082101561087157600085838151811061079d5761079d610b17565b01602001516001600160f81b0319169050600160ff1b8110156107cc576107c5600184610b43565b925061085e565b600760fd1b6001600160f81b0319821610156107ed576107c5600284610b43565b600f60fc1b6001600160f81b03198216101561080e576107c5600384610b43565b601f60fb1b6001600160f81b03198216101561082f576107c5600484610b43565b603f60fa1b6001600160f81b031982161015610850576107c5600584610b43565b61085b600684610b43565b92505b508261086981610b56565b935050610781565b50909392505050565b60008083601f84011261088c57600080fd5b50813567ffffffffffffffff8111156108a457600080fd5b6020830191508360208285010111156108bc57600080fd5b9250929050565b6001600160a01b03811681146108d857600080fd5b50565b6000806000604084860312156108f057600080fd5b833567ffffffffffffffff81111561090757600080fd5b6109138682870161087a565b9094509250506020840135610927816108c3565b809150509250925092565b6000806020838503121561094557600080fd5b823567ffffffffffffffff81111561095c57600080fd5b6109688582860161087a565b90969095509350505050565b60006020828403121561098657600080fd5b8135610770816108c3565b6000815180845260005b818110156109b75760208185018101518683018201520161099b565b506000602082860101526020601f19601f83011685010191505092915050565b8381528260208201526060604082015260006109f66060830184610991565b95945050505050565b600060208284031215610a1157600080fd5b5051919050565b81835281816020850137506000828201602090810191909152601f909101601f19169091010190565b858152608060208201526000610a5b608083018688610a18565b6001600160a01b03851660408401528281036060840152835180825260208083019190600582901b8401810190870160005b83811015610abf57601f19868403018552610aa9838351610991565b6020958601959093509190910190600101610a8d565b50909b9a5050505050505050505050565b8183823760009101908152919050565b600060208284031215610af257600080fd5b8151610770816108c3565b8381526040602082015260006109f6604083018486610a18565b634e487b7160e01b600052603260045260246000fd5b634e487b7160e01b600052601160045260246000fd5b8082018082111561058157610581610b2d565b600060018201610b6857610b68610b2d565b506001019056fea2646970667358221220609dcd7426e1b55b15a72dfb767cfd1e7e2982f391bb40df24d1576ba4611c5664736f6c634300081c0033",
  "linkReferences": {},
  "deployedLinkReferences": {}
}