{
  "_format": "hh-sol-artifact-1",
  "contractName": "L2Registrar",
  "sourceName": "contracts/durin/L2Registrar.sol",
  "abi": [
    {
      "inputs": [
        {
          "internalType": "address",
          "name": "_registry",
          "type": "address"
        }
      ],
      "stateMutability": "nonpayable",
      "type": "constructor"
    },
    {
      "anonymous": false,
      "inputs": [
        {
          "indexed": true,
          "internalType": "string",
          "name": "label",
          "type": "string"
        },
        {
          "indexed": true,
          "internalType": "address",
          "name": "owner",
          "type": "address"
        }
      ],
      "name": "NameRegistered",
      "type": "event"
    },
    {
      "inputs": [
        {
          "internalType": "string",
          "name": "label",
          "type": "string"
        }
      ],
      "name": "available",
      "outputs": [
        {
          "internalType": "bool",
          "name": "",
          "type": "bool"
        }
      ],
      "stateMutability": "view",
      "type": "function"
    },
    {
      "inputs": [],
      "name": "chainId",
      "outputs": [
        {
          "internalType": "uint256",
          "name": "",
          "type": "uint256"
        }
      ],
      "stateMutability": "view",
      "type": "function"
    },
    {
      "inputs": [],
      "name": "coinType",
      "outputs": [
        {
          "internalType": "uint256",
          "name": "",
          "type": "uint256"
        }
      ],
      "stateMutability": "view",
      "type": "function"
    },
    {
      "inputs": [
        {
          "internalType": "string",
          "name": "label",
          "type": "string"
        },
        {
          "internalType": "address",
          "name": "owner",
          "type": "address"
        }
      ],
      "name": "register",
      "outputs": [],
      "stateMutability": "nonpayable",
      "type": "function"
    },
    {
      "inputs": [],
      "name": "registry",
      "outputs": [
        {
          "internalType": "contract IL2Registry",
          "name": "",
          "type": "address"
        }
      ],
      "stateMutability": "view",
      "type": "function"
    }
  ],
  "bytecode": "0x60c060405234801561001057600080fd5b50604051611258380380611258833981810160405281019061003291906100e6565b4660005560008054638000000017901c60a081815250508073ffffffffffffffffffffffffffffffffffffffff1660808173ffffffffffffffffffffffffffffffffffffffff168152505050610113565b600080fd5b600073ffffffffffffffffffffffffffffffffffffffff82169050919050565b60006100b382610088565b9050919050565b6100c3816100a8565b81146100ce57600080fd5b50565b6000815190506100e0816100ba565b92915050565b6000602082840312156100fc576100fb610083565b5b600061010a848285016100d1565b91505092915050565b60805160a0516110e8610170600039600081816101730152610458015260008181610136015281816101e501528181610275015281816102b10152818161047c015281816104bd015281816105ce015261060a01526110e86000f3fe608060405234801561001057600080fd5b50600436106100575760003560e01c80631e59c5291461005c5780631fe93ea8146100785780637b103999146100965780639a8a0592146100b4578063aeb8ce9b146100d2575b600080fd5b61007660048036038101906100719190610982565b610102565b005b610080610456565b60405161008d91906109fb565b60405180910390f35b61009e61047a565b6040516100ab9190610a75565b60405180910390f35b6100bc61049e565b6040516100c991906109fb565b60405180910390f35b6100ec60048036038101906100e79190610a90565b6104a4565b6040516100f99190610af8565b60405180910390f35b600061010e84846105ca565b90506000826040516020016101239190610b5b565b60405160208183030381529060405290507f000000000000000000000000000000000000000000000000000000000000000073ffffffffffffffffffffffffffffffffffffffff16638b95dd71837f0000000000000000000000000000000000000000000000000000000000000000846040518463ffffffff1660e01b81526004016101b193929190610c1f565b600060405180830381600087803b1580156101cb57600080fd5b505af11580156101df573d6000803e3d6000fd5b505050507f000000000000000000000000000000000000000000000000000000000000000073ffffffffffffffffffffffffffffffffffffffff16638b95dd7183603c846040518463ffffffff1660e01b815260040161024193929190610c98565b600060405180830381600087803b15801561025b57600080fd5b505af115801561026f573d6000803e3d6000fd5b505050507f000000000000000000000000000000000000000000000000000000000000000073ffffffffffffffffffffffffffffffffffffffff16638bf9baba7f000000000000000000000000000000000000000000000000000000000000000073ffffffffffffffffffffffffffffffffffffffff1663ddf7fcb06040518163ffffffff1660e01b8152600401602060405180830381865afa15801561031a573d6000803e3d6000fd5b505050506040513d601f19601f8201168201806040525081019061033e9190610d02565b878787600067ffffffffffffffff81111561035c5761035b610d2f565b5b60405190808252806020026020018201604052801561038f57816020015b606081526020019060019003908161037a5790505b506040518663ffffffff1660e01b81526004016103b0959493929190610ec6565b6020604051808303816000875af11580156103cf573d6000803e3d6000fd5b505050506040513d601f19601f820116820180604052508101906103f39190610d02565b508273ffffffffffffffffffffffffffffffffffffffff16858560405161041b929190610f4b565b60405180910390207f1c6eac0e720ec22bb0653aec9c19985633a4fb07971cf973096c2f8e3c37c17f60405160405180910390a35050505050565b7f000000000000000000000000000000000000000000000000000000000000000081565b7f000000000000000000000000000000000000000000000000000000000000000081565b60005481565b6000806104b184846105ca565b905060008160001c90507f000000000000000000000000000000000000000000000000000000000000000073ffffffffffffffffffffffffffffffffffffffff16636352211e826040518263ffffffff1660e01b815260040161051491906109fb565b602060405180830381865afa92505050801561054e57506040513d601f19601f8201168201806040525081019061054b9190610f79565b60015b6105bc5760036105a186868080601f016020809104026020016040519081016040528093929190818152602001838380828437600081840152601f19601f82011690508083019250505050505050610700565b106105b1576001925050506105c4565b6000925050506105c4565b506000925050505b92915050565b60007f000000000000000000000000000000000000000000000000000000000000000073ffffffffffffffffffffffffffffffffffffffff1663b0c3ade47f000000000000000000000000000000000000000000000000000000000000000073ffffffffffffffffffffffffffffffffffffffff1663ddf7fcb06040518163ffffffff1660e01b8152600401602060405180830381865afa158015610673573d6000803e3d6000fd5b505050506040513d601f19601f820116820180604052508101906106979190610d02565b85856040518463ffffffff1660e01b81526004016106b793929190610fa6565b602060405180830381865afa1580156106d4573d6000803e3d6000fd5b505050506040513d601f19601f820116820180604052508101906106f89190610d02565b905092915050565b60008060008084519050600092505b808210156108aa57600085838151811061072c5761072b610fd8565b5b602001015160f81c60f81b9050608060f81b817effffffffffffffffffffffffffffffffffffffffffffffffffffffffffffff1916101561077b576001836107749190611036565b9250610896565b60e060f81b817effffffffffffffffffffffffffffffffffffffffffffffffffffffffffffff191610156107bd576002836107b69190611036565b9250610895565b60f060f81b817effffffffffffffffffffffffffffffffffffffffffffffffffffffffffffff191610156107ff576003836107f89190611036565b9250610894565b60f8801b817effffffffffffffffffffffffffffffffffffffffffffffffffffffffffffff19161015610840576004836108399190611036565b9250610893565b60fc60f81b817effffffffffffffffffffffffffffffffffffffffffffffffffffffffffffff191610156108825760058361087b9190611036565b9250610892565b60068361088f9190611036565b92505b5b5b5b5b5082806108a29061106a565b93505061070f565b829350505050919050565b600080fd5b600080fd5b600080fd5b600080fd5b600080fd5b60008083601f8401126108e4576108e36108bf565b5b8235905067ffffffffffffffff811115610901576109006108c4565b5b60208301915083600182028301111561091d5761091c6108c9565b5b9250929050565b600073ffffffffffffffffffffffffffffffffffffffff82169050919050565b600061094f82610924565b9050919050565b61095f81610944565b811461096a57600080fd5b50565b60008135905061097c81610956565b92915050565b60008060006040848603121561099b5761099a6108b5565b5b600084013567ffffffffffffffff8111156109b9576109b86108ba565b5b6109c5868287016108ce565b935093505060206109d88682870161096d565b9150509250925092565b6000819050919050565b6109f5816109e2565b82525050565b6000602082019050610a1060008301846109ec565b92915050565b6000819050919050565b6000610a3b610a36610a3184610924565b610a16565b610924565b9050919050565b6000610a4d82610a20565b9050919050565b6000610a5f82610a42565b9050919050565b610a6f81610a54565b82525050565b6000602082019050610a8a6000830184610a66565b92915050565b60008060208385031215610aa757610aa66108b5565b5b600083013567ffffffffffffffff811115610ac557610ac46108ba565b5b610ad1858286016108ce565b92509250509250929050565b60008115159050919050565b610af281610add565b82525050565b6000602082019050610b0d6000830184610ae9565b92915050565b60008160601b9050919050565b6000610b2b82610b13565b9050919050565b6000610b3d82610b20565b9050919050565b610b55610b5082610944565b610b32565b82525050565b6000610b678284610b44565b60148201915081905092915050565b6000819050919050565b610b8981610b76565b82525050565b600081519050919050565b600082825260208201905092915050565b60005b83811015610bc9578082015181840152602081019050610bae565b60008484015250505050565b6000601f19601f8301169050919050565b6000610bf182610b8f565b610bfb8185610b9a565b9350610c0b818560208601610bab565b610c1481610bd5565b840191505092915050565b6000606082019050610c346000830186610b80565b610c4160208301856109ec565b8181036040830152610c538184610be6565b9050949350505050565b6000819050919050565b6000610c82610c7d610c7884610c5d565b610a16565b6109e2565b9050919050565b610c9281610c67565b82525050565b6000606082019050610cad6000830186610b80565b610cba6020830185610c89565b8181036040830152610ccc8184610be6565b9050949350505050565b610cdf81610b76565b8114610cea57600080fd5b50565b600081519050610cfc81610cd6565b92915050565b600060208284031215610d1857610d176108b5565b5b6000610d2684828501610ced565b91505092915050565b7f4e487b7100000000000000000000000000000000000000000000000000000000600052604160045260246000fd5b600082825260208201905092915050565b82818337600083830152505050565b6000610d8a8385610d5e565b9350610d97838584610d6f565b610da083610bd5565b840190509392505050565b610db481610944565b82525050565b600081519050919050565b600082825260208201905092915050565b6000819050602082019050919050565b600082825260208201905092915050565b6000610e0282610b8f565b610e0c8185610de6565b9350610e1c818560208601610bab565b610e2581610bd5565b840191505092915050565b6000610e3c8383610df7565b905092915050565b6000602082019050919050565b6000610e5c82610dba565b610e668185610dc5565b935083602082028501610e7885610dd6565b8060005b85811015610eb45784840389528151610e958582610e30565b9450610ea083610e44565b925060208a01995050600181019050610e7c565b50829750879550505050505092915050565b6000608082019050610edb6000830188610b80565b8181036020830152610eee818688610d7e565b9050610efd6040830185610dab565b8181036060830152610f0f8184610e51565b90509695505050505050565b600081905092915050565b6000610f328385610f1b565b9350610f3f838584610d6f565b82840190509392505050565b6000610f58828486610f26565b91508190509392505050565b600081519050610f7381610956565b92915050565b600060208284031215610f8f57610f8e6108b5565b5b6000610f9d84828501610f64565b91505092915050565b6000604082019050610fbb6000830186610b80565b8181036020830152610fce818486610d7e565b9050949350505050565b7f4e487b7100000000000000000000000000000000000000000000000000000000600052603260045260246000fd5b7f4e487b7100000000000000000000000000000000000000000000000000000000600052601160045260246000fd5b6000611041826109e2565b915061104c836109e2565b925082820190508082111561106457611063611007565b5b92915050565b6000611075826109e2565b91507fffffffffffffffffffffffffffffffffffffffffffffffffffffffffffffffff82036110a7576110a6611007565b5b60018201905091905056fea2646970667358221220c4b6654abaadc984b32d046bac16e95139935942f482ea4b5e90bcf289e81ffb64736f6c634300081c0033",
  "linkReferences": {},
  "deployedLinkReferences": {}
}