{
  "_format": "hh-sol-artifact-1",
  "contractName": "L2Resolver",
  "sourceName": "contracts/durin/L2Resolver.sol",
  "abi": [
    {
      "inputs": [],
      "name": "SignatureExpired",
      "type": "error"
    },
    {
      "inputs": [
        {
          "internalType": "bytes32",
          "name": "node",
          "type": "bytes32"
        }
      ],
      "name": "Unauthorized",
      "type": "error"
    },
    {
      "anonymous": false,
      "inputs": [
        {
          "indexed": true,
          "internalType": "bytes32",
          "name": "node",
          "type": "bytes32"
        },
        {
          "indexed": true,
          "internalType": "uint256",
          "name": "contentType",
          "type": "uint256"
        }
      ],
      "name": "ABIChanged",
      "type": "event"
    },
    {
      "anonymous": false,
      "inputs": [
        {
          "indexed": true,
          "internalType": "bytes32",
          "name": "node",
          "type": "bytes32"
        },
        {
          "indexed": false,
          "internalType": "address",
          "name": "a",
          "type": "address"
        }
      ],
      "name": "AddrChanged",
      "type": "event"
    },
    {
      "anonymous": false,
      "inputs": [
        {
          "indexed": true,
          "internalType": "bytes32",
          "name": "node",
          "type": "bytes32"
        },
        {
          "indexed": false,
          "internalType": "uint256",
          "name": "coinType",
          "type": "uint256"
        },
        {
          "indexed": false,
          "internalType": "bytes",
          "name": "newAddress",
          "type": "bytes"
        }
      ],
      "name": "AddressChanged",
      "type": "event"
    },
    {
      "anonymous": false,
      "inputs": [
        {
          "indexed": true,
          "internalType": "bytes32",
          "name": "node",
          "type": "bytes32"
        },
        {
          "indexed": false,
          "internalType": "bytes",
          "name": "hash",
          "type": "bytes"
        }
      ],
      "name": "ContenthashChanged",
      "type": "event"
    },
    {
      "anonymous": false,
      "inputs": [
        {
          "indexed": true,
          "internalType": "bytes32",
          "name": "node",
          "type": "bytes32"
        },
        {
          "indexed": true,
          "internalType": "string",
          "name": "indexedKey",
          "type": "string"
        },
        {
          "indexed": false,
          "internalType": "string",
          "name": "key",
          "type": "string"
        },
        {
          "indexed": false,
          "internalType": "string",
          "name": "value",
          "type": "string"
        }
      ],
      "name": "TextChanged",
      "type": "event"
    },
    {
      "anonymous": false,
      "inputs": [
        {
          "indexed": true,
          "internalType": "bytes32",
          "name": "node",
          "type": "bytes32"
        },
        {
          "indexed": false,
          "internalType": "uint64",
          "name": "newVersion",
          "type": "uint64"
        }
      ],
      "name": "VersionChanged",
      "type": "event"
    },
    {
      "inputs": [
        {
          "internalType": "bytes32",
          "name": "node",
          "type": "bytes32"
        },
        {
          "internalType": "uint256",
          "name": "contentTypes",
          "type": "uint256"
        }
      ],
      "name": "ABI",
      "outputs": [
        {
          "internalType": "uint256",
          "name": "",
          "type": "uint256"
        },
        {
          "internalType": "bytes",
          "name": "",
          "type": "bytes"
        }
      ],
      "stateMutability": "view",
      "type": "function"
    },
    {
      "inputs": [
        {
          "internalType": "bytes32",
          "name": "node",
          "type": "bytes32"
        }
      ],
      "name": "addr",
      "outputs": [
        {
          "internalType": "address payable",
          "name": "",
          "type": "address"
        }
      ],
      "stateMutability": "view",
      "type": "function"
    },
    {
      "inputs": [
        {
          "internalType": "bytes32",
          "name": "node",
          "type": "bytes32"
        },
        {
          "internalType": "uint256",
          "name": "coinType",
          "type": "uint256"
        }
      ],
      "name": "addr",
      "outputs": [
        {
          "internalType": "bytes",
          "name": "",
          "type": "bytes"
        }
      ],
      "stateMutability": "view",
      "type": "function"
    },
    {
      "inputs": [
        {
          "internalType": "bytes32",
          "name": "node",
          "type": "bytes32"
        }
      ],
      "name": "clearRecords",
      "outputs": [],
      "stateMutability": "nonpayable",
      "type": "function"
    },
    {
      "inputs": [
        {
          "internalType": "bytes32",
          "name": "node",
          "type": "bytes32"
        }
      ],
      "name": "contenthash",
      "outputs": [
        {
          "internalType": "bytes",
          "name": "",
          "type": "bytes"
        }
      ],
      "stateMutability": "view",
      "type": "function"
    },
    {
      "inputs": [
        {
          "internalType": "bytes[]",
          "name": "data",
          "type": "bytes[]"
        }
      ],
      "name": "multicall",
      "outputs": [
        {
          "internalType": "bytes[]",
          "name": "results",
          "type": "bytes[]"
        }
      ],
      "stateMutability": "nonpayable",
      "type": "function"
    },
    {
      "inputs": [
        {
          "internalType": "bytes32",
          "name": "nodehash",
          "type": "bytes32"
        },
        {
          "internalType": "bytes[]",
          "name": "data",
          "type": "bytes[]"
        }
      ],
      "name": "multicallWithNodeCheck",
      "outputs": [
        {
          "internalType": "bytes[]",
          "name": "results",
          "type": "bytes[]"
        }
      ],
      "stateMutability": "nonpayable",
      "type": "function"
    },
    {
      "inputs": [
        {
          "internalType": "bytes32",
          "name": "",
          "type": "bytes32"
        }
      ],
      "name": "recordVersions",
      "outputs": [
        {
          "internalType": "uint64",
          "name": "",
          "type": "uint64"
        }
      ],
      "stateMutability": "view",
      "type": "function"
    },
    {
      "inputs": [
        {
          "internalType": "bytes",
          "name": "",
          "type": "bytes"
        },
        {
          "internalType": "bytes",
          "name": "data",
          "type": "bytes"
        }
      ],
      "name": "resolve",
      "outputs": [
        {
          "internalType": "bytes",
          "name": "",
          "type": "bytes"
        }
      ],
      "stateMutability": "view",
      "type": "function"
    },
    {
      "inputs": [
        {
          "internalType": "bytes32",
          "name": "node",
          "type": "bytes32"
        },
        {
          "internalType": "uint256",
          "name": "contentType",
          "type": "uint256"
        },
        {
          "internalType": "bytes",
          "name": "data",
          "type": "bytes"
        }
      ],
      "name": "setABI",
      "outputs": [],
      "stateMutability": "nonpayable",
      "type": "function"
    },
    {
      "inputs": [
        {
          "internalType": "bytes32",
          "name": "node",
          "type": "bytes32"
        },
        {
          "internalType": "uint256",
          "name": "contentType",
          "type": "uint256"
        },
        {
          "internalType": "bytes",
          "name": "data",
          "type": "bytes"
        },
        {
          "internalType": "uint256",
          "name": "expiration",
          "type": "uint256"
        },
        {
          "internalType": "address",
          "name": "signer",
          "type": "address"
        },
        {
          "internalType": "bytes",
          "name": "signature",
          "type": "bytes"
        }
      ],
      "name": "setABIWithSignature",
      "outputs": [],
      "stateMutability": "nonpayable",
      "type": "function"
    },
    {
      "inputs": [
        {
          "internalType": "bytes32",
          "name": "node",
          "type": "bytes32"
        },
        {
          "internalType": "uint256",
          "name": "coinType",
          "type": "uint256"
        },
        {
          "internalType": "bytes",
          "name": "a",
          "type": "bytes"
        }
      ],
      "name": "setAddr",
      "outputs": [],
      "stateMutability": "nonpayable",
      "type": "function"
    },
    {
      "inputs": [
        {
          "internalType": "bytes32",
          "name": "node",
          "type": "bytes32"
        },
        {
          "internalType": "address",
          "name": "a",
          "type": "address"
        }
      ],
      "name": "setAddr",
      "outputs": [],
      "stateMutability": "nonpayable",
      "type": "function"
    },
    {
      "inputs": [
        {
          "internalType": "bytes32",
          "name": "node",
          "type": "bytes32"
        },
        {
          "internalType": "uint256",
          "name": "coinType",
          "type": "uint256"
        },
        {
          "internalType": "bytes",
          "name": "a",
          "type": "bytes"
        },
        {
          "internalType": "uint256",
          "name": "expiration",
          "type": "uint256"
        },
        {
          "internalType": "address",
          "name": "signer",
          "type": "address"
        },
        {
          "internalType": "bytes",
          "name": "signature",
          "type": "bytes"
        }
      ],
      "name": "setAddrWithSignature",
      "outputs": [],
      "stateMutability": "nonpayable",
      "type": "function"
    },
    {
      "inputs": [
        {
          "internalType": "bytes32",
          "name": "node",
          "type": "bytes32"
        },
        {
          "internalType": "bytes",
          "name": "hash",
          "type": "bytes"
        }
      ],
      "name": "setContenthash",
      "outputs": [],
      "stateMutability": "nonpayable",
      "type": "function"
    },
    {
      "inputs": [
        {
          "internalType": "bytes32",
          "name": "node",
          "type": "bytes32"
        },
        {
          "internalType": "bytes",
          "name": "hash",
          "type": "bytes"
        },
        {
          "internalType": "uint256",
          "name": "expiration",
          "type": "uint256"
        },
        {
          "internalType": "address",
          "name": "signer",
          "type": "address"
        },
        {
          "internalType": "bytes",
          "name": "signature",
          "type": "bytes"
        }
      ],
      "name": "setContenthashWithSignature",
      "outputs": [],
      "stateMutability": "nonpayable",
      "type": "function"
    },
    {
      "inputs": [
        {
          "internalType": "bytes32",
          "name": "node",
          "type": "bytes32"
        },
        {
          "internalType": "string",
          "name": "key",
          "type": "string"
        },
        {
          "internalType": "string",
          "name": "value",
          "type": "string"
        }
      ],
      "name": "setText",
      "outputs": [],
      "stateMutability": "nonpayable",
      "type": "function"
    },
    {
      "inputs": [
        {
          "internalType": "bytes32",
          "name": "node",
          "type": "bytes32"
        },
        {
          "internalType": "string",
          "name": "key",
          "type": "string"
        },
        {
          "internalType": "string",
          "name": "value",
          "type": "string"
        },
        {
          "internalType": "uint256",
          "name": "expiration",
          "type": "uint256"
        },
        {
          "internalType": "address",
          "name": "signer",
          "type": "address"
        },
        {
          "internalType": "bytes",
          "name": "signature",
          "type": "bytes"
        }
      ],
      "name": "setTextWithSignature",
      "outputs": [],
      "stateMutability": "nonpayable",
      "type": "function"
    },
    {
      "inputs": [
        {
          "internalType": "bytes4",
          "name": "interfaceId",
          "type": "bytes4"
        }
      ],
      "name": "supportsInterface",
      "outputs": [
        {
          "internalType": "bool",
          "name": "",
          "type": "bool"
        }
      ],
      "stateMutability": "view",
      "type": "function"
    },
    {
      "inputs": [
        {
          "internalType": "bytes32",
          "name": "node",
          "type": "bytes32"
        },
        {
          "internalType": "string",
          "name": "key",
          "type": "string"
        }
      ],
      "name": "text",
      "outputs": [
        {
          "internalType": "string",
          "name": "",
          "type": "string"
        }
      ],
      "stateMutability": "view",
      "type": "function"
    }
  ],
  "bytecode": "0x60a060405273164af34faf9879394370c7f09064127c043a35e9608052348015602757600080fd5b50608051612232610058600039600081816108cd01528181610a5401528181610beb015261103301526122326000f3fe608060405234801561001057600080fd5b506004361061012c5760003560e01c8063743a095b116100ad578063d5fa2b0011610071578063d5fa2b00146102a5578063d700ff33146102b8578063e32954eb146102f9578063f1cb7e061461030c578063f32911071461031f57600080fd5b8063743a095b146102395780638b95dd711461024c5780639061b9231461025f578063ac9650d814610272578063bc1c58d11461029257600080fd5b80633b3b57de116100f45780633b3b57de146101b557806359d1d43c146101e0578063623195b01461020057806366930680146102135780636b0a29701461022657600080fd5b806301ffc9a71461013157806310f13a8c146101595780632203ab561461016e578063304e6ade1461018f5780633603d758146101a2575b600080fd5b61014461013f36600461164f565b610332565b60405190151581526020015b60405180910390f35b61016c6101673660046116ba565b610343565b005b61018161017c366004611737565b61040f565b6040516101509291906117a9565b61016c61019d3660046117c2565b610545565b61016c6101b036600461180d565b6105ce565b6101c86101c336600461180d565b61066f565b6040516001600160a01b039091168152602001610150565b6101f36101ee3660046117c2565b6106a1565b6040516101509190611826565b61016c61020e366004611839565b610780565b61016c61022136600461194d565b61081c565b61016c6102343660046119e0565b6109ea565b61016c6102473660046119e0565b610b81565b61016c61025a366004611a7d565b610ca2565b6101f361026d366004611acc565b610d81565b610285610280366004611b77565b610dfa565b6040516101509190611bb8565b6101f36102a036600461180d565b610e08565b61016c6102b3366004611c1d565b610ec6565b6102e16102c636600461180d565b6000602081905290815260409020546001600160401b031681565b6040516001600160401b039091168152602001610150565b610285610307366004611c4d565b610eed565b6101f361031a366004611737565b610f02565b61016c61032d366004611c8b565b610fc9565b600061033d82611186565b92915050565b8461034d816111ab565b61035657600080fd5b600086815260208181526040808320546001600160401b0316835260048252808320898452909152908190209051849184916103959089908990611ceb565b908152602001604051809103902091826103b0929190611d7c565b5084846040516103c1929190611ceb565b6040518091039020867f448bc014f1536726cf8d54ff3d6481ed3cbc683c2591ca204274009afa09b1a1878787876040516103ff9493929190611e64565b60405180910390a3505050505050565b600082815260208181526040808320546001600160401b03168352600180835281842086855290925282206060915b848111610525578085161580159061046e57506000818152602083905260408120805461046a90611cfb565b9050115b1561051d578082600083815260200190815260200160002080805461049290611cfb565b80601f01602080910402602001604051908101604052809291908181526020018280546104be90611cfb565b801561050b5780601f106104e05761010080835404028352916020019161050b565b820191906000526020600020905b8154815290600101906020018083116104ee57829003601f168201915b5050505050905093509350505061053e565b60011b61043e565b5060006040518060200160405280600081525092509250505b9250929050565b8261054f816111ab565b61055857600080fd5b600084815260208181526040808320546001600160401b0316835260038252808320878452909152902061058d838583611d7c565b50837fe379c1624ed7e714cc0937528a32359d69d5281337765313dba4e081b72d757884846040516105c0929190611e96565b60405180910390a250505050565b806105d8816111ab565b6105e157600080fd5b600082815260208190526040812080546001600160401b03169161060483611ec0565b82546101009290920a6001600160401b03818102199093169183160217909155600084815260208181526040918290205491519190921681528492507fc6621ccb8f3f5a04bb6502154b2caf6adf5983fe76dfef1cfc9c42e3579db444910160405180910390a25050565b60008061067d83603c610f02565b905080516000036106915750600092915050565b61069a816111b7565b9392505050565b600083815260208181526040808320546001600160401b0316835260048252808320868452909152908190209051606091906106e09085908590611ceb565b908152602001604051809103902080546106f990611cfb565b80601f016020809104026020016040519081016040528092919081815260200182805461072590611cfb565b80156107725780601f1061074757610100808354040283529160200191610772565b820191906000526020600020905b81548152906001019060200180831161075557829003601f168201915b505050505090509392505050565b8361078a816111ab565b61079357600080fd5b8361079f600182611eeb565b16156107aa57600080fd5b600085815260208181526040808320546001600160401b0316835260018252808320888452825280832087845290915290206107e7838583611d7c565b50604051849086907faa121bbeef5f32f5961a2a28966e769023910fc9479059ee3495d4c1a696efe390600090a35050505050565b838042111561083e57604051630819bdcd60e01b815260040160405180910390fd5b60006108a33089898960405160200161085a9493929190611efe565b604051602081830303815290604052805190602001207f19457468657265756d205369676e6564204d6573736167653a0a3332000000006000908152601c91909152603c902090565b90506108af85896111d6565b158061094d575060405163131de3db60e31b81526001600160a01b037f000000000000000000000000000000000000000000000000000000000000000016906398ef1ed890610908908890859089908990600401611f3f565b6020604051808303816000875af1158015610927573d6000803e3d6000fd5b505050506040513d601f19601f8201168201806040525081019061094b9190611f71565b155b1561097357604051637336246d60e11b8152600481018990526024015b60405180910390fd5b600088815260208181526040808320546001600160401b03168352600382528083208b845290915290206109a78882611f93565b50877fe379c1624ed7e714cc0937528a32359d69d5281337765313dba4e081b72d7578886040516109d89190611826565b60405180910390a25050505050505050565b8380421115610a0c57604051630819bdcd60e01b815260040160405180910390fd5b6000610a2a308a8a8a8a60405160200161085a959493929190612051565b9050610a36858a6111d6565b1580610ad4575060405163131de3db60e31b81526001600160a01b037f000000000000000000000000000000000000000000000000000000000000000016906398ef1ed890610a8f908890859089908990600401611f3f565b6020604051808303816000875af1158015610aae573d6000803e3d6000fd5b505050506040513d601f19601f82011682018060405250810190610ad29190611f71565b155b15610af557604051637336246d60e11b8152600481018a905260240161096a565b87610b01600182611eeb565b1615610b0c57600080fd5b600089815260208181526040808320546001600160401b03168352600182528083208c845282528083208b84529091529020610b488882611f93565b5060405188908a907faa121bbeef5f32f5961a2a28966e769023910fc9479059ee3495d4c1a696efe390600090a3505050505050505050565b8380421115610ba357604051630819bdcd60e01b815260040160405180910390fd5b6000610bc1308a8a8a8a60405160200161085a959493929190612051565b9050610bcd858a6111d6565b1580610c6b575060405163131de3db60e31b81526001600160a01b037f000000000000000000000000000000000000000000000000000000000000000016906398ef1ed890610c26908890859089908990600401611f3f565b6020604051808303816000875af1158015610c45573d6000803e3d6000fd5b505050506040513d601f19601f82011682018060405250810190610c699190611f71565b155b15610c8c57604051637336246d60e11b8152600481018a905260240161096a565b610c97898989610ca2565b505050505050505050565b82610cac816111ab565b610cb557600080fd5b837f65412581168e88a1e60c6459d7f44ae83ad0832e670826c05a4e2476b57af7528484604051610ce79291906117a9565b60405180910390a2603c8303610d3e57837f52d7d861f09ab3d26239d492e8968629f95e9e318cf0b73bfddc441522a15fd2610d22846111b7565b6040516001600160a01b03909116815260200160405180910390a25b600084815260208181526040808320546001600160401b031683526002825280832087845282528083208684529091529020610d7a8382611f93565b5050505050565b6060600080306001600160a01b031684604051610d9e9190612099565b600060405180830381855afa9150503d8060008114610dd9576040519150601f19603f3d011682016040523d82523d6000602084013e610dde565b606091505b50915091508115610df257915061033d9050565b805160208201fd5b606061069a6000848461138b565b600081815260208181526040808320546001600160401b03168352600382528083208484529091529020805460609190610e4190611cfb565b80601f0160208091040260200160405190810160405280929190818152602001828054610e6d90611cfb565b8015610eba5780601f10610e8f57610100808354040283529160200191610eba565b820191906000526020600020905b815481529060010190602001808311610e9d57829003601f168201915b50505050509050919050565b81610ed0816111ab565b610ed957600080fd5b610ee883603c61025a8561154f565b505050565b6060610efa84848461138b565b949350505050565b600082815260208181526040808320546001600160401b031683526002825280832085845282528083208484529091529020805460609190610f4390611cfb565b80601f0160208091040260200160405190810160405280929190818152602001828054610f6f90611cfb565b8015610fbc5780601f10610f9157610100808354040283529160200191610fbc565b820191906000526020600020905b815481529060010190602001808311610f9f57829003601f168201915b5050505050905092915050565b8380421115610feb57604051630819bdcd60e01b815260040160405180910390fd5b6000611009308a8a8a8a60405160200161085a9594939291906120b5565b9050611015858a6111d6565b15806110b3575060405163131de3db60e31b81526001600160a01b037f000000000000000000000000000000000000000000000000000000000000000016906398ef1ed89061106e908890859089908990600401611f3f565b6020604051808303816000875af115801561108d573d6000803e3d6000fd5b505050506040513d601f19601f820116820180604052508101906110b19190611f71565b155b156110d457604051637336246d60e11b8152600481018a905260240161096a565b600089815260208181526040808320546001600160401b03168352600482528083208c8452909152908190209051889190611110908b90612099565b9081526020016040518091039020908161112a9190611f93565b50876040516111399190612099565b6040518091039020897f448bc014f1536726cf8d54ff3d6481ed3cbc683c2591ca204274009afa09b1a18a8a60405161117392919061210d565b60405180910390a3505050505050505050565b60006001600160e01b03198216631674750f60e21b148061033d575061033d8261157f565b600061033d33836111d6565b600081516014146111c757600080fd5b5060200151600160601b900490565b600080306040516344d7653b60e11b81526001600160a01b038681166004830152919250908216906389aeca7690602401602060405180830381865afa158015611224573d6000803e3d6000fd5b505050506040513d601f19601f820116820180604052508101906112489190611f71565b1561125757600191505061033d565b6040516331a9108f60e11b81526004810184905283906000906001600160a01b03841690636352211e90602401602060405180830381865afa1580156112a1573d6000803e3d6000fd5b505050506040513d601f19601f820116820180604052508101906112c5919061213b565b9050856001600160a01b0316816001600160a01b03161415801561135e575060405163020604bf60e21b8152600481018390526001600160a01b03808816919085169063081812fc90602401602060405180830381865afa15801561132e573d6000803e3d6000fd5b505050506040513d601f19601f82011682018060405250810190611352919061213b565b6001600160a01b031614155b1561137f57604051637336246d60e11b81526004810186905260240161096a565b50600195945050505050565b6060816001600160401b038111156113a5576113a561188b565b6040519080825280602002602001820160405280156113d857816020015b60608152602001906001900390816113c35790505b50905060005b8281101561154757841561149a57600084848381811061140057611400612158565b9050602002810190611412919061216e565b611421916024916004916121b4565b61142a916121de565b90508581146114985760405162461bcd60e51b815260206004820152603460248201527f6d756c746963616c6c3a20416c6c207265636f726473206d7573742068617665604482015273040c240dac2e8c6d0d2dcce40dcc2dacad0c2e6d60631b606482015260840161096a565b505b600080308686858181106114b0576114b0612158565b90506020028101906114c2919061216e565b6040516114d0929190611ceb565b600060405180830381855af49150503d806000811461150b576040519150601f19603f3d011682016040523d82523d6000602084013e611510565b606091505b50915091508161151f57600080fd5b8084848151811061153257611532612158565b602090810291909101015250506001016113de565b509392505050565b604080516014808252818301909252606091602082018180368337505050600160601b9290920260208301525090565b60006001600160e01b0319821663bc1c58d160e01b148061033d575061033d8260006001600160e01b03198216631d9dabef60e11b14806115d057506001600160e01b031982166378e5bf0360e11b145b8061033d575061033d8260006001600160e01b03198216631101d5ab60e11b148061033d575061033d8260006001600160e01b0319821663d700ff3360e01b148061033d575061033d8260006001600160e01b03198216634fbf043360e01b148061033d57506301ffc9a760e01b6001600160e01b031983161461033d565b60006020828403121561166157600080fd5b81356001600160e01b03198116811461069a57600080fd5b60008083601f84011261168b57600080fd5b5081356001600160401b038111156116a257600080fd5b60208301915083602082850101111561053e57600080fd5b6000806000806000606086880312156116d257600080fd5b8535945060208601356001600160401b038111156116ef57600080fd5b6116fb88828901611679565b90955093505060408601356001600160401b0381111561171a57600080fd5b61172688828901611679565b969995985093965092949392505050565b6000806040838503121561174a57600080fd5b50508035926020909101359150565b60005b8381101561177457818101518382015260200161175c565b50506000910152565b60008151808452611795816020860160208601611759565b601f01601f19169290920160200192915050565b828152604060208201526000610efa604083018461177d565b6000806000604084860312156117d757600080fd5b8335925060208401356001600160401b038111156117f457600080fd5b61180086828701611679565b9497909650939450505050565b60006020828403121561181f57600080fd5b5035919050565b60208152600061069a602083018461177d565b6000806000806060858703121561184f57600080fd5b843593506020850135925060408501356001600160401b0381111561187357600080fd5b61187f87828801611679565b95989497509550505050565b634e487b7160e01b600052604160045260246000fd5b600082601f8301126118b257600080fd5b8135602083016000806001600160401b038411156118d2576118d261188b565b50604051601f19601f85018116603f011681018181106001600160401b03821117156119005761190061188b565b60405283815290508082840187101561191857600080fd5b838360208301376000602085830101528094505050505092915050565b6001600160a01b038116811461194a57600080fd5b50565b60008060008060008060a0878903121561196657600080fd5b8635955060208701356001600160401b0381111561198357600080fd5b61198f89828a016118a1565b9550506040870135935060608701356119a781611935565b925060808701356001600160401b038111156119c257600080fd5b6119ce89828a01611679565b979a9699509497509295939492505050565b600080600080600080600060c0888a0312156119fb57600080fd5b873596506020880135955060408801356001600160401b03811115611a1f57600080fd5b611a2b8a828b016118a1565b955050606088013593506080880135611a4381611935565b925060a08801356001600160401b03811115611a5e57600080fd5b611a6a8a828b01611679565b989b979a50959850939692959293505050565b600080600060608486031215611a9257600080fd5b833592506020840135915060408401356001600160401b03811115611ab657600080fd5b611ac2868287016118a1565b9150509250925092565b60008060408385031215611adf57600080fd5b82356001600160401b03811115611af557600080fd5b611b01858286016118a1565b92505060208301356001600160401b03811115611b1d57600080fd5b611b29858286016118a1565b9150509250929050565b60008083601f840112611b4557600080fd5b5081356001600160401b03811115611b5c57600080fd5b6020830191508360208260051b850101111561053e57600080fd5b60008060208385031215611b8a57600080fd5b82356001600160401b03811115611ba057600080fd5b611bac85828601611b33565b90969095509350505050565b6000602082016020835280845180835260408501915060408160051b86010192506020860160005b82811015611c1157603f19878603018452611bfc85835161177d565b94506020938401939190910190600101611be0565b50929695505050505050565b60008060408385031215611c3057600080fd5b823591506020830135611c4281611935565b809150509250929050565b600080600060408486031215611c6257600080fd5b8335925060208401356001600160401b03811115611c7f57600080fd5b61180086828701611b33565b600080600080600080600060c0888a031215611ca657600080fd5b8735965060208801356001600160401b03811115611cc357600080fd5b611ccf8a828b016118a1565b96505060408801356001600160401b03811115611a1f57600080fd5b8183823760009101908152919050565b600181811c90821680611d0f57607f821691505b602082108103611d2f57634e487b7160e01b600052602260045260246000fd5b50919050565b601f821115610ee857806000526020600020601f840160051c81016020851015611d5c5750805b601f840160051c820191505b81811015610d7a5760008155600101611d68565b6001600160401b03831115611d9357611d9361188b565b611da783611da18354611cfb565b83611d35565b6000601f841160018114611ddb5760008515611dc35750838201355b600019600387901b1c1916600186901b178355610d7a565b600083815260209020601f19861690835b82811015611e0c5786850135825560209485019460019092019101611dec565b5086821015611e295760001960f88860031b161c19848701351681555b505060018560011b0183555050505050565b81835281816020850137506000828201602090810191909152601f909101601f19169091010190565b604081526000611e78604083018688611e3b565b8281036020840152611e8b818587611e3b565b979650505050505050565b602081526000610efa602083018486611e3b565b634e487b7160e01b600052601160045260246000fd5b60006001600160401b0382166001600160401b038103611ee257611ee2611eaa565b60010192915050565b8181038181111561033d5761033d611eaa565b6001600160601b03198560601b16815283601482015260008351611f29816034850160208801611759565b6034920191820192909252605401949350505050565b60018060a01b0385168152836020820152606060408201526000611f67606083018486611e3b565b9695505050505050565b600060208284031215611f8357600080fd5b8151801515811461069a57600080fd5b81516001600160401b03811115611fac57611fac61188b565b611fc081611fba8454611cfb565b84611d35565b6020601f821160018114611ff45760008315611fdc5750848201515b600019600385901b1c1916600184901b178455610d7a565b600084815260208120601f198516915b828110156120245787850151825560209485019460019092019101612004565b50848210156120425786840151600019600387901b60f8161c191681555b50505050600190811b01905550565b6001600160601b03198660601b16815284601482015283603482015260008351612082816054850160208801611759565b605492019182019290925260740195945050505050565b600082516120ab818460208701611759565b9190910192915050565b6001600160601b03198660601b168152846014820152600084516120e0816034850160208901611759565b8451908301906120f7816034840160208901611759565b0160348101939093525050605401949350505050565b604081526000612120604083018561177d565b8281036020840152612132818561177d565b95945050505050565b60006020828403121561214d57600080fd5b815161069a81611935565b634e487b7160e01b600052603260045260246000fd5b6000808335601e1984360301811261218557600080fd5b8301803591506001600160401b0382111561219f57600080fd5b60200191503681900382131561053e57600080fd5b600080858511156121c457600080fd5b838611156121d157600080fd5b5050820193919092039150565b8035602083101561033d57600019602084900360031b1b169291505056fea2646970667358221220def47e0d37fbccdae7b941ba302a6287e03c9b41dab037eeec962f37c9c415c464736f6c634300081c0033",
  "linkReferences": {},
  "deployedLinkReferences": {}
}