{
  "_format": "hh-sol-artifact-1",
  "contractName": "L2Resolver",
  "sourceName": "contracts/durin/L2Resolver.sol",
  "abi": [
    {
      "inputs": [],
      "name": "SignatureExpired",
      "type": "error"
    },
    {
      "inputs": [
        {
          "internalType": "bytes32",
          "name": "node",
          "type": "bytes32"
        }
      ],
      "name": "Unauthorized",
      "type": "error"
    },
    {
      "anonymous": false,
      "inputs": [
        {
          "indexed": true,
          "internalType": "bytes32",
          "name": "node",
          "type": "bytes32"
        },
        {
          "indexed": true,
          "internalType": "uint256",
          "name": "contentType",
          "type": "uint256"
        }
      ],
      "name": "ABIChanged",
      "type": "event"
    },
    {
      "anonymous": false,
      "inputs": [
        {
          "indexed": true,
          "internalType": "bytes32",
          "name": "node",
          "type": "bytes32"
        },
        {
          "indexed": false,
          "internalType": "address",
          "name": "a",
          "type": "address"
        }
      ],
      "name": "AddrChanged",
      "type": "event"
    },
    {
      "anonymous": false,
      "inputs": [
        {
          "indexed": true,
          "internalType": "bytes32",
          "name": "node",
          "type": "bytes32"
        },
        {
          "indexed": false,
          "internalType": "uint256",
          "name": "coinType",
          "type": "uint256"
        },
        {
          "indexed": false,
          "internalType": "bytes",
          "name": "newAddress",
          "type": "bytes"
        }
      ],
      "name": "AddressChanged",
      "type": "event"
    },
    {
      "anonymous": false,
      "inputs": [
        {
          "indexed": true,
          "internalType": "bytes32",
          "name": "node",
          "type": "bytes32"
        },
        {
          "indexed": false,
          "internalType": "bytes",
          "name": "hash",
          "type": "bytes"
        }
      ],
      "name": "ContenthashChanged",
      "type": "event"
    },
    {
      "anonymous": false,
      "inputs": [
        {
          "indexed": true,
          "internalType": "bytes32",
          "name": "node",
          "type": "bytes32"
        },
        {
          "indexed": true,
          "internalType": "string",
          "name": "indexedKey",
          "type": "string"
        },
        {
          "indexed": false,
          "internalType": "string",
          "name": "key",
          "type": "string"
        },
        {
          "indexed": false,
          "internalType": "string",
          "name": "value",
          "type": "string"
        }
      ],
      "name": "TextChanged",
      "type": "event"
    },
    {
      "anonymous": false,
      "inputs": [
        {
          "indexed": true,
          "internalType": "bytes32",
          "name": "node",
          "type": "bytes32"
        },
        {
          "indexed": false,
          "internalType": "uint64",
          "name": "newVersion",
          "type": "uint64"
        }
      ],
      "name": "VersionChanged",
      "type": "event"
    },
    {
      "inputs": [
        {
          "internalType": "bytes32",
          "name": "node",
          "type": "bytes32"
        },
        {
          "internalType": "uint256",
          "name": "contentTypes",
          "type": "uint256"
        }
      ],
      "name": "ABI",
      "outputs": [
        {
          "internalType": "uint256",
          "name": "",
          "type": "uint256"
        },
        {
          "internalType": "bytes",
          "name": "",
          "type": "bytes"
        }
      ],
      "stateMutability": "view",
      "type": "function"
    },
    {
      "inputs": [
        {
          "internalType": "bytes32",
          "name": "node",
          "type": "bytes32"
        }
      ],
      "name": "addr",
      "outputs": [
        {
          "internalType": "address payable",
          "name": "",
          "type": "address"
        }
      ],
      "stateMutability": "view",
      "type": "function"
    },
    {
      "inputs": [
        {
          "internalType": "bytes32",
          "name": "node",
          "type": "bytes32"
        },
        {
          "internalType": "uint256",
          "name": "coinType",
          "type": "uint256"
        }
      ],
      "name": "addr",
      "outputs": [
        {
          "internalType": "bytes",
          "name": "",
          "type": "bytes"
        }
      ],
      "stateMutability": "view",
      "type": "function"
    },
    {
      "inputs": [
        {
          "internalType": "bytes32",
          "name": "node",
          "type": "bytes32"
        }
      ],
      "name": "clearRecords",
      "outputs": [],
      "stateMutability": "nonpayable",
      "type": "function"
    },
    {
      "inputs": [
        {
          "internalType": "bytes32",
          "name": "node",
          "type": "bytes32"
        }
      ],
      "name": "contenthash",
      "outputs": [
        {
          "internalType": "bytes",
          "name": "",
          "type": "bytes"
        }
      ],
      "stateMutability": "view",
      "type": "function"
    },
    {
      "inputs": [
        {
          "internalType": "bytes[]",
          "name": "data",
          "type": "bytes[]"
        }
      ],
      "name": "multicall",
      "outputs": [
        {
          "internalType": "bytes[]",
          "name": "results",
          "type": "bytes[]"
        }
      ],
      "stateMutability": "nonpayable",
      "type": "function"
    },
    {
      "inputs": [
        {
          "internalType": "bytes32",
          "name": "nodehash",
          "type": "bytes32"
        },
        {
          "internalType": "bytes[]",
          "name": "data",
          "type": "bytes[]"
        }
      ],
      "name": "multicallWithNodeCheck",
      "outputs": [
        {
          "internalType": "bytes[]",
          "name": "results",
          "type": "bytes[]"
        }
      ],
      "stateMutability": "nonpayable",
      "type": "function"
    },
    {
      "inputs": [
        {
          "internalType": "bytes32",
          "name": "",
          "type": "bytes32"
        }
      ],
      "name": "recordVersions",
      "outputs": [
        {
          "internalType": "uint64",
          "name": "",
          "type": "uint64"
        }
      ],
      "stateMutability": "view",
      "type": "function"
    },
    {
      "inputs": [
        {
          "internalType": "bytes",
          "name": "",
          "type": "bytes"
        },
        {
          "internalType": "bytes",
          "name": "data",
          "type": "bytes"
        }
      ],
      "name": "resolve",
      "outputs": [
        {
          "internalType": "bytes",
          "name": "",
          "type": "bytes"
        }
      ],
      "stateMutability": "view",
      "type": "function"
    },
    {
      "inputs": [
        {
          "internalType": "bytes32",
          "name": "node",
          "type": "bytes32"
        },
        {
          "internalType": "uint256",
          "name": "contentType",
          "type": "uint256"
        },
        {
          "internalType": "bytes",
          "name": "data",
          "type": "bytes"
        }
      ],
      "name": "setABI",
      "outputs": [],
      "stateMutability": "nonpayable",
      "type": "function"
    },
    {
      "inputs": [
        {
          "internalType": "bytes32",
          "name": "node",
          "type": "bytes32"
        },
        {
          "internalType": "uint256",
          "name": "contentType",
          "type": "uint256"
        },
        {
          "internalType": "bytes",
          "name": "data",
          "type": "bytes"
        },
        {
          "internalType": "uint256",
          "name": "expiration",
          "type": "uint256"
        },
        {
          "internalType": "address",
          "name": "signer",
          "type": "address"
        },
        {
          "internalType": "bytes",
          "name": "signature",
          "type": "bytes"
        }
      ],
      "name": "setABIWithSignature",
      "outputs": [],
      "stateMutability": "nonpayable",
      "type": "function"
    },
    {
      "inputs": [
        {
          "internalType": "bytes32",
          "name": "node",
          "type": "bytes32"
        },
        {
          "internalType": "uint256",
          "name": "coinType",
          "type": "uint256"
        },
        {
          "internalType": "bytes",
          "name": "a",
          "type": "bytes"
        }
      ],
      "name": "setAddr",
      "outputs": [],
      "stateMutability": "nonpayable",
      "type": "function"
    },
    {
      "inputs": [
        {
          "internalType": "bytes32",
          "name": "node",
          "type": "bytes32"
        },
        {
          "internalType": "address",
          "name": "a",
          "type": "address"
        }
      ],
      "name": "setAddr",
      "outputs": [],
      "stateMutability": "nonpayable",
      "type": "function"
    },
    {
      "inputs": [
        {
          "internalType": "bytes32",
          "name": "node",
          "type": "bytes32"
        },
        {
          "internalType": "uint256",
          "name": "coinType",
          "type": "uint256"
        },
        {
          "internalType": "bytes",
          "name": "a",
          "type": "bytes"
        },
        {
          "internalType": "uint256",
          "name": "expiration",
          "type": "uint256"
        },
        {
          "internalType": "address",
          "name": "signer",
          "type": "address"
        },
        {
          "internalType": "bytes",
          "name": "signature",
          "type": "bytes"
        }
      ],
      "name": "setAddrWithSignature",
      "outputs": [],
      "stateMutability": "nonpayable",
      "type": "function"
    },
    {
      "inputs": [
        {
          "internalType": "bytes32",
          "name": "node",
          "type": "bytes32"
        },
        {
          "internalType": "bytes",
          "name": "hash",
          "type": "bytes"
        }
      ],
      "name": "setContenthash",
      "outputs": [],
      "stateMutability": "nonpayable",
      "type": "function"
    },
    {
      "inputs": [
        {
          "internalType": "bytes32",
          "name": "node",
          "type": "bytes32"
        },
        {
          "internalType": "bytes",
          "name": "hash",
          "type": "bytes"
        },
        {
          "internalType": "uint256",
          "name": "expiration",
          "type": "uint256"
        },
        {
          "internalType": "address",
          "name": "signer",
          "type": "address"
        },
        {
          "internalType": "bytes",
          "name": "signature",
          "type": "bytes"
        }
      ],
      "name": "setContenthashWithSignature",
      "outputs": [],
      "stateMutability": "nonpayable",
      "type": "function"
    },
    {
      "inputs": [
        {
          "internalType": "bytes32",
          "name": "node",
          "type": "bytes32"
        },
        {
          "internalType": "string",
          "name": "key",
          "type": "string"
        },
        {
          "internalType": "string",
          "name": "value",
          "type": "string"
        }
      ],
      "name": "setText",
      "outputs": [],
      "stateMutability": "nonpayable",
      "type": "function"
    },
    {
      "inputs": [
        {
          "internalType": "bytes32",
          "name": "node",
          "type": "bytes32"
        },
        {
          "internalType": "string",
          "name": "key",
          "type": "string"
        },
        {
          "internalType": "string",
          "name": "value",
          "type": "string"
        },
        {
          "internalType": "uint256",
          "name": "expiration",
          "type": "uint256"
        },
        {
          "internalType": "address",
          "name": "signer",
          "type": "address"
        },
        {
          "internalType": "bytes",
          "name": "signature",
          "type": "bytes"
        }
      ],
      "name": "setTextWithSignature",
      "outputs": [],
      "stateMutability": "nonpayable",
      "type": "function"
    },
    {
      "inputs": [
        {
          "internalType": "bytes4",
          "name": "interfaceId",
          "type": "bytes4"
        }
      ],
      "name": "supportsInterface",
      "outputs": [
        {
          "internalType": "bool",
          "name": "",
          "type": "bool"
        }
      ],
      "stateMutability": "view",
      "type": "function"
    },
    {
      "inputs": [
        {
          "internalType": "bytes32",
          "name": "node",
          "type": "bytes32"
        },
        {
          "internalType": "string",
          "name": "key",
          "type": "string"
        }
      ],
      "name": "text",
      "outputs": [
        {
          "internalType": "string",
          "name": "",
          "type": "string"
        }
      ],
      "stateMutability": "view",
      "type": "function"
    }
  ],
  "bytecode": "0x60a060405273164af34faf9879394370c7f09064127c043a35e973ffffffffffffffffffffffffffffffffffffffff1660809073ffffffffffffffffffffffffffffffffffffffff1681525034801561005757600080fd5b50608051613b0261008860003960008181610afa01528181610d1501528181610f5301526114ef0152613b026000f3fe608060405234801561001057600080fd5b506004361061012c5760003560e01c8063743a095b116100ad578063d5fa2b0011610071578063d5fa2b0014610362578063d700ff331461037e578063e32954eb146103ae578063f1cb7e06146103de578063f32911071461040e5761012c565b8063743a095b1461029a5780638b95dd71146102b65780639061b923146102d2578063ac9650d814610302578063bc1c58d1146103325761012c565b80633b3b57de116100f45780633b3b57de146101e657806359d1d43c14610216578063623195b01461024657806366930680146102625780636b0a29701461027e5761012c565b806301ffc9a71461013157806310f13a8c146101615780632203ab561461017d578063304e6ade146101ae5780633603d758146101ca575b600080fd5b61014b60048036038101906101469190611fbe565b61042a565b6040516101589190612006565b60405180910390f35b61017b600480360381019061017691906120bc565b61043c565b005b61019760048036038101906101929190612187565b610539565b6040516101a5929190612266565b60405180910390f35b6101c860048036038101906101c391906122ec565b6106b9565b005b6101e460048036038101906101df919061234c565b61077a565b005b61020060048036038101906101fb919061234c565b61084c565b60405161020d91906123ba565b60405180910390f35b610230600480360381019061022b91906123d5565b610881565b60405161023d919061248a565b60405180910390f35b610260600480360381019061025b91906124ac565b610991565b005b61027c6004803603810190610277919061268e565b610a73565b005b61029860048036038101906102939190612744565b610c8c565b005b6102b460048036038101906102af9190612744565b610eca565b005b6102d060048036038101906102cb919061280f565b61104d565b005b6102ec60048036038101906102e7919061287e565b611166565b6040516102f991906128f6565b60405180910390f35b61031c6004803603810190610317919061296e565b6111f3565b6040516103299190612ac7565b60405180910390f35b61034c6004803603810190610347919061234c565b61120b565b60405161035991906128f6565b60405180910390f35b61037c60048036038101906103779190612ae9565b6112fb565b005b6103986004803603810190610393919061234c565b611327565b6040516103a59190612b4c565b60405180910390f35b6103c860048036038101906103c39190612b67565b61134e565b6040516103d59190612ac7565b60405180910390f35b6103f860048036038101906103f39190612187565b611364565b60405161040591906128f6565b60405180910390f35b61042860048036038101906104239190612c68565b611466565b005b6000610435826116b6565b9050919050565b8461044681611730565b61044f57600080fd5b8282600460008060008b815260200190815260200160002060009054906101000a900467ffffffffffffffff1667ffffffffffffffff1667ffffffffffffffff168152602001908152602001600020600089815260200190815260200160002087876040516104bf929190612d7f565b908152602001604051809103902091826104da929190612faf565b5084846040516104eb929190612d7f565b6040518091039020867f448bc014f1536726cf8d54ff3d6481ed3cbc683c2591ca204274009afa09b1a18787878760405161052994939291906130ac565b60405180910390a3505050505050565b6000606060006001600080600088815260200190815260200160002060009054906101000a900467ffffffffffffffff1667ffffffffffffffff1667ffffffffffffffff168152602001908152602001600020600086815260200190815260200160002090506000600190505b848111610699576000858216141580156105de5750600082600083815260200190815260200160002080546105da90612dd2565b9050115b1561068d578082600083815260200190815260200160002080805461060290612dd2565b80601f016020809104026020016040519081016040528092919081815260200182805461062e90612dd2565b801561067b5780601f106106505761010080835404028352916020019161067b565b820191906000526020600020905b81548152906001019060200180831161065e57829003601f168201915b505050505090509350935050506106b2565b600181901b90506105a6565b5060006040518060200160405280600081525092509250505b9250929050565b826106c381611730565b6106cc57600080fd5b82826003600080600089815260200190815260200160002060009054906101000a900467ffffffffffffffff1667ffffffffffffffff1667ffffffffffffffff1681526020019081526020016000206000878152602001908152602001600020918261073992919061314d565b50837fe379c1624ed7e714cc0937528a32359d69d5281337765313dba4e081b72d7578848460405161076c92919061324a565b60405180910390a250505050565b8061078481611730565b61078d57600080fd5b600080838152602001908152602001600020600081819054906101000a900467ffffffffffffffff16809291906107c39061329d565b91906101000a81548167ffffffffffffffff021916908367ffffffffffffffff16021790555050817fc6621ccb8f3f5a04bb6502154b2caf6adf5983fe76dfef1cfc9c42e3579db44460008085815260200190815260200160002060009054906101000a900467ffffffffffffffff166040516108409190612b4c565b60405180910390a25050565b60008061085a83603c611364565b9050600081510361086f57600091505061087c565b61087881611743565b9150505b919050565b60606004600080600087815260200190815260200160002060009054906101000a900467ffffffffffffffff1667ffffffffffffffff1667ffffffffffffffff168152602001908152602001600020600085815260200190815260200160002083836040516108f1929190612d7f565b9081526020016040518091039020805461090a90612dd2565b80601f016020809104026020016040519081016040528092919081815260200182805461093690612dd2565b80156109835780601f1061095857610100808354040283529160200191610983565b820191906000526020600020905b81548152906001019060200180831161096657829003601f168201915b505050505090509392505050565b8361099b81611730565b6109a457600080fd5b6000846001866109b491906132cd565b16146109bf57600080fd5b8282600160008060008a815260200190815260200160002060009054906101000a900467ffffffffffffffff1667ffffffffffffffff1667ffffffffffffffff168152602001908152602001600020600088815260200190815260200160002060008781526020019081526020016000209182610a3d92919061314d565b5083857faa121bbeef5f32f5961a2a28966e769023910fc9479059ee3495d4c1a696efe360405160405180910390a35050505050565b8380421115610aae576040517f0819bdcd00000000000000000000000000000000000000000000000000000000815260040160405180910390fd5b6000610ae530898989604051602001610aca94939291906133c7565b60405160208183030381529060405280519060200120611766565b9050610af1858961179c565b1580610b9c57507f000000000000000000000000000000000000000000000000000000000000000073ffffffffffffffffffffffffffffffffffffffff166398ef1ed8868387876040518563ffffffff1660e01b8152600401610b57949392919061342f565b6020604051808303816000875af1158015610b76573d6000803e3d6000fd5b505050506040513d601f19601f82011682018060405250810190610b9a919061349b565b155b15610bde57876040517fe66c48da000000000000000000000000000000000000000000000000000000008152600401610bd591906134c8565b60405180910390fd5b86600360008060008c815260200190815260200160002060009054906101000a900467ffffffffffffffff1667ffffffffffffffff1667ffffffffffffffff16815260200190815260200160002060008a81526020019081526020016000209081610c4991906134e3565b50877fe379c1624ed7e714cc0937528a32359d69d5281337765313dba4e081b72d757888604051610c7a91906128f6565b60405180910390a25050505050505050565b8380421115610cc7576040517f0819bdcd00000000000000000000000000000000000000000000000000000000815260040160405180910390fd5b6000610d00308a8a8a8a604051602001610ce59594939291906135b5565b60405160208183030381529060405280519060200120611766565b9050610d0c858a61179c565b1580610db757507f000000000000000000000000000000000000000000000000000000000000000073ffffffffffffffffffffffffffffffffffffffff166398ef1ed8868387876040518563ffffffff1660e01b8152600401610d72949392919061342f565b6020604051808303816000875af1158015610d91573d6000803e3d6000fd5b505050506040513d601f19601f82011682018060405250810190610db5919061349b565b155b15610df957886040517fe66c48da000000000000000000000000000000000000000000000000000000008152600401610df091906134c8565b60405180910390fd5b60008860018a610e0991906132cd565b1614610e1457600080fd5b86600160008060008d815260200190815260200160002060009054906101000a900467ffffffffffffffff1667ffffffffffffffff1667ffffffffffffffff16815260200190815260200160002060008b815260200190815260200160002060008a81526020019081526020016000209081610e9091906134e3565b5087897faa121bbeef5f32f5961a2a28966e769023910fc9479059ee3495d4c1a696efe360405160405180910390a3505050505050505050565b8380421115610f05576040517f0819bdcd00000000000000000000000000000000000000000000000000000000815260040160405180910390fd5b6000610f3e308a8a8a8a604051602001610f239594939291906135b5565b60405160208183030381529060405280519060200120611766565b9050610f4a858a61179c565b1580610ff557507f000000000000000000000000000000000000000000000000000000000000000073ffffffffffffffffffffffffffffffffffffffff166398ef1ed8868387876040518563ffffffff1660e01b8152600401610fb0949392919061342f565b6020604051808303816000875af1158015610fcf573d6000803e3d6000fd5b505050506040513d601f19601f82011682018060405250810190610ff3919061349b565b155b1561103757886040517fe66c48da00000000000000000000000000000000000000000000000000000000815260040161102e91906134c8565b60405180910390fd5b61104289898961104d565b505050505050505050565b8261105781611730565b61106057600080fd5b837f65412581168e88a1e60c6459d7f44ae83ad0832e670826c05a4e2476b57af7528484604051611092929190612266565b60405180910390a2603c83036110e357837f52d7d861f09ab3d26239d492e8968629f95e9e318cf0b73bfddc441522a15fd26110cd84611743565b6040516110da9190613665565b60405180910390a25b816002600080600088815260200190815260200160002060009054906101000a900467ffffffffffffffff1667ffffffffffffffff1667ffffffffffffffff16815260200190815260200160002060008681526020019081526020016000206000858152602001908152602001600020908161115f91906134e3565b5050505050565b60606000803073ffffffffffffffffffffffffffffffffffffffff16846040516111909190613680565b600060405180830381855afa9150503d80600081146111cb576040519150601f19603f3d011682016040523d82523d6000602084013e6111d0565b606091505b509150915081156111e55780925050506111ed565b805160208201fd5b92915050565b60606112036000801b84846119e9565b905092915050565b60606003600080600085815260200190815260200160002060009054906101000a900467ffffffffffffffff1667ffffffffffffffff1667ffffffffffffffff1681526020019081526020016000206000838152602001908152602001600020805461127690612dd2565b80601f01602080910402602001604051908101604052809291908181526020018280546112a290612dd2565b80156112ef5780601f106112c4576101008083540402835291602001916112ef565b820191906000526020600020905b8154815290600101906020018083116112d257829003601f168201915b50505050509050919050565b8161130581611730565b61130e57600080fd5b61132283603c61131d85611bb2565b61104d565b505050565b60006020528060005260406000206000915054906101000a900467ffffffffffffffff1681565b606061135b8484846119e9565b90509392505050565b60606002600080600086815260200190815260200160002060009054906101000a900467ffffffffffffffff1667ffffffffffffffff1667ffffffffffffffff1681526020019081526020016000206000848152602001908152602001600020600083815260200190815260200160002080546113e090612dd2565b80601f016020809104026020016040519081016040528092919081815260200182805461140c90612dd2565b80156114595780601f1061142e57610100808354040283529160200191611459565b820191906000526020600020905b81548152906001019060200180831161143c57829003601f168201915b5050505050905092915050565b83804211156114a1576040517f0819bdcd00000000000000000000000000000000000000000000000000000000815260040160405180910390fd5b60006114da308a8a8a8a6040516020016114bf9594939291906136c8565b60405160208183030381529060405280519060200120611766565b90506114e6858a61179c565b158061159157507f000000000000000000000000000000000000000000000000000000000000000073ffffffffffffffffffffffffffffffffffffffff166398ef1ed8868387876040518563ffffffff1660e01b815260040161154c949392919061342f565b6020604051808303816000875af115801561156b573d6000803e3d6000fd5b505050506040513d601f19601f8201168201806040525081019061158f919061349b565b155b156115d357886040517fe66c48da0000000000000000000000000000000000000000000000000000000081526004016115ca91906134c8565b60405180910390fd5b86600460008060008d815260200190815260200160002060009054906101000a900467ffffffffffffffff1667ffffffffffffffff1667ffffffffffffffff16815260200190815260200160002060008b815260200190815260200160002089604051611640919061371f565b9081526020016040518091039020908161165a9190613736565b5087604051611669919061371f565b6040518091039020897f448bc014f1536726cf8d54ff3d6481ed3cbc683c2591ca204274009afa09b1a18a8a6040516116a3929190613808565b60405180910390a3505050505050505050565b60007f59d1d43c000000000000000000000000000000000000000000000000000000007bffffffffffffffffffffffffffffffffffffffffffffffffffffffff1916827bffffffffffffffffffffffffffffffffffffffffffffffffffffffff19161480611729575061172882611c16565b5b9050919050565b600061173c338361179c565b9050919050565b6000601482511461175357600080fd5b600c6101000a6020830151049050919050565b60007f19457468657265756d205369676e6564204d6573736167653a0a33320000000060005281601c52603c6000209050919050565b6000806117a7611c90565b90508073ffffffffffffffffffffffffffffffffffffffff166389aeca76856040518263ffffffff1660e01b81526004016117e2919061383f565b602060405180830381865afa1580156117ff573d6000803e3d6000fd5b505050506040513d601f19601f82011682018060405250810190611823919061349b565b156118325760019150506119e3565b60008360001c905060008273ffffffffffffffffffffffffffffffffffffffff16636352211e836040518263ffffffff1660e01b8152600401611875919061385a565b602060405180830381865afa158015611892573d6000803e3d6000fd5b505050506040513d601f19601f820116820180604052508101906118b6919061388a565b90508573ffffffffffffffffffffffffffffffffffffffff168173ffffffffffffffffffffffffffffffffffffffff161415801561199957508573ffffffffffffffffffffffffffffffffffffffff168373ffffffffffffffffffffffffffffffffffffffff1663081812fc846040518263ffffffff1660e01b815260040161193f919061385a565b602060405180830381865afa15801561195c573d6000803e3d6000fd5b505050506040513d601f19601f82011682018060405250810190611980919061388a565b73ffffffffffffffffffffffffffffffffffffffff1614155b156119db57846040517fe66c48da0000000000000000000000000000000000000000000000000000000081526004016119d291906134c8565b60405180910390fd5b600193505050505b92915050565b60608282905067ffffffffffffffff811115611a0857611a07612525565b5b604051908082528060200260200182016040528015611a3b57816020015b6060815260200190600190039081611a265790505b50905060005b83839050811015611baa576000801b8514611ae0576000848483818110611a6b57611a6a6138b7565b5b9050602002810190611a7d91906138f5565b600490602492611a8f93929190613962565b90611a9a919061399d565b9050858114611ade576040517f08c379a0000000000000000000000000000000000000000000000000000000008152600401611ad590613a6e565b60405180910390fd5b505b6000803073ffffffffffffffffffffffffffffffffffffffff16868685818110611b0d57611b0c6138b7565b5b9050602002810190611b1f91906138f5565b604051611b2d929190613ab3565b600060405180830381855af49150503d8060008114611b68576040519150601f19603f3d011682016040523d82523d6000602084013e611b6d565b606091505b509150915081611b7c57600080fd5b80848481518110611b9057611b8f6138b7565b5b602002602001018190525050508080600101915050611a41565b509392505050565b6060601467ffffffffffffffff811115611bcf57611bce612525565b5b6040519080825280601f01601f191660200182016040528015611c015781602001600182028036833780820191505090505b509050600c6101000a82026020820152919050565b60007fbc1c58d1000000000000000000000000000000000000000000000000000000007bffffffffffffffffffffffffffffffffffffffffffffffffffffffff1916827bffffffffffffffffffffffffffffffffffffffffffffffffffffffff19161480611c895750611c8882611c98565b5b9050919050565b600030905090565b60007f3b3b57de000000000000000000000000000000000000000000000000000000007bffffffffffffffffffffffffffffffffffffffffffffffffffffffff1916827bffffffffffffffffffffffffffffffffffffffffffffffffffffffff19161480611d6357507ff1cb7e06000000000000000000000000000000000000000000000000000000007bffffffffffffffffffffffffffffffffffffffffffffffffffffffff1916827bffffffffffffffffffffffffffffffffffffffffffffffffffffffff1916145b80611d735750611d7282611d7a565b5b9050919050565b60007f2203ab56000000000000000000000000000000000000000000000000000000007bffffffffffffffffffffffffffffffffffffffffffffffffffffffff1916827bffffffffffffffffffffffffffffffffffffffffffffffffffffffff19161480611ded5750611dec82611df4565b5b9050919050565b60007fd700ff33000000000000000000000000000000000000000000000000000000007bffffffffffffffffffffffffffffffffffffffffffffffffffffffff1916827bffffffffffffffffffffffffffffffffffffffffffffffffffffffff19161480611e675750611e6682611e6e565b5b9050919050565b60007f4fbf0433000000000000000000000000000000000000000000000000000000007bffffffffffffffffffffffffffffffffffffffffffffffffffffffff1916827bffffffffffffffffffffffffffffffffffffffffffffffffffffffff19161480611ee15750611ee082611ee8565b5b9050919050565b60007f01ffc9a7000000000000000000000000000000000000000000000000000000007bffffffffffffffffffffffffffffffffffffffffffffffffffffffff1916827bffffffffffffffffffffffffffffffffffffffffffffffffffffffff1916149050919050565b6000604051905090565b600080fd5b600080fd5b60007fffffffff0000000000000000000000000000000000000000000000000000000082169050919050565b611f9b81611f66565b8114611fa657600080fd5b50565b600081359050611fb881611f92565b92915050565b600060208284031215611fd457611fd3611f5c565b5b6000611fe284828501611fa9565b91505092915050565b60008115159050919050565b61200081611feb565b82525050565b600060208201905061201b6000830184611ff7565b92915050565b6000819050919050565b61203481612021565b811461203f57600080fd5b50565b6000813590506120518161202b565b92915050565b600080fd5b600080fd5b600080fd5b60008083601f84011261207c5761207b612057565b5b8235905067ffffffffffffffff8111156120995761209861205c565b5b6020830191508360018202830111156120b5576120b4612061565b5b9250929050565b6000806000806000606086880312156120d8576120d7611f5c565b5b60006120e688828901612042565b955050602086013567ffffffffffffffff81111561210757612106611f61565b5b61211388828901612066565b9450945050604086013567ffffffffffffffff81111561213657612135611f61565b5b61214288828901612066565b92509250509295509295909350565b6000819050919050565b61216481612151565b811461216f57600080fd5b50565b6000813590506121818161215b565b92915050565b6000806040838503121561219e5761219d611f5c565b5b60006121ac85828601612042565b92505060206121bd85828601612172565b9150509250929050565b6121d081612151565b82525050565b600081519050919050565b600082825260208201905092915050565b60005b838110156122105780820151818401526020810190506121f5565b60008484015250505050565b6000601f19601f8301169050919050565b6000612238826121d6565b61224281856121e1565b93506122528185602086016121f2565b61225b8161221c565b840191505092915050565b600060408201905061227b60008301856121c7565b818103602083015261228d818461222d565b90509392505050565b60008083601f8401126122ac576122ab612057565b5b8235905067ffffffffffffffff8111156122c9576122c861205c565b5b6020830191508360018202830111156122e5576122e4612061565b5b9250929050565b60008060006040848603121561230557612304611f5c565b5b600061231386828701612042565b935050602084013567ffffffffffffffff81111561233457612333611f61565b5b61234086828701612296565b92509250509250925092565b60006020828403121561236257612361611f5c565b5b600061237084828501612042565b91505092915050565b600073ffffffffffffffffffffffffffffffffffffffff82169050919050565b60006123a482612379565b9050919050565b6123b481612399565b82525050565b60006020820190506123cf60008301846123ab565b92915050565b6000806000604084860312156123ee576123ed611f5c565b5b60006123fc86828701612042565b935050602084013567ffffffffffffffff81111561241d5761241c611f61565b5b61242986828701612066565b92509250509250925092565b600081519050919050565b600082825260208201905092915050565b600061245c82612435565b6124668185612440565b93506124768185602086016121f2565b61247f8161221c565b840191505092915050565b600060208201905081810360008301526124a48184612451565b905092915050565b600080600080606085870312156124c6576124c5611f5c565b5b60006124d487828801612042565b94505060206124e587828801612172565b935050604085013567ffffffffffffffff81111561250657612505611f61565b5b61251287828801612296565b925092505092959194509250565b600080fd5b7f4e487b7100000000000000000000000000000000000000000000000000000000600052604160045260246000fd5b61255d8261221c565b810181811067ffffffffffffffff8211171561257c5761257b612525565b5b80604052505050565b600061258f611f52565b905061259b8282612554565b919050565b600067ffffffffffffffff8211156125bb576125ba612525565b5b6125c48261221c565b9050602081019050919050565b82818337600083830152505050565b60006125f36125ee846125a0565b612585565b90508281526020810184848401111561260f5761260e612520565b5b61261a8482856125d1565b509392505050565b600082601f83011261263757612636612057565b5b81356126478482602086016125e0565b91505092915050565b600061265b82612379565b9050919050565b61266b81612650565b811461267657600080fd5b50565b60008135905061268881612662565b92915050565b60008060008060008060a087890312156126ab576126aa611f5c565b5b60006126b989828a01612042565b965050602087013567ffffffffffffffff8111156126da576126d9611f61565b5b6126e689828a01612622565b95505060406126f789828a01612172565b945050606061270889828a01612679565b935050608087013567ffffffffffffffff81111561272957612728611f61565b5b61273589828a01612296565b92509250509295509295509295565b600080600080600080600060c0888a03121561276357612762611f5c565b5b60006127718a828b01612042565b97505060206127828a828b01612172565b965050604088013567ffffffffffffffff8111156127a3576127a2611f61565b5b6127af8a828b01612622565b95505060606127c08a828b01612172565b94505060806127d18a828b01612679565b93505060a088013567ffffffffffffffff8111156127f2576127f1611f61565b5b6127fe8a828b01612296565b925092505092959891949750929550565b60008060006060848603121561282857612827611f5c565b5b600061283686828701612042565b935050602061284786828701612172565b925050604084013567ffffffffffffffff81111561286857612867611f61565b5b61287486828701612622565b9150509250925092565b6000806040838503121561289557612894611f5c565b5b600083013567ffffffffffffffff8111156128b3576128b2611f61565b5b6128bf85828601612622565b925050602083013567ffffffffffffffff8111156128e0576128df611f61565b5b6128ec85828601612622565b9150509250929050565b60006020820190508181036000830152612910818461222d565b905092915050565b60008083601f84011261292e5761292d612057565b5b8235905067ffffffffffffffff81111561294b5761294a61205c565b5b60208301915083602082028301111561296757612966612061565b5b9250929050565b6000806020838503121561298557612984611f5c565b5b600083013567ffffffffffffffff8111156129a3576129a2611f61565b5b6129af85828601612918565b92509250509250929050565b600081519050919050565b600082825260208201905092915050565b6000819050602082019050919050565b600082825260208201905092915050565b6000612a03826121d6565b612a0d81856129e7565b9350612a1d8185602086016121f2565b612a268161221c565b840191505092915050565b6000612a3d83836129f8565b905092915050565b6000602082019050919050565b6000612a5d826129bb565b612a6781856129c6565b935083602082028501612a79856129d7565b8060005b85811015612ab55784840389528151612a968582612a31565b9450612aa183612a45565b925060208a01995050600181019050612a7d565b50829750879550505050505092915050565b60006020820190508181036000830152612ae18184612a52565b905092915050565b60008060408385031215612b0057612aff611f5c565b5b6000612b0e85828601612042565b9250506020612b1f85828601612679565b9150509250929050565b600067ffffffffffffffff82169050919050565b612b4681612b29565b82525050565b6000602082019050612b616000830184612b3d565b92915050565b600080600060408486031215612b8057612b7f611f5c565b5b6000612b8e86828701612042565b935050602084013567ffffffffffffffff811115612baf57612bae611f61565b5b612bbb86828701612918565b92509250509250925092565b600067ffffffffffffffff821115612be257612be1612525565b5b612beb8261221c565b9050602081019050919050565b6000612c0b612c0684612bc7565b612585565b905082815260208101848484011115612c2757612c26612520565b5b612c328482856125d1565b509392505050565b600082601f830112612c4f57612c4e612057565b5b8135612c5f848260208601612bf8565b91505092915050565b600080600080600080600060c0888a031215612c8757612c86611f5c565b5b6000612c958a828b01612042565b975050602088013567ffffffffffffffff811115612cb657612cb5611f61565b5b612cc28a828b01612c3a565b965050604088013567ffffffffffffffff811115612ce357612ce2611f61565b5b612cef8a828b01612c3a565b9550506060612d008a828b01612172565b9450506080612d118a828b01612679565b93505060a088013567ffffffffffffffff811115612d3257612d31611f61565b5b612d3e8a828b01612296565b925092505092959891949750929550565b600081905092915050565b6000612d668385612d4f565b9350612d738385846125d1565b82840190509392505050565b6000612d8c828486612d5a565b91508190509392505050565b600082905092915050565b7f4e487b7100000000000000000000000000000000000000000000000000000000600052602260045260246000fd5b60006002820490506001821680612dea57607f821691505b602082108103612dfd57612dfc612da3565b5b50919050565b60008190508160005260206000209050919050565b60006020601f8301049050919050565b600082821b905092915050565b600060088302612e657fffffffffffffffffffffffffffffffffffffffffffffffffffffffffffffffff82612e28565b612e6f8683612e28565b95508019841693508086168417925050509392505050565b6000819050919050565b6000612eac612ea7612ea284612151565b612e87565b612151565b9050919050565b6000819050919050565b612ec683612e91565b612eda612ed282612eb3565b848454612e35565b825550505050565b600090565b612eef612ee2565b612efa818484612ebd565b505050565b5b81811015612f1e57612f13600082612ee7565b600181019050612f00565b5050565b601f821115612f6357612f3481612e03565b612f3d84612e18565b81016020851015612f4c578190505b612f60612f5885612e18565b830182612eff565b50505b505050565b600082821c905092915050565b6000612f8660001984600802612f68565b1980831691505092915050565b6000612f9f8383612f75565b9150826002028217905092915050565b612fb98383612d98565b67ffffffffffffffff811115612fd257612fd1612525565b5b612fdc8254612dd2565b612fe7828285612f22565b6000601f8311600181146130165760008415613004578287013590505b61300e8582612f93565b865550613076565b601f19841661302486612e03565b60005b8281101561304c57848901358255600182019150602085019450602081019050613027565b868310156130695784890135613065601f891682612f75565b8355505b6001600288020188555050505b50505050505050565b600061308b8385612440565b93506130988385846125d1565b6130a18361221c565b840190509392505050565b600060408201905081810360008301526130c781868861307f565b905081810360208301526130dc81848661307f565b905095945050505050565b600082905092915050565b60008190508160005260206000209050919050565b601f82111561314857613119816130f2565b61312284612e18565b81016020851015613131578190505b61314561313d85612e18565b830182612eff565b50505b505050565b61315783836130e7565b67ffffffffffffffff8111156131705761316f612525565b5b61317a8254612dd2565b613185828285613107565b6000601f8311600181146131b457600084156131a2578287013590505b6131ac8582612f93565b865550613214565b601f1984166131c2866130f2565b60005b828110156131ea578489013582556001820191506020850194506020810190506131c5565b868310156132075784890135613203601f891682612f75565b8355505b6001600288020188555050505b50505050505050565b600061322983856121e1565b93506132368385846125d1565b61323f8361221c565b840190509392505050565b6000602082019050818103600083015261326581848661321d565b90509392505050565b7f4e487b7100000000000000000000000000000000000000000000000000000000600052601160045260246000fd5b60006132a882612b29565b915067ffffffffffffffff82036132c2576132c161326e565b5b600182019050919050565b60006132d882612151565b91506132e383612151565b92508282039050818111156132fb576132fa61326e565b5b92915050565b60008160601b9050919050565b600061331982613301565b9050919050565b600061332b8261330e565b9050919050565b61334361333e82612650565b613320565b82525050565b6000819050919050565b61336461335f82612021565b613349565b82525050565b600081905092915050565b6000613380826121d6565b61338a818561336a565b935061339a8185602086016121f2565b80840191505092915050565b6000819050919050565b6133c16133bc82612151565b6133a6565b82525050565b60006133d38287613332565b6014820191506133e38286613353565b6020820191506133f38285613375565b91506133ff82846133b0565b60208201915081905095945050505050565b61341a81612650565b82525050565b61342981612021565b82525050565b60006060820190506134446000830187613411565b6134516020830186613420565b818103604083015261346481848661321d565b905095945050505050565b61347881611feb565b811461348357600080fd5b50565b6000815190506134958161346f565b92915050565b6000602082840312156134b1576134b0611f5c565b5b60006134bf84828501613486565b91505092915050565b60006020820190506134dd6000830184613420565b92915050565b6134ec826121d6565b67ffffffffffffffff81111561350557613504612525565b5b61350f8254612dd2565b61351a828285613107565b600060209050601f83116001811461354d576000841561353b578287015190505b6135458582612f93565b8655506135ad565b601f19841661355b866130f2565b60005b828110156135835784890151825560018201915060208501945060208101905061355e565b868310156135a0578489015161359c601f891682612f75565b8355505b6001600288020188555050505b505050505050565b60006135c18288613332565b6014820191506135d18287613353565b6020820191506135e182866133b0565b6020820191506135f18285613375565b91506135fd82846133b0565b6020820191508190509695505050505050565b600061362b61362661362184612379565b612e87565b612379565b9050919050565b600061363d82613610565b9050919050565b600061364f82613632565b9050919050565b61365f81613644565b82525050565b600060208201905061367a6000830184613656565b92915050565b600061368c8284613375565b915081905092915050565b60006136a282612435565b6136ac8185612d4f565b93506136bc8185602086016121f2565b80840191505092915050565b60006136d48288613332565b6014820191506136e48287613353565b6020820191506136f48286613697565b91506137008285613697565b915061370c82846133b0565b6020820191508190509695505050505050565b600061372b8284613697565b915081905092915050565b61373f82612435565b67ffffffffffffffff81111561375857613757612525565b5b6137628254612dd2565b61376d828285612f22565b600060209050601f8311600181146137a0576000841561378e578287015190505b6137988582612f93565b865550613800565b601f1984166137ae86612e03565b60005b828110156137d6578489015182556001820191506020850194506020810190506137b1565b868310156137f357848901516137ef601f891682612f75565b8355505b6001600288020188555050505b505050505050565b600060408201905081810360008301526138228185612451565b905081810360208301526138368184612451565b90509392505050565b60006020820190506138546000830184613411565b92915050565b600060208201905061386f60008301846121c7565b92915050565b60008151905061388481612662565b92915050565b6000602082840312156138a05761389f611f5c565b5b60006138ae84828501613875565b91505092915050565b7f4e487b7100000000000000000000000000000000000000000000000000000000600052603260045260246000fd5b600080fd5b600080fd5b600080fd5b60008083356001602003843603038112613912576139116138e6565b5b80840192508235915067ffffffffffffffff821115613934576139336138eb565b5b6020830192506001820236038313156139505761394f6138f0565b5b509250929050565b600080fd5b600080fd5b6000808585111561397657613975613958565b5b838611156139875761398661395d565b5b6001850283019150848603905094509492505050565b60006139a983836130e7565b826139b48135612021565b925060208210156139f4576139ef7fffffffffffffffffffffffffffffffffffffffffffffffffffffffffffffffff83602003600802612e28565b831692505b505092915050565b7f6d756c746963616c6c3a20416c6c207265636f726473206d757374206861766560008201527f2061206d61746368696e67206e616d6568617368000000000000000000000000602082015250565b6000613a58603483612440565b9150613a63826139fc565b604082019050919050565b60006020820190508181036000830152613a8781613a4b565b9050919050565b6000613a9a838561336a565b9350613aa78385846125d1565b82840190509392505050565b6000613ac0828486613a8e565b9150819050939250505056fea264697066735822122083704253522c37d3b1b33d9a01c802ffb64329d36bd5c3cd3e86f1ab46c93d2564736f6c634300081c0033",
  "linkReferences": {},
  "deployedLinkReferences": {}
}