{
  "_format": "hh-sol-artifact-1",
  "contractName": "RomiFactory",
  "sourceName": "contracts/romi/RomiFactory.sol",
  "abi": [
    {
      "inputs": [],
      "stateMutability": "nonpayable",
      "type": "constructor"
    },
    {
      "inputs": [],
      "name": "NotOwner",
      "type": "error"
    },
    {
      "anonymous": false,
      "inputs": [
        {
          "indexed": true,
          "internalType": "address",
          "name": "previousOwner",
          "type": "address"
        },
        {
          "indexed": true,
          "internalType": "address",
          "name": "newOwner",
          "type": "address"
        }
      ],
      "name": "OwnershipTransferred",
      "type": "event"
    },
    {
      "anonymous": false,
      "inputs": [
        {
          "indexed": true,
          "internalType": "address",
          "name": "smartAccount",
          "type": "address"
        },
        {
          "indexed": true,
          "internalType": "address",
          "name": "user",
          "type": "address"
        }
      ],
      "name": "SmartAccountDeployed",
      "type": "event"
    },
    {
      "inputs": [
        {
          "internalType": "bytes32",
          "name": "salt",
          "type": "bytes32"
        },
        {
          "internalType": "bytes",
          "name": "creationCode",
          "type": "bytes"
        }
      ],
      "name": "deploy",
      "outputs": [
        {
          "internalType": "address",
          "name": "deployed",
          "type": "address"
        }
      ],
      "stateMutability": "payable",
      "type": "function"
    },
    {
      "inputs": [
        {
          "internalType": "bytes32",
          "name": "salt",
          "type": "bytes32"
        },
        {
          "internalType": "bytes",
          "name": "creationCode",
          "type": "bytes"
        },
        {
          "internalType": "address",
          "name": "user",
          "type": "address"
        }
      ],
      "name": "deployForUser",
      "outputs": [
        {
          "internalType": "address",
          "name": "deployed",
          "type": "address"
        }
      ],
      "stateMutability": "payable",
      "type": "function"
    },
    {
      "inputs": [
        {
          "internalType": "address",
          "name": "deployer",
          "type": "address"
        },
        {
          "internalType": "bytes32",
          "name": "salt",
          "type": "bytes32"
        }
      ],
      "name": "getDeployed",
      "outputs": [
        {
          "internalType": "address",
          "name": "deployed",
          "type": "address"
        }
      ],
      "stateMutability": "view",
      "type": "function"
    },
    {
      "inputs": [],
      "name": "owner",
      "outputs": [
        {
          "internalType": "address",
          "name": "",
          "type": "address"
        }
      ],
      "stateMutability": "view",
      "type": "function"
    },
    {
      "inputs": [
        {
          "internalType": "address",
          "name": "newOwner",
          "type": "address"
        }
      ],
      "name": "transferOwnership",
      "outputs": [],
      "stateMutability": "nonpayable",
      "type": "function"
    }
  ],
  "bytecode": "0x6080604052348015600f57600080fd5b50600080546001600160a01b0319163390811782556040519091907f8be0079c531659141344cd1fd0a4f28419497f9722a3daafe3b4186f6b6457e0908290a361075a8061005e6000396000f3fe60806040526004361061004a5760003560e01c806350f1c4641461004f5780636ae573491461008b5780638da5cb5b1461009e578063cdcb760a146100be578063f2fde38b146100d1575b600080fd5b34801561005b57600080fd5b5061006f61006a366004610550565b6100f3565b6040516001600160a01b03909116815260200160405180910390f35b61006f61009936600461061f565b610130565b3480156100aa57600080fd5b5060005461006f906001600160a01b031681565b61006f6100cc366004610676565b6101db565b3480156100dd57600080fd5b506100f16100ec3660046106bd565b610213565b005b600082826040516020016101089291906106d8565b604051602081830303815290604052805190602001209150610129826102e9565b9392505050565b600080546001600160a01b0316331461015c576040516330cd747160e01b815260040160405180910390fd5b338460405160200161016f9291906106d8565b6040516020818303038152906040528051906020012093506101928484346102fb565b9050816001600160a01b0316816001600160a01b03167f5707fe91402c9168bcee7b4bc9d1fb1b53ad347493bc97238ed7f83e8317bb1160405160405180910390a39392505050565b600033836040516020016101f09291906106d8565b6040516020818303038152906040528051906020012092506101298383346102fb565b6000546001600160a01b0316331461023e576040516330cd747160e01b815260040160405180910390fd5b6001600160a01b0381166102995760405162461bcd60e51b815260206004820181905260248201527f4e6577206f776e65722063616e6e6f74206265207a65726f206164647265737360448201526064015b60405180910390fd5b600080546001600160a01b038381166001600160a01b0319831681178455604051919092169283917f8be0079c531659141344cd1fd0a4f28419497f9722a3daafe3b4186f6b6457e09190a35050565b60006102f58230610451565b92915050565b6000806040518060400160405280601081526020016f67363d3d37363d34f03d5260086018f360801b81525090506000858251602084016000f590506001600160a01b0381166103815760405162461bcd60e51b81526020600482015260116024820152701111541313d65351539517d19052531151607a1b6044820152606401610290565b61038a866102e9565b92506000816001600160a01b031685876040516103a791906106f5565b60006040518083038185875af1925050503d80600081146103e4576040519150601f19603f3d011682016040523d82523d6000602084013e6103e9565b606091505b5050905080801561040357506001600160a01b0384163b15155b6104475760405162461bcd60e51b815260206004820152601560248201527412539255125053125690551253d397d19052531151605a1b6044820152606401610290565b5050509392505050565b604080518082018252601081526f67363d3d37363d34f03d5260086018f360801b60209182015290516001600160f81b0319918101919091526001600160601b0319606083901b166021820152603581018390527f21c35dbe1b344a2488cf3321d6ce542f8e9f305544ff09e4993a62319a497c1f605582015260009081906104f1906075015b6040516020818303038152906040528051906020012090565b6040516135a560f21b60208201526001600160601b0319606083901b166022820152600160f81b603682015290915061052c906037016104d8565b949350505050565b80356001600160a01b038116811461054b57600080fd5b919050565b6000806040838503121561056357600080fd5b61056c83610534565b946020939093013593505050565b634e487b7160e01b600052604160045260246000fd5b600082601f8301126105a157600080fd5b813567ffffffffffffffff8111156105bb576105bb61057a565b604051601f8201601f19908116603f0116810167ffffffffffffffff811182821017156105ea576105ea61057a565b60405281815283820160200185101561060257600080fd5b816020850160208301376000918101602001919091529392505050565b60008060006060848603121561063457600080fd5b83359250602084013567ffffffffffffffff81111561065257600080fd5b61065e86828701610590565b92505061066d60408501610534565b90509250925092565b6000806040838503121561068957600080fd5b82359150602083013567ffffffffffffffff8111156106a757600080fd5b6106b385828601610590565b9150509250929050565b6000602082840312156106cf57600080fd5b61012982610534565b60609290921b6001600160601b0319168252601482015260340190565b6000825160005b8181101561071657602081860181015185830152016106fc565b50600092019182525091905056fea26469706673582212205184a7a802eb523bb460f45deaccbede6ae18ed6797346556913697b787c21b764736f6c634300081c0033",
  "linkReferences": {},
  "deployedLinkReferences": {}
}