{
  "_format": "hh-sol-artifact-1",
  "contractName": "RomiFactory",
  "sourceName": "contracts/romi/RomiFactory.sol",
  "abi": [
    {
      "inputs": [
        {
          "internalType": "address",
          "name": "_l2Registrar",
          "type": "address"
        }
      ],
      "stateMutability": "nonpayable",
      "type": "constructor"
    },
    {
      "inputs": [],
      "name": "ENSNameNotAvailable",
      "type": "error"
    },
    {
      "inputs": [],
      "name": "ENSRegistrationFailed",
      "type": "error"
    },
    {
      "inputs": [],
      "name": "L2RegistrarNotAvailable",
      "type": "error"
    },
    {
      "inputs": [],
      "name": "NotOwner",
      "type": "error"
    },
    {
      "anonymous": false,
      "inputs": [
        {
          "indexed": true,
          "internalType": "address",
          "name": "newRegistrar",
          "type": "address"
        }
      ],
      "name": "L2RegistrarUpdated",
      "type": "event"
    },
    {
      "anonymous": false,
      "inputs": [
        {
          "indexed": true,
          "internalType": "address",
          "name": "previousOwner",
          "type": "address"
        },
        {
          "indexed": true,
          "internalType": "address",
          "name": "newOwner",
          "type": "address"
        }
      ],
      "name": "OwnershipTransferred",
      "type": "event"
    },
    {
      "anonymous": false,
      "inputs": [
        {
          "indexed": true,
          "internalType": "address",
          "name": "smartAccount",
          "type": "address"
        },
        {
          "indexed": true,
          "internalType": "address",
          "name": "user",
          "type": "address"
        },
        {
          "indexed": false,
          "internalType": "string",
          "name": "ensName",
          "type": "string"
        }
      ],
      "name": "SmartAccountDeployed",
      "type": "event"
    },
    {
      "inputs": [
        {
          "internalType": "string",
          "name": "ensName",
          "type": "string"
        }
      ],
      "name": "checkENSAvailability",
      "outputs": [
        {
          "internalType": "bool",
          "name": "",
          "type": "bool"
        }
      ],
      "stateMutability": "view",
      "type": "function"
    },
    {
      "inputs": [
        {
          "internalType": "bytes32",
          "name": "salt",
          "type": "bytes32"
        },
        {
          "internalType": "bytes",
          "name": "creationCode",
          "type": "bytes"
        }
      ],
      "name": "deploy",
      "outputs": [
        {
          "internalType": "address",
          "name": "deployed",
          "type": "address"
        }
      ],
      "stateMutability": "payable",
      "type": "function"
    },
    {
      "inputs": [
        {
          "internalType": "bytes32",
          "name": "salt",
          "type": "bytes32"
        },
        {
          "internalType": "bytes",
          "name": "creationCode",
          "type": "bytes"
        },
        {
          "internalType": "string",
          "name": "ensName",
          "type": "string"
        },
        {
          "internalType": "address",
          "name": "nameOwner",
          "type": "address"
        }
      ],
      "name": "deployWithENS",
      "outputs": [
        {
          "internalType": "address",
          "name": "deployed",
          "type": "address"
        }
      ],
      "stateMutability": "payable",
      "type": "function"
    },
    {
      "inputs": [
        {
          "internalType": "address",
          "name": "deployer",
          "type": "address"
        },
        {
          "internalType": "bytes32",
          "name": "salt",
          "type": "bytes32"
        }
      ],
      "name": "getDeployed",
      "outputs": [
        {
          "internalType": "address",
          "name": "deployed",
          "type": "address"
        }
      ],
      "stateMutability": "view",
      "type": "function"
    },
    {
      "inputs": [],
      "name": "hasL2Registrar",
      "outputs": [
        {
          "internalType": "bool",
          "name": "",
          "type": "bool"
        }
      ],
      "stateMutability": "view",
      "type": "function"
    },
    {
      "inputs": [],
      "name": "l2Registrar",
      "outputs": [
        {
          "internalType": "contract IL2Registrar",
          "name": "",
          "type": "address"
        }
      ],
      "stateMutability": "view",
      "type": "function"
    },
    {
      "inputs": [],
      "name": "owner",
      "outputs": [
        {
          "internalType": "address",
          "name": "",
          "type": "address"
        }
      ],
      "stateMutability": "view",
      "type": "function"
    },
    {
      "inputs": [
        {
          "internalType": "address",
          "name": "newRegistrar",
          "type": "address"
        }
      ],
      "name": "setL2Registrar",
      "outputs": [],
      "stateMutability": "nonpayable",
      "type": "function"
    },
    {
      "inputs": [
        {
          "internalType": "address",
          "name": "newOwner",
          "type": "address"
        }
      ],
      "name": "transferOwnership",
      "outputs": [],
      "stateMutability": "nonpayable",
      "type": "function"
    }
  ],
  "bytecode": "0x6080604052348015600f57600080fd5b50604051610c86380380610c86833981016040819052602c916086565b60008054336001600160a01b031991821681178355600180549092166001600160a01b038516179091556040519091907f8be0079c531659141344cd1fd0a4f28419497f9722a3daafe3b4186f6b6457e0908290a35060b4565b600060208284031215609757600080fd5b81516001600160a01b038116811460ad57600080fd5b9392505050565b610bc3806100c36000396000f3fe6080604052600436106100865760003560e01c80638da5cb5b116100595780638da5cb5b14610127578063cdcb760a14610147578063d934ba621461015a578063f2fde38b1461017a578063ffaf73701461019c57600080fd5b8063352824b31461008b57806342868203146100bc57806350f1c464146100dc57806385e42e1c14610114575b600080fd5b34801561009757600080fd5b506001546001600160a01b031615155b60405190151581526020015b60405180910390f35b3480156100c857600080fd5b506100a76100d736600461089d565b6101bc565b3480156100e857600080fd5b506100fc6100f73660046108fb565b610262565b6040516001600160a01b0390911681526020016100b3565b6100fc6101223660046109ca565b610298565b34801561013357600080fd5b506000546100fc906001600160a01b031681565b6100fc610155366004610a54565b610486565b34801561016657600080fd5b506001546100fc906001600160a01b031681565b34801561018657600080fd5b5061019a610195366004610a9b565b6104be565b005b3480156101a857600080fd5b5061019a6101b7366004610a9b565b610594565b6001546000906001600160a01b03166101e8576040516303ef92f560e51b815260040160405180910390fd5b60015460405163aeb8ce9b60e01b81526001600160a01b039091169063aeb8ce9b9061021a9086908690600401610adf565b602060405180830381865afa158015610237573d6000803e3d6000fd5b505050506040513d601f19601f8201168201806040525081019061025b9190610af3565b9392505050565b60008282604051602001610277929190610b15565b60405160208183030381529060405280519060200120915061025b82610609565b600080546001600160a01b031633146102c4576040516330cd747160e01b815260040160405180910390fd5b6001546001600160a01b03166102ed576040516303ef92f560e51b815260040160405180910390fd5b60015460405163aeb8ce9b60e01b81526001600160a01b039091169063aeb8ce9b9061031f9087908790600401610adf565b602060405180830381865afa15801561033c573d6000803e3d6000fd5b505050506040513d601f19601f820116820180604052508101906103609190610af3565b61037d576040516318f9cd4b60e01b815260040160405180910390fd5b3386604051602001610390929190610b15565b6040516020818303038152906040528051906020012095506103b386863461061b565b600154604051631e59c52960e01b81529192506001600160a01b031690631e59c529906103e890879087908790600401610b32565b600060405180830381600087803b15801561040257600080fd5b505af1925050508015610413575060015b6104305760405163d7e6561560e01b815260040160405180910390fd5b816001600160a01b0316816001600160a01b03167fb366344a0af5027c7e59da5c8fb7b95dca7d7acd3173388a827100efc397434e8686604051610475929190610adf565b60405180910390a395945050505050565b6000338360405160200161049b929190610b15565b60405160208183030381529060405280519060200120925061025b83833461061b565b6000546001600160a01b031633146104e9576040516330cd747160e01b815260040160405180910390fd5b6001600160a01b0381166105445760405162461bcd60e51b815260206004820181905260248201527f4e6577206f776e65722063616e6e6f74206265207a65726f206164647265737360448201526064015b60405180910390fd5b600080546001600160a01b038381166001600160a01b0319831681178455604051919092169283917f8be0079c531659141344cd1fd0a4f28419497f9722a3daafe3b4186f6b6457e09190a35050565b6000546001600160a01b031633146105bf576040516330cd747160e01b815260040160405180910390fd5b600180546001600160a01b0319166001600160a01b0383169081179091556040517f8ae1b560f9ce6bc96c6a8cf067d08e4b3d7c9fa26242e111288763d2f6104bc490600090a250565b60006106158230610771565b92915050565b6000806040518060400160405280601081526020016f67363d3d37363d34f03d5260086018f360801b81525090506000858251602084016000f590506001600160a01b0381166106a15760405162461bcd60e51b81526020600482015260116024820152701111541313d65351539517d19052531151607a1b604482015260640161053b565b6106aa86610609565b92506000816001600160a01b031685876040516106c79190610b5e565b60006040518083038185875af1925050503d8060008114610704576040519150601f19603f3d011682016040523d82523d6000602084013e610709565b606091505b5050905080801561072357506001600160a01b0384163b15155b6107675760405162461bcd60e51b815260206004820152601560248201527412539255125053125690551253d397d19052531151605a1b604482015260640161053b565b5050509392505050565b604080518082018252601081526f67363d3d37363d34f03d5260086018f360801b60209182015290516001600160f81b0319918101919091526001600160601b0319606083901b166021820152603581018390527f21c35dbe1b344a2488cf3321d6ce542f8e9f305544ff09e4993a62319a497c1f60558201526000908190610811906075015b6040516020818303038152906040528051906020012090565b6040516135a560f21b60208201526001600160601b0319606083901b166022820152600160f81b603682015290915061084c906037016107f8565b949350505050565b60008083601f84011261086657600080fd5b50813567ffffffffffffffff81111561087e57600080fd5b60208301915083602082850101111561089657600080fd5b9250929050565b600080602083850312156108b057600080fd5b823567ffffffffffffffff8111156108c757600080fd5b6108d385828601610854565b90969095509350505050565b80356001600160a01b03811681146108f657600080fd5b919050565b6000806040838503121561090e57600080fd5b610917836108df565b946020939093013593505050565b634e487b7160e01b600052604160045260246000fd5b600082601f83011261094c57600080fd5b813567ffffffffffffffff81111561096657610966610925565b604051601f8201601f19908116603f0116810167ffffffffffffffff8111828210171561099557610995610925565b6040528181528382016020018510156109ad57600080fd5b816020850160208301376000918101602001919091529392505050565b6000806000806000608086880312156109e257600080fd5b85359450602086013567ffffffffffffffff811115610a0057600080fd5b610a0c8882890161093b565b945050604086013567ffffffffffffffff811115610a2957600080fd5b610a3588828901610854565b9094509250610a489050606087016108df565b90509295509295909350565b60008060408385031215610a6757600080fd5b82359150602083013567ffffffffffffffff811115610a8557600080fd5b610a918582860161093b565b9150509250929050565b600060208284031215610aad57600080fd5b61025b826108df565b81835281816020850137506000828201602090810191909152601f909101601f19169091010190565b60208152600061084c602083018486610ab6565b600060208284031215610b0557600080fd5b8151801515811461025b57600080fd5b60609290921b6001600160601b0319168252601482015260340190565b604081526000610b46604083018587610ab6565b905060018060a01b0383166020830152949350505050565b6000825160005b81811015610b7f5760208186018101518583015201610b65565b50600092019182525091905056fea2646970667358221220cc7250ab8cc426d3d35c25a97a34fedc0671f2176fff10e4999da5ba65c29efa64736f6c634300081c0033",
  "linkReferences": {},
  "deployedLinkReferences": {}
}