{
  "_format": "hh-sol-artifact-1",
  "contractName": "RomiFactory",
  "sourceName": "contracts/romi/RomiFactory.sol",
  "abi": [
    {
      "inputs": [
        {
          "internalType": "bytes32",
          "name": "salt",
          "type": "bytes32"
        },
        {
          "internalType": "bytes",
          "name": "creationCode",
          "type": "bytes"
        }
      ],
      "name": "deploy",
      "outputs": [
        {
          "internalType": "address",
          "name": "deployed",
          "type": "address"
        }
      ],
      "stateMutability": "payable",
      "type": "function"
    },
    {
      "inputs": [
        {
          "internalType": "address",
          "name": "deployer",
          "type": "address"
        },
        {
          "internalType": "bytes32",
          "name": "salt",
          "type": "bytes32"
        }
      ],
      "name": "getDeployed",
      "outputs": [
        {
          "internalType": "address",
          "name": "deployed",
          "type": "address"
        }
      ],
      "stateMutability": "view",
      "type": "function"
    }
  ],
  "bytecode": "0x6080604052348015600f57600080fd5b506104d58061001f6000396000f3fe6080604052600436106100295760003560e01c806350f1c4641461002e578063cdcb760a1461006a575b600080fd5b34801561003a57600080fd5b5061004e61004936600461035f565b61007d565b6040516001600160a01b03909116815260200160405180910390f35b61004e6100783660046103ad565b6100c9565b6040516001600160601b0319606084901b166020820152603481018290526000906054016040516020818303038152906040528051906020012091506100c28261010f565b9392505050565b6040516001600160601b03193360601b166020820152603481018390526000906054016040516020818303038152906040528051906020012092506100c2838334610121565b600061011b823061027c565b92915050565b6000806040518060400160405280601081526020016f67363d3d37363d34f03d5260086018f360801b81525090506000858251602084016000f590506001600160a01b0381166101ac5760405162461bcd60e51b81526020600482015260116024820152701111541313d65351539517d19052531151607a1b60448201526064015b60405180910390fd5b6101b58661010f565b92506000816001600160a01b031685876040516101d29190610470565b60006040518083038185875af1925050503d806000811461020f576040519150601f19603f3d011682016040523d82523d6000602084013e610214565b606091505b5050905080801561022e57506001600160a01b0384163b15155b6102725760405162461bcd60e51b815260206004820152601560248201527412539255125053125690551253d397d19052531151605a1b60448201526064016101a3565b5050509392505050565b604080518082018252601081526f67363d3d37363d34f03d5260086018f360801b60209182015290516001600160f81b0319918101919091526001600160601b0319606083901b166021820152603581018390527f21c35dbe1b344a2488cf3321d6ce542f8e9f305544ff09e4993a62319a497c1f6055820152600090819061031c906075015b6040516020818303038152906040528051906020012090565b6040516135a560f21b60208201526001600160601b0319606083901b166022820152600160f81b603682015290915061035790603701610303565b949350505050565b6000806040838503121561037257600080fd5b82356001600160a01b038116811461038957600080fd5b946020939093013593505050565b634e487b7160e01b600052604160045260246000fd5b600080604083850312156103c057600080fd5b82359150602083013567ffffffffffffffff8111156103de57600080fd5b8301601f810185136103ef57600080fd5b803567ffffffffffffffff81111561040957610409610397565b604051601f8201601f19908116603f0116810167ffffffffffffffff8111828210171561043857610438610397565b60405281815282820160200187101561045057600080fd5b816020840160208301376000602083830101528093505050509250929050565b6000825160005b818110156104915760208186018101518583015201610477565b50600092019182525091905056fea2646970667358221220da0c3d3b3b3b7829c0dce4144115bd96ba4effadf09111b1ef2a48fe445c60e564736f6c634300081c0033",
  "linkReferences": {},
  "deployedLinkReferences": {}
}