{
  "_format": "hh-sol-artifact-1",
  "contractName": "L2RegistryFactory",
  "sourceName": "contracts/durin/L2RegistryFactory.sol",
  "abi": [
    {
      "inputs": [
        {
          "internalType": "address",
          "name": "_registryImplementation",
          "type": "address"
        }
      ],
      "stateMutability": "nonpayable",
      "type": "constructor"
    },
    {
      "inputs": [],
      "name": "FailedDeployment",
      "type": "error"
    },
    {
      "inputs": [
        {
          "internalType": "uint256",
          "name": "balance",
          "type": "uint256"
        },
        {
          "internalType": "uint256",
          "name": "needed",
          "type": "uint256"
        }
      ],
      "name": "InsufficientBalance",
      "type": "error"
    },
    {
      "anonymous": false,
      "inputs": [
        {
          "indexed": false,
          "internalType": "string",
          "name": "name",
          "type": "string"
        },
        {
          "indexed": false,
          "internalType": "address",
          "name": "admin",
          "type": "address"
        },
        {
          "indexed": false,
          "internalType": "address",
          "name": "registry",
          "type": "address"
        }
      ],
      "name": "RegistryDeployed",
      "type": "event"
    },
    {
      "inputs": [
        {
          "internalType": "string",
          "name": "name",
          "type": "string"
        }
      ],
      "name": "deployRegistry",
      "outputs": [
        {
          "internalType": "address",
          "name": "",
          "type": "address"
        }
      ],
      "stateMutability": "nonpayable",
      "type": "function"
    },
    {
      "inputs": [
        {
          "internalType": "string",
          "name": "name",
          "type": "string"
        },
        {
          "internalType": "string",
          "name": "symbol",
          "type": "string"
        },
        {
          "internalType": "string",
          "name": "baseURI",
          "type": "string"
        },
        {
          "internalType": "address",
          "name": "admin",
          "type": "address"
        }
      ],
      "name": "deployRegistry",
      "outputs": [
        {
          "internalType": "address",
          "name": "",
          "type": "address"
        }
      ],
      "stateMutability": "nonpayable",
      "type": "function"
    },
    {
      "inputs": [],
      "name": "registryImplementation",
      "outputs": [
        {
          "internalType": "address",
          "name": "",
          "type": "address"
        }
      ],
      "stateMutability": "view",
      "type": "function"
    }
  ],
  "bytecode": "0x60a060405234801561001057600080fd5b50604051610941380380610941833981810160405281019061003291906100cf565b8073ffffffffffffffffffffffffffffffffffffffff1660808173ffffffffffffffffffffffffffffffffffffffff1681525050506100fc565b600080fd5b600073ffffffffffffffffffffffffffffffffffffffff82169050919050565b600061009c82610071565b9050919050565b6100ac81610091565b81146100b757600080fd5b50565b6000815190506100c9816100a3565b92915050565b6000602082840312156100e5576100e461006c565b5b60006100f3848285016100ba565b91505092915050565b60805161082361011e6000396000818161010101526101e601526108236000f3fe608060405234801561001057600080fd5b50600436106100415760003560e01c80637156a57214610046578063b098df1214610076578063edd0fd7e146100a6575b600080fd5b610060600480360381019061005b919061038d565b6100c4565b60405161006d919061041b565b60405180910390f35b610090600480360381019061008b91906105a3565b6100f9565b60405161009d919061041b565b60405180910390f35b6100ae6101e4565b6040516100bb919061041b565b60405180910390f35b60006100f183836040518060200160405280600081525060405180602001604052806000815250336100f9565b905092915050565b6000806101257f0000000000000000000000000000000000000000000000000000000000000000610208565b90508073ffffffffffffffffffffffffffffffffffffffff16635c6d8da188888888886040518663ffffffff1660e01b815260040161016895949392919061070f565b600060405180830381600087803b15801561018257600080fd5b505af1158015610196573d6000803e3d6000fd5b505050507f2ee60cfa4375b5b9423ac404e920bd8ae8f78d7742602aa26a9b62d7aa65be5b878785846040516101cf949392919061076b565b60405180910390a18091505095945050505050565b7f000000000000000000000000000000000000000000000000000000000000000081565b600061021582600061021c565b9050919050565b6000814710156102655747826040517fcf47918100000000000000000000000000000000000000000000000000000000815260040161025c9291906107c4565b60405180910390fd5b763d602d80600a3d3981f3363d3d373d3d3d363d730000008360601b60e81c176000526e5af43d82803e903d91602b57fd5bf38360781b176020526037600983f09050600073ffffffffffffffffffffffffffffffffffffffff168173ffffffffffffffffffffffffffffffffffffffff160361030e576040517fb06ebf3d00000000000000000000000000000000000000000000000000000000815260040160405180910390fd5b92915050565b6000604051905090565b600080fd5b600080fd5b600080fd5b600080fd5b600080fd5b60008083601f84011261034d5761034c610328565b5b8235905067ffffffffffffffff81111561036a5761036961032d565b5b60208301915083600182028301111561038657610385610332565b5b9250929050565b600080602083850312156103a4576103a361031e565b5b600083013567ffffffffffffffff8111156103c2576103c1610323565b5b6103ce85828601610337565b92509250509250929050565b600073ffffffffffffffffffffffffffffffffffffffff82169050919050565b6000610405826103da565b9050919050565b610415816103fa565b82525050565b6000602082019050610430600083018461040c565b92915050565b600080fd5b6000601f19601f8301169050919050565b7f4e487b7100000000000000000000000000000000000000000000000000000000600052604160045260246000fd5b6104848261043b565b810181811067ffffffffffffffff821117156104a3576104a261044c565b5b80604052505050565b60006104b6610314565b90506104c2828261047b565b919050565b600067ffffffffffffffff8211156104e2576104e161044c565b5b6104eb8261043b565b9050602081019050919050565b82818337600083830152505050565b600061051a610515846104c7565b6104ac565b90508281526020810184848401111561053657610535610436565b5b6105418482856104f8565b509392505050565b600082601f83011261055e5761055d610328565b5b813561056e848260208601610507565b91505092915050565b610580816103fa565b811461058b57600080fd5b50565b60008135905061059d81610577565b92915050565b6000806000806000608086880312156105bf576105be61031e565b5b600086013567ffffffffffffffff8111156105dd576105dc610323565b5b6105e988828901610337565b9550955050602086013567ffffffffffffffff81111561060c5761060b610323565b5b61061888828901610549565b935050604086013567ffffffffffffffff81111561063957610638610323565b5b61064588828901610549565b92505060606106568882890161058e565b9150509295509295909350565b600082825260208201905092915050565b60006106808385610663565b935061068d8385846104f8565b6106968361043b565b840190509392505050565b600081519050919050565b60005b838110156106ca5780820151818401526020810190506106af565b60008484015250505050565b60006106e1826106a1565b6106eb8185610663565b93506106fb8185602086016106ac565b6107048161043b565b840191505092915050565b6000608082019050818103600083015261072a818789610674565b9050818103602083015261073e81866106d6565b9050818103604083015261075281856106d6565b9050610761606083018461040c565b9695505050505050565b60006060820190508181036000830152610786818688610674565b9050610795602083018561040c565b6107a2604083018461040c565b95945050505050565b6000819050919050565b6107be816107ab565b82525050565b60006040820190506107d960008301856107b5565b6107e660208301846107b5565b939250505056fea2646970667358221220885cae6bdcfbaee37fbca8a7da72d5b5b32589d9fc18cffde5b21a4d77df2b3364736f6c634300081c0033",
  "linkReferences": {},
  "deployedLinkReferences": {}
}