{
  "_format": "hh-sol-artifact-1",
  "contractName": "L2RegistryFactory",
  "sourceName": "contracts/durin/L2RegistryFactory.sol",
  "abi": [
    {
      "inputs": [
        {
          "internalType": "address",
          "name": "_registryImplementation",
          "type": "address"
        }
      ],
      "stateMutability": "nonpayable",
      "type": "constructor"
    },
    {
      "inputs": [],
      "name": "FailedDeployment",
      "type": "error"
    },
    {
      "inputs": [
        {
          "internalType": "uint256",
          "name": "balance",
          "type": "uint256"
        },
        {
          "internalType": "uint256",
          "name": "needed",
          "type": "uint256"
        }
      ],
      "name": "InsufficientBalance",
      "type": "error"
    },
    {
      "anonymous": false,
      "inputs": [
        {
          "indexed": false,
          "internalType": "string",
          "name": "name",
          "type": "string"
        },
        {
          "indexed": false,
          "internalType": "address",
          "name": "admin",
          "type": "address"
        },
        {
          "indexed": false,
          "internalType": "address",
          "name": "registry",
          "type": "address"
        }
      ],
      "name": "RegistryDeployed",
      "type": "event"
    },
    {
      "inputs": [
        {
          "internalType": "string",
          "name": "name",
          "type": "string"
        }
      ],
      "name": "deployRegistry",
      "outputs": [
        {
          "internalType": "address",
          "name": "",
          "type": "address"
        }
      ],
      "stateMutability": "nonpayable",
      "type": "function"
    },
    {
      "inputs": [
        {
          "internalType": "string",
          "name": "name",
          "type": "string"
        },
        {
          "internalType": "string",
          "name": "symbol",
          "type": "string"
        },
        {
          "internalType": "string",
          "name": "baseURI",
          "type": "string"
        },
        {
          "internalType": "address",
          "name": "admin",
          "type": "address"
        }
      ],
      "name": "deployRegistry",
      "outputs": [
        {
          "internalType": "address",
          "name": "",
          "type": "address"
        }
      ],
      "stateMutability": "nonpayable",
      "type": "function"
    },
    {
      "inputs": [],
      "name": "registryImplementation",
      "outputs": [
        {
          "internalType": "address",
          "name": "",
          "type": "address"
        }
      ],
      "stateMutability": "view",
      "type": "function"
    }
  ],
  "bytecode": "0x60a0604052348015600f57600080fd5b506040516105d73803806105d7833981016040819052602c91603c565b6001600160a01b0316608052606a565b600060208284031215604d57600080fd5b81516001600160a01b0381168114606357600080fd5b9392505050565b60805161054d61008a60003960008181608d015260ed015261054d6000f3fe608060405234801561001057600080fd5b50600436106100415760003560e01c80637156a57214610046578063b098df1214610075578063edd0fd7e14610088575b600080fd5b61005961005436600461027c565b6100af565b6040516001600160a01b03909116815260200160405180910390f35b610059610083366004610363565b6100e5565b6100597f000000000000000000000000000000000000000000000000000000000000000081565b60006100dc83836040518060200160405280600081525060405180602001604052806000815250336100e5565b90505b92915050565b6000806101117f00000000000000000000000000000000000000000000000000000000000000006101c1565b604051635c6d8da160e01b81529091506001600160a01b03821690635c6d8da190610148908a908a908a908a908a9060040161048d565b600060405180830381600087803b15801561016257600080fd5b505af1158015610176573d6000803e3d6000fd5b505050507f2ee60cfa4375b5b9423ac404e920bd8ae8f78d7742602aa26a9b62d7aa65be5b878785846040516101af94939291906104e2565b60405180910390a19695505050505050565b60006100df828280763d602d80600a3d3981f3363d3d373d3d3d363d730000008360601b60e81c176000526e5af43d82803e903d91602b57fd5bf38360781b176020526037600983f090506001600160a01b0381166100df5760405163b06ebf3d60e01b815260040160405180910390fd5b60008083601f84011261024557600080fd5b50813567ffffffffffffffff81111561025d57600080fd5b60208301915083602082850101111561027557600080fd5b9250929050565b6000806020838503121561028f57600080fd5b823567ffffffffffffffff8111156102a657600080fd5b6102b285828601610233565b90969095509350505050565b634e487b7160e01b600052604160045260246000fd5b600082601f8301126102e557600080fd5b813567ffffffffffffffff8111156102ff576102ff6102be565b604051601f8201601f19908116603f0116810167ffffffffffffffff8111828210171561032e5761032e6102be565b60405281815283820160200185101561034657600080fd5b816020850160208301376000918101602001919091529392505050565b60008060008060006080868803121561037b57600080fd5b853567ffffffffffffffff81111561039257600080fd5b61039e88828901610233565b909650945050602086013567ffffffffffffffff8111156103be57600080fd5b6103ca888289016102d4565b935050604086013567ffffffffffffffff8111156103e757600080fd5b6103f3888289016102d4565b92505060608601356001600160a01b038116811461041057600080fd5b809150509295509295909350565b81835281816020850137506000828201602090810191909152601f909101601f19169091010190565b6000815180845260005b8181101561046d57602081850181015186830182015201610451565b506000602082860101526020601f19601f83011685010191505092915050565b6080815260006104a160808301878961041e565b82810360208401526104b38187610447565b905082810360408401526104c78186610447565b91505060018060a01b03831660608301529695505050505050565b6060815260006104f660608301868861041e565b6001600160a01b03948516602084015292909316604090910152939250505056fea2646970667358221220966b5e8396b3e358b5850c4707351cc15bca9162d541759e22ba179cacb1cff164736f6c634300081c0033",
  "linkReferences": {},
  "deployedLinkReferences": {}
}