{
  "_format": "hh-sol-artifact-1",
  "contractName": "SmartAccount",
  "sourceName": "contracts/SmartAccount.sol",
  "abi": [
    {
      "inputs": [
        {
          "internalType": "address",
          "name": "_userEOA",
          "type": "address"
        },
        {
          "internalType": "address",
          "name": "_swapRouter",
          "type": "address"
        }
      ],
      "stateMutability": "nonpayable",
      "type": "constructor"
    },
    {
      "inputs": [],
      "name": "ECDSAInvalidSignature",
      "type": "error"
    },
    {
      "inputs": [
        {
          "internalType": "uint256",
          "name": "length",
          "type": "uint256"
        }
      ],
      "name": "ECDSAInvalidSignatureLength",
      "type": "error"
    },
    {
      "inputs": [
        {
          "internalType": "bytes32",
          "name": "s",
          "type": "bytes32"
        }
      ],
      "name": "ECDSAInvalidSignatureS",
      "type": "error"
    },
    {
      "anonymous": false,
      "inputs": [
        {
          "indexed": true,
          "internalType": "uint64",
          "name": "sourceChainSelector",
          "type": "uint64"
        },
        {
          "indexed": false,
          "internalType": "bytes",
          "name": "sender",
          "type": "bytes"
        },
        {
          "indexed": false,
          "internalType": "bytes",
          "name": "data",
          "type": "bytes"
        }
      ],
      "name": "MessageReceived",
      "type": "event"
    },
    {
      "inputs": [
        {
          "internalType": "bytes",
          "name": "oneInchData",
          "type": "bytes"
        },
        {
          "internalType": "address",
          "name": "tokenOut",
          "type": "address"
        }
      ],
      "name": "executeSwap",
      "outputs": [],
      "stateMutability": "payable",
      "type": "function"
    },
    {
      "inputs": [],
      "name": "nonce",
      "outputs": [
        {
          "internalType": "uint256",
          "name": "",
          "type": "uint256"
        }
      ],
      "stateMutability": "view",
      "type": "function"
    },
    {
      "inputs": [],
      "name": "swapRouter",
      "outputs": [
        {
          "internalType": "address",
          "name": "",
          "type": "address"
        }
      ],
      "stateMutability": "view",
      "type": "function"
    },
    {
      "inputs": [
        {
          "internalType": "address",
          "name": "preferredToken",
          "type": "address"
        },
        {
          "internalType": "uint64",
          "name": "destinationChainSelector",
          "type": "uint64"
        },
        {
          "internalType": "address",
          "name": "destinationWallet",
          "type": "address"
        },
        {
          "internalType": "uint256",
          "name": "signedNonce",
          "type": "uint256"
        },
        {
          "internalType": "bytes",
          "name": "signature",
          "type": "bytes"
        }
      ],
      "name": "updateConfigWithSig",
      "outputs": [],
      "stateMutability": "nonpayable",
      "type": "function"
    },
    {
      "inputs": [],
      "name": "userConfig",
      "outputs": [
        {
          "internalType": "address",
          "name": "preferredToken",
          "type": "address"
        },
        {
          "internalType": "uint64",
          "name": "destinationChainSelector",
          "type": "uint64"
        },
        {
          "internalType": "address",
          "name": "destinationWallet",
          "type": "address"
        }
      ],
      "stateMutability": "view",
      "type": "function"
    },
    {
      "inputs": [],
      "name": "userEOA",
      "outputs": [
        {
          "internalType": "address",
          "name": "",
          "type": "address"
        }
      ],
      "stateMutability": "view",
      "type": "function"
    },
    {
      "inputs": [],
      "name": "walletName",
      "outputs": [
        {
          "internalType": "string",
          "name": "",
          "type": "string"
        }
      ],
      "stateMutability": "pure",
      "type": "function"
    },
    {
      "stateMutability": "payable",
      "type": "receive"
    }
  ],
  "bytecode": "0x60e060405234801561001057600080fd5b506040516114903803806114908339818101604052810190610032919061019a565b8173ffffffffffffffffffffffffffffffffffffffff1660808173ffffffffffffffffffffffffffffffffffffffff16815250508073ffffffffffffffffffffffffffffffffffffffff1660a08173ffffffffffffffffffffffffffffffffffffffff16815250507f8b73c3c69bb8fe3d512ecc4cf759cc79239f7b179b0ffacaa9a75d522b39400f7f96e6e78822391813ff7d8d158046148039a355a6c1dc7bac08cb54ceeb6503d47fc89efdaa54c0f20c7adf612882df0950f5a951637e0307cdcb4c672f298b8bc6463060405160200161011395949392919061021b565b6040516020818303038152906040528051906020012060c08181525050505061026e565b600080fd5b600073ffffffffffffffffffffffffffffffffffffffff82169050919050565b60006101678261013c565b9050919050565b6101778161015c565b811461018257600080fd5b50565b6000815190506101948161016e565b92915050565b600080604083850312156101b1576101b0610137565b5b60006101bf85828601610185565b92505060206101d085828601610185565b9150509250929050565b6000819050919050565b6101ed816101da565b82525050565b6000819050919050565b610206816101f3565b82525050565b6102158161015c565b82525050565b600060a08201905061023060008301886101e4565b61023d60208301876101e4565b61024a60408301866101e4565b61025760608301856101fd565b610264608083018461020c565b9695505050505050565b60805160a05160c0516111e56102ab600039600061040f015260008181610235015261067e0152600081816104b501526106df01526111e56000f3fe6080604052600436106100745760003560e01c8063affed0e01161004e578063affed0e0146100f2578063c31c9c071461011d578063cf8d8ca014610148578063ff29c363146101735761007b565b80633c163ce01461008057806378d076851461009c5780637bd39ecd146100c95761007b565b3661007b57005b600080fd5b61009a60048036038101906100959190610aae565b61019e565b005b3480156100a857600080fd5b506100b1610308565b6040516100c093929190610b40565b60405180910390f35b3480156100d557600080fd5b506100f060048036038101906100eb9190610bd9565b610374565b005b3480156100fe57600080fd5b50610107610676565b6040516101149190610c82565b60405180910390f35b34801561012957600080fd5b5061013261067c565b60405161013f9190610c9d565b60405180910390f35b34801561015457600080fd5b5061015d6106a0565b60405161016a9190610d48565b60405180910390f35b34801561017f57600080fd5b506101886106dd565b6040516101959190610c9d565b60405180910390f35b806000800160009054906101000a900473ffffffffffffffffffffffffffffffffffffffff1673ffffffffffffffffffffffffffffffffffffffff168173ffffffffffffffffffffffffffffffffffffffff1614610231576040517f08c379a000000000000000000000000000000000000000000000000000000000815260040161022890610db6565b60405180910390fd5b60007f000000000000000000000000000000000000000000000000000000000000000073ffffffffffffffffffffffffffffffffffffffff1634868660405161027b929190610e15565b60006040518083038185875af1925050503d80600081146102b8576040519150601f19603f3d011682016040523d82523d6000602084013e6102bd565b606091505b5050905080610301576040517f08c379a00000000000000000000000000000000000000000000000000000000081526004016102f890610e7a565b60405180910390fd5b5050505050565b60008060000160009054906101000a900473ffffffffffffffffffffffffffffffffffffffff16908060000160149054906101000a900467ffffffffffffffff16908060010160009054906101000a900473ffffffffffffffffffffffffffffffffffffffff16905083565b60025483146103b8576040517f08c379a00000000000000000000000000000000000000000000000000000000081526004016103af90610ee6565b60405180910390fd5b60007f162cfc61d68a69ebdc7f542625de8868f4e60d88ed53676b65afa982bd5f0bcd878787876040516020016103f3959493929190610f1f565b60405160208183030381529060405280519060200120905060007f000000000000000000000000000000000000000000000000000000000000000082604051602001610440929190610fea565b60405160208183030381529060405280519060200120905060006104b185858080601f016020809104026020016040519081016040528093929190818152602001838380828437600081840152601f19601f820116905080830192505050505050508361070190919063ffffffff16565b90507f000000000000000000000000000000000000000000000000000000000000000073ffffffffffffffffffffffffffffffffffffffff168173ffffffffffffffffffffffffffffffffffffffff1614610541576040517f08c379a00000000000000000000000000000000000000000000000000000000081526004016105389061106d565b60405180910390fd5b60405180606001604052808a73ffffffffffffffffffffffffffffffffffffffff1681526020018967ffffffffffffffff1681526020018873ffffffffffffffffffffffffffffffffffffffff168152506000808201518160000160006101000a81548173ffffffffffffffffffffffffffffffffffffffff021916908373ffffffffffffffffffffffffffffffffffffffff16021790555060208201518160000160146101000a81548167ffffffffffffffff021916908367ffffffffffffffff16021790555060408201518160010160006101000a81548173ffffffffffffffffffffffffffffffffffffffff021916908373ffffffffffffffffffffffffffffffffffffffff16021790555090505060026000815480929190610666906110bc565b9190505550505050505050505050565b60025481565b7f000000000000000000000000000000000000000000000000000000000000000081565b60606040518060400160405280601281526020017f526f6d6920536d617274204163636f756e740000000000000000000000000000815250905090565b7f000000000000000000000000000000000000000000000000000000000000000081565b600080600080610711868661072d565b9250925092506107218282610789565b82935050505092915050565b600080600060418451036107725760008060006020870151925060408701519150606087015160001a9050610764888285856108ed565b955095509550505050610782565b60006002855160001b9250925092505b9250925092565b6000600381111561079d5761079c611104565b5b8260038111156107b0576107af611104565b5b03156108e957600160038111156107ca576107c9611104565b5b8260038111156107dd576107dc611104565b5b03610814576040517ff645eedf00000000000000000000000000000000000000000000000000000000815260040160405180910390fd5b6002600381111561082857610827611104565b5b82600381111561083b5761083a611104565b5b03610880578060001c6040517ffce698f70000000000000000000000000000000000000000000000000000000081526004016108779190610c82565b60405180910390fd5b60038081111561089357610892611104565b5b8260038111156108a6576108a5611104565b5b036108e857806040517fd78bce0c0000000000000000000000000000000000000000000000000000000081526004016108df9190611133565b60405180910390fd5b5b5050565b60008060007f7fffffffffffffffffffffffffffffff5d576e7357a4501ddfe92f46681b20a08460001c111561092d5760006003859250925092506109d7565b600060018888888860405160008152602001604052604051610952949392919061116a565b6020604051602081039080840390855afa158015610974573d6000803e3d6000fd5b505050602060405103519050600073ffffffffffffffffffffffffffffffffffffffff168173ffffffffffffffffffffffffffffffffffffffff16036109c857600060016000801b935093509350506109d7565b8060008060001b935093509350505b9450945094915050565b600080fd5b600080fd5b600080fd5b600080fd5b600080fd5b60008083601f840112610a1057610a0f6109eb565b5b8235905067ffffffffffffffff811115610a2d57610a2c6109f0565b5b602083019150836001820283011115610a4957610a486109f5565b5b9250929050565b600073ffffffffffffffffffffffffffffffffffffffff82169050919050565b6000610a7b82610a50565b9050919050565b610a8b81610a70565b8114610a9657600080fd5b50565b600081359050610aa881610a82565b92915050565b600080600060408486031215610ac757610ac66109e1565b5b600084013567ffffffffffffffff811115610ae557610ae46109e6565b5b610af1868287016109fa565b93509350506020610b0486828701610a99565b9150509250925092565b610b1781610a70565b82525050565b600067ffffffffffffffff82169050919050565b610b3a81610b1d565b82525050565b6000606082019050610b556000830186610b0e565b610b626020830185610b31565b610b6f6040830184610b0e565b949350505050565b610b8081610b1d565b8114610b8b57600080fd5b50565b600081359050610b9d81610b77565b92915050565b6000819050919050565b610bb681610ba3565b8114610bc157600080fd5b50565b600081359050610bd381610bad565b92915050565b60008060008060008060a08789031215610bf657610bf56109e1565b5b6000610c0489828a01610a99565b9650506020610c1589828a01610b8e565b9550506040610c2689828a01610a99565b9450506060610c3789828a01610bc4565b935050608087013567ffffffffffffffff811115610c5857610c576109e6565b5b610c6489828a016109fa565b92509250509295509295509295565b610c7c81610ba3565b82525050565b6000602082019050610c976000830184610c73565b92915050565b6000602082019050610cb26000830184610b0e565b92915050565b600081519050919050565b600082825260208201905092915050565b60005b83811015610cf2578082015181840152602081019050610cd7565b60008484015250505050565b6000601f19601f8301169050919050565b6000610d1a82610cb8565b610d248185610cc3565b9350610d34818560208601610cd4565b610d3d81610cfe565b840191505092915050565b60006020820190508181036000830152610d628184610d0f565b905092915050565b7f496e76616c696420746f6b656e4f757400000000000000000000000000000000600082015250565b6000610da0601083610cc3565b9150610dab82610d6a565b602082019050919050565b60006020820190508181036000830152610dcf81610d93565b9050919050565b600081905092915050565b82818337600083830152505050565b6000610dfc8385610dd6565b9350610e09838584610de1565b82840190509392505050565b6000610e22828486610df0565b91508190509392505050565b7f53776170206661696c6564000000000000000000000000000000000000000000600082015250565b6000610e64600b83610cc3565b9150610e6f82610e2e565b602082019050919050565b60006020820190508181036000830152610e9381610e57565b9050919050565b7f496e76616c6964206e6f6e636500000000000000000000000000000000000000600082015250565b6000610ed0600d83610cc3565b9150610edb82610e9a565b602082019050919050565b60006020820190508181036000830152610eff81610ec3565b9050919050565b6000819050919050565b610f1981610f06565b82525050565b600060a082019050610f346000830188610f10565b610f416020830187610b0e565b610f4e6040830186610b31565b610f5b6060830185610b0e565b610f686080830184610c73565b9695505050505050565b600081905092915050565b7f1901000000000000000000000000000000000000000000000000000000000000600082015250565b6000610fb3600283610f72565b9150610fbe82610f7d565b600282019050919050565b6000819050919050565b610fe4610fdf82610f06565b610fc9565b82525050565b6000610ff582610fa6565b91506110018285610fd3565b6020820191506110118284610fd3565b6020820191508190509392505050565b7f496e76616c6964207369676e6174757265000000000000000000000000000000600082015250565b6000611057601183610cc3565b915061106282611021565b602082019050919050565b600060208201905081810360008301526110868161104a565b9050919050565b7f4e487b7100000000000000000000000000000000000000000000000000000000600052601160045260246000fd5b60006110c782610ba3565b91507fffffffffffffffffffffffffffffffffffffffffffffffffffffffffffffffff82036110f9576110f861108d565b5b600182019050919050565b7f4e487b7100000000000000000000000000000000000000000000000000000000600052602160045260246000fd5b60006020820190506111486000830184610f10565b92915050565b600060ff82169050919050565b6111648161114e565b82525050565b600060808201905061117f6000830187610f10565b61118c602083018661115b565b6111996040830185610f10565b6111a66060830184610f10565b9594505050505056fea2646970667358221220802f37cecabf4cd46a002af9cb54b265bcbd876840c20d12c01822033d54a41164736f6c634300081c0033",
  "linkReferences": {},
  "deployedLinkReferences": {}
}