{
  "_format": "hh-sol-artifact-1",
  "contractName": "RomiSmartAccount",
  "sourceName": "contracts/romi/RomiSmartAccount.sol",
  "abi": [
    {
      "inputs": [
        {
          "internalType": "address",
          "name": "initialOwner",
          "type": "address"
        },
        {
          "internalType": "uint256",
          "name": "initialNextNonce",
          "type": "uint256"
        }
      ],
      "stateMutability": "nonpayable",
      "type": "constructor"
    },
    {
      "inputs": [],
      "name": "ECDSAInvalidSignature",
      "type": "error"
    },
    {
      "inputs": [
        {
          "internalType": "uint256",
          "name": "length",
          "type": "uint256"
        }
      ],
      "name": "ECDSAInvalidSignatureLength",
      "type": "error"
    },
    {
      "inputs": [
        {
          "internalType": "bytes32",
          "name": "s",
          "type": "bytes32"
        }
      ],
      "name": "ECDSAInvalidSignatureS",
      "type": "error"
    },
    {
      "inputs": [
        {
          "internalType": "address",
          "name": "owner",
          "type": "address"
        }
      ],
      "name": "OwnableInvalidOwner",
      "type": "error"
    },
    {
      "inputs": [
        {
          "internalType": "address",
          "name": "account",
          "type": "address"
        }
      ],
      "name": "OwnableUnauthorizedAccount",
      "type": "error"
    },
    {
      "inputs": [
        {
          "internalType": "string",
          "name": "str",
          "type": "string"
        }
      ],
      "name": "StringTooLong",
      "type": "error"
    },
    {
      "anonymous": false,
      "inputs": [
        {
          "indexed": true,
          "internalType": "address",
          "name": "previousOwner",
          "type": "address"
        },
        {
          "indexed": true,
          "internalType": "address",
          "name": "newOwner",
          "type": "address"
        }
      ],
      "name": "OwnershipTransferred",
      "type": "event"
    },
    {
      "inputs": [],
      "name": "config",
      "outputs": [
        {
          "internalType": "address",
          "name": "token",
          "type": "address"
        },
        {
          "internalType": "uint256",
          "name": "chainId",
          "type": "uint256"
        }
      ],
      "stateMutability": "view",
      "type": "function"
    },
    {
      "inputs": [],
      "name": "nextNonce",
      "outputs": [
        {
          "internalType": "uint256",
          "name": "",
          "type": "uint256"
        }
      ],
      "stateMutability": "view",
      "type": "function"
    },
    {
      "inputs": [],
      "name": "owner",
      "outputs": [
        {
          "internalType": "address",
          "name": "",
          "type": "address"
        }
      ],
      "stateMutability": "view",
      "type": "function"
    },
    {
      "inputs": [],
      "name": "renounceOwnership",
      "outputs": [],
      "stateMutability": "nonpayable",
      "type": "function"
    },
    {
      "inputs": [
        {
          "internalType": "address",
          "name": "token",
          "type": "address"
        },
        {
          "internalType": "address",
          "name": "to",
          "type": "address"
        },
        {
          "internalType": "uint256",
          "name": "amount",
          "type": "uint256"
        }
      ],
      "name": "transferERC20",
      "outputs": [],
      "stateMutability": "nonpayable",
      "type": "function"
    },
    {
      "inputs": [
        {
          "internalType": "address payable",
          "name": "to",
          "type": "address"
        },
        {
          "internalType": "uint256",
          "name": "amount",
          "type": "uint256"
        }
      ],
      "name": "transferNative",
      "outputs": [],
      "stateMutability": "nonpayable",
      "type": "function"
    },
    {
      "inputs": [
        {
          "internalType": "address",
          "name": "newOwner",
          "type": "address"
        }
      ],
      "name": "transferOwnership",
      "outputs": [],
      "stateMutability": "nonpayable",
      "type": "function"
    },
    {
      "inputs": [
        {
          "internalType": "address",
          "name": "token",
          "type": "address"
        },
        {
          "internalType": "uint256",
          "name": "chainId",
          "type": "uint256"
        },
        {
          "internalType": "uint256",
          "name": "nonce",
          "type": "uint256"
        },
        {
          "internalType": "bytes",
          "name": "signature",
          "type": "bytes"
        }
      ],
      "name": "updateConfigWithSig",
      "outputs": [],
      "stateMutability": "nonpayable",
      "type": "function"
    },
    {
      "stateMutability": "payable",
      "type": "receive"
    }
  ],
  "bytecode": "0x61014060405234801561001157600080fd5b5060405161102e38038061102e8339810160408190526100309161021a565b6040805180820182526012815271149bdb5a4814db585c9d081058d8dbdd5b9d60721b602080830191909152825180840190935260018352603160f81b9083015290836001600160a01b0381166100a257604051631e4fbdf760e01b8152600060048201526024015b60405180910390fd5b6100ab81610159565b506100b78260016101a9565b610100526100c68160026101a9565b61012052815160208084019190912060c05281519082012060e05261014760c05160e051604080517f91ab3d17e3a50a9d89e63fd30b92be7f5336b03b287bb946787a83a9d62a2766602082015290810192909252606082015230608082015260009060a00160405160208183030381529060405280519060200120905090565b60805250503060a05260055550610423565b600080546001600160a01b038381166001600160a01b0319831681178455604051919092169283917f8be0079c531659141344cd1fd0a4f28419497f9722a3daafe3b4186f6b6457e09190a35050565b60006020835110156101c5576101be836101dc565b90506101d6565b816101d084826102f3565b5060ff90505b92915050565b600080829050601f81511115610207578260405163305a27a960e01b815260040161009991906103b1565b8051610212826103ff565b179392505050565b6000806040838503121561022d57600080fd5b82516001600160a01b038116811461024457600080fd5b6020939093015192949293505050565b634e487b7160e01b600052604160045260246000fd5b600181811c9082168061027e57607f821691505b60208210810361029e57634e487b7160e01b600052602260045260246000fd5b50919050565b601f8211156102ee57806000526020600020601f840160051c810160208510156102cb5750805b601f840160051c820191505b818110156102eb57600081556001016102d7565b50505b505050565b81516001600160401b0381111561030c5761030c610254565b6103208161031a845461026a565b846102a4565b6020601f821160018114610354576000831561033c5750848201515b600019600385901b1c1916600184901b1784556102eb565b600084815260208120601f198516915b828110156103845787850151825560209485019460019092019101610364565b50848210156103a25786840151600019600387901b60f8161c191681555b50505050600190811b01905550565b602081526000825180602084015260005b818110156103df57602081860181015160408684010152016103c2565b506000604082850101526040601f19601f83011684010191505092915050565b8051602080830151919081101561029e5760001960209190910360031b1b16919050565b60805160a05160c05160e0516101005161012051610bc261046c600039600050506000505060006107970152600061076f015260006106f50152600061071e0152610bc26000f3fe60806040526004361061007f5760003560e01c80638da5cb5b1161004e5780638da5cb5b1461012a5780639db5dbe414610152578063d69c3d3014610172578063f2fde38b1461019657600080fd5b806324ac74291461008b578063715018a6146100ad57806379502c55146100c25780637d2e90c21461010a57600080fd5b3661008657005b600080fd5b34801561009757600080fd5b506100ab6100a63660046109d5565b6101b6565b005b3480156100b957600080fd5b506100ab610367565b3480156100ce57600080fd5b506003546004546100e6916001600160a01b03169082565b604080516001600160a01b0390931683526020830191909152015b60405180910390f35b34801561011657600080fd5b506100ab610125366004610a6d565b61037b565b34801561013657600080fd5b506000546040516001600160a01b039091168152602001610101565b34801561015e57600080fd5b506100ab61016d366004610a99565b610472565b34801561017e57600080fd5b5061018860055481565b604051908152602001610101565b3480156101a257600080fd5b506100ab6101b1366004610ada565b6105d1565b60055483146101fc5760405162461bcd60e51b815260206004820152600d60248201526c496e76616c6964206e6f6e636560981b60448201526064015b60405180910390fd5b604080517fad405fbca9318a89865a8f08877fd6b72e784b5dd62469794ea51ccadd89d4cb60208201526001600160a01b03871691810191909152606081018590526080810184905260009060a001604051602081830303815290604052805190602001209050600061026e8261060f565b905060006102b28286868080601f01602080910402602001604051908101604052809392919081815260200183838082843760009201919091525061064292505050565b90506102c66000546001600160a01b031690565b6001600160a01b0316816001600160a01b03161461031a5760405162461bcd60e51b8152602060048201526011602482015270496e76616c6964207369676e617475726560781b60448201526064016101f3565b604080518082019091526001600160a01b0389168082526020909101889052600380546001600160a01b031916909117905560048790558561035b81610afe565b50505050505050505050565b61036f61066c565b6103796000610699565b565b61038361066c565b804710156103ca5760405162461bcd60e51b8152602060048201526014602482015273496e73756666696369656e742062616c616e636560601b60448201526064016101f3565b6000826001600160a01b03168260405160006040518083038185875af1925050503d8060008114610417576040519150601f19603f3d011682016040523d82523d6000602084013e61041c565b606091505b505090508061046d5760405162461bcd60e51b815260206004820152601c60248201527f4e617469766520746f6b656e207472616e73666572206661696c65640000000060448201526064016101f3565b505050565b61047a61066c565b6001600160a01b0383166104c05760405162461bcd60e51b815260206004820152600d60248201526c24b73b30b634b2103a37b5b2b760991b60448201526064016101f3565b6040516001600160a01b03838116602483015260448201839052600091829186169060640160408051601f198184030181529181526020820180516001600160e01b031663a9059cbb60e01b1790525161051a9190610b25565b6000604051808303816000865af19150503d8060008114610557576040519150601f19603f3d011682016040523d82523d6000602084013e61055c565b606091505b50915091508180156105865750805115806105865750808060200190518101906105869190610b54565b6105ca5760405162461bcd60e51b8152602060048201526015602482015274151bdad95b881d1c985b9cd9995c8819985a5b1959605a1b60448201526064016101f3565b5050505050565b6105d961066c565b6001600160a01b03811661060357604051631e4fbdf760e01b8152600060048201526024016101f3565b61060c81610699565b50565b600061063c61061c6106e9565b8360405161190160f01b8152600281019290925260228201526042902090565b92915050565b60008060008061065286866107e7565b9250925092506106628282610834565b5090949350505050565b6000546001600160a01b031633146103795760405163118cdaa760e01b81523360048201526024016101f3565b600080546001600160a01b038381166001600160a01b0319831681178455604051919092169283917f8be0079c531659141344cd1fd0a4f28419497f9722a3daafe3b4186f6b6457e09190a35050565b60006001600160a01b037f000000000000000000000000000000000000000000000000000000000000000016300361074057507f000000000000000000000000000000000000000000000000000000000000000090565b6107e2604080517f91ab3d17e3a50a9d89e63fd30b92be7f5336b03b287bb946787a83a9d62a276660208201527f0000000000000000000000000000000000000000000000000000000000000000918101919091527f0000000000000000000000000000000000000000000000000000000000000000606082015230608082015260009060a00160405160208183030381529060405280519060200120905090565b905090565b600080600083516041036108215760208401516040850151606086015160001a610813888285856108f1565b95509550955050505061082d565b50508151600091506002905b9250925092565b600082600381111561084857610848610b76565b03610851575050565b600182600381111561086557610865610b76565b036108835760405163f645eedf60e01b815260040160405180910390fd5b600282600381111561089757610897610b76565b036108b85760405163fce698f760e01b8152600481018290526024016101f3565b60038260038111156108cc576108cc610b76565b036108ed576040516335e2f38360e21b8152600481018290526024016101f3565b5050565b600080807f7fffffffffffffffffffffffffffffff5d576e7357a4501ddfe92f46681b20a084111561092c57506000915060039050826109b6565b604080516000808252602082018084528a905260ff891692820192909252606081018790526080810186905260019060a0016020604051602081039080840390855afa158015610980573d6000803e3d6000fd5b5050604051601f1901519150506001600160a01b0381166109ac575060009250600191508290506109b6565b9250600091508190505b9450945094915050565b6001600160a01b038116811461060c57600080fd5b6000806000806000608086880312156109ed57600080fd5b85356109f8816109c0565b94506020860135935060408601359250606086013567ffffffffffffffff811115610a2257600080fd5b8601601f81018813610a3357600080fd5b803567ffffffffffffffff811115610a4a57600080fd5b886020828401011115610a5c57600080fd5b959894975092955050506020019190565b60008060408385031215610a8057600080fd5b8235610a8b816109c0565b946020939093013593505050565b600080600060608486031215610aae57600080fd5b8335610ab9816109c0565b92506020840135610ac9816109c0565b929592945050506040919091013590565b600060208284031215610aec57600080fd5b8135610af7816109c0565b9392505050565b600060018201610b1e57634e487b7160e01b600052601160045260246000fd5b5060010190565b6000825160005b81811015610b465760208186018101518583015201610b2c565b506000920191825250919050565b600060208284031215610b6657600080fd5b81518015158114610af757600080fd5b634e487b7160e01b600052602160045260246000fdfea26469706673582212200358e104ac78eb9c93d59070861064c5de41d53f145a7ee5cea07e3ff7403d0064736f6c634300081c0033",
  "linkReferences": {},
  "deployedLinkReferences": {}
}