{
  "_format": "hh-sol-artifact-1",
  "contractName": "RomiSmartAccount",
  "sourceName": "contracts/romi/RomiSmartAccount.sol",
  "abi": [
    {
      "inputs": [
        {
          "internalType": "address",
          "name": "initialOwner",
          "type": "address"
        },
        {
          "internalType": "uint256",
          "name": "initialNextNonce",
          "type": "uint256"
        },
        {
          "internalType": "address",
          "name": "oneInchRouterAddress",
          "type": "address"
        },
        {
          "internalType": "address",
          "name": "chainLinkAddress",
          "type": "address"
        }
      ],
      "stateMutability": "nonpayable",
      "type": "constructor"
    },
    {
      "inputs": [],
      "name": "ECDSAInvalidSignature",
      "type": "error"
    },
    {
      "inputs": [
        {
          "internalType": "uint256",
          "name": "length",
          "type": "uint256"
        }
      ],
      "name": "ECDSAInvalidSignatureLength",
      "type": "error"
    },
    {
      "inputs": [
        {
          "internalType": "bytes32",
          "name": "s",
          "type": "bytes32"
        }
      ],
      "name": "ECDSAInvalidSignatureS",
      "type": "error"
    },
    {
      "inputs": [
        {
          "internalType": "uint256",
          "name": "currentBalance",
          "type": "uint256"
        },
        {
          "internalType": "uint256",
          "name": "calculatedFees",
          "type": "uint256"
        }
      ],
      "name": "NotEnoughBalance",
      "type": "error"
    },
    {
      "inputs": [
        {
          "internalType": "address",
          "name": "owner",
          "type": "address"
        }
      ],
      "name": "OwnableInvalidOwner",
      "type": "error"
    },
    {
      "inputs": [
        {
          "internalType": "address",
          "name": "account",
          "type": "address"
        }
      ],
      "name": "OwnableUnauthorizedAccount",
      "type": "error"
    },
    {
      "inputs": [
        {
          "internalType": "string",
          "name": "str",
          "type": "string"
        }
      ],
      "name": "StringTooLong",
      "type": "error"
    },
    {
      "anonymous": false,
      "inputs": [
        {
          "indexed": true,
          "internalType": "address",
          "name": "previousOwner",
          "type": "address"
        },
        {
          "indexed": true,
          "internalType": "address",
          "name": "newOwner",
          "type": "address"
        }
      ],
      "name": "OwnershipTransferred",
      "type": "event"
    },
    {
      "inputs": [
        {
          "internalType": "bytes",
          "name": "data",
          "type": "bytes"
        }
      ],
      "name": "_verifySwapOutput",
      "outputs": [
        {
          "internalType": "bool",
          "name": "",
          "type": "bool"
        }
      ],
      "stateMutability": "view",
      "type": "function"
    },
    {
      "inputs": [
        {
          "internalType": "address",
          "name": "token",
          "type": "address"
        },
        {
          "internalType": "address",
          "name": "spender",
          "type": "address"
        }
      ],
      "name": "approveToken",
      "outputs": [],
      "stateMutability": "nonpayable",
      "type": "function"
    },
    {
      "inputs": [
        {
          "internalType": "uint64",
          "name": "_destinationChainSelector",
          "type": "uint64"
        }
      ],
      "name": "bridge",
      "outputs": [
        {
          "internalType": "bytes32",
          "name": "messageId",
          "type": "bytes32"
        }
      ],
      "stateMutability": "payable",
      "type": "function"
    },
    {
      "inputs": [],
      "name": "chainLinkRouter",
      "outputs": [
        {
          "internalType": "address",
          "name": "",
          "type": "address"
        }
      ],
      "stateMutability": "view",
      "type": "function"
    },
    {
      "inputs": [],
      "name": "config",
      "outputs": [
        {
          "internalType": "address",
          "name": "token",
          "type": "address"
        },
        {
          "internalType": "uint256",
          "name": "chainId",
          "type": "uint256"
        }
      ],
      "stateMutability": "view",
      "type": "function"
    },
    {
      "inputs": [
        {
          "internalType": "bytes",
          "name": "data",
          "type": "bytes"
        }
      ],
      "name": "executeSwap",
      "outputs": [],
      "stateMutability": "nonpayable",
      "type": "function"
    },
    {
      "inputs": [
        {
          "internalType": "uint256",
          "name": "targetChainId",
          "type": "uint256"
        }
      ],
      "name": "getEquivalentToken",
      "outputs": [
        {
          "internalType": "address",
          "name": "",
          "type": "address"
        }
      ],
      "stateMutability": "view",
      "type": "function"
    },
    {
      "inputs": [],
      "name": "nextNonce",
      "outputs": [
        {
          "internalType": "uint256",
          "name": "",
          "type": "uint256"
        }
      ],
      "stateMutability": "view",
      "type": "function"
    },
    {
      "inputs": [],
      "name": "oneInchRouter",
      "outputs": [
        {
          "internalType": "address",
          "name": "",
          "type": "address"
        }
      ],
      "stateMutability": "view",
      "type": "function"
    },
    {
      "inputs": [],
      "name": "owner",
      "outputs": [
        {
          "internalType": "address",
          "name": "",
          "type": "address"
        }
      ],
      "stateMutability": "view",
      "type": "function"
    },
    {
      "inputs": [],
      "name": "renounceOwnership",
      "outputs": [],
      "stateMutability": "nonpayable",
      "type": "function"
    },
    {
      "inputs": [
        {
          "internalType": "address",
          "name": "token",
          "type": "address"
        },
        {
          "internalType": "address",
          "name": "to",
          "type": "address"
        },
        {
          "internalType": "uint256",
          "name": "amount",
          "type": "uint256"
        }
      ],
      "name": "transferERC20",
      "outputs": [],
      "stateMutability": "nonpayable",
      "type": "function"
    },
    {
      "inputs": [
        {
          "internalType": "address payable",
          "name": "to",
          "type": "address"
        },
        {
          "internalType": "uint256",
          "name": "amount",
          "type": "uint256"
        }
      ],
      "name": "transferNative",
      "outputs": [],
      "stateMutability": "nonpayable",
      "type": "function"
    },
    {
      "inputs": [
        {
          "internalType": "address",
          "name": "newOwner",
          "type": "address"
        }
      ],
      "name": "transferOwnership",
      "outputs": [],
      "stateMutability": "nonpayable",
      "type": "function"
    },
    {
      "inputs": [
        {
          "internalType": "address",
          "name": "token",
          "type": "address"
        },
        {
          "internalType": "uint256",
          "name": "chainId",
          "type": "uint256"
        },
        {
          "internalType": "uint256",
          "name": "nonce",
          "type": "uint256"
        },
        {
          "internalType": "bytes",
          "name": "signature",
          "type": "bytes"
        }
      ],
      "name": "updateConfigWithSig",
      "outputs": [],
      "stateMutability": "nonpayable",
      "type": "function"
    },
    {
      "stateMutability": "payable",
      "type": "receive"
    }
  ],
  "bytecode": "0x61014060405234801561001157600080fd5b50604051611eda380380611eda83398101604081905261003091610265565b6040805180820182526012815271149bdb5a4814db585c9d081058d8dbdd5b9d60721b602080830191909152825180840190935260018352603160f81b9083015290856001600160a01b0381166100a257604051631e4fbdf760e01b8152600060048201526024015b60405180910390fd5b6100ab81610188565b506100b78260016101d8565b610100526100c68160026101d8565b61012052815160208084019190912060c05281519082012060e05261014760c05160e051604080517f91ab3d17e3a50a9d89e63fd30b92be7f5336b03b287bb946787a83a9d62a2766602082015290810192909252606082015230608082015260009060a00160405160208183030381529060405280519060200120905090565b60805250503060a052600592909255600680546001600160a01b039283166001600160a01b0319918216179091556007805492909316911617905550610481565b600080546001600160a01b038381166001600160a01b0319831681178455604051919092169283917f8be0079c531659141344cd1fd0a4f28419497f9722a3daafe3b4186f6b6457e09190a35050565b60006020835110156101f4576101ed8361020b565b9050610205565b816101ff8482610351565b5060ff90505b92915050565b600080829050601f81511115610236578260405163305a27a960e01b8152600401610099919061040f565b80516102418261045d565b179392505050565b80516001600160a01b038116811461026057600080fd5b919050565b6000806000806080858703121561027b57600080fd5b61028485610249565b93506020850151925061029960408601610249565b91506102a760608601610249565b905092959194509250565b634e487b7160e01b600052604160045260246000fd5b600181811c908216806102dc57607f821691505b6020821081036102fc57634e487b7160e01b600052602260045260246000fd5b50919050565b601f82111561034c57806000526020600020601f840160051c810160208510156103295750805b601f840160051c820191505b818110156103495760008155600101610335565b50505b505050565b81516001600160401b0381111561036a5761036a6102b2565b61037e8161037884546102c8565b84610302565b6020601f8211600181146103b2576000831561039a5750848201515b600019600385901b1c1916600184901b178455610349565b600084815260208120601f198516915b828110156103e257878501518255602094850194600190920191016103c2565b50848210156104005786840151600019600387901b60f8161c191681555b50505050600190811b01905550565b602081526000825180602084015260005b8181101561043d5760208186018101516040868401015201610420565b506000604082850101526040601f19601f83011684010191505092915050565b805160208083015191908110156102fc5760001960209190910360031b1b16919050565b60805160a05160c05160e0516101005161012051611a106104ca6000396000505060005050600061111a015260006110f201526000611078015260006110a10152611a106000f3fe6080604052600436106100ec5760003560e01c80637d2e90c21161008a578063a8dc97cf11610059578063a8dc97cf1461029d578063ac3af208146102be578063d69c3d30146102de578063f2fde38b146102f457600080fd5b80637d2e90c21461021f5780638da5cb5b1461023f578063985f61a11461025d5780639db5dbe41461027d57600080fd5b806352beb2ac116100c657806352beb2ac14610177578063715018a614610197578063790977e5146101ac57806379502c55146101dc57600080fd5b806303105b04146100f857806324ac74291461011a5780633f557d441461013a57600080fd5b366100f357005b600080fd5b34801561010457600080fd5b50610118610113366004611354565b610314565b005b34801561012657600080fd5b506101186101353660046113d6565b610435565b34801561014657600080fd5b5060075461015a906001600160a01b031681565b6040516001600160a01b0390911681526020015b60405180910390f35b34801561018357600080fd5b5061015a610192366004611440565b6105e1565b3480156101a357600080fd5b5061011861073f565b3480156101b857600080fd5b506101cc6101c7366004611459565b610753565b604051901515815260200161016e565b3480156101e857600080fd5b50600354600454610200916001600160a01b03169082565b604080516001600160a01b03909316835260208301919091520161016e565b34801561022b57600080fd5b5061011861023a36600461149b565b61080c565b34801561024b57600080fd5b506000546001600160a01b031661015a565b34801561026957600080fd5b50610118610278366004611459565b610903565b34801561028957600080fd5b506101186102983660046114c7565b6109ea565b6102b06102ab366004611508565b610b42565b60405190815260200161016e565b3480156102ca57600080fd5b5060065461015a906001600160a01b031681565b3480156102ea57600080fd5b506102b060055481565b34801561030057600080fd5b5061011861030f366004611539565b610d87565b6006546001600160a01b038281169116148061033d57506007546001600160a01b038281169116145b6103805760405162461bcd60e51b815260206004820152600f60248201526e24b73b30b634b21039b832b73232b960891b60448201526064015b60405180910390fd5b60405163095ea7b360e01b81526001600160a01b038281166004830152600019602483015283169063095ea7b3906044016020604051808303816000875af11580156103d0573d6000803e3d6000fd5b505050506040513d601f19601f820116820180604052508101906103f49190611556565b6104315760405162461bcd60e51b815260206004820152600e60248201526d105c1c1c9bdd994819985a5b195960921b6044820152606401610377565b5050565b60055483146104765760405162461bcd60e51b815260206004820152600d60248201526c496e76616c6964206e6f6e636560981b6044820152606401610377565b604080517fad405fbca9318a89865a8f08877fd6b72e784b5dd62469794ea51ccadd89d4cb60208201526001600160a01b03871691810191909152606081018590526080810184905260009060a00160405160208183030381529060405280519060200120905060006104e882610dc5565b9050600061052c8286868080601f016020809104026020016040519081016040528093929190818152602001838380828437600092019190915250610df292505050565b90506105406000546001600160a01b031690565b6001600160a01b0316816001600160a01b0316146105945760405162461bcd60e51b8152602060048201526011602482015270496e76616c6964207369676e617475726560781b6044820152606401610377565b604080518082019091526001600160a01b0389168082526020909101889052600380546001600160a01b03191690911790556004879055856105d58161158e565b50505050505050505050565b60045460009082036105fe5750506003546001600160a01b031690565b6003546001600160a01b031673833589fcd6edb6e08f4c7c32d4f71b54bda0291314801561062f5750600454612105145b801561063b575081600a145b1561065b5750730b2c639c533813f4aa9d7837caf62653d097ff85919050565b6003546001600160a01b0316730b2c639c533813f4aa9d7837caf62653d097ff8514801561068b5750600454600a145b8015610698575081612105145b156106b8575073833589fcd6edb6e08f4c7c32d4f71b54bda02913919050565b6003546001600160a01b03166006602160991b011480156106e457508161210514806106e4575081600a145b156106f757506006602160991b01919050565b60405162461bcd60e51b815260206004820152601c60248201527f556e737570706f7274656420746f6b656e206f7220636861696e4964000000006044820152606401610377565b610747610e1c565b6107516000610e49565b565b600082356001600160e01b031981166307ed237960e01b146107a85760405162461bcd60e51b815260206004820152600e60248201526d2bb937b7339039b2b632b1ba37b960911b6044820152606401610377565b60006107b784600481886115a7565b8101906107c491906116bf565b509150506107d1466105e1565b6001600160a01b031681602001516001600160a01b0316148015610801575060608101516001600160a01b031630145b925050505b92915050565b610814610e1c565b8047101561085b5760405162461bcd60e51b8152602060048201526014602482015273496e73756666696369656e742062616c616e636560601b6044820152606401610377565b6000826001600160a01b03168260405160006040518083038185875af1925050503d80600081146108a8576040519150601f19603f3d011682016040523d82523d6000602084013e6108ad565b606091505b50509050806108fe5760405162461bcd60e51b815260206004820152601c60248201527f4e617469766520746f6b656e207472616e73666572206661696c6564000000006044820152606401610377565b505050565b61090d8282610753565b6109505760405162461bcd60e51b815260206004820152601460248201527324b73b30b634b21037baba383aba103a37b5b2b760611b6044820152606401610377565b60065460405160009182916001600160a01b0390911690610974908690869061179b565b6000604051808303816000865af19150503d80600081146109b1576040519150601f19603f3d011682016040523d82523d6000602084013e6109b6565b606091505b5091509150816109c582610e99565b906109e35760405162461bcd60e51b815260040161037791906117fb565b5050505050565b6109f2610e1c565b6001600160a01b038316610a385760405162461bcd60e51b815260206004820152600d60248201526c24b73b30b634b2103a37b5b2b760991b6044820152606401610377565b6040516001600160a01b03838116602483015260448201839052600091829186169060640160408051601f198184030181529181526020820180516001600160e01b031663a9059cbb60e01b17905251610a92919061180e565b6000604051808303816000865af19150503d8060008114610acf576040519150601f19603f3d011682016040523d82523d6000602084013e610ad4565b606091505b5091509150818015610afe575080511580610afe575080806020019051810190610afe9190611556565b6109e35760405162461bcd60e51b8152602060048201526015602482015274151bdad95b881d1c985b9cd9995c8819985a5b1959605a1b6044820152606401610377565b600080610b4e466105e1565b6040516370a0823160e01b81523060048201819052919250600091610bcb9184906001600160a01b038216906370a0823190602401602060405180830381865afa158015610ba0573d6000803e3d6000fd5b505050506040513d601f19601f82011682018060405250810190610bc4919061182a565b6000610ee6565b6007546040516320487ded60e01b81529192506000916001600160a01b03909116906320487ded90610c039088908690600401611843565b602060405180830381865afa158015610c20573d6000803e3d6000fd5b505050506040513d601f19601f82011682018060405250810190610c44919061182a565b905034811115610c7057604051634787a10360e11b815234600482015260248101829052604401610377565b6007546040516396f4e9f960e01b81526001600160a01b03909116906396f4e9f9908390610ca49089908790600401611843565b60206040518083038185885af1158015610cc2573d6000803e3d6000fd5b50505050506040513d601f19601f82011682018060405250810190610ce7919061182a565b9350600033610cf68334611924565b604051600081818185875af1925050503d8060008114610d32576040519150601f19603f3d011682016040523d82523d6000602084013e610d37565b606091505b5050905080610d7e5760405162461bcd60e51b8152602060048201526013602482015272115512081d1c985b9cd9995c8819985a5b1959606a1b6044820152606401610377565b50505050919050565b610d8f610e1c565b6001600160a01b038116610db957604051631e4fbdf760e01b815260006004820152602401610377565b610dc281610e49565b50565b6000610806610dd261106c565b8360405161190160f01b8152600281019290925260228201526042902090565b600080600080610e02868661116a565b925092509250610e1282826111b7565b5090949350505050565b6000546001600160a01b031633146107515760405163118cdaa760e01b8152336004820152602401610377565b600080546001600160a01b038381166001600160a01b0319831681178455604051919092169283917f8be0079c531659141344cd1fd0a4f28419497f9722a3daafe3b4186f6b6457e09190a35050565b6060604482511015610ecc57505060408051808201909152600b81526a10d85b1b0819985a5b195960aa1b602082015290565b600482019150818060200190518101906108069190611937565b610f216040518060a0016040528060608152602001606081526020016060815260200160006001600160a01b03168152602001606081525090565b604080516001808252818301909252600091816020015b6040805180820190915260008082526020820152815260200190600190039081610f385790505090506040518060400160405280866001600160a01b031681526020018581525081600081518110610f9257610f926119ae565b60209081029190910101526040805160a081019091526001600160a01b03871660c08201528060e081016040516020818303038152906040528152602001604051806020016040528060008152508152602001828152602001846001600160a01b03168152602001611060604051806040016040528060008152602001600115158152506040805182516024820152602092830151151560448083019190915282518083039091018152606490910190915290810180516001600160e01b0316630181dcf160e41b17905290565b90529695505050505050565b60006001600160a01b037f00000000000000000000000000000000000000000000000000000000000000001630036110c357507f000000000000000000000000000000000000000000000000000000000000000090565b611165604080517f91ab3d17e3a50a9d89e63fd30b92be7f5336b03b287bb946787a83a9d62a276660208201527f0000000000000000000000000000000000000000000000000000000000000000918101919091527f0000000000000000000000000000000000000000000000000000000000000000606082015230608082015260009060a00160405160208183030381529060405280519060200120905090565b905090565b600080600083516041036111a45760208401516040850151606086015160001a61119688828585611270565b9550955095505050506111b0565b50508151600091506002905b9250925092565b60008260038111156111cb576111cb6119c4565b036111d4575050565b60018260038111156111e8576111e86119c4565b036112065760405163f645eedf60e01b815260040160405180910390fd5b600282600381111561121a5761121a6119c4565b0361123b5760405163fce698f760e01b815260048101829052602401610377565b600382600381111561124f5761124f6119c4565b03610431576040516335e2f38360e21b815260048101829052602401610377565b600080807f7fffffffffffffffffffffffffffffff5d576e7357a4501ddfe92f46681b20a08411156112ab5750600091506003905082611335565b604080516000808252602082018084528a905260ff891692820192909252606081018790526080810186905260019060a0016020604051602081039080840390855afa1580156112ff573d6000803e3d6000fd5b5050604051601f1901519150506001600160a01b03811661132b57506000925060019150829050611335565b9250600091508190505b9450945094915050565b6001600160a01b0381168114610dc257600080fd5b6000806040838503121561136757600080fd5b82356113728161133f565b915060208301356113828161133f565b809150509250929050565b60008083601f84011261139f57600080fd5b50813567ffffffffffffffff8111156113b757600080fd5b6020830191508360208285010111156113cf57600080fd5b9250929050565b6000806000806000608086880312156113ee57600080fd5b85356113f98161133f565b94506020860135935060408601359250606086013567ffffffffffffffff81111561142357600080fd5b61142f8882890161138d565b969995985093965092949392505050565b60006020828403121561145257600080fd5b5035919050565b6000806020838503121561146c57600080fd5b823567ffffffffffffffff81111561148357600080fd5b61148f8582860161138d565b90969095509350505050565b600080604083850312156114ae57600080fd5b82356114b98161133f565b946020939093013593505050565b6000806000606084860312156114dc57600080fd5b83356114e78161133f565b925060208401356114f78161133f565b929592945050506040919091013590565b60006020828403121561151a57600080fd5b813567ffffffffffffffff8116811461153257600080fd5b9392505050565b60006020828403121561154b57600080fd5b81356115328161133f565b60006020828403121561156857600080fd5b8151801515811461153257600080fd5b634e487b7160e01b600052601160045260246000fd5b6000600182016115a0576115a0611578565b5060010190565b600080858511156115b757600080fd5b838611156115c457600080fd5b5050820193919092039150565b634e487b7160e01b600052604160045260246000fd5b60405160e0810167ffffffffffffffff8111828210171561160a5761160a6115d1565b60405290565b604051601f8201601f1916810167ffffffffffffffff81118282101715611639576116396115d1565b604052919050565b600067ffffffffffffffff82111561165b5761165b6115d1565b50601f01601f191660200190565b600082601f83011261167a57600080fd5b813561168d61168882611641565b611610565b8181528460208386010111156116a257600080fd5b816020850160208301376000918101602001919091529392505050565b60008060008385036101208112156116d657600080fd5b84356116e18161133f565b935060e0601f19820112156116f557600080fd5b506116fe6115e7565b602085013561170c8161133f565b8152604085013561171c8161133f565b6020820152606085013561172f8161133f565b604082015260808501356117428161133f565b606082015260a085810135608083015260c0808701359183019190915260e086013590820152915061010084013567ffffffffffffffff81111561178557600080fd5b61179186828701611669565b9150509250925092565b8183823760009101908152919050565b60005b838110156117c65781810151838201526020016117ae565b50506000910152565b600081518084526117e78160208601602086016117ab565b601f01601f19169290920160200192915050565b60208152600061153260208301846117cf565b600082516118208184602087016117ab565b9190910192915050565b60006020828403121561183c57600080fd5b5051919050565b67ffffffffffffffff83168152604060208201526000825160a0604084015261186f60e08401826117cf565b90506020840151603f1984830301606085015261188c82826117cf565b6040860151858203603f19016080870152805180835260209182019450600093509101905b808310156118e857835180516001600160a01b031683526020908101518184015290930192600192909201916040909101906118b1565b5060608601516001600160a01b031660a08601526080860151858203603f190160c0870152925061191981846117cf565b979650505050505050565b8181038181111561080657610806611578565b60006020828403121561194957600080fd5b815167ffffffffffffffff81111561196057600080fd5b8201601f8101841361197157600080fd5b805161197f61168882611641565b81815285602083850101111561199457600080fd5b6119a58260208301602086016117ab565b95945050505050565b634e487b7160e01b600052603260045260246000fd5b634e487b7160e01b600052602160045260246000fdfea2646970667358221220bac9cdb83a4cba78dda584afd7d3c4bedb1e634e1b07592f734a59379bbb5b4e64736f6c634300081c0033",
  "linkReferences": {},
  "deployedLinkReferences": {}
}