{
  "_format": "hh-sol-artifact-1",
  "contractName": "RomiSmartAccount",
  "sourceName": "contracts/romi/RomiSmartAccount.sol",
  "abi": [
    {
      "inputs": [
        {
          "internalType": "address",
          "name": "initialOwner",
          "type": "address"
        },
        {
          "internalType": "uint256",
          "name": "initialNextNonce",
          "type": "uint256"
        },
        {
          "internalType": "address",
          "name": "oneInchRouterAddress",
          "type": "address"
        },
        {
          "internalType": "address",
          "name": "chainLinkAddress",
          "type": "address"
        }
      ],
      "stateMutability": "nonpayable",
      "type": "constructor"
    },
    {
      "inputs": [],
      "name": "ECDSAInvalidSignature",
      "type": "error"
    },
    {
      "inputs": [
        {
          "internalType": "uint256",
          "name": "length",
          "type": "uint256"
        }
      ],
      "name": "ECDSAInvalidSignatureLength",
      "type": "error"
    },
    {
      "inputs": [
        {
          "internalType": "bytes32",
          "name": "s",
          "type": "bytes32"
        }
      ],
      "name": "ECDSAInvalidSignatureS",
      "type": "error"
    },
    {
      "inputs": [
        {
          "internalType": "uint256",
          "name": "currentBalance",
          "type": "uint256"
        },
        {
          "internalType": "uint256",
          "name": "calculatedFees",
          "type": "uint256"
        }
      ],
      "name": "NotEnoughBalance",
      "type": "error"
    },
    {
      "inputs": [
        {
          "internalType": "address",
          "name": "owner",
          "type": "address"
        }
      ],
      "name": "OwnableInvalidOwner",
      "type": "error"
    },
    {
      "inputs": [
        {
          "internalType": "address",
          "name": "account",
          "type": "address"
        }
      ],
      "name": "OwnableUnauthorizedAccount",
      "type": "error"
    },
    {
      "inputs": [
        {
          "internalType": "string",
          "name": "str",
          "type": "string"
        }
      ],
      "name": "StringTooLong",
      "type": "error"
    },
    {
      "anonymous": false,
      "inputs": [
        {
          "indexed": true,
          "internalType": "address",
          "name": "previousOwner",
          "type": "address"
        },
        {
          "indexed": true,
          "internalType": "address",
          "name": "newOwner",
          "type": "address"
        }
      ],
      "name": "OwnershipTransferred",
      "type": "event"
    },
    {
      "inputs": [
        {
          "internalType": "bytes",
          "name": "data",
          "type": "bytes"
        },
        {
          "internalType": "address",
          "name": "expected",
          "type": "address"
        }
      ],
      "name": "_verifySwapOutput",
      "outputs": [
        {
          "internalType": "bool",
          "name": "",
          "type": "bool"
        }
      ],
      "stateMutability": "view",
      "type": "function"
    },
    {
      "inputs": [
        {
          "internalType": "address",
          "name": "token",
          "type": "address"
        },
        {
          "internalType": "address",
          "name": "spender",
          "type": "address"
        }
      ],
      "name": "approveToken",
      "outputs": [],
      "stateMutability": "nonpayable",
      "type": "function"
    },
    {
      "inputs": [
        {
          "internalType": "uint64",
          "name": "_destinationChainSelector",
          "type": "uint64"
        }
      ],
      "name": "bridge",
      "outputs": [
        {
          "internalType": "bytes32",
          "name": "messageId",
          "type": "bytes32"
        }
      ],
      "stateMutability": "payable",
      "type": "function"
    },
    {
      "inputs": [],
      "name": "chainLinkRouter",
      "outputs": [
        {
          "internalType": "address",
          "name": "",
          "type": "address"
        }
      ],
      "stateMutability": "view",
      "type": "function"
    },
    {
      "inputs": [],
      "name": "config",
      "outputs": [
        {
          "internalType": "address",
          "name": "token",
          "type": "address"
        },
        {
          "internalType": "uint256",
          "name": "chainId",
          "type": "uint256"
        }
      ],
      "stateMutability": "view",
      "type": "function"
    },
    {
      "inputs": [
        {
          "internalType": "bytes",
          "name": "data",
          "type": "bytes"
        }
      ],
      "name": "executeSwap",
      "outputs": [],
      "stateMutability": "nonpayable",
      "type": "function"
    },
    {
      "inputs": [],
      "name": "nextNonce",
      "outputs": [
        {
          "internalType": "uint256",
          "name": "",
          "type": "uint256"
        }
      ],
      "stateMutability": "view",
      "type": "function"
    },
    {
      "inputs": [],
      "name": "oneInchRouter",
      "outputs": [
        {
          "internalType": "address",
          "name": "",
          "type": "address"
        }
      ],
      "stateMutability": "view",
      "type": "function"
    },
    {
      "inputs": [],
      "name": "owner",
      "outputs": [
        {
          "internalType": "address",
          "name": "",
          "type": "address"
        }
      ],
      "stateMutability": "view",
      "type": "function"
    },
    {
      "inputs": [],
      "name": "renounceOwnership",
      "outputs": [],
      "stateMutability": "nonpayable",
      "type": "function"
    },
    {
      "inputs": [
        {
          "internalType": "address",
          "name": "token",
          "type": "address"
        },
        {
          "internalType": "address",
          "name": "to",
          "type": "address"
        },
        {
          "internalType": "uint256",
          "name": "amount",
          "type": "uint256"
        }
      ],
      "name": "transferERC20",
      "outputs": [],
      "stateMutability": "nonpayable",
      "type": "function"
    },
    {
      "inputs": [
        {
          "internalType": "address payable",
          "name": "to",
          "type": "address"
        },
        {
          "internalType": "uint256",
          "name": "amount",
          "type": "uint256"
        }
      ],
      "name": "transferNative",
      "outputs": [],
      "stateMutability": "nonpayable",
      "type": "function"
    },
    {
      "inputs": [
        {
          "internalType": "address",
          "name": "newOwner",
          "type": "address"
        }
      ],
      "name": "transferOwnership",
      "outputs": [],
      "stateMutability": "nonpayable",
      "type": "function"
    },
    {
      "inputs": [
        {
          "internalType": "address",
          "name": "token",
          "type": "address"
        },
        {
          "internalType": "uint256",
          "name": "chainId",
          "type": "uint256"
        },
        {
          "internalType": "uint256",
          "name": "nonce",
          "type": "uint256"
        },
        {
          "internalType": "bytes",
          "name": "signature",
          "type": "bytes"
        }
      ],
      "name": "updateConfigWithSig",
      "outputs": [],
      "stateMutability": "nonpayable",
      "type": "function"
    },
    {
      "stateMutability": "payable",
      "type": "receive"
    }
  ],
  "bytecode": "0x61014060405234801561001157600080fd5b50604051611cde380380611cde83398101604081905261003091610265565b6040805180820182526012815271149bdb5a4814db585c9d081058d8dbdd5b9d60721b602080830191909152825180840190935260018352603160f81b9083015290856001600160a01b0381166100a257604051631e4fbdf760e01b8152600060048201526024015b60405180910390fd5b6100ab81610188565b506100b78260016101d8565b610100526100c68160026101d8565b61012052815160208084019190912060c05281519082012060e05261014760c05160e051604080517f91ab3d17e3a50a9d89e63fd30b92be7f5336b03b287bb946787a83a9d62a2766602082015290810192909252606082015230608082015260009060a00160405160208183030381529060405280519060200120905090565b60805250503060a052600592909255600680546001600160a01b039283166001600160a01b0319918216179091556007805492909316911617905550610481565b600080546001600160a01b038381166001600160a01b0319831681178455604051919092169283917f8be0079c531659141344cd1fd0a4f28419497f9722a3daafe3b4186f6b6457e09190a35050565b60006020835110156101f4576101ed8361020b565b9050610205565b816101ff8482610351565b5060ff90505b92915050565b600080829050601f81511115610236578260405163305a27a960e01b8152600401610099919061040f565b80516102418261045d565b179392505050565b80516001600160a01b038116811461026057600080fd5b919050565b6000806000806080858703121561027b57600080fd5b61028485610249565b93506020850151925061029960408601610249565b91506102a760608601610249565b905092959194509250565b634e487b7160e01b600052604160045260246000fd5b600181811c908216806102dc57607f821691505b6020821081036102fc57634e487b7160e01b600052602260045260246000fd5b50919050565b601f82111561034c57806000526020600020601f840160051c810160208510156103295750805b601f840160051c820191505b818110156103495760008155600101610335565b50505b505050565b81516001600160401b0381111561036a5761036a6102b2565b61037e8161037884546102c8565b84610302565b6020601f8211600181146103b2576000831561039a5750848201515b600019600385901b1c1916600184901b178455610349565b600084815260208120601f198516915b828110156103e257878501518255602094850194600190920191016103c2565b50848210156104005786840151600019600387901b60f8161c191681555b50505050600190811b01905550565b602081526000825180602084015260005b8181101561043d5760208186018101516040868401015201610420565b506000604082850101526040601f19601f83011684010191505092915050565b805160208083015191908110156102fc5760001960209190910360031b1b16919050565b60805160a05160c05160e05161010051610120516118146104ca60003960005050600050506000610efb01526000610ed301526000610e5901526000610e8201526118146000f3fe6080604052600436106100e15760003560e01c8063985f61a11161007f578063a8dc97cf11610059578063a8dc97cf14610272578063ac3af20814610293578063d69c3d30146102b3578063f2fde38b146102c957600080fd5b8063985f61a1146102025780639db5dbe414610222578063a6bf8a0d1461024257600080fd5b8063715018a6116100bb578063715018a61461016c57806379502c55146101815780637d2e90c2146101c45780638da5cb5b146101e457600080fd5b806303105b04146100ed57806324ac74291461010f5780633f557d441461012f57600080fd5b366100e857005b600080fd5b3480156100f957600080fd5b5061010d610108366004611135565b6102e9565b005b34801561011b57600080fd5b5061010d61012a3660046111b7565b61040a565b34801561013b57600080fd5b5060075461014f906001600160a01b031681565b6040516001600160a01b0390911681526020015b60405180910390f35b34801561017857600080fd5b5061010d6105b6565b34801561018d57600080fd5b506003546004546101a5916001600160a01b03169082565b604080516001600160a01b039093168352602083019190915201610163565b3480156101d057600080fd5b5061010d6101df366004611221565b6105ca565b3480156101f057600080fd5b506000546001600160a01b031661014f565b34801561020e57600080fd5b5061010d61021d36600461124d565b6106c1565b34801561022e57600080fd5b5061010d61023d36600461128f565b6107b7565b34801561024e57600080fd5b5061026261025d3660046112d0565b61090f565b6040519015158152602001610163565b610285610280366004611327565b6109bf565b604051908152602001610163565b34801561029f57600080fd5b5060065461014f906001600160a01b031681565b3480156102bf57600080fd5b5061028560055481565b3480156102d557600080fd5b5061010d6102e4366004611358565b610b62565b6006546001600160a01b038281169116148061031257506007546001600160a01b038281169116145b6103555760405162461bcd60e51b815260206004820152600f60248201526e24b73b30b634b21039b832b73232b960891b60448201526064015b60405180910390fd5b60405163095ea7b360e01b81526001600160a01b038281166004830152600019602483015283169063095ea7b3906044016020604051808303816000875af11580156103a5573d6000803e3d6000fd5b505050506040513d601f19601f820116820180604052508101906103c99190611375565b6104065760405162461bcd60e51b815260206004820152600e60248201526d105c1c1c9bdd994819985a5b195960921b604482015260640161034c565b5050565b600554831461044b5760405162461bcd60e51b815260206004820152600d60248201526c496e76616c6964206e6f6e636560981b604482015260640161034c565b604080517fad405fbca9318a89865a8f08877fd6b72e784b5dd62469794ea51ccadd89d4cb60208201526001600160a01b03871691810191909152606081018590526080810184905260009060a00160405160208183030381529060405280519060200120905060006104bd82610ba0565b905060006105018286868080601f016020809104026020016040519081016040528093929190818152602001838380828437600092019190915250610bd392505050565b90506105156000546001600160a01b031690565b6001600160a01b0316816001600160a01b0316146105695760405162461bcd60e51b8152602060048201526011602482015270496e76616c6964207369676e617475726560781b604482015260640161034c565b604080518082019091526001600160a01b0389168082526020909101889052600380546001600160a01b03191690911790556004879055856105aa81611397565b50505050505050505050565b6105be610bfd565b6105c86000610c2a565b565b6105d2610bfd565b804710156106195760405162461bcd60e51b8152602060048201526014602482015273496e73756666696369656e742062616c616e636560601b604482015260640161034c565b6000826001600160a01b03168260405160006040518083038185875af1925050503d8060008114610666576040519150601f19603f3d011682016040523d82523d6000602084013e61066b565b606091505b50509050806106bc5760405162461bcd60e51b815260206004820152601c60248201527f4e617469766520746f6b656e207472616e73666572206661696c656400000000604482015260640161034c565b505050565b6003546106da90839083906001600160a01b031661090f565b61071d5760405162461bcd60e51b815260206004820152601460248201527324b73b30b634b21037baba383aba103a37b5b2b760611b604482015260640161034c565b60065460405160009182916001600160a01b039091169061074190869086906113be565b6000604051808303816000865af19150503d806000811461077e576040519150601f19603f3d011682016040523d82523d6000602084013e610783565b606091505b50915091508161079282610c7a565b906107b05760405162461bcd60e51b815260040161034c919061141e565b5050505050565b6107bf610bfd565b6001600160a01b0383166108055760405162461bcd60e51b815260206004820152600d60248201526c24b73b30b634b2103a37b5b2b760991b604482015260640161034c565b6040516001600160a01b03838116602483015260448201839052600091829186169060640160408051601f198184030181529181526020820180516001600160e01b031663a9059cbb60e01b1790525161085f9190611431565b6000604051808303816000865af19150503d806000811461089c576040519150601f19603f3d011682016040523d82523d6000602084013e6108a1565b606091505b50915091508180156108cb5750805115806108cb5750808060200190518101906108cb9190611375565b6107b05760405162461bcd60e51b8152602060048201526015602482015274151bdad95b881d1c985b9cd9995c8819985a5b1959605a1b604482015260640161034c565b600083356001600160e01b031981166307ed237960e01b146109645760405162461bcd60e51b815260206004820152600e60248201526d2bb937b7339039b2b632b1ba37b960911b604482015260640161034c565b6000610973856004818961144d565b8101906109809190611565565b50915050836001600160a01b031681602001516001600160a01b03161480156109b5575060608101516001600160a01b031630145b9695505050505050565b6003546040516370a0823160e01b815230600482018190526000928392610a3e92916001600160a01b03169081906370a0823190602401602060405180830381865afa158015610a13573d6000803e3d6000fd5b505050506040513d601f19601f82011682018060405250810190610a379190611641565b6000610cc7565b6007546040516320487ded60e01b81529192506000916001600160a01b03909116906320487ded90610a76908790869060040161165a565b602060405180830381865afa158015610a93573d6000803e3d6000fd5b505050506040513d601f19601f82011682018060405250810190610ab79190611641565b905047811115610ae357604051634787a10360e11b81524760048201526024810182905260440161034c565b6007546040516396f4e9f960e01b81526001600160a01b03909116906396f4e9f9908390610b17908890879060040161165a565b60206040518083038185885af1158015610b35573d6000803e3d6000fd5b50505050506040513d601f19601f82011682018060405250810190610b5a9190611641565b949350505050565b610b6a610bfd565b6001600160a01b038116610b9457604051631e4fbdf760e01b81526000600482015260240161034c565b610b9d81610c2a565b50565b6000610bcd610bad610e4d565b8360405161190160f01b8152600281019290925260228201526042902090565b92915050565b600080600080610be38686610f4b565b925092509250610bf38282610f98565b5090949350505050565b6000546001600160a01b031633146105c85760405163118cdaa760e01b815233600482015260240161034c565b600080546001600160a01b038381166001600160a01b0319831681178455604051919092169283917f8be0079c531659141344cd1fd0a4f28419497f9722a3daafe3b4186f6b6457e09190a35050565b6060604482511015610cad57505060408051808201909152600b81526a10d85b1b0819985a5b195960aa1b602082015290565b60048201915081806020019051810190610bcd919061173b565b610d026040518060a0016040528060608152602001606081526020016060815260200160006001600160a01b03168152602001606081525090565b604080516001808252818301909252600091816020015b6040805180820190915260008082526020820152815260200190600190039081610d195790505090506040518060400160405280866001600160a01b031681526020018581525081600081518110610d7357610d736117b2565b60209081029190910101526040805160a081019091526001600160a01b03871660c08201528060e081016040516020818303038152906040528152602001604051806020016040528060008152508152602001828152602001846001600160a01b03168152602001610e41604051806040016040528060008152602001600115158152506040805182516024820152602092830151151560448083019190915282518083039091018152606490910190915290810180516001600160e01b0316630181dcf160e41b17905290565b90529695505050505050565b60006001600160a01b037f0000000000000000000000000000000000000000000000000000000000000000163003610ea457507f000000000000000000000000000000000000000000000000000000000000000090565b610f46604080517f91ab3d17e3a50a9d89e63fd30b92be7f5336b03b287bb946787a83a9d62a276660208201527f0000000000000000000000000000000000000000000000000000000000000000918101919091527f0000000000000000000000000000000000000000000000000000000000000000606082015230608082015260009060a00160405160208183030381529060405280519060200120905090565b905090565b60008060008351604103610f855760208401516040850151606086015160001a610f7788828585611051565b955095509550505050610f91565b50508151600091506002905b9250925092565b6000826003811115610fac57610fac6117c8565b03610fb5575050565b6001826003811115610fc957610fc96117c8565b03610fe75760405163f645eedf60e01b815260040160405180910390fd5b6002826003811115610ffb57610ffb6117c8565b0361101c5760405163fce698f760e01b81526004810182905260240161034c565b6003826003811115611030576110306117c8565b03610406576040516335e2f38360e21b81526004810182905260240161034c565b600080807f7fffffffffffffffffffffffffffffff5d576e7357a4501ddfe92f46681b20a084111561108c5750600091506003905082611116565b604080516000808252602082018084528a905260ff891692820192909252606081018790526080810186905260019060a0016020604051602081039080840390855afa1580156110e0573d6000803e3d6000fd5b5050604051601f1901519150506001600160a01b03811661110c57506000925060019150829050611116565b9250600091508190505b9450945094915050565b6001600160a01b0381168114610b9d57600080fd5b6000806040838503121561114857600080fd5b823561115381611120565b9150602083013561116381611120565b809150509250929050565b60008083601f84011261118057600080fd5b50813567ffffffffffffffff81111561119857600080fd5b6020830191508360208285010111156111b057600080fd5b9250929050565b6000806000806000608086880312156111cf57600080fd5b85356111da81611120565b94506020860135935060408601359250606086013567ffffffffffffffff81111561120457600080fd5b6112108882890161116e565b969995985093965092949392505050565b6000806040838503121561123457600080fd5b823561123f81611120565b946020939093013593505050565b6000806020838503121561126057600080fd5b823567ffffffffffffffff81111561127757600080fd5b6112838582860161116e565b90969095509350505050565b6000806000606084860312156112a457600080fd5b83356112af81611120565b925060208401356112bf81611120565b929592945050506040919091013590565b6000806000604084860312156112e557600080fd5b833567ffffffffffffffff8111156112fc57600080fd5b6113088682870161116e565b909450925050602084013561131c81611120565b809150509250925092565b60006020828403121561133957600080fd5b813567ffffffffffffffff8116811461135157600080fd5b9392505050565b60006020828403121561136a57600080fd5b813561135181611120565b60006020828403121561138757600080fd5b8151801515811461135157600080fd5b6000600182016113b757634e487b7160e01b600052601160045260246000fd5b5060010190565b8183823760009101908152919050565b60005b838110156113e95781810151838201526020016113d1565b50506000910152565b6000815180845261140a8160208601602086016113ce565b601f01601f19169290920160200192915050565b60208152600061135160208301846113f2565b600082516114438184602087016113ce565b9190910192915050565b6000808585111561145d57600080fd5b8386111561146a57600080fd5b5050820193919092039150565b634e487b7160e01b600052604160045260246000fd5b60405160e0810167ffffffffffffffff811182821017156114b0576114b0611477565b60405290565b604051601f8201601f1916810167ffffffffffffffff811182821017156114df576114df611477565b604052919050565b600067ffffffffffffffff82111561150157611501611477565b50601f01601f191660200190565b600082601f83011261152057600080fd5b813561153361152e826114e7565b6114b6565b81815284602083860101111561154857600080fd5b816020850160208301376000918101602001919091529392505050565b600080600083850361012081121561157c57600080fd5b843561158781611120565b935060e0601f198201121561159b57600080fd5b506115a461148d565b60208501356115b281611120565b815260408501356115c281611120565b602082015260608501356115d581611120565b604082015260808501356115e881611120565b606082015260a085810135608083015260c0808701359183019190915260e086013590820152915061010084013567ffffffffffffffff81111561162b57600080fd5b6116378682870161150f565b9150509250925092565b60006020828403121561165357600080fd5b5051919050565b67ffffffffffffffff83168152604060208201526000825160a0604084015261168660e08401826113f2565b90506020840151603f198483030160608501526116a382826113f2565b6040860151858203603f19016080870152805180835260209182019450600093509101905b808310156116ff57835180516001600160a01b031683526020908101518184015290930192600192909201916040909101906116c8565b5060608601516001600160a01b031660a08601526080860151858203603f190160c0870152925061173081846113f2565b979650505050505050565b60006020828403121561174d57600080fd5b815167ffffffffffffffff81111561176457600080fd5b8201601f8101841361177557600080fd5b805161178361152e826114e7565b81815285602083850101111561179857600080fd5b6117a98260208301602086016113ce565b95945050505050565b634e487b7160e01b600052603260045260246000fd5b634e487b7160e01b600052602160045260246000fdfea2646970667358221220fedb21b3ad87af466fc38a63645679d17db95c5c6b8f72f4292abb9ed8b4ae1f64736f6c634300081c0033",
  "linkReferences": {},
  "deployedLinkReferences": {}
}