{
  "_format": "hh-sol-artifact-1",
  "contractName": "RomiSmartAccount",
  "sourceName": "contracts/romi/RomiSmartAccount.sol",
  "abi": [
    {
      "inputs": [
        {
          "internalType": "address",
          "name": "initialOwner",
          "type": "address"
        },
        {
          "internalType": "uint256",
          "name": "initialNextNonce",
          "type": "uint256"
        },
        {
          "internalType": "address",
          "name": "oneInchRouterAddress",
          "type": "address"
        }
      ],
      "stateMutability": "nonpayable",
      "type": "constructor"
    },
    {
      "inputs": [],
      "name": "ECDSAInvalidSignature",
      "type": "error"
    },
    {
      "inputs": [
        {
          "internalType": "uint256",
          "name": "length",
          "type": "uint256"
        }
      ],
      "name": "ECDSAInvalidSignatureLength",
      "type": "error"
    },
    {
      "inputs": [
        {
          "internalType": "bytes32",
          "name": "s",
          "type": "bytes32"
        }
      ],
      "name": "ECDSAInvalidSignatureS",
      "type": "error"
    },
    {
      "inputs": [
        {
          "internalType": "address",
          "name": "owner",
          "type": "address"
        }
      ],
      "name": "OwnableInvalidOwner",
      "type": "error"
    },
    {
      "inputs": [
        {
          "internalType": "address",
          "name": "account",
          "type": "address"
        }
      ],
      "name": "OwnableUnauthorizedAccount",
      "type": "error"
    },
    {
      "inputs": [
        {
          "internalType": "string",
          "name": "str",
          "type": "string"
        }
      ],
      "name": "StringTooLong",
      "type": "error"
    },
    {
      "anonymous": false,
      "inputs": [
        {
          "indexed": true,
          "internalType": "address",
          "name": "previousOwner",
          "type": "address"
        },
        {
          "indexed": true,
          "internalType": "address",
          "name": "newOwner",
          "type": "address"
        }
      ],
      "name": "OwnershipTransferred",
      "type": "event"
    },
    {
      "inputs": [
        {
          "internalType": "bytes",
          "name": "data",
          "type": "bytes"
        },
        {
          "internalType": "address",
          "name": "expected",
          "type": "address"
        }
      ],
      "name": "_verifySwapOutput",
      "outputs": [
        {
          "internalType": "bool",
          "name": "",
          "type": "bool"
        }
      ],
      "stateMutability": "view",
      "type": "function"
    },
    {
      "inputs": [
        {
          "internalType": "address",
          "name": "token",
          "type": "address"
        }
      ],
      "name": "approveToken",
      "outputs": [],
      "stateMutability": "nonpayable",
      "type": "function"
    },
    {
      "inputs": [],
      "name": "config",
      "outputs": [
        {
          "internalType": "address",
          "name": "token",
          "type": "address"
        },
        {
          "internalType": "uint256",
          "name": "chainId",
          "type": "uint256"
        }
      ],
      "stateMutability": "view",
      "type": "function"
    },
    {
      "inputs": [
        {
          "internalType": "bytes",
          "name": "data",
          "type": "bytes"
        }
      ],
      "name": "executeSwap",
      "outputs": [],
      "stateMutability": "nonpayable",
      "type": "function"
    },
    {
      "inputs": [],
      "name": "nextNonce",
      "outputs": [
        {
          "internalType": "uint256",
          "name": "",
          "type": "uint256"
        }
      ],
      "stateMutability": "view",
      "type": "function"
    },
    {
      "inputs": [],
      "name": "oneInchRouter",
      "outputs": [
        {
          "internalType": "address",
          "name": "",
          "type": "address"
        }
      ],
      "stateMutability": "view",
      "type": "function"
    },
    {
      "inputs": [],
      "name": "owner",
      "outputs": [
        {
          "internalType": "address",
          "name": "",
          "type": "address"
        }
      ],
      "stateMutability": "view",
      "type": "function"
    },
    {
      "inputs": [],
      "name": "renounceOwnership",
      "outputs": [],
      "stateMutability": "nonpayable",
      "type": "function"
    },
    {
      "inputs": [
        {
          "internalType": "address",
          "name": "token",
          "type": "address"
        },
        {
          "internalType": "address",
          "name": "to",
          "type": "address"
        },
        {
          "internalType": "uint256",
          "name": "amount",
          "type": "uint256"
        }
      ],
      "name": "transferERC20",
      "outputs": [],
      "stateMutability": "nonpayable",
      "type": "function"
    },
    {
      "inputs": [
        {
          "internalType": "address payable",
          "name": "to",
          "type": "address"
        },
        {
          "internalType": "uint256",
          "name": "amount",
          "type": "uint256"
        }
      ],
      "name": "transferNative",
      "outputs": [],
      "stateMutability": "nonpayable",
      "type": "function"
    },
    {
      "inputs": [
        {
          "internalType": "address",
          "name": "newOwner",
          "type": "address"
        }
      ],
      "name": "transferOwnership",
      "outputs": [],
      "stateMutability": "nonpayable",
      "type": "function"
    },
    {
      "inputs": [
        {
          "internalType": "address",
          "name": "token",
          "type": "address"
        },
        {
          "internalType": "uint256",
          "name": "chainId",
          "type": "uint256"
        },
        {
          "internalType": "uint256",
          "name": "nonce",
          "type": "uint256"
        },
        {
          "internalType": "bytes",
          "name": "signature",
          "type": "bytes"
        }
      ],
      "name": "updateConfigWithSig",
      "outputs": [],
      "stateMutability": "nonpayable",
      "type": "function"
    },
    {
      "stateMutability": "payable",
      "type": "receive"
    }
  ],
  "bytecode": "0x61014060405234801561001157600080fd5b5060405161174838038061174883398101604081905261003091610258565b6040805180820182526012815271149bdb5a4814db585c9d081058d8dbdd5b9d60721b602080830191909152825180840190935260018352603160f81b9083015290846001600160a01b0381166100a257604051631e4fbdf760e01b8152600060048201526024015b60405180910390fd5b6100ab8161017b565b506100b78260016101cb565b610100526100c68160026101cb565b61012052815160208084019190912060c05281519082012060e05261014760c05160e051604080517f91ab3d17e3a50a9d89e63fd30b92be7f5336b03b287bb946787a83a9d62a2766602082015290810192909252606082015230608082015260009060a00160405160208183030381529060405280519060200120905090565b60805250503060a052600591909155600680546001600160a01b0319166001600160a01b0390921691909117905550610463565b600080546001600160a01b038381166001600160a01b0319831681178455604051919092169283917f8be0079c531659141344cd1fd0a4f28419497f9722a3daafe3b4186f6b6457e09190a35050565b60006020835110156101e7576101e0836101fe565b90506101f8565b816101f28482610333565b5060ff90505b92915050565b600080829050601f81511115610229578260405163305a27a960e01b815260040161009991906103f1565b80516102348261043f565b179392505050565b80516001600160a01b038116811461025357600080fd5b919050565b60008060006060848603121561026d57600080fd5b6102768461023c565b92506020840151915061028b6040850161023c565b90509250925092565b634e487b7160e01b600052604160045260246000fd5b600181811c908216806102be57607f821691505b6020821081036102de57634e487b7160e01b600052602260045260246000fd5b50919050565b601f82111561032e57806000526020600020601f840160051c8101602085101561030b5750805b601f840160051c820191505b8181101561032b5760008155600101610317565b50505b505050565b81516001600160401b0381111561034c5761034c610294565b6103608161035a84546102aa565b846102e4565b6020601f821160018114610394576000831561037c5750848201515b600019600385901b1c1916600184901b17845561032b565b600084815260208120601f198516915b828110156103c457878501518255602094850194600190920191016103a4565b50848210156103e25786840151600019600387901b60f8161c191681555b50505050600190811b01905550565b602081526000825180602084015260005b8181101561041f5760208186018101516040868401015201610402565b506000604082850101526040601f19601f83011684010191505092915050565b805160208083015191908110156102de5760001960209190910360031b1b16919050565b60805160a05160c05160e051610100516101205161129c6104ac60003960005050600050506000610afe01526000610ad601526000610a5c01526000610a85015261129c6000f3fe6080604052600436106100ab5760003560e01c8063985f61a111610064578063985f61a1146101a85780639db5dbe4146101c8578063a6bf8a0d146101e8578063ac3af20814610218578063d69c3d3014610238578063f2fde38b1461025c57600080fd5b806324ac7429146100b7578063715018a6146100d957806379502c55146100ee5780637d2e90c21461013657806380b2edd8146101565780638da5cb5b1461017657600080fd5b366100b257005b600080fd5b3480156100c357600080fd5b506100d76100d2366004610d85565b61027c565b005b3480156100e557600080fd5b506100d761042d565b3480156100fa57600080fd5b50600354600454610112916001600160a01b03169082565b604080516001600160a01b0390931683526020830191909152015b60405180910390f35b34801561014257600080fd5b506100d7610151366004610def565b610441565b34801561016257600080fd5b506100d7610171366004610e1b565b610538565b34801561018257600080fd5b506000546001600160a01b03165b6040516001600160a01b03909116815260200161012d565b3480156101b457600080fd5b506100d76101c3366004610e3f565b6105f0565b3480156101d457600080fd5b506100d76101e3366004610e81565b6106e6565b3480156101f457600080fd5b50610208610203366004610ec2565b61083e565b604051901515815260200161012d565b34801561022457600080fd5b50600654610190906001600160a01b031681565b34801561024457600080fd5b5061024e60055481565b60405190815260200161012d565b34801561026857600080fd5b506100d7610277366004610e1b565b6108ee565b60055483146102c25760405162461bcd60e51b815260206004820152600d60248201526c496e76616c6964206e6f6e636560981b60448201526064015b60405180910390fd5b604080517fad405fbca9318a89865a8f08877fd6b72e784b5dd62469794ea51ccadd89d4cb60208201526001600160a01b03871691810191909152606081018590526080810184905260009060a001604051602081830303815290604052805190602001209050600061033482610929565b905060006103788286868080601f01602080910402602001604051908101604052809392919081815260200183838082843760009201919091525061095c92505050565b905061038c6000546001600160a01b031690565b6001600160a01b0316816001600160a01b0316146103e05760405162461bcd60e51b8152602060048201526011602482015270496e76616c6964207369676e617475726560781b60448201526064016102b9565b604080518082019091526001600160a01b0389168082526020909101889052600380546001600160a01b031916909117905560048790558561042181610f19565b50505050505050505050565b610435610986565b61043f60006109b3565b565b610449610986565b804710156104905760405162461bcd60e51b8152602060048201526014602482015273496e73756666696369656e742062616c616e636560601b60448201526064016102b9565b6000826001600160a01b03168260405160006040518083038185875af1925050503d80600081146104dd576040519150601f19603f3d011682016040523d82523d6000602084013e6104e2565b606091505b50509050806105335760405162461bcd60e51b815260206004820152601c60248201527f4e617469766520746f6b656e207472616e73666572206661696c65640000000060448201526064016102b9565b505050565b60065460405163095ea7b360e01b81526001600160a01b03918216600482015260001960248201529082169063095ea7b3906044016020604051808303816000875af115801561058c573d6000803e3d6000fd5b505050506040513d601f19601f820116820180604052508101906105b09190610f40565b6105ed5760405162461bcd60e51b815260206004820152600e60248201526d105c1c1c9bdd994819985a5b195960921b60448201526064016102b9565b50565b60035461060990839083906001600160a01b031661083e565b61064c5760405162461bcd60e51b815260206004820152601460248201527324b73b30b634b21037baba383aba103a37b5b2b760611b60448201526064016102b9565b60065460405160009182916001600160a01b03909116906106709086908690610f62565b6000604051808303816000865af19150503d80600081146106ad576040519150601f19603f3d011682016040523d82523d6000602084013e6106b2565b606091505b5091509150816106c182610a03565b906106df5760405162461bcd60e51b81526004016102b99190610f96565b5050505050565b6106ee610986565b6001600160a01b0383166107345760405162461bcd60e51b815260206004820152600d60248201526c24b73b30b634b2103a37b5b2b760991b60448201526064016102b9565b6040516001600160a01b03838116602483015260448201839052600091829186169060640160408051601f198184030181529181526020820180516001600160e01b031663a9059cbb60e01b1790525161078e9190610fc9565b6000604051808303816000865af19150503d80600081146107cb576040519150601f19603f3d011682016040523d82523d6000602084013e6107d0565b606091505b50915091508180156107fa5750805115806107fa5750808060200190518101906107fa9190610f40565b6106df5760405162461bcd60e51b8152602060048201526015602482015274151bdad95b881d1c985b9cd9995c8819985a5b1959605a1b60448201526064016102b9565b600083356001600160e01b031981166307ed237960e01b146108935760405162461bcd60e51b815260206004820152600e60248201526d2bb937b7339039b2b632b1ba37b960911b60448201526064016102b9565b60006108a28560048189610fe5565b8101906108af91906110fd565b50915050836001600160a01b031681602001516001600160a01b03161480156108e4575060608101516001600160a01b031630145b9695505050505050565b6108f6610986565b6001600160a01b03811661092057604051631e4fbdf760e01b8152600060048201526024016102b9565b6105ed816109b3565b6000610956610936610a50565b8360405161190160f01b8152600281019290925260228201526042902090565b92915050565b60008060008061096c8686610b4e565b92509250925061097c8282610b9b565b5090949350505050565b6000546001600160a01b0316331461043f5760405163118cdaa760e01b81523360048201526024016102b9565b600080546001600160a01b038381166001600160a01b0319831681178455604051919092169283917f8be0079c531659141344cd1fd0a4f28419497f9722a3daafe3b4186f6b6457e09190a35050565b6060604482511015610a3657505060408051808201909152600b81526a10d85b1b0819985a5b195960aa1b602082015290565b6004820191508180602001905181019061095691906111d9565b60006001600160a01b037f0000000000000000000000000000000000000000000000000000000000000000163003610aa757507f000000000000000000000000000000000000000000000000000000000000000090565b610b49604080517f91ab3d17e3a50a9d89e63fd30b92be7f5336b03b287bb946787a83a9d62a276660208201527f0000000000000000000000000000000000000000000000000000000000000000918101919091527f0000000000000000000000000000000000000000000000000000000000000000606082015230608082015260009060a00160405160208183030381529060405280519060200120905090565b905090565b60008060008351604103610b885760208401516040850151606086015160001a610b7a88828585610c58565b955095509550505050610b94565b50508151600091506002905b9250925092565b6000826003811115610baf57610baf611250565b03610bb8575050565b6001826003811115610bcc57610bcc611250565b03610bea5760405163f645eedf60e01b815260040160405180910390fd5b6002826003811115610bfe57610bfe611250565b03610c1f5760405163fce698f760e01b8152600481018290526024016102b9565b6003826003811115610c3357610c33611250565b03610c54576040516335e2f38360e21b8152600481018290526024016102b9565b5050565b600080807f7fffffffffffffffffffffffffffffff5d576e7357a4501ddfe92f46681b20a0841115610c935750600091506003905082610d1d565b604080516000808252602082018084528a905260ff891692820192909252606081018790526080810186905260019060a0016020604051602081039080840390855afa158015610ce7573d6000803e3d6000fd5b5050604051601f1901519150506001600160a01b038116610d1357506000925060019150829050610d1d565b9250600091508190505b9450945094915050565b6001600160a01b03811681146105ed57600080fd5b60008083601f840112610d4e57600080fd5b50813567ffffffffffffffff811115610d6657600080fd5b602083019150836020828501011115610d7e57600080fd5b9250929050565b600080600080600060808688031215610d9d57600080fd5b8535610da881610d27565b94506020860135935060408601359250606086013567ffffffffffffffff811115610dd257600080fd5b610dde88828901610d3c565b969995985093965092949392505050565b60008060408385031215610e0257600080fd5b8235610e0d81610d27565b946020939093013593505050565b600060208284031215610e2d57600080fd5b8135610e3881610d27565b9392505050565b60008060208385031215610e5257600080fd5b823567ffffffffffffffff811115610e6957600080fd5b610e7585828601610d3c565b90969095509350505050565b600080600060608486031215610e9657600080fd5b8335610ea181610d27565b92506020840135610eb181610d27565b929592945050506040919091013590565b600080600060408486031215610ed757600080fd5b833567ffffffffffffffff811115610eee57600080fd5b610efa86828701610d3c565b9094509250506020840135610f0e81610d27565b809150509250925092565b600060018201610f3957634e487b7160e01b600052601160045260246000fd5b5060010190565b600060208284031215610f5257600080fd5b81518015158114610e3857600080fd5b8183823760009101908152919050565b60005b83811015610f8d578181015183820152602001610f75565b50506000910152565b6020815260008251806020840152610fb5816040850160208701610f72565b601f01601f19169190910160400192915050565b60008251610fdb818460208701610f72565b9190910192915050565b60008085851115610ff557600080fd5b8386111561100257600080fd5b5050820193919092039150565b634e487b7160e01b600052604160045260246000fd5b60405160e0810167ffffffffffffffff811182821017156110485761104861100f565b60405290565b604051601f8201601f1916810167ffffffffffffffff811182821017156110775761107761100f565b604052919050565b600067ffffffffffffffff8211156110995761109961100f565b50601f01601f191660200190565b600082601f8301126110b857600080fd5b81356110cb6110c68261107f565b61104e565b8181528460208386010111156110e057600080fd5b816020850160208301376000918101602001919091529392505050565b600080600083850361012081121561111457600080fd5b843561111f81610d27565b935060e0601f198201121561113357600080fd5b5061113c611025565b602085013561114a81610d27565b8152604085013561115a81610d27565b6020820152606085013561116d81610d27565b6040820152608085013561118081610d27565b606082015260a085810135608083015260c0808701359183019190915260e086013590820152915061010084013567ffffffffffffffff8111156111c357600080fd5b6111cf868287016110a7565b9150509250925092565b6000602082840312156111eb57600080fd5b815167ffffffffffffffff81111561120257600080fd5b8201601f8101841361121357600080fd5b80516112216110c68261107f565b81815285602083850101111561123657600080fd5b611247826020830160208601610f72565b95945050505050565b634e487b7160e01b600052602160045260246000fdfea2646970667358221220b7344211892e607ef3ca51562a5ec6a5f9c146d3c843d8c294087e3db165f4d564736f6c634300081c0033",
  "linkReferences": {},
  "deployedLinkReferences": {}
}