{
  "_format": "hh-sol-artifact-1",
  "contractName": "RomiSmartAccount",
  "sourceName": "contracts/romi/RomiSmartAccount.sol",
  "abi": [
    {
      "inputs": [
        {
          "internalType": "address",
          "name": "initialOwner",
          "type": "address"
        },
        {
          "internalType": "uint256",
          "name": "initialNextNonce",
          "type": "uint256"
        },
        {
          "internalType": "address",
          "name": "oneInchRouterAddress",
          "type": "address"
        }
      ],
      "stateMutability": "nonpayable",
      "type": "constructor"
    },
    {
      "inputs": [],
      "name": "ECDSAInvalidSignature",
      "type": "error"
    },
    {
      "inputs": [
        {
          "internalType": "uint256",
          "name": "length",
          "type": "uint256"
        }
      ],
      "name": "ECDSAInvalidSignatureLength",
      "type": "error"
    },
    {
      "inputs": [
        {
          "internalType": "bytes32",
          "name": "s",
          "type": "bytes32"
        }
      ],
      "name": "ECDSAInvalidSignatureS",
      "type": "error"
    },
    {
      "inputs": [
        {
          "internalType": "address",
          "name": "owner",
          "type": "address"
        }
      ],
      "name": "OwnableInvalidOwner",
      "type": "error"
    },
    {
      "inputs": [
        {
          "internalType": "address",
          "name": "account",
          "type": "address"
        }
      ],
      "name": "OwnableUnauthorizedAccount",
      "type": "error"
    },
    {
      "inputs": [
        {
          "internalType": "string",
          "name": "str",
          "type": "string"
        }
      ],
      "name": "StringTooLong",
      "type": "error"
    },
    {
      "anonymous": false,
      "inputs": [
        {
          "indexed": true,
          "internalType": "address",
          "name": "previousOwner",
          "type": "address"
        },
        {
          "indexed": true,
          "internalType": "address",
          "name": "newOwner",
          "type": "address"
        }
      ],
      "name": "OwnershipTransferred",
      "type": "event"
    },
    {
      "inputs": [
        {
          "internalType": "address",
          "name": "token",
          "type": "address"
        }
      ],
      "name": "approveToken",
      "outputs": [],
      "stateMutability": "nonpayable",
      "type": "function"
    },
    {
      "inputs": [],
      "name": "config",
      "outputs": [
        {
          "internalType": "address",
          "name": "token",
          "type": "address"
        },
        {
          "internalType": "uint256",
          "name": "chainId",
          "type": "uint256"
        }
      ],
      "stateMutability": "view",
      "type": "function"
    },
    {
      "inputs": [
        {
          "internalType": "bytes",
          "name": "data",
          "type": "bytes"
        }
      ],
      "name": "executeSwap",
      "outputs": [],
      "stateMutability": "nonpayable",
      "type": "function"
    },
    {
      "inputs": [],
      "name": "nextNonce",
      "outputs": [
        {
          "internalType": "uint256",
          "name": "",
          "type": "uint256"
        }
      ],
      "stateMutability": "view",
      "type": "function"
    },
    {
      "inputs": [],
      "name": "oneInchRouter",
      "outputs": [
        {
          "internalType": "address",
          "name": "",
          "type": "address"
        }
      ],
      "stateMutability": "view",
      "type": "function"
    },
    {
      "inputs": [],
      "name": "owner",
      "outputs": [
        {
          "internalType": "address",
          "name": "",
          "type": "address"
        }
      ],
      "stateMutability": "view",
      "type": "function"
    },
    {
      "inputs": [],
      "name": "renounceOwnership",
      "outputs": [],
      "stateMutability": "nonpayable",
      "type": "function"
    },
    {
      "inputs": [
        {
          "internalType": "address",
          "name": "token",
          "type": "address"
        },
        {
          "internalType": "address",
          "name": "to",
          "type": "address"
        },
        {
          "internalType": "uint256",
          "name": "amount",
          "type": "uint256"
        }
      ],
      "name": "transferERC20",
      "outputs": [],
      "stateMutability": "nonpayable",
      "type": "function"
    },
    {
      "inputs": [
        {
          "internalType": "address payable",
          "name": "to",
          "type": "address"
        },
        {
          "internalType": "uint256",
          "name": "amount",
          "type": "uint256"
        }
      ],
      "name": "transferNative",
      "outputs": [],
      "stateMutability": "nonpayable",
      "type": "function"
    },
    {
      "inputs": [
        {
          "internalType": "address",
          "name": "newOwner",
          "type": "address"
        }
      ],
      "name": "transferOwnership",
      "outputs": [],
      "stateMutability": "nonpayable",
      "type": "function"
    },
    {
      "inputs": [
        {
          "internalType": "address",
          "name": "token",
          "type": "address"
        },
        {
          "internalType": "uint256",
          "name": "chainId",
          "type": "uint256"
        },
        {
          "internalType": "uint256",
          "name": "nonce",
          "type": "uint256"
        },
        {
          "internalType": "bytes",
          "name": "signature",
          "type": "bytes"
        }
      ],
      "name": "updateConfigWithSig",
      "outputs": [],
      "stateMutability": "nonpayable",
      "type": "function"
    },
    {
      "stateMutability": "payable",
      "type": "receive"
    }
  ],
  "bytecode": "0x61014060405234801561001157600080fd5b5060405161154538038061154583398101604081905261003091610258565b6040805180820182526012815271149bdb5a4814db585c9d081058d8dbdd5b9d60721b602080830191909152825180840190935260018352603160f81b9083015290846001600160a01b0381166100a257604051631e4fbdf760e01b8152600060048201526024015b60405180910390fd5b6100ab8161017b565b506100b78260016101cb565b610100526100c68160026101cb565b61012052815160208084019190912060c05281519082012060e05261014760c05160e051604080517f91ab3d17e3a50a9d89e63fd30b92be7f5336b03b287bb946787a83a9d62a2766602082015290810192909252606082015230608082015260009060a00160405160208183030381529060405280519060200120905090565b60805250503060a052600591909155600680546001600160a01b0319166001600160a01b0390921691909117905550610463565b600080546001600160a01b038381166001600160a01b0319831681178455604051919092169283917f8be0079c531659141344cd1fd0a4f28419497f9722a3daafe3b4186f6b6457e09190a35050565b60006020835110156101e7576101e0836101fe565b90506101f8565b816101f28482610333565b5060ff90505b92915050565b600080829050601f81511115610229578260405163305a27a960e01b815260040161009991906103f1565b80516102348261043f565b179392505050565b80516001600160a01b038116811461025357600080fd5b919050565b60008060006060848603121561026d57600080fd5b6102768461023c565b92506020840151915061028b6040850161023c565b90509250925092565b634e487b7160e01b600052604160045260246000fd5b600181811c908216806102be57607f821691505b6020821081036102de57634e487b7160e01b600052602260045260246000fd5b50919050565b601f82111561032e57806000526020600020601f840160051c8101602085101561030b5750805b601f840160051c820191505b8181101561032b5760008155600101610317565b50505b505050565b81516001600160401b0381111561034c5761034c610294565b6103608161035a84546102aa565b846102e4565b6020601f821160018114610394576000831561037c5750848201515b600019600385901b1c1916600184901b17845561032b565b600084815260208120601f198516915b828110156103c457878501518255602094850194600190920191016103a4565b50848210156103e25786840151600019600387901b60f8161c191681555b50505050600190811b01905550565b602081526000825180602084015260005b8181101561041f5760208186018101516040868401015201610402565b506000604082850101526040601f19601f83011684010191505092915050565b805160208083015191908110156102de5760001960209190910360031b1b16919050565b60805160a05160c05160e05161010051610120516110996104ac60003960005050600050506000610a6501526000610a3d015260006109c3015260006109ec01526110996000f3fe6080604052600436106100a05760003560e01c80638da5cb5b116100645780638da5cb5b1461016b578063985f61a11461019d5780639db5dbe4146101bd578063ac3af208146101dd578063d69c3d30146101fd578063f2fde38b1461022157600080fd5b806324ac7429146100ac578063715018a6146100ce57806379502c55146100e35780637d2e90c21461012b57806380b2edd81461014b57600080fd5b366100a757005b600080fd5b3480156100b857600080fd5b506100cc6100c7366004610cec565b610241565b005b3480156100da57600080fd5b506100cc6103f2565b3480156100ef57600080fd5b50600354600454610107916001600160a01b03169082565b604080516001600160a01b0390931683526020830191909152015b60405180910390f35b34801561013757600080fd5b506100cc610146366004610d56565b610406565b34801561015757600080fd5b506100cc610166366004610d82565b6104fd565b34801561017757600080fd5b506000546001600160a01b03165b6040516001600160a01b039091168152602001610122565b3480156101a957600080fd5b506100cc6101b8366004610da6565b6105b5565b3480156101c957600080fd5b506100cc6101d8366004610de8565b6106ab565b3480156101e957600080fd5b50600654610185906001600160a01b031681565b34801561020957600080fd5b5061021360055481565b604051908152602001610122565b34801561022d57600080fd5b506100cc61023c366004610d82565b610803565b60055483146102875760405162461bcd60e51b815260206004820152600d60248201526c496e76616c6964206e6f6e636560981b60448201526064015b60405180910390fd5b604080517fad405fbca9318a89865a8f08877fd6b72e784b5dd62469794ea51ccadd89d4cb60208201526001600160a01b03871691810191909152606081018590526080810184905260009060a00160405160208183030381529060405280519060200120905060006102f98261083e565b9050600061033d8286868080601f01602080910402602001604051908101604052809392919081815260200183838082843760009201919091525061087192505050565b90506103516000546001600160a01b031690565b6001600160a01b0316816001600160a01b0316146103a55760405162461bcd60e51b8152602060048201526011602482015270496e76616c6964207369676e617475726560781b604482015260640161027e565b604080518082019091526001600160a01b0389168082526020909101889052600380546001600160a01b03191690911790556004879055856103e681610e3f565b50505050505050505050565b6103fa61089b565b61040460006108c8565b565b61040e61089b565b804710156104555760405162461bcd60e51b8152602060048201526014602482015273496e73756666696369656e742062616c616e636560601b604482015260640161027e565b6000826001600160a01b03168260405160006040518083038185875af1925050503d80600081146104a2576040519150601f19603f3d011682016040523d82523d6000602084013e6104a7565b606091505b50509050806104f85760405162461bcd60e51b815260206004820152601c60248201527f4e617469766520746f6b656e207472616e73666572206661696c656400000000604482015260640161027e565b505050565b60065460405163095ea7b360e01b81526001600160a01b03918216600482015260001960248201529082169063095ea7b3906044016020604051808303816000875af1158015610551573d6000803e3d6000fd5b505050506040513d601f19601f820116820180604052508101906105759190610e58565b6105b25760405162461bcd60e51b815260206004820152600e60248201526d105c1c1c9bdd994819985a5b195960921b604482015260640161027e565b50565b6003546105ce90839083906001600160a01b0316610918565b6106115760405162461bcd60e51b815260206004820152601460248201527324b73b30b634b21037baba383aba103a37b5b2b760611b604482015260640161027e565b60065460405160009182916001600160a01b03909116906106359086908690610e7a565b6000604051808303816000865af19150503d8060008114610672576040519150601f19603f3d011682016040523d82523d6000602084013e610677565b606091505b5091509150816106868261096a565b906106a45760405162461bcd60e51b815260040161027e9190610eae565b5050505050565b6106b361089b565b6001600160a01b0383166106f95760405162461bcd60e51b815260206004820152600d60248201526c24b73b30b634b2103a37b5b2b760991b604482015260640161027e565b6040516001600160a01b03838116602483015260448201839052600091829186169060640160408051601f198184030181529181526020820180516001600160e01b031663a9059cbb60e01b179052516107539190610ee1565b6000604051808303816000865af19150503d8060008114610790576040519150601f19603f3d011682016040523d82523d6000602084013e610795565b606091505b50915091508180156107bf5750805115806107bf5750808060200190518101906107bf9190610e58565b6106a45760405162461bcd60e51b8152602060048201526015602482015274151bdad95b881d1c985b9cd9995c8819985a5b1959605a1b604482015260640161027e565b61080b61089b565b6001600160a01b03811661083557604051631e4fbdf760e01b81526000600482015260240161027e565b6105b2816108c8565b600061086b61084b6109b7565b8360405161190160f01b8152600281019290925260228201526042902090565b92915050565b6000806000806108818686610ab5565b9250925092506108918282610b02565b5090949350505050565b6000546001600160a01b031633146104045760405163118cdaa760e01b815233600482015260240161027e565b600080546001600160a01b038381166001600160a01b0319831681178455604051919092169283917f8be0079c531659141344cd1fd0a4f28419497f9722a3daafe3b4186f6b6457e09190a35050565b60006014831080159061096257506001600160601b0319606083901b168484610942601482610efd565b61094d928290610f10565b61095691610f3a565b6001600160601b031916145b949350505050565b606060448251101561099d57505060408051808201909152600b81526a10d85b1b0819985a5b195960aa1b602082015290565b6004820191508180602001905181019061086b9190610f98565b60006001600160a01b037f0000000000000000000000000000000000000000000000000000000000000000163003610a0e57507f000000000000000000000000000000000000000000000000000000000000000090565b610ab0604080517f91ab3d17e3a50a9d89e63fd30b92be7f5336b03b287bb946787a83a9d62a276660208201527f0000000000000000000000000000000000000000000000000000000000000000918101919091527f0000000000000000000000000000000000000000000000000000000000000000606082015230608082015260009060a00160405160208183030381529060405280519060200120905090565b905090565b60008060008351604103610aef5760208401516040850151606086015160001a610ae188828585610bbf565b955095509550505050610afb565b50508151600091506002905b9250925092565b6000826003811115610b1657610b1661104d565b03610b1f575050565b6001826003811115610b3357610b3361104d565b03610b515760405163f645eedf60e01b815260040160405180910390fd5b6002826003811115610b6557610b6561104d565b03610b865760405163fce698f760e01b81526004810182905260240161027e565b6003826003811115610b9a57610b9a61104d565b03610bbb576040516335e2f38360e21b81526004810182905260240161027e565b5050565b600080807f7fffffffffffffffffffffffffffffff5d576e7357a4501ddfe92f46681b20a0841115610bfa5750600091506003905082610c84565b604080516000808252602082018084528a905260ff891692820192909252606081018790526080810186905260019060a0016020604051602081039080840390855afa158015610c4e573d6000803e3d6000fd5b5050604051601f1901519150506001600160a01b038116610c7a57506000925060019150829050610c84565b9250600091508190505b9450945094915050565b6001600160a01b03811681146105b257600080fd5b60008083601f840112610cb557600080fd5b50813567ffffffffffffffff811115610ccd57600080fd5b602083019150836020828501011115610ce557600080fd5b9250929050565b600080600080600060808688031215610d0457600080fd5b8535610d0f81610c8e565b94506020860135935060408601359250606086013567ffffffffffffffff811115610d3957600080fd5b610d4588828901610ca3565b969995985093965092949392505050565b60008060408385031215610d6957600080fd5b8235610d7481610c8e565b946020939093013593505050565b600060208284031215610d9457600080fd5b8135610d9f81610c8e565b9392505050565b60008060208385031215610db957600080fd5b823567ffffffffffffffff811115610dd057600080fd5b610ddc85828601610ca3565b90969095509350505050565b600080600060608486031215610dfd57600080fd5b8335610e0881610c8e565b92506020840135610e1881610c8e565b929592945050506040919091013590565b634e487b7160e01b600052601160045260246000fd5b600060018201610e5157610e51610e29565b5060010190565b600060208284031215610e6a57600080fd5b81518015158114610d9f57600080fd5b8183823760009101908152919050565b60005b83811015610ea5578181015183820152602001610e8d565b50506000910152565b6020815260008251806020840152610ecd816040850160208701610e8a565b601f01601f19169190910160400192915050565b60008251610ef3818460208701610e8a565b9190910192915050565b8181038181111561086b5761086b610e29565b60008085851115610f2057600080fd5b83861115610f2d57600080fd5b5050820193919092039150565b80356001600160601b03198116906014841015610f7b576bffffffffffffffffffffffff196bffffffffffffffffffffffff198560140360031b1b82161691505b5092915050565b634e487b7160e01b600052604160045260246000fd5b600060208284031215610faa57600080fd5b815167ffffffffffffffff811115610fc157600080fd5b8201601f81018413610fd257600080fd5b805167ffffffffffffffff811115610fec57610fec610f82565b604051601f8201601f19908116603f0116810167ffffffffffffffff8111828210171561101b5761101b610f82565b60405281815282820160200186101561103357600080fd5b611044826020830160208601610e8a565b95945050505050565b634e487b7160e01b600052602160045260246000fdfea2646970667358221220af03946c5726280db0495fd5f1a2ef7690bc018fc5459586697f615ebf74862d64736f6c634300081c0033",
  "linkReferences": {},
  "deployedLinkReferences": {}
}