{
  "_format": "hh-sol-artifact-1",
  "contractName": "RomiSmartAccount",
  "sourceName": "contracts/romi/RomiSmartAccount.sol",
  "abi": [
    {
      "inputs": [
        {
          "internalType": "address",
          "name": "initialOwner",
          "type": "address"
        },
        {
          "internalType": "uint256",
          "name": "initialNextNonce",
          "type": "uint256"
        }
      ],
      "stateMutability": "nonpayable",
      "type": "constructor"
    },
    {
      "inputs": [],
      "name": "ECDSAInvalidSignature",
      "type": "error"
    },
    {
      "inputs": [
        {
          "internalType": "uint256",
          "name": "length",
          "type": "uint256"
        }
      ],
      "name": "ECDSAInvalidSignatureLength",
      "type": "error"
    },
    {
      "inputs": [
        {
          "internalType": "bytes32",
          "name": "s",
          "type": "bytes32"
        }
      ],
      "name": "ECDSAInvalidSignatureS",
      "type": "error"
    },
    {
      "inputs": [
        {
          "internalType": "address",
          "name": "owner",
          "type": "address"
        }
      ],
      "name": "OwnableInvalidOwner",
      "type": "error"
    },
    {
      "inputs": [
        {
          "internalType": "address",
          "name": "account",
          "type": "address"
        }
      ],
      "name": "OwnableUnauthorizedAccount",
      "type": "error"
    },
    {
      "inputs": [
        {
          "internalType": "string",
          "name": "str",
          "type": "string"
        }
      ],
      "name": "StringTooLong",
      "type": "error"
    },
    {
      "anonymous": false,
      "inputs": [
        {
          "indexed": true,
          "internalType": "address",
          "name": "previousOwner",
          "type": "address"
        },
        {
          "indexed": true,
          "internalType": "address",
          "name": "newOwner",
          "type": "address"
        }
      ],
      "name": "OwnershipTransferred",
      "type": "event"
    },
    {
      "inputs": [],
      "name": "config",
      "outputs": [
        {
          "internalType": "address",
          "name": "token",
          "type": "address"
        },
        {
          "internalType": "uint256",
          "name": "chainId",
          "type": "uint256"
        }
      ],
      "stateMutability": "view",
      "type": "function"
    },
    {
      "inputs": [],
      "name": "nextNonce",
      "outputs": [
        {
          "internalType": "uint256",
          "name": "",
          "type": "uint256"
        }
      ],
      "stateMutability": "view",
      "type": "function"
    },
    {
      "inputs": [],
      "name": "owner",
      "outputs": [
        {
          "internalType": "address",
          "name": "",
          "type": "address"
        }
      ],
      "stateMutability": "view",
      "type": "function"
    },
    {
      "inputs": [],
      "name": "renounceOwnership",
      "outputs": [],
      "stateMutability": "nonpayable",
      "type": "function"
    },
    {
      "inputs": [
        {
          "internalType": "address",
          "name": "token",
          "type": "address"
        },
        {
          "internalType": "address",
          "name": "to",
          "type": "address"
        },
        {
          "internalType": "uint256",
          "name": "amount",
          "type": "uint256"
        }
      ],
      "name": "transferERC20",
      "outputs": [],
      "stateMutability": "nonpayable",
      "type": "function"
    },
    {
      "inputs": [
        {
          "internalType": "address payable",
          "name": "to",
          "type": "address"
        },
        {
          "internalType": "uint256",
          "name": "amount",
          "type": "uint256"
        }
      ],
      "name": "transferNative",
      "outputs": [],
      "stateMutability": "nonpayable",
      "type": "function"
    },
    {
      "inputs": [
        {
          "internalType": "address",
          "name": "newOwner",
          "type": "address"
        }
      ],
      "name": "transferOwnership",
      "outputs": [],
      "stateMutability": "nonpayable",
      "type": "function"
    },
    {
      "inputs": [
        {
          "internalType": "address",
          "name": "token",
          "type": "address"
        },
        {
          "internalType": "uint256",
          "name": "chainId",
          "type": "uint256"
        },
        {
          "internalType": "uint256",
          "name": "nonce",
          "type": "uint256"
        },
        {
          "internalType": "bytes",
          "name": "signature",
          "type": "bytes"
        }
      ],
      "name": "updateConfigWithSig",
      "outputs": [],
      "stateMutability": "nonpayable",
      "type": "function"
    },
    {
      "stateMutability": "payable",
      "type": "receive"
    }
  ],
  "bytecode": "0x61014060405234801561001157600080fd5b50604051611fc3380380611fc383398181016040528101906100339190610448565b6040518060400160405280601281526020017f526f6d6920536d617274204163636f756e7400000000000000000000000000008152506040518060400160405280600181526020017f310000000000000000000000000000000000000000000000000000000000000081525083600073ffffffffffffffffffffffffffffffffffffffff168173ffffffffffffffffffffffffffffffffffffffff16036101125760006040517f1e4fbdf70000000000000000000000000000000000000000000000000000000081526004016101099190610497565b60405180910390fd5b610121816101d160201b60201c565b5061013660018361029560201b90919060201c565b610100818152505061015260028261029560201b90919060201c565b6101208181525050818051906020012060c08181525050808051906020012060e081815250506101866102e560201b60201c565b608081815250503073ffffffffffffffffffffffffffffffffffffffff1660a08173ffffffffffffffffffffffffffffffffffffffff16815250505050806005819055505050610966565b60008060009054906101000a900473ffffffffffffffffffffffffffffffffffffffff169050816000806101000a81548173ffffffffffffffffffffffffffffffffffffffff021916908373ffffffffffffffffffffffffffffffffffffffff1602179055508173ffffffffffffffffffffffffffffffffffffffff168173ffffffffffffffffffffffffffffffffffffffff167f8be0079c531659141344cd1fd0a4f28419497f9722a3daafe3b4186f6b6457e060405160405180910390a35050565b60006020835110156102b7576102b08361033d60201b60201c565b90506102df565b826102c7836103a560201b60201c565b60000190816102d691906106f8565b5060ff60001b90505b92915050565b60007f91ab3d17e3a50a9d89e63fd30b92be7f5336b03b287bb946787a83a9d62a276660c05160e0513060405160200161032294939291906107e3565b60405160208183030381529060405280519060200120905090565b600080829050601f8151111561038a57826040517f305a27a900000000000000000000000000000000000000000000000000000000815260040161038191906108ad565b60405180910390fd5b805181610396906108ff565b60001c1760001b915050919050565b6000819050919050565b600080fd5b600073ffffffffffffffffffffffffffffffffffffffff82169050919050565b60006103df826103b4565b9050919050565b6103ef816103d4565b81146103fa57600080fd5b50565b60008151905061040c816103e6565b92915050565b6000819050919050565b61042581610412565b811461043057600080fd5b50565b6000815190506104428161041c565b92915050565b6000806040838503121561045f5761045e6103af565b5b600061046d858286016103fd565b925050602061047e85828601610433565b9150509250929050565b610491816103d4565b82525050565b60006020820190506104ac6000830184610488565b92915050565b600081519050919050565b7f4e487b7100000000000000000000000000000000000000000000000000000000600052604160045260246000fd5b7f4e487b7100000000000000000000000000000000000000000000000000000000600052602260045260246000fd5b6000600282049050600182168061053357607f821691505b602082108103610546576105456104ec565b5b50919050565b60008190508160005260206000209050919050565b60006020601f8301049050919050565b600082821b905092915050565b6000600883026105ae7fffffffffffffffffffffffffffffffffffffffffffffffffffffffffffffffff82610571565b6105b88683610571565b95508019841693508086168417925050509392505050565b6000819050919050565b60006105f56105f06105eb84610412565b6105d0565b610412565b9050919050565b6000819050919050565b61060f836105da565b61062361061b826105fc565b84845461057e565b825550505050565b600090565b61063861062b565b610643818484610606565b505050565b5b818110156106675761065c600082610630565b600181019050610649565b5050565b601f8211156106ac5761067d8161054c565b61068684610561565b81016020851015610695578190505b6106a96106a185610561565b830182610648565b50505b505050565b600082821c905092915050565b60006106cf600019846008026106b1565b1980831691505092915050565b60006106e883836106be565b9150826002028217905092915050565b610701826104b2565b67ffffffffffffffff81111561071a576107196104bd565b5b610724825461051b565b61072f82828561066b565b600060209050601f8311600181146107625760008415610750578287015190505b61075a85826106dc565b8655506107c2565b601f1984166107708661054c565b60005b8281101561079857848901518255600182019150602085019450602081019050610773565b868310156107b557848901516107b1601f8916826106be565b8355505b6001600288020188555050505b505050505050565b6000819050919050565b6107dd816107ca565b82525050565b60006080820190506107f860008301876107d4565b61080560208301866107d4565b61081260408301856107d4565b61081f6060830184610488565b95945050505050565b600082825260208201905092915050565b60005b8381101561085757808201518184015260208101905061083c565b60008484015250505050565b6000601f19601f8301169050919050565b600061087f826104b2565b6108898185610828565b9350610899818560208601610839565b6108a281610863565b840191505092915050565b600060208201905081810360008301526108c78184610874565b905092915050565b600081519050919050565b6000819050602082019050919050565b60006108f682516107ca565b80915050919050565b600061090a826108cf565b82610914846108da565b905061091f816108ea565b9250602082101561095f5761095a7fffffffffffffffffffffffffffffffffffffffffffffffffffffffffffffffff83602003600802610571565b831692505b5050919050565b60805160a05160c05160e05161010051610120516116146109af60003960005050600050506000610c1001526000610bef0152600061093a0152600061098d01526116146000f3fe60806040526004361061007f5760003560e01c80638da5cb5b1161004e5780638da5cb5b146101205780639db5dbe41461014b578063d69c3d3014610174578063f2fde38b1461019f57610086565b806324ac74291461008b578063715018a6146100b457806379502c55146100cb5780637d2e90c2146100f757610086565b3661008657005b600080fd5b34801561009757600080fd5b506100b260048036038101906100ad9190610e55565b6101c8565b005b3480156100c057600080fd5b506100c96103ca565b005b3480156100d757600080fd5b506100e06103de565b6040516100ee929190610efb565b60405180910390f35b34801561010357600080fd5b5061011e60048036038101906101199190610f62565b610410565b005b34801561012c57600080fd5b5061013561050c565b6040516101429190610fa2565b60405180910390f35b34801561015757600080fd5b50610172600480360381019061016d9190610fbd565b610535565b005b34801561018057600080fd5b50610189610719565b6040516101969190611010565b60405180910390f35b3480156101ab57600080fd5b506101c660048036038101906101c1919061102b565b61071f565b005b600554831461020c576040517f08c379a0000000000000000000000000000000000000000000000000000000008152600401610203906110b5565b60405180910390fd5b60007fad405fbca9318a89865a8f08877fd6b72e784b5dd62469794ea51ccadd89d4cb86868660405160200161024594939291906110ee565b6040516020818303038152906040528051906020012090506000610268826107a5565b905060006102ba8286868080601f016020809104026020016040519081016040528093929190818152602001838380828437600081840152601f19601f820116905080830192505050505050506107bf565b90506102c461050c565b73ffffffffffffffffffffffffffffffffffffffff168173ffffffffffffffffffffffffffffffffffffffff1614610331576040517f08c379a00000000000000000000000000000000000000000000000000000000081526004016103289061117f565b60405180910390fd5b60405180604001604052808973ffffffffffffffffffffffffffffffffffffffff16815260200188815250600360008201518160000160006101000a81548173ffffffffffffffffffffffffffffffffffffffff021916908373ffffffffffffffffffffffffffffffffffffffff1602179055506020820151816001015590505085806103bd906111ce565b9650505050505050505050565b6103d26107eb565b6103dc6000610872565b565b60038060000160009054906101000a900473ffffffffffffffffffffffffffffffffffffffff16908060010154905082565b6104186107eb565b8047101561045b576040517f08c379a000000000000000000000000000000000000000000000000000000000815260040161045290611262565b60405180910390fd5b60008273ffffffffffffffffffffffffffffffffffffffff1682604051610481906112b3565b60006040518083038185875af1925050503d80600081146104be576040519150601f19603f3d011682016040523d82523d6000602084013e6104c3565b606091505b5050905080610507576040517f08c379a00000000000000000000000000000000000000000000000000000000081526004016104fe90611314565b60405180910390fd5b505050565b60008060009054906101000a900473ffffffffffffffffffffffffffffffffffffffff16905090565b61053d6107eb565b600073ffffffffffffffffffffffffffffffffffffffff168373ffffffffffffffffffffffffffffffffffffffff16036105ac576040517f08c379a00000000000000000000000000000000000000000000000000000000081526004016105a390611380565b60405180910390fd5b6000808473ffffffffffffffffffffffffffffffffffffffff1684846040516024016105d9929190610efb565b6040516020818303038152906040527fa9059cbb000000000000000000000000000000000000000000000000000000007bffffffffffffffffffffffffffffffffffffffffffffffffffffffff19166020820180517bffffffffffffffffffffffffffffffffffffffffffffffffffffffff83818316178352505050506040516106639190611406565b6000604051808303816000865af19150503d80600081146106a0576040519150601f19603f3d011682016040523d82523d6000602084013e6106a5565b606091505b50915091508180156106d357506000815114806106d25750808060200190518101906106d19190611455565b5b5b610712576040517f08c379a0000000000000000000000000000000000000000000000000000000008152600401610709906114ce565b60405180910390fd5b5050505050565b60055481565b6107276107eb565b600073ffffffffffffffffffffffffffffffffffffffff168173ffffffffffffffffffffffffffffffffffffffff16036107995760006040517f1e4fbdf70000000000000000000000000000000000000000000000000000000081526004016107909190610fa2565b60405180910390fd5b6107a281610872565b50565b60006107b86107b2610936565b836109c1565b9050919050565b6000806000806107cf8686610a02565b9250925092506107df8282610a5e565b82935050505092915050565b6107f3610bc2565b73ffffffffffffffffffffffffffffffffffffffff1661081161050c565b73ffffffffffffffffffffffffffffffffffffffff161461087057610834610bc2565b6040517f118cdaa70000000000000000000000000000000000000000000000000000000081526004016108679190610fa2565b60405180910390fd5b565b60008060009054906101000a900473ffffffffffffffffffffffffffffffffffffffff169050816000806101000a81548173ffffffffffffffffffffffffffffffffffffffff021916908373ffffffffffffffffffffffffffffffffffffffff1602179055508173ffffffffffffffffffffffffffffffffffffffff168173ffffffffffffffffffffffffffffffffffffffff167f8be0079c531659141344cd1fd0a4f28419497f9722a3daafe3b4186f6b6457e060405160405180910390a35050565b60007f000000000000000000000000000000000000000000000000000000000000000073ffffffffffffffffffffffffffffffffffffffff163073ffffffffffffffffffffffffffffffffffffffff16036109b3577f000000000000000000000000000000000000000000000000000000000000000090506109be565b6109bb610bca565b90505b90565b60006040517f190100000000000000000000000000000000000000000000000000000000000081528360028201528260228201526042812091505092915050565b60008060006041845103610a475760008060006020870151925060408701519150606087015160001a9050610a3988828585610c5e565b955095509550505050610a57565b60006002855160001b9250925092505b9250925092565b60006003811115610a7257610a716114ee565b5b826003811115610a8557610a846114ee565b5b0315610bbe5760016003811115610a9f57610a9e6114ee565b5b826003811115610ab257610ab16114ee565b5b03610ae9576040517ff645eedf00000000000000000000000000000000000000000000000000000000815260040160405180910390fd5b60026003811115610afd57610afc6114ee565b5b826003811115610b1057610b0f6114ee565b5b03610b55578060001c6040517ffce698f7000000000000000000000000000000000000000000000000000000008152600401610b4c9190611010565b60405180910390fd5b600380811115610b6857610b676114ee565b5b826003811115610b7b57610b7a6114ee565b5b03610bbd57806040517fd78bce0c000000000000000000000000000000000000000000000000000000008152600401610bb4919061151d565b60405180910390fd5b5b5050565b600033905090565b60007f91ab3d17e3a50a9d89e63fd30b92be7f5336b03b287bb946787a83a9d62a27667f00000000000000000000000000000000000000000000000000000000000000007f000000000000000000000000000000000000000000000000000000000000000030604051602001610c439493929190611538565b60405160208183030381529060405280519060200120905090565b60008060007f7fffffffffffffffffffffffffffffff5d576e7357a4501ddfe92f46681b20a08460001c1115610c9e576000600385925092509250610d48565b600060018888888860405160008152602001604052604051610cc39493929190611599565b6020604051602081039080840390855afa158015610ce5573d6000803e3d6000fd5b505050602060405103519050600073ffffffffffffffffffffffffffffffffffffffff168173ffffffffffffffffffffffffffffffffffffffff1603610d3957600060016000801b93509350935050610d48565b8060008060001b935093509350505b9450945094915050565b600080fd5b600080fd5b600073ffffffffffffffffffffffffffffffffffffffff82169050919050565b6000610d8782610d5c565b9050919050565b610d9781610d7c565b8114610da257600080fd5b50565b600081359050610db481610d8e565b92915050565b6000819050919050565b610dcd81610dba565b8114610dd857600080fd5b50565b600081359050610dea81610dc4565b92915050565b600080fd5b600080fd5b600080fd5b60008083601f840112610e1557610e14610df0565b5b8235905067ffffffffffffffff811115610e3257610e31610df5565b5b602083019150836001820283011115610e4e57610e4d610dfa565b5b9250929050565b600080600080600060808688031215610e7157610e70610d52565b5b6000610e7f88828901610da5565b9550506020610e9088828901610ddb565b9450506040610ea188828901610ddb565b935050606086013567ffffffffffffffff811115610ec257610ec1610d57565b5b610ece88828901610dff565b92509250509295509295909350565b610ee681610d7c565b82525050565b610ef581610dba565b82525050565b6000604082019050610f106000830185610edd565b610f1d6020830184610eec565b9392505050565b6000610f2f82610d5c565b9050919050565b610f3f81610f24565b8114610f4a57600080fd5b50565b600081359050610f5c81610f36565b92915050565b60008060408385031215610f7957610f78610d52565b5b6000610f8785828601610f4d565b9250506020610f9885828601610ddb565b9150509250929050565b6000602082019050610fb76000830184610edd565b92915050565b600080600060608486031215610fd657610fd5610d52565b5b6000610fe486828701610da5565b9350506020610ff586828701610da5565b925050604061100686828701610ddb565b9150509250925092565b60006020820190506110256000830184610eec565b92915050565b60006020828403121561104157611040610d52565b5b600061104f84828501610da5565b91505092915050565b600082825260208201905092915050565b7f496e76616c6964206e6f6e636500000000000000000000000000000000000000600082015250565b600061109f600d83611058565b91506110aa82611069565b602082019050919050565b600060208201905081810360008301526110ce81611092565b9050919050565b6000819050919050565b6110e8816110d5565b82525050565b600060808201905061110360008301876110df565b6111106020830186610edd565b61111d6040830185610eec565b61112a6060830184610eec565b95945050505050565b7f496e76616c6964207369676e6174757265000000000000000000000000000000600082015250565b6000611169601183611058565b915061117482611133565b602082019050919050565b600060208201905081810360008301526111988161115c565b9050919050565b7f4e487b7100000000000000000000000000000000000000000000000000000000600052601160045260246000fd5b60006111d982610dba565b91507fffffffffffffffffffffffffffffffffffffffffffffffffffffffffffffffff820361120b5761120a61119f565b5b600182019050919050565b7f496e73756666696369656e742062616c616e6365000000000000000000000000600082015250565b600061124c601483611058565b915061125782611216565b602082019050919050565b6000602082019050818103600083015261127b8161123f565b9050919050565b600081905092915050565b50565b600061129d600083611282565b91506112a88261128d565b600082019050919050565b60006112be82611290565b9150819050919050565b7f4e617469766520746f6b656e207472616e73666572206661696c656400000000600082015250565b60006112fe601c83611058565b9150611309826112c8565b602082019050919050565b6000602082019050818103600083015261132d816112f1565b9050919050565b7f496e76616c696420746f6b656e00000000000000000000000000000000000000600082015250565b600061136a600d83611058565b915061137582611334565b602082019050919050565b600060208201905081810360008301526113998161135d565b9050919050565b600081519050919050565b60005b838110156113c95780820151818401526020810190506113ae565b60008484015250505050565b60006113e0826113a0565b6113ea8185611282565b93506113fa8185602086016113ab565b80840191505092915050565b600061141282846113d5565b915081905092915050565b60008115159050919050565b6114328161141d565b811461143d57600080fd5b50565b60008151905061144f81611429565b92915050565b60006020828403121561146b5761146a610d52565b5b600061147984828501611440565b91505092915050565b7f546f6b656e207472616e73666572206661696c65640000000000000000000000600082015250565b60006114b8601583611058565b91506114c382611482565b602082019050919050565b600060208201905081810360008301526114e7816114ab565b9050919050565b7f4e487b7100000000000000000000000000000000000000000000000000000000600052602160045260246000fd5b600060208201905061153260008301846110df565b92915050565b600060808201905061154d60008301876110df565b61155a60208301866110df565b61156760408301856110df565b6115746060830184610edd565b95945050505050565b600060ff82169050919050565b6115938161157d565b82525050565b60006080820190506115ae60008301876110df565b6115bb602083018661158a565b6115c860408301856110df565b6115d560608301846110df565b9594505050505056fea2646970667358221220a39fa4b8b4fc77ddb59ad21adff053854a12a811da21514be5ff1cee7cbfafcc64736f6c634300081c0033",
  "linkReferences": {},
  "deployedLinkReferences": {}
}