{
  "_format": "hh-sol-artifact-1",
  "contractName": "RomiSmartAccount",
  "sourceName": "contracts/romi/RomiSmartAccount.sol",
  "abi": [
    {
      "inputs": [
        {
          "internalType": "address",
          "name": "initialOwner",
          "type": "address"
        },
        {
          "internalType": "uint256",
          "name": "initialNextNonce",
          "type": "uint256"
        }
      ],
      "stateMutability": "nonpayable",
      "type": "constructor"
    },
    {
      "inputs": [],
      "name": "ECDSAInvalidSignature",
      "type": "error"
    },
    {
      "inputs": [
        {
          "internalType": "uint256",
          "name": "length",
          "type": "uint256"
        }
      ],
      "name": "ECDSAInvalidSignatureLength",
      "type": "error"
    },
    {
      "inputs": [
        {
          "internalType": "bytes32",
          "name": "s",
          "type": "bytes32"
        }
      ],
      "name": "ECDSAInvalidSignatureS",
      "type": "error"
    },
    {
      "inputs": [],
      "name": "InvalidShortString",
      "type": "error"
    },
    {
      "inputs": [
        {
          "internalType": "address",
          "name": "owner",
          "type": "address"
        }
      ],
      "name": "OwnableInvalidOwner",
      "type": "error"
    },
    {
      "inputs": [
        {
          "internalType": "address",
          "name": "account",
          "type": "address"
        }
      ],
      "name": "OwnableUnauthorizedAccount",
      "type": "error"
    },
    {
      "inputs": [
        {
          "internalType": "string",
          "name": "str",
          "type": "string"
        }
      ],
      "name": "StringTooLong",
      "type": "error"
    },
    {
      "anonymous": false,
      "inputs": [],
      "name": "EIP712DomainChanged",
      "type": "event"
    },
    {
      "anonymous": false,
      "inputs": [
        {
          "indexed": true,
          "internalType": "address",
          "name": "previousOwner",
          "type": "address"
        },
        {
          "indexed": true,
          "internalType": "address",
          "name": "newOwner",
          "type": "address"
        }
      ],
      "name": "OwnershipTransferred",
      "type": "event"
    },
    {
      "inputs": [],
      "name": "config",
      "outputs": [
        {
          "internalType": "address",
          "name": "token",
          "type": "address"
        },
        {
          "internalType": "uint256",
          "name": "chainId",
          "type": "uint256"
        }
      ],
      "stateMutability": "view",
      "type": "function"
    },
    {
      "inputs": [],
      "name": "eip712Domain",
      "outputs": [
        {
          "internalType": "bytes1",
          "name": "fields",
          "type": "bytes1"
        },
        {
          "internalType": "string",
          "name": "name",
          "type": "string"
        },
        {
          "internalType": "string",
          "name": "version",
          "type": "string"
        },
        {
          "internalType": "uint256",
          "name": "chainId",
          "type": "uint256"
        },
        {
          "internalType": "address",
          "name": "verifyingContract",
          "type": "address"
        },
        {
          "internalType": "bytes32",
          "name": "salt",
          "type": "bytes32"
        },
        {
          "internalType": "uint256[]",
          "name": "extensions",
          "type": "uint256[]"
        }
      ],
      "stateMutability": "view",
      "type": "function"
    },
    {
      "inputs": [],
      "name": "nextNonce",
      "outputs": [
        {
          "internalType": "uint256",
          "name": "",
          "type": "uint256"
        }
      ],
      "stateMutability": "view",
      "type": "function"
    },
    {
      "inputs": [],
      "name": "owner",
      "outputs": [
        {
          "internalType": "address",
          "name": "",
          "type": "address"
        }
      ],
      "stateMutability": "view",
      "type": "function"
    },
    {
      "inputs": [],
      "name": "renounceOwnership",
      "outputs": [],
      "stateMutability": "nonpayable",
      "type": "function"
    },
    {
      "inputs": [
        {
          "internalType": "address",
          "name": "token",
          "type": "address"
        },
        {
          "internalType": "address",
          "name": "to",
          "type": "address"
        },
        {
          "internalType": "uint256",
          "name": "amount",
          "type": "uint256"
        }
      ],
      "name": "transferERC20",
      "outputs": [],
      "stateMutability": "nonpayable",
      "type": "function"
    },
    {
      "inputs": [
        {
          "internalType": "address payable",
          "name": "to",
          "type": "address"
        },
        {
          "internalType": "uint256",
          "name": "amount",
          "type": "uint256"
        }
      ],
      "name": "transferNative",
      "outputs": [],
      "stateMutability": "nonpayable",
      "type": "function"
    },
    {
      "inputs": [
        {
          "internalType": "address",
          "name": "newOwner",
          "type": "address"
        }
      ],
      "name": "transferOwnership",
      "outputs": [],
      "stateMutability": "nonpayable",
      "type": "function"
    },
    {
      "inputs": [
        {
          "internalType": "address",
          "name": "token",
          "type": "address"
        },
        {
          "internalType": "uint256",
          "name": "chainId",
          "type": "uint256"
        },
        {
          "internalType": "uint256",
          "name": "nonce",
          "type": "uint256"
        },
        {
          "internalType": "bytes",
          "name": "signature",
          "type": "bytes"
        }
      ],
      "name": "updateConfigWithSig",
      "outputs": [],
      "stateMutability": "nonpayable",
      "type": "function"
    },
    {
      "stateMutability": "payable",
      "type": "receive"
    }
  ],
  "bytecode": "0x61014060405234801561001157600080fd5b506040516113333803806113338339810160408190526100309161021f565b6040805180820182526012815271149bdb5a4814db585c9d081058d8dbdd5b9d60721b602080830191909152825180840190935260018352603160f81b9083015290836001600160a01b0381166100a257604051631e4fbdf760e01b8152600060048201526024015b60405180910390fd5b6100ab8161015e565b506100b78260016101ae565b610100526100c68160026101ae565b61012052815160208084019190912060c05281519082012060e05261014c60c0805160e051604080517f91ab3d17e3a50a9d89e63fd30b92be7f5336b03b287bb946787a83a9d62a276660208201529081019290925260608201524660808201523060a08201526000910160405160208183030381529060405280519060200120905090565b60805250503060a05260055550610428565b600080546001600160a01b038381166001600160a01b0319831681178455604051919092169283917f8be0079c531659141344cd1fd0a4f28419497f9722a3daafe3b4186f6b6457e09190a35050565b60006020835110156101ca576101c3836101e1565b90506101db565b816101d584826102f8565b5060ff90505b92915050565b600080829050601f8151111561020c578260405163305a27a960e01b815260040161009991906103b6565b805161021782610404565b179392505050565b6000806040838503121561023257600080fd5b82516001600160a01b038116811461024957600080fd5b6020939093015192949293505050565b634e487b7160e01b600052604160045260246000fd5b600181811c9082168061028357607f821691505b6020821081036102a357634e487b7160e01b600052602260045260246000fd5b50919050565b601f8211156102f357806000526020600020601f840160051c810160208510156102d05750805b601f840160051c820191505b818110156102f057600081556001016102dc565b50505b505050565b81516001600160401b0381111561031157610311610259565b6103258161031f845461026f565b846102a9565b6020601f82116001811461035957600083156103415750848201515b600019600385901b1c1916600184901b1784556102f0565b600084815260208120601f198516915b828110156103895787850151825560209485019460019092019101610369565b50848210156103a75786840151600019600387901b60f8161c191681555b50505050600190811b01905550565b602081526000825180602084015260005b818110156103e457602081860181015160408684010152016103c7565b506000604082850101526040601f19601f83011684010191505092915050565b805160208083015191908110156102a35760001960209190910360031b1b16919050565b60805160a05160c05160e0516101005161012051610ebc610477600039600061079b015260006107690152600061086f01526000610847015260006107cd015260006107f60152610ebc6000f3fe60806040526004361061008a5760003560e01c806384b0196e1161005957806384b0196e146101355780638da5cb5b1461015d5780639db5dbe414610185578063d69c3d30146101a5578063f2fde38b146101c957600080fd5b806324ac742914610096578063715018a6146100b857806379502c55146100cd5780637d2e90c21461011557600080fd5b3661009157005b600080fd5b3480156100a257600080fd5b506100b66100b1366004610bc0565b6101e9565b005b3480156100c457600080fd5b506100b661039a565b3480156100d957600080fd5b506003546004546100f1916001600160a01b03169082565b604080516001600160a01b0390931683526020830191909152015b60405180910390f35b34801561012157600080fd5b506100b6610130366004610c58565b6103ae565b34801561014157600080fd5b5061014a6104a5565b60405161010c9796959493929190610cd4565b34801561016957600080fd5b506000546040516001600160a01b03909116815260200161010c565b34801561019157600080fd5b506100b66101a0366004610d6c565b6104eb565b3480156101b157600080fd5b506101bb60055481565b60405190815260200161010c565b3480156101d557600080fd5b506100b66101e4366004610dad565b61064a565b600554831461022f5760405162461bcd60e51b815260206004820152600d60248201526c496e76616c6964206e6f6e636560981b60448201526064015b60405180910390fd5b604080517fad405fbca9318a89865a8f08877fd6b72e784b5dd62469794ea51ccadd89d4cb60208201526001600160a01b03871691810191909152606081018590526080810184905260009060a00160405160208183030381529060405280519060200120905060006102a182610688565b905060006102e58286868080601f0160208091040260200160405190810160405280939291908181526020018383808284376000920191909152506106bb92505050565b90506102f96000546001600160a01b031690565b6001600160a01b0316816001600160a01b03161461034d5760405162461bcd60e51b8152602060048201526011602482015270496e76616c6964207369676e617475726560781b6044820152606401610226565b604080518082019091526001600160a01b0389168082526020909101889052600380546001600160a01b031916909117905560048790558561038e81610dd1565b50505050505050505050565b6103a26106e5565b6103ac6000610712565b565b6103b66106e5565b804710156103fd5760405162461bcd60e51b8152602060048201526014602482015273496e73756666696369656e742062616c616e636560601b6044820152606401610226565b6000826001600160a01b03168260405160006040518083038185875af1925050503d806000811461044a576040519150601f19603f3d011682016040523d82523d6000602084013e61044f565b606091505b50509050806104a05760405162461bcd60e51b815260206004820152601c60248201527f4e617469766520746f6b656e207472616e73666572206661696c6564000000006044820152606401610226565b505050565b6000606080600080600060606104b9610762565b6104c1610794565b60408051600080825260208201909252600f60f81b9b939a50919850469750309650945092509050565b6104f36106e5565b6001600160a01b0383166105395760405162461bcd60e51b815260206004820152600d60248201526c24b73b30b634b2103a37b5b2b760991b6044820152606401610226565b6040516001600160a01b03838116602483015260448201839052600091829186169060640160408051601f198184030181529181526020820180516001600160e01b031663a9059cbb60e01b179052516105939190610df8565b6000604051808303816000865af19150503d80600081146105d0576040519150601f19603f3d011682016040523d82523d6000602084013e6105d5565b606091505b50915091508180156105ff5750805115806105ff5750808060200190518101906105ff9190610e14565b6106435760405162461bcd60e51b8152602060048201526015602482015274151bdad95b881d1c985b9cd9995c8819985a5b1959605a1b6044820152606401610226565b5050505050565b6106526106e5565b6001600160a01b03811661067c57604051631e4fbdf760e01b815260006004820152602401610226565b61068581610712565b50565b60006106b56106956107c1565b8360405161190160f01b8152600281019290925260228201526042902090565b92915050565b6000806000806106cb86866108c0565b9250925092506106db828261090d565b5090949350505050565b6000546001600160a01b031633146103ac5760405163118cdaa760e01b8152336004820152602401610226565b600080546001600160a01b038381166001600160a01b0319831681178455604051919092169283917f8be0079c531659141344cd1fd0a4f28419497f9722a3daafe3b4186f6b6457e09190a35050565b606061078f7f000000000000000000000000000000000000000000000000000000000000000060016109ca565b905090565b606061078f7f000000000000000000000000000000000000000000000000000000000000000060026109ca565b60006001600160a01b037f000000000000000000000000000000000000000000000000000000000000000016300361081857507f000000000000000000000000000000000000000000000000000000000000000090565b61078f604080517f91ab3d17e3a50a9d89e63fd30b92be7f5336b03b287bb946787a83a9d62a276660208201527f0000000000000000000000000000000000000000000000000000000000000000918101919091527f000000000000000000000000000000000000000000000000000000000000000060608201524660808201523060a082015260009060c00160405160208183030381529060405280519060200120905090565b600080600083516041036108fa5760208401516040850151606086015160001a6108ec88828585610a75565b955095509550505050610906565b50508151600091506002905b9250925092565b600082600381111561092157610921610e36565b0361092a575050565b600182600381111561093e5761093e610e36565b0361095c5760405163f645eedf60e01b815260040160405180910390fd5b600282600381111561097057610970610e36565b036109915760405163fce698f760e01b815260048101829052602401610226565b60038260038111156109a5576109a5610e36565b036109c6576040516335e2f38360e21b815260048101829052602401610226565b5050565b606060ff83146109e4576109dd83610b44565b90506106b5565b8180546109f090610e4c565b80601f0160208091040260200160405190810160405280929190818152602001828054610a1c90610e4c565b8015610a695780601f10610a3e57610100808354040283529160200191610a69565b820191906000526020600020905b815481529060010190602001808311610a4c57829003601f168201915b505050505090506106b5565b600080807f7fffffffffffffffffffffffffffffff5d576e7357a4501ddfe92f46681b20a0841115610ab05750600091506003905082610b3a565b604080516000808252602082018084528a905260ff891692820192909252606081018790526080810186905260019060a0016020604051602081039080840390855afa158015610b04573d6000803e3d6000fd5b5050604051601f1901519150506001600160a01b038116610b3057506000925060019150829050610b3a565b9250600091508190505b9450945094915050565b60606000610b5183610b83565b604080516020808252818301909252919250600091906020820181803683375050509182525060208101929092525090565b600060ff8216601f8111156106b557604051632cd44ac360e21b815260040160405180910390fd5b6001600160a01b038116811461068557600080fd5b600080600080600060808688031215610bd857600080fd5b8535610be381610bab565b94506020860135935060408601359250606086013567ffffffffffffffff811115610c0d57600080fd5b8601601f81018813610c1e57600080fd5b803567ffffffffffffffff811115610c3557600080fd5b886020828401011115610c4757600080fd5b959894975092955050506020019190565b60008060408385031215610c6b57600080fd5b8235610c7681610bab565b946020939093013593505050565b60005b83811015610c9f578181015183820152602001610c87565b50506000910152565b60008151808452610cc0816020860160208601610c84565b601f01601f19169290920160200192915050565b60ff60f81b8816815260e060208201526000610cf360e0830189610ca8565b8281036040840152610d058189610ca8565b606084018890526001600160a01b038716608085015260a0840186905283810360c08501528451808252602080870193509091019060005b81811015610d5b578351835260209384019390920191600101610d3d565b50909b9a5050505050505050505050565b600080600060608486031215610d8157600080fd5b8335610d8c81610bab565b92506020840135610d9c81610bab565b929592945050506040919091013590565b600060208284031215610dbf57600080fd5b8135610dca81610bab565b9392505050565b600060018201610df157634e487b7160e01b600052601160045260246000fd5b5060010190565b60008251610e0a818460208701610c84565b9190910192915050565b600060208284031215610e2657600080fd5b81518015158114610dca57600080fd5b634e487b7160e01b600052602160045260246000fd5b600181811c90821680610e6057607f821691505b602082108103610e8057634e487b7160e01b600052602260045260246000fd5b5091905056fea264697066735822122092a0aa04989eca2a9b47b9ad2500be24eb9fc487c2bd5d26d48bf0ca44c02c0264736f6c634300081c0033",
  "linkReferences": {},
  "deployedLinkReferences": {}
}